{
    "contractName": "Storage",
    "abi": [
        {
            "inputs": [],
            "name": "HARVESTER",
            "outputs": [
                {
                    "internalType": "bytes32",
                    "name": "",
                    "type": "bytes32"
                }
            ],
            "stateMutability": "view",
            "type": "function"
        },
        {
            "inputs": [],
            "name": "beaconContract",
            "outputs": [
                {
                    "internalType": "address",
                    "name": "",
                    "type": "address"
                }
            ],
            "stateMutability": "view",
            "type": "function"
        },
        {
            "inputs": [],
            "name": "exchange",
            "outputs": [
                {
                    "internalType": "string",
                    "name": "",
                    "type": "string"
                }
            ],
            "stateMutability": "view",
            "type": "function"
        },
        {
            "inputs": [],
            "name": "holdBack",
            "outputs": [
                {
                    "internalType": "uint64",
                    "name": "",
                    "type": "uint64"
                }
            ],
            "stateMutability": "view",
            "type": "function"
        },
        {
            "inputs": [],
            "name": "lastGas",
            "outputs": [
                {
                    "internalType": "uint256",
                    "name": "",
                    "type": "uint256"
                }
            ],
            "stateMutability": "view",
            "type": "function"
        },
        {
            "inputs": [],
            "name": "logic_contract",
            "outputs": [
                {
                    "internalType": "address",
                    "name": "",
                    "type": "address"
                }
            ],
            "stateMutability": "view",
            "type": "function"
        },
        {
            "inputs": [],
            "name": "lpContract",
            "outputs": [
                {
                    "internalType": "address",
                    "name": "",
                    "type": "address"
                }
            ],
            "stateMutability": "view",
            "type": "function"
        },
        {
            "inputs": [],
            "name": "pendingCall",
            "outputs": [
                {
                    "internalType": "string",
                    "name": "",
                    "type": "string"
                }
            ],
            "stateMutability": "view",
            "type": "function"
        },
        {
            "inputs": [],
            "name": "poolId",
            "outputs": [
                {
                    "internalType": "uint64",
                    "name": "",
                    "type": "uint64"
                }
            ],
            "stateMutability": "view",
            "type": "function"
        },
        {
            "inputs": [
                {
                    "internalType": "uint256",
                    "name": "",
                    "type": "uint256"
                }
            ],
            "name": "slots",
            "outputs": [
                {
                    "internalType": "uint256",
                    "name": "poolId",
                    "type": "uint256"
                },
                {
                    "internalType": "string",
                    "name": "exchange",
                    "type": "string"
                }
            ],
            "stateMutability": "view",
            "type": "function"
        },
        {
            "inputs": [],
            "name": "token0",
            "outputs": [
                {
                    "internalType": "address",
                    "name": "",
                    "type": "address"
                }
            ],
            "stateMutability": "view",
            "type": "function"
        },
        {
            "inputs": [],
            "name": "token1",
            "outputs": [
                {
                    "internalType": "address",
                    "name": "",
                    "type": "address"
                }
            ],
            "stateMutability": "view",
            "type": "function"
        }
    ],
    "bytecode": "6080604052600b805461ffff60a01b1916905534801561001e57600080fd5b506104638061002e6000396000f3fe608060405234801561001057600080fd5b50600436106100b45760003560e01c8063cb9d9fa711610071578063cb9d9fa714610170578063d21220a7146101a5578063d2f7265a146101b8578063d91d20cb146101cd578063dc5d3a17146101d5578063f1ed7dc7146101de57600080fd5b80630dfe1681146100b9578063387dd9e9146100e95780633e0dc34e1461010a5780634de9432014610137578063650344511461014a5780638acee3cf1461015d575b600080fd5b600a546100cc906001600160a01b031681565b6040516001600160a01b0390911681526020015b60405180910390f35b6100fc6100f7366004610351565b6101fe565b6040516100e09291906103b7565b60005461011e9067ffffffffffffffff1681565b60405167ffffffffffffffff90911681526020016100e0565b6002546100cc906001600160a01b031681565b6007546100cc906001600160a01b031681565b6009546100cc906001600160a01b031681565b6101977f27e3e4d29d60af3ae6456513164bb5db737d6fc8610aa36ad458736c9efb884c81565b6040519081526020016100e0565b600b546100cc906001600160a01b031681565b6101c06102b6565b6040516100e091906103d8565b6101c0610344565b61019760015481565b60005461011e9068010000000000000000900467ffffffffffffffff1681565b600e818154811061020e57600080fd5b60009182526020909120600290910201805460018201805491935090610233906103f2565b80601f016020809104026020016040519081016040528092919081815260200182805461025f906103f2565b80156102ac5780601f10610281576101008083540402835291602001916102ac565b820191906000526020600020905b81548152906001019060200180831161028f57829003601f168201915b5050505050905082565b600c80546102c3906103f2565b80601f01602080910402602001604051908101604052809291908181526020018280546102ef906103f2565b801561033c5780601f106103115761010080835404028352916020019161033c565b820191906000526020600020905b81548152906001019060200180831161031f57829003601f168201915b505050505081565b600d80546102c3906103f2565b60006020828403121561036357600080fd5b5035919050565b6000815180845260005b8181101561039057602081850181015186830182015201610374565b818111156103a2576000602083870101525b50601f01601f19169290920160200192915050565b8281526040602082015260006103d0604083018461036a565b949350505050565b6020815260006103eb602083018461036a565b9392505050565b600181811c9082168061040657607f821691505b6020821081141561042757634e487b7160e01b600052602260045260246000fd5b5091905056fea264697066735822122050b5eba412328c23ed44334f6043d8b54665be093f29c424a252d4dc2e8468b164736f6c634300080b0033",
    "sourcePath": "/mnt/src/crypto/combine_sol/contracts/Storage.sol",
    "compiler": {
        "name": "solc",
        "version": "0.8.11+commit.d7f03943"
    },
    "functionHashes": {
        "HARVESTER()": "cb9d9fa7",
        "beaconContract()": "65034451",
        "exchange()": "d2f7265a",
        "holdBack()": "f1ed7dc7",
        "lastGas()": "dc5d3a17",
        "logic_contract()": "4de94320",
        "lpContract()": "8acee3cf",
        "pendingCall()": "d91d20cb",
        "poolId()": "3e0dc34e",
        "slots(uint256)": "387dd9e9",
        "token0()": "0dfe1681",
        "token1()": "d21220a7"
    },
    "gasEstimates": {
        "creation": {
            "codeDepositCost": "224600",
            "executionCost": "24493",
            "totalCost": "249093"
        },
        "external": {
            "HARVESTER()": "195",
            "beaconContract()": "2415",
            "exchange()": "infinite",
            "holdBack()": "2434",
            "lastGas()": "2383",
            "logic_contract()": "2393",
            "lpContract()": "2437",
            "pendingCall()": "infinite",
            "poolId()": "2358",
            "slots(uint256)": "infinite",
            "token0()": "2327",
            "token1()": "2348"
        }
    }
}