{
  "contractName": "combine_beacon",
  "abi": [
    {
      "anonymous": false,
      "inputs": [
        {
          "indexed": true,
          "internalType": "address",
          "name": "previousOwner",
          "type": "address"
        },
        {
          "indexed": true,
          "internalType": "address",
          "name": "newOwner",
          "type": "address"
        }
      ],
      "name": "OwnershipTransferred",
      "type": "event"
    },
    {
      "anonymous": false,
      "inputs": [
        {
          "indexed": false,
          "internalType": "string",
          "name": "_name",
          "type": "string"
        },
        {
          "indexed": false,
          "internalType": "address",
          "name": "_address",
          "type": "address"
        }
      ],
      "name": "sdAddressSet",
      "type": "event"
    },
    {
      "anonymous": false,
      "inputs": [
        {
          "indexed": false,
          "internalType": "string",
          "name": "_key",
          "type": "string"
        },
        {
          "indexed": false,
          "internalType": "uint256",
          "name": "_value",
          "type": "uint256"
        }
      ],
      "name": "sdDataUintSet",
      "type": "event"
    },
    {
      "anonymous": false,
      "inputs": [
        {
          "indexed": false,
          "internalType": "address",
          "name": "_user",
          "type": "address"
        },
        {
          "indexed": false,
          "internalType": "uint256",
          "name": "_discount",
          "type": "uint256"
        },
        {
          "indexed": false,
          "internalType": "uint256",
          "name": "_expires",
          "type": "uint256"
        }
      ],
      "name": "sdDiscountSet",
      "type": "event"
    },
    {
      "anonymous": false,
      "inputs": [
        {
          "indexed": false,
          "internalType": "uint256",
          "name": "_count",
          "type": "uint256"
        }
      ],
      "name": "sdDiscountsSet",
      "type": "event"
    },
    {
      "anonymous": false,
      "inputs": [
        {
          "indexed": false,
          "internalType": "string",
          "name": "_name",
          "type": "string"
        },
        {
          "indexed": false,
          "internalType": "address",
          "name": "_chefContract",
          "type": "address"
        },
        {
          "indexed": false,
          "internalType": "address",
          "name": "_routerContract",
          "type": "address"
        },
        {
          "indexed": false,
          "internalType": "bool",
          "name": "_psV2",
          "type": "bool"
        },
        {
          "indexed": false,
          "internalType": "address",
          "name": "_rewardToken",
          "type": "address"
        },
        {
          "indexed": false,
          "internalType": "string",
          "name": "_pendingCall",
          "type": "string"
        },
        {
          "indexed": false,
          "internalType": "address",
          "name": "_intermediateToken",
          "type": "address"
        },
        {
          "indexed": false,
          "internalType": "address",
          "name": "_baseToken",
          "type": "address"
        },
        {
          "indexed": false,
          "internalType": "string",
          "name": "_contractType_solo",
          "type": "string"
        },
        {
          "indexed": false,
          "internalType": "string",
          "name": "_contractType_pooled",
          "type": "string"
        }
      ],
      "name": "sdEexchangeInfoSet",
      "type": "event"
    },
    {
      "anonymous": false,
      "inputs": [
        {
          "indexed": false,
          "internalType": "string",
          "name": "_exchange",
          "type": "string"
        },
        {
          "indexed": false,
          "internalType": "address",
          "name": "_replacement_logic_contract",
          "type": "address"
        },
        {
          "indexed": false,
          "internalType": "uint256",
          "name": "_start",
          "type": "uint256"
        }
      ],
      "name": "sdExchangeSet",
      "type": "event"
    },
    {
      "anonymous": false,
      "inputs": [
        {
          "indexed": false,
          "internalType": "string",
          "name": "_exchange",
          "type": "string"
        },
        {
          "indexed": false,
          "internalType": "string",
          "name": "_function",
          "type": "string"
        },
        {
          "indexed": false,
          "internalType": "uint256",
          "name": "_amount",
          "type": "uint256"
        },
        {
          "indexed": false,
          "internalType": "uint256",
          "name": "_time",
          "type": "uint256"
        },
        {
          "indexed": false,
          "internalType": "uint256",
          "name": "_current",
          "type": "uint256"
        }
      ],
      "name": "sdFeeSet",
      "type": "event"
    },
    {
      "inputs": [
        {
          "internalType": "string",
          "name": "",
          "type": "string"
        }
      ],
      "name": "mData",
      "outputs": [
        {
          "internalType": "address",
          "name": "",
          "type": "address"
        }
      ],
      "stateMutability": "view",
      "type": "function"
    },
    {
      "inputs": [
        {
          "internalType": "string",
          "name": "",
          "type": "string"
        }
      ],
      "name": "mDataUint",
      "outputs": [
        {
          "internalType": "uint256",
          "name": "",
          "type": "uint256"
        }
      ],
      "stateMutability": "view",
      "type": "function"
    },
    {
      "inputs": [
        {
          "internalType": "address",
          "name": "",
          "type": "address"
        }
      ],
      "name": "mDiscounts",
      "outputs": [
        {
          "internalType": "uint256",
          "name": "discount_amount",
          "type": "uint256"
        },
        {
          "internalType": "uint256",
          "name": "expires",
          "type": "uint256"
        }
      ],
      "stateMutability": "view",
      "type": "function"
    },
    {
      "inputs": [
        {
          "internalType": "string",
          "name": "",
          "type": "string"
        }
      ],
      "name": "mExchangeInfo",
      "outputs": [
        {
          "internalType": "address",
          "name": "chefContract",
          "type": "address"
        },
        {
          "internalType": "address",
          "name": "routerContract",
          "type": "address"
        },
        {
          "internalType": "address",
          "name": "rewardToken",
          "type": "address"
        },
        {
          "internalType": "address",
          "name": "intermediateToken",
          "type": "address"
        },
        {
          "internalType": "address",
          "name": "baseToken",
          "type": "address"
        },
        {
          "internalType": "string",
          "name": "pendingCall",
          "type": "string"
        },
        {
          "internalType": "string",
          "name": "contractType_solo",
          "type": "string"
        },
        {
          "internalType": "string",
          "name": "contractType_pooled",
          "type": "string"
        },
        {
          "internalType": "bool",
          "name": "psV2",
          "type": "bool"
        }
      ],
      "stateMutability": "view",
      "type": "function"
    },
    {
      "inputs": [
        {
          "internalType": "string",
          "name": "",
          "type": "string"
        }
      ],
      "name": "mExchanges",
      "outputs": [
        {
          "internalType": "address",
          "name": "current_logic_contract",
          "type": "address"
        },
        {
          "internalType": "address",
          "name": "replacement_logic_contract",
          "type": "address"
        },
        {
          "internalType": "uint256",
          "name": "start",
          "type": "uint256"
        }
      ],
      "stateMutability": "view",
      "type": "function"
    },
    {
      "inputs": [
        {
          "internalType": "string",
          "name": "",
          "type": "string"
        },
        {
          "internalType": "string",
          "name": "",
          "type": "string"
        }
      ],
      "name": "mFee",
      "outputs": [
        {
          "internalType": "uint256",
          "name": "current_amount",
          "type": "uint256"
        },
        {
          "internalType": "uint256",
          "name": "replacement_amount",
          "type": "uint256"
        },
        {
          "internalType": "uint256",
          "name": "start",
          "type": "uint256"
        }
      ],
      "stateMutability": "view",
      "type": "function"
    },
    {
      "inputs": [],
      "name": "owner",
      "outputs": [
        {
          "internalType": "address",
          "name": "",
          "type": "address"
        }
      ],
      "stateMutability": "view",
      "type": "function"
    },
    {
      "inputs": [],
      "name": "renounceOwnership",
      "outputs": [],
      "stateMutability": "nonpayable",
      "type": "function"
    },
    {
      "inputs": [
        {
          "internalType": "address",
          "name": "newOwner",
          "type": "address"
        }
      ],
      "name": "transferOwnership",
      "outputs": [],
      "stateMutability": "nonpayable",
      "type": "function"
    },
    {
      "inputs": [
        {
          "internalType": "string",
          "name": "_exchange",
          "type": "string"
        },
        {
          "internalType": "string",
          "name": "_type",
          "type": "string"
        }
      ],
      "name": "getFee",
      "outputs": [
        {
          "internalType": "uint256",
          "name": "",
          "type": "uint256"
        },
        {
          "internalType": "uint256",
          "name": "",
          "type": "uint256"
        }
      ],
      "stateMutability": "view",
      "type": "function"
    },
    {
      "inputs": [
        {
          "internalType": "string",
          "name": "_exchange",
          "type": "string"
        },
        {
          "internalType": "string",
          "name": "_type",
          "type": "string"
        },
        {
          "internalType": "address",
          "name": "_user",
          "type": "address"
        }
      ],
      "name": "getFee",
      "outputs": [
        {
          "internalType": "uint256",
          "name": "",
          "type": "uint256"
        },
        {
          "internalType": "uint256",
          "name": "",
          "type": "uint256"
        }
      ],
      "stateMutability": "view",
      "type": "function"
    },
    {
      "inputs": [
        {
          "internalType": "string",
          "name": "_exchange",
          "type": "string"
        },
        {
          "internalType": "string",
          "name": "_type",
          "type": "string"
        }
      ],
      "name": "getConst",
      "outputs": [
        {
          "internalType": "uint256",
          "name": "",
          "type": "uint256"
        }
      ],
      "stateMutability": "view",
      "type": "function"
    },
    {
      "inputs": [
        {
          "internalType": "address",
          "name": "_user",
          "type": "address"
        },
        {
          "internalType": "uint256",
          "name": "_amount",
          "type": "uint256"
        },
        {
          "internalType": "uint256",
          "name": "_expires",
          "type": "uint256"
        }
      ],
      "name": "setDiscount",
      "outputs": [],
      "stateMutability": "nonpayable",
      "type": "function"
    },
    {
      "inputs": [
        {
          "components": [
            {
              "internalType": "address",
              "name": "_user",
              "type": "address"
            },
            {
              "internalType": "uint256",
              "name": "_discount",
              "type": "uint256"
            },
            {
              "internalType": "uint256",
              "name": "_expires",
              "type": "uint256"
            }
          ],
          "internalType": "struct combine_beacon.aDiscount[]",
          "name": "_discount",
          "type": "tuple[]"
        }
      ],
      "name": "setDiscountArray",
      "outputs": [],
      "stateMutability": "nonpayable",
      "type": "function"
    },
    {
      "inputs": [
        {
          "internalType": "address",
          "name": "_user",
          "type": "address"
        }
      ],
      "name": "getDiscount",
      "outputs": [
        {
          "internalType": "uint256",
          "name": "",
          "type": "uint256"
        },
        {
          "internalType": "uint256",
          "name": "",
          "type": "uint256"
        }
      ],
      "stateMutability": "view",
      "type": "function"
    },
    {
      "inputs": [
        {
          "internalType": "string",
          "name": "_exchange",
          "type": "string"
        },
        {
          "internalType": "string",
          "name": "_type",
          "type": "string"
        },
        {
          "internalType": "uint256",
          "name": "_replacement_amount",
          "type": "uint256"
        },
        {
          "internalType": "uint256",
          "name": "_start",
          "type": "uint256"
        }
      ],
      "name": "setFee",
      "outputs": [],
      "stateMutability": "nonpayable",
      "type": "function"
    },
    {
      "inputs": [
        {
          "internalType": "string",
          "name": "_exchange",
          "type": "string"
        }
      ],
      "name": "getExchange",
      "outputs": [
        {
          "internalType": "address",
          "name": "",
          "type": "address"
        }
      ],
      "stateMutability": "view",
      "type": "function"
    },
    {
      "inputs": [
        {
          "internalType": "string",
          "name": "_exchange",
          "type": "string"
        },
        {
          "internalType": "address",
          "name": "_replacement_logic_contract",
          "type": "address"
        },
        {
          "internalType": "uint256",
          "name": "_start",
          "type": "uint256"
        }
      ],
      "name": "setExchange",
      "outputs": [],
      "stateMutability": "nonpayable",
      "type": "function"
    },
    {
      "inputs": [
        {
          "internalType": "string",
          "name": "_name",
          "type": "string"
        },
        {
          "internalType": "address",
          "name": "_chefContract",
          "type": "address"
        },
        {
          "internalType": "address",
          "name": "_routerContract",
          "type": "address"
        },
        {
          "internalType": "bool",
          "name": "_psV2",
          "type": "bool"
        },
        {
          "internalType": "address",
          "name": "_rewardToken",
          "type": "address"
        },
        {
          "internalType": "string",
          "name": "_pendingCall",
          "type": "string"
        },
        {
          "internalType": "address",
          "name": "_intermediateToken",
          "type": "address"
        },
        {
          "internalType": "address",
          "name": "_baseToken",
          "type": "address"
        },
        {
          "internalType": "string",
          "name": "_contractType_solo",
          "type": "string"
        },
        {
          "internalType": "string",
          "name": "_contractType_pooled",
          "type": "string"
        }
      ],
      "name": "setExchangeInfo",
      "outputs": [],
      "stateMutability": "nonpayable",
      "type": "function"
    },
    {
      "inputs": [
        {
          "internalType": "string",
          "name": "_name",
          "type": "string"
        }
      ],
      "name": "getExchangeInfo",
      "outputs": [
        {
          "components": [
            {
              "internalType": "address",
              "name": "chefContract",
              "type": "address"
            },
            {
              "internalType": "address",
              "name": "routerContract",
              "type": "address"
            },
            {
              "internalType": "address",
              "name": "rewardToken",
              "type": "address"
            },
            {
              "internalType": "address",
              "name": "intermediateToken",
              "type": "address"
            },
            {
              "internalType": "address",
              "name": "baseToken",
              "type": "address"
            },
            {
              "internalType": "string",
              "name": "pendingCall",
              "type": "string"
            },
            {
              "internalType": "string",
              "name": "contractType_solo",
              "type": "string"
            },
            {
              "internalType": "string",
              "name": "contractType_pooled",
              "type": "string"
            },
            {
              "internalType": "bool",
              "name": "psV2",
              "type": "bool"
            }
          ],
          "internalType": "struct combine_beacon.sExchangeInfo",
          "name": "",
          "type": "tuple"
        }
      ],
      "stateMutability": "view",
      "type": "function"
    },
    {
      "inputs": [
        {
          "internalType": "string",
          "name": "_name",
          "type": "string"
        },
        {
          "internalType": "uint256",
          "name": "_type",
          "type": "uint256"
        }
      ],
      "name": "getContractType",
      "outputs": [
        {
          "internalType": "string",
          "name": "_contract",
          "type": "string"
        }
      ],
      "stateMutability": "view",
      "type": "function"
    },
    {
      "inputs": [
        {
          "internalType": "string",
          "name": "_key",
          "type": "string"
        },
        {
          "internalType": "address",
          "name": "_value",
          "type": "address"
        }
      ],
      "name": "setAddress",
      "outputs": [],
      "stateMutability": "nonpayable",
      "type": "function"
    },
    {
      "inputs": [
        {
          "internalType": "string",
          "name": "_key",
          "type": "string"
        }
      ],
      "name": "getAddress",
      "outputs": [
        {
          "internalType": "address",
          "name": "",
          "type": "address"
        }
      ],
      "stateMutability": "view",
      "type": "function"
    },
    {
      "inputs": [
        {
          "internalType": "string",
          "name": "_key",
          "type": "string"
        }
      ],
      "name": "getDataUint",
      "outputs": [
        {
          "internalType": "uint256",
          "name": "",
          "type": "uint256"
        }
      ],
      "stateMutability": "view",
      "type": "function"
    },
    {
      "inputs": [
        {
          "internalType": "string",
          "name": "_key",
          "type": "string"
        },
        {
          "internalType": "uint256",
          "name": "_value",
          "type": "uint256"
        }
      ],
      "name": "setDataUint",
      "outputs": [],
      "stateMutability": "nonpayable",
      "type": "function"
    }
  ],
  "bytecode": "0x608060405234801561001057600080fd5b5061001a3361001f565b61006f565b600080546001600160a01b038381166001600160a01b0319831681178455604051919092169283917f8be0079c531659141344cd1fd0a4f28419497f9722a3daafe3b4186f6b6457e09190a35050565b6128738061007e6000396000f3fe608060405234801561001057600080fd5b50600436106101735760003560e01c80639b2ea4bd116100de578063c42465e311610097578063db1e420211610071578063db1e420214610492578063ddbd9977146104a5578063f2fde38b146104cc578063ff4b2032146104df57600080fd5b8063c42465e314610437578063c4db839514610457578063d95ad3711461047f57600080fd5b80639b2ea4bd146103a4578063a2724de7146103b7578063a375e723146103eb578063b466360c146103fe578063beb324ca14610411578063bf40fac11461042457600080fd5b806360495b061161013057806360495b06146102b35780636da9ebeb146102c6578063715018a61461033957806384ab0911146103415780638da5cb5b1461035457806391a14c561461037957600080fd5b806306f2791a146101785780630cec42a4146101d85780631e212ee71461024a5780631fb204e01461025f5780632884714b1461027f5780633db9495314610292575b600080fd5b6101be610186366004611ec3565b6001600160a01b0316600090815260036020908152604091829020825180840190935280548084526001909101549290910182905291565b604080519283526020830191909152015b60405180910390f35b6102246101e6366004611f88565b805180820160209081018051600280835293830192909401919091209290528154600183015492909101546001600160a01b03918216929091169083565b604080516001600160a01b039485168152939092166020840152908201526060016101cf565b61025d610258366004611fbd565b6104f2565b005b61027261026d366004611fbd565b6105cc565b6040516101cf919061205e565b61025d61028d366004612071565b6106ad565b6102a56102a0366004611f88565b6108f4565b6040519081526020016101cf565b61025d6102c13660046120e5565b61091c565b61031e6102d436600461213c565b815160208184018101805160018083529383019583019590952094905282518084018201805195815290820193909101929092209290915281549082015460029092015490919083565b604080519384526020840192909252908201526060016101cf565b61025d610b5c565b61025d61034f3660046121a0565b610b92565b6000546001600160a01b03165b6040516001600160a01b0390911681526020016101cf565b6102a5610387366004611f88565b805160208183018101805160068252928201919093012091525481565b61025d6103b2366004612215565b610c72565b6103616103c5366004611f88565b80516020818301810180516005825292820191909301209152546001600160a01b031681565b61025d6103f9366004612273565b610da1565b61025d61040c366004612386565b61128b565b6101be61041f36600461213c565b611411565b610361610432366004611f88565b611521565b61044a610445366004611f88565b611552565b6040516101cf91906123b9565b61046a610465366004611f88565b6117d4565b6040516101cf999897969594939291906124a9565b6102a561048d36600461213c565b6119dc565b6101be6104a0366004612530565b611ae1565b6101be6104b3366004611ec3565b6003602052600090815260409020805460019091015482565b61025d6104da366004611ec3565b611ca8565b6103616104ed366004611f88565b611d43565b6000546001600160a01b031633146105255760405162461bcd60e51b815260040161051c906125a4565b60405180910390fd5b600082511161056c5760405162461bcd60e51b81526020600482015260136024820152724b65792063616e6e6f7420626520656d70747960681b604482015260640161051c565b8060068360405161057d91906125d9565b9081526020016040518091039020819055507f4378027bf6db7bd6358449f0a8db32d5555d0e629081b8b6c535f917205acf8682826040516105c09291906125f5565b60405180910390a15050565b606081156105fa576004836040516105e491906125d9565b908152602001604051809103902060070161061c565b60048360405161060a91906125d9565b90815260200160405180910390206006015b805461062790612617565b80601f016020809104026020016040519081016040528092919081815260200182805461065390612617565b80156106a05780601f10610675576101008083540402835291602001916106a0565b820191906000526020600020905b81548152906001019060200180831161068357829003601f168201915b5050505050905092915050565b6000546001600160a01b031633146106d75760405162461bcd60e51b815260040161051c906125a4565b60006001856040516106e991906125d9565b90815260200160405180910390208460405161070591906125d9565b90815260408051918290036020908101832060608401835280548452600181015491840191909152600201549082015290506212750082101561074f5761074c8242612667565b91505b6040810151158015906107655750428160400151105b156107e55760018560405161077a91906125d9565b90815260200160405180910390208460405161079691906125d9565b9081526020016040518091039020600101546001866040516107b891906125d9565b9081526020016040518091039020856040516107d491906125d9565b908152604051908190036020019020555b816001866040516107f691906125d9565b90815260200160405180910390208560405161081291906125d9565b9081526020016040518091039020600201819055508260018660405161083891906125d9565b90815260200160405180910390208560405161085491906125d9565b9081526040519081900360200190206001015580516000036108ae578260018660405161088191906125d9565b90815260200160405180910390208560405161089d91906125d9565b908152604051908190036020019020555b7f55e92804e43f8e0a36c8742b703cb19d8a3916eb3507b20b6a63fb8c5fa0414f85858585426040516108e595949392919061267f565b60405180910390a15050505050565b600060068260405161090691906125d9565b9081526020016040518091039020549050919050565b6000546001600160a01b031633146109465760405162461bcd60e51b815260040161051c906125a4565b600060028460405161095891906125d9565b90815260408051918290036020908101832060608401835280546001600160a01b0390811685526001820154169184019190915260020154908201529050621275008210156109ae576109ab8242612667565b91505b6040810151158015906109c5575042816040015111155b15610a35576002846040516109da91906125d9565b908152604051908190036020018120600101546001600160a01b031690600290610a059087906125d9565b90815260405190819003602001902080546001600160a01b03929092166001600160a01b03199092169190911790555b81600285604051610a4691906125d9565b90815260200160405180910390206002018190555082600285604051610a6c91906125d9565b90815260405190819003602001812060010180546001600160a01b03939093166001600160a01b031990931692909217909155600090600290610ab09087906125d9565b908152604051908190036020019020546001600160a01b03161480610ad55750428211155b15610b1b5782600285604051610aeb91906125d9565b90815260405190819003602001902080546001600160a01b03929092166001600160a01b03199092169190911790555b7f9768fde922be6b0697c9f1580bf9fc21990275af7056d533b1359ea3be7ed8c1848484604051610b4e939291906126c2565b60405180910390a150505050565b6000546001600160a01b03163314610b865760405162461bcd60e51b815260040161051c906125a4565b610b906000611dbe565b565b6000546001600160a01b03163314610bbc5760405162461bcd60e51b815260040161051c906125a4565b60005b81811015610c4157610c2f838383818110610bdc57610bdc6126f0565b610bf29260206060909202019081019150611ec3565b848484818110610c0457610c046126f0565b90506060020160200135858585818110610c2057610c206126f0565b9050606002016040013561128b565b80610c3981612706565b915050610bbf565b506040518181527f3eb7fd5c7ac8f5e9145e2e9cd3646c6b71c51ff4926e747fe141e76cf7e3c778906020016105c0565b6000546001600160a01b03163314610c9c5760405162461bcd60e51b815260040161051c906125a4565b6000825111610ce35760405162461bcd60e51b81526020600482015260136024820152724b65792063616e6e6f7420626520656d70747960681b604482015260640161051c565b6001600160a01b038116610d315760405162461bcd60e51b815260206004820152601560248201527456616c75652063616e6e6f7420626520656d70747960581b604482015260640161051c565b80600583604051610d4291906125d9565b90815260405190819003602001812080546001600160a01b03939093166001600160a01b0319909316929092179091557fee1a6454429e2b0ae74101d9c99673efb6d9a8afddcb21056871a83dcb1cb569906105c0908490849061271f565b6000546001600160a01b03163314610dcb5760405162461bcd60e51b815260040161051c906125a4565b60008a5111610e135760405162461bcd60e51b81526020600482015260146024820152734e616d652063616e6e6f7420626520656d70747960601b604482015260640161051c565b6001600160a01b038916610e695760405162461bcd60e51b815260206004820152601d60248201527f4368656620636f6e74726163742063616e6e6f7420626520656d707479000000604482015260640161051c565b6001600160a01b038816610ebf5760405162461bcd60e51b815260206004820152601e60248201527f526f75746520636f6e74726163742063616e6e6f7420626520656d7074790000604482015260640161051c565b6001600160a01b038616610f155760405162461bcd60e51b815260206004820152601c60248201527f52657761726420746f6b656e2063616e6e6f7420626520656d70747900000000604482015260640161051c565b6000855111610f665760405162461bcd60e51b815260206004820152601c60248201527f50656e64696e672063616c6c2063616e6e6f7420626520656d70747900000000604482015260640161051c565b6000825111610fb75760405162461bcd60e51b815260206004820152601d60248201527f436f6e747261637420747970652063616e6e6f7420626520656d707479000000604482015260640161051c565b60008151116110085760405162461bcd60e51b815260206004820152601d60248201527f436f6e747261637420747970652063616e6e6f7420626520656d707479000000604482015260640161051c565b8860048b60405161101991906125d9565b90815260405190819003602001812080546001600160a01b03939093166001600160a01b0319909316929092179091558890600490611059908d906125d9565b908152602001604051809103902060010160006101000a8154816001600160a01b0302191690836001600160a01b031602179055508660048b60405161109f91906125d9565b908152604051908190036020018120600801805492151560ff199093169290921790915586906004906110d3908d906125d9565b908152602001604051809103902060020160006101000a8154816001600160a01b0302191690836001600160a01b031602179055508460048b60405161111991906125d9565b9081526020016040518091039020600501908051906020019061113d929190611e0e565b508360048b60405161114f91906125d9565b908152602001604051809103902060030160006101000a8154816001600160a01b0302191690836001600160a01b031602179055508260048b60405161119591906125d9565b908152602001604051809103902060040160006101000a8154816001600160a01b0302191690836001600160a01b031602179055508160048b6040516111db91906125d9565b908152602001604051809103902060060190805190602001906111ff929190611e0e565b508060048b60405161121191906125d9565b90815260200160405180910390206007019080519060200190611235929190611e0e565b507f348bf07e3d54ebcad5be90f2455724dc8a833df9cb12665917fb54dd10a1da728a8a8a8a8a8a8a8a8a8a6040516112779a99989796959493929190612749565b60405180910390a150505050505050505050565b6000546001600160a01b031633146112b55760405162461bcd60e51b815260040161051c906125a4565b68056bc75e2d631000008211156113035760405162461bcd60e51b815260206004820152601260248201527143616e6e6f7420657863656564203130302560701b604482015260640161051c565b6001600160a01b0383166000908152600360205260409020829055801580159061133057506301e1338081105b156113425761133f8142612667565b90505b6001600160a01b0383166000908152600360205260409081902060010182905580516b131054d5111254d0d3d5539560a21b81526006600c820152905190819003602c0190205442146113c2574260066040516113b1906b131054d5111254d0d3d5539560a21b8152600c0190565b908152604051908190036020019020555b604080516001600160a01b0385168152602081018490529081018290527f3b780e28fe34da40d28792f1505aa01594268a890ebf510872c8117644258c229060600160405180910390a1505050565b600080600060018560405161142691906125d9565b90815260200160405180910390208460405161144291906125d9565b90815260408051602092819003830181206060820183528054825260018101549382018490526002015491810191909152915015801561148157508051155b156114e85760408051661111519055531560ca1b8152600160078201529051908190036027018120906114b59086906125d9565b90815260408051918290036020908101832060608401835280548452600181015491840191909152600201549082015290505b60008160400151600014158015611503575042826040015111155b61150e578151611514565b81602001515b9660009650945050505050565b600060058260405161153391906125d9565b908152604051908190036020019020546001600160a01b031692915050565b604080516101208101825260008082526020820181905281830181905260608083018290526080830182905260a0830181905260c0830181905260e083015261010082015290516004906115a79084906125d9565b9081526040805191829003602090810183206101208401835280546001600160a01b03908116855260018201548116928501929092526002810154821692840192909252600382015481166060840152600482015416608083015260058101805460a08401919061161790612617565b80601f016020809104026020016040519081016040528092919081815260200182805461164390612617565b80156116905780601f1061166557610100808354040283529160200191611690565b820191906000526020600020905b81548152906001019060200180831161167357829003601f168201915b505050505081526020016006820180546116a990612617565b80601f01602080910402602001604051908101604052809291908181526020018280546116d590612617565b80156117225780601f106116f757610100808354040283529160200191611722565b820191906000526020600020905b81548152906001019060200180831161170557829003601f168201915b5050505050815260200160078201805461173b90612617565b80601f016020809104026020016040519081016040528092919081815260200182805461176790612617565b80156117b45780601f10611789576101008083540402835291602001916117b4565b820191906000526020600020905b81548152906001019060200180831161179757829003601f168201915b50505091835250506008919091015460ff16151560209091015292915050565b805180820160209081018051600480835293830192909401919091209290528154600183015460028401546003850154938501546005860180546001600160a01b0395861697948616969386169593841694929093169261183490612617565b80601f016020809104026020016040519081016040528092919081815260200182805461186090612617565b80156118ad5780601f10611882576101008083540402835291602001916118ad565b820191906000526020600020905b81548152906001019060200180831161189057829003601f168201915b5050505050908060060180546118c290612617565b80601f01602080910402602001604051908101604052809291908181526020018280546118ee90612617565b801561193b5780601f106119105761010080835404028352916020019161193b565b820191906000526020600020905b81548152906001019060200180831161191e57829003601f168201915b50505050509080600701805461195090612617565b80601f016020809104026020016040519081016040528092919081815260200182805461197c90612617565b80156119c95780601f1061199e576101008083540402835291602001916119c9565b820191906000526020600020905b8154815290600101906020018083116119ac57829003601f168201915b5050506008909301549192505060ff1689565b6000806001846040516119ef91906125d9565b908152602001604051809103902083604051611a0b91906125d9565b908152604080516020928190038301812060608201835280548252600181015493820184905260020154918101919091529150158015611a4a57508051155b15611ab15760408051661111519055531560ca1b815260016007820152905190819003602701812090611a7e9085906125d9565b90815260408051918290036020908101832060608401835280548452600181015491840191909152600201549082015290505b604081015115801590611ac8575042816040015111155b611ad3578051611ad9565b80602001515b949350505050565b600080600080600187604051611af791906125d9565b908152602001604051809103902086604051611b1391906125d9565b90815260408051918290036020908101832060608401835280548452600180820154858401908152600290920154858501526001600160a01b038a166000908152600384528490208451808601909552805485520154918301919091525191925090158015611b8157508151155b15611be85760408051661111519055531560ca1b815260016007820152905190819003602701812090611bb59089906125d9565b90815260408051918290036020908101832060608401835280548452600181015491840191909152600201549082015291505b60008260400151600014158015611c03575042836040015111155b611c0e578251611c14565b82602001515b90506000808360000151118015611c3a57504283602001511180611c3a57506020830151155b611c45576001611c48565b60005b90508015611c595760009450611c99565b8251670de0b6b3a764000090611c71906064906127e5565b611c7b9084612807565b611c8591906127e5565b611c8f9083612826565b9150826020015194505b50989297509195505050505050565b6000546001600160a01b03163314611cd25760405162461bcd60e51b815260040161051c906125a4565b6001600160a01b038116611d375760405162461bcd60e51b815260206004820152602660248201527f4f776e61626c653a206e6577206f776e657220697320746865207a65726f206160448201526564647265737360d01b606482015260840161051c565b611d4081611dbe565b50565b600080600283604051611d5691906125d9565b90815260408051918290036020908101832060608401835280546001600160a01b039081168552600182015416918401919091526002015490820181905290915015801590611da85750428160400151105b15611db7576020015192915050565b5192915050565b600080546001600160a01b038381166001600160a01b0319831681178455604051919092169283917f8be0079c531659141344cd1fd0a4f28419497f9722a3daafe3b4186f6b6457e09190a35050565b828054611e1a90612617565b90600052602060002090601f016020900481019282611e3c5760008555611e82565b82601f10611e5557805160ff1916838001178555611e82565b82800160010185558215611e82579182015b82811115611e82578251825591602001919060010190611e67565b50611e8e929150611e92565b5090565b5b80821115611e8e5760008155600101611e93565b80356001600160a01b0381168114611ebe57600080fd5b919050565b600060208284031215611ed557600080fd5b611ede82611ea7565b9392505050565b634e487b7160e01b600052604160045260246000fd5b600082601f830112611f0c57600080fd5b813567ffffffffffffffff80821115611f2757611f27611ee5565b604051601f8301601f19908116603f01168101908282118183101715611f4f57611f4f611ee5565b81604052838152866020858801011115611f6857600080fd5b836020870160208301376000602085830101528094505050505092915050565b600060208284031215611f9a57600080fd5b813567ffffffffffffffff811115611fb157600080fd5b611ad984828501611efb565b60008060408385031215611fd057600080fd5b823567ffffffffffffffff811115611fe757600080fd5b611ff385828601611efb565b95602094909401359450505050565b60005b8381101561201d578181015183820152602001612005565b8381111561202c576000848401525b50505050565b6000815180845261204a816020860160208601612002565b601f01601f19169290920160200192915050565b602081526000611ede6020830184612032565b6000806000806080858703121561208757600080fd5b843567ffffffffffffffff8082111561209f57600080fd5b6120ab88838901611efb565b955060208701359150808211156120c157600080fd5b506120ce87828801611efb565b949794965050505060408301359260600135919050565b6000806000606084860312156120fa57600080fd5b833567ffffffffffffffff81111561211157600080fd5b61211d86828701611efb565b93505061212c60208501611ea7565b9150604084013590509250925092565b6000806040838503121561214f57600080fd5b823567ffffffffffffffff8082111561216757600080fd5b61217386838701611efb565b9350602085013591508082111561218957600080fd5b5061219685828601611efb565b9150509250929050565b600080602083850312156121b357600080fd5b823567ffffffffffffffff808211156121cb57600080fd5b818501915085601f8301126121df57600080fd5b8135818111156121ee57600080fd5b86602060608302850101111561220357600080fd5b60209290920196919550909350505050565b6000806040838503121561222857600080fd5b823567ffffffffffffffff81111561223f57600080fd5b61224b85828601611efb565b92505061225a60208401611ea7565b90509250929050565b80358015158114611ebe57600080fd5b6000806000806000806000806000806101408b8d03121561229357600080fd5b8a3567ffffffffffffffff808211156122ab57600080fd5b6122b78e838f01611efb565b9b506122c560208e01611ea7565b9a506122d360408e01611ea7565b99506122e160608e01612263565b98506122ef60808e01611ea7565b975060a08d013591508082111561230557600080fd5b6123118e838f01611efb565b965061231f60c08e01611ea7565b955061232d60e08e01611ea7565b94506101008d013591508082111561234457600080fd5b6123508e838f01611efb565b93506101208d013591508082111561236757600080fd5b506123748d828e01611efb565b9150509295989b9194979a5092959850565b60008060006060848603121561239b57600080fd5b6123a484611ea7565b95602085013595506040909401359392505050565b602081526123d36020820183516001600160a01b03169052565b600060208301516123ef60408401826001600160a01b03169052565b5060408301516001600160a01b03811660608401525060608301516001600160a01b03811660808401525060808301516001600160a01b03811660a08401525060a08301516101208060c085015261244b610140850183612032565b915060c0850151601f19808685030160e08701526124698483612032565b935060e087015191506101008187860301818801526124888584612032565b9450808801519250505061249f8286018215159052565b5090949350505050565b6001600160a01b038a811682528981166020830152888116604083015287811660608301528616608082015261012060a082018190526000906124ee83820188612032565b905082810360c08401526125028187612032565b905082810360e08401526125168186612032565b9150508215156101008301529a9950505050505050505050565b60008060006060848603121561254557600080fd5b833567ffffffffffffffff8082111561255d57600080fd5b61256987838801611efb565b9450602086013591508082111561257f57600080fd5b5061258c86828701611efb565b92505061259b60408501611ea7565b90509250925092565b6020808252818101527f4f776e61626c653a2063616c6c6572206973206e6f7420746865206f776e6572604082015260600190565b600082516125eb818460208701612002565b9190910192915050565b6040815260006126086040830185612032565b90508260208301529392505050565b600181811c9082168061262b57607f821691505b60208210810361264b57634e487b7160e01b600052602260045260246000fd5b50919050565b634e487b7160e01b600052601160045260246000fd5b6000821982111561267a5761267a612651565b500190565b60a08152600061269260a0830188612032565b82810360208401526126a48188612032565b60408401969096525050606081019290925260809091015292915050565b6060815260006126d56060830186612032565b6001600160a01b039490941660208301525060400152919050565b634e487b7160e01b600052603260045260246000fd5b60006001820161271857612718612651565b5060010190565b6040815260006127326040830185612032565b905060018060a01b03831660208301529392505050565b600061014080835261275d8184018e612032565b6001600160a01b038d811660208601528c811660408601528b151560608601528a8116608086015284820360a086015290915061279a828a612032565b88821660c086015290871660e085015283810361010085015290506127bf8186612032565b90508281036101208401526127d48185612032565b9d9c50505050505050505050505050565b60008261280257634e487b7160e01b600052601260045260246000fd5b500490565b600081600019048311821515161561282157612821612651565b500290565b60008282101561283857612838612651565b50039056fea26469706673582212209f32d180c150d9a733f2b313d283dc84b3891c31a09b9ac0aef25b7dbeec72e964736f6c634300080d0033",
  "immutableReferences": {},
  "source": "//SPDX-License-Identifier: UNLICENSED\npragma solidity ^0.8.7;\npragma experimental ABIEncoderV2;\nimport \"@openzeppelin/contracts/access/Ownable.sol\";\n\ncontract combine_beacon is Ownable {\n    struct sFee {\n        uint current_amount;\n        uint replacement_amount;\n        uint256 start;\n    }\n\n    struct sExchange {\n        address current_logic_contract;\n        address replacement_logic_contract;\n        uint256 start;\n    }\n    struct aDiscount {\n        address _user;\n        uint _discount;\n        uint _expires;\n    }\n    struct sDiscount {\n        uint discount_amount;\n        uint expires;\n    }\n\n    struct sExchangeInfo {\n        address chefContract;\n        address routerContract;\n        address rewardToken;\n        address intermediateToken;\n        address baseToken;\n        string pendingCall;\n        string contractType_solo;\n        string contractType_pooled;\n        bool psV2;\n    }\n\n    mapping (string => mapping(string => sFee)) public mFee;\n    mapping (string => sExchange) public mExchanges;\n    mapping (address => sDiscount) public mDiscounts;\n    mapping (string => sExchangeInfo) public mExchangeInfo;\n    mapping (string => address) public mData;\n    mapping (string => uint) public mDataUint;\n\n    bool bitFlip;\n\n    event sdFeeSet(string _exchange, string _function, uint _amount, uint256 _time, uint256 _current);\n    event sdDiscountSet(address _user, uint _discount, uint _expires);\n    event sdDiscountsSet(uint _count);\n    event sdExchangeSet(string  _exchange, address _replacement_logic_contract, uint256 _start);\n    event sdEexchangeInfoSet(string _name, address _chefContract, address _routerContract, bool _psV2, address _rewardToken, string _pendingCall,address _intermediateToken, address _baseToken, string _contractType_solo, string _contractType_pooled);\n    event sdAddressSet(string _name, address _address);\n    event sdDataUintSet(string _key, uint _value);\n\n    ///@notice Calculate fee with discount from user\n    ///@param _exchange Exchange name\n    ///@param _type Type of fee\n    ///@param _user User address\n    ///@return amount - amount of the fee\n    ///@return expires - unix timestamp when the discount expires\n\n    function getFee(string memory _exchange, string memory _type, address _user) external view returns (uint,uint) {\n        uint expires;\n\n        sFee memory rv = mFee[_exchange][_type];\n        sDiscount memory disc = mDiscounts[_user];\n        if (rv.replacement_amount == 0 && rv.current_amount == 0) {\n            rv = mFee['DEFAULT'][_type];\n        }\n\n        uint amount =  (rv.start != 0 && rv.start <= block.timestamp) ? rv.replacement_amount : rv.current_amount;   // \n        bool expired = (disc.discount_amount > 0 && (disc.expires > block.timestamp || disc.expires == 0)) ? false : true;\n\n        if (expired) {            \n            expires = 0;\n        }\n        else {\n            amount = amount - (amount *(disc.discount_amount/100) / (10**18)); \n            expires = disc.expires;\n        }\n\n        return (amount,expires);\n    }\n    ///@notice Calculate fee without discount from user\n    ///@param _exchange Exchange name\n    ///@param _type Type of fee\n    ///@return amount - amount of the fee\n    ///@return expires - unix timestamp when the discount expires\n    function getFee(string memory _exchange, string memory _type) external view returns (uint,uint) {\n        sFee memory rv = mFee[_exchange][_type];\n        if (rv.replacement_amount == 0 && rv.current_amount == 0) {\n            rv = mFee['DEFAULT'][_type];\n        }\n        uint amount =  (rv.start != 0 && rv.start <= block.timestamp) ? rv.replacement_amount : rv.current_amount;\n        return (amount,0); \n    }\n\n\n    ///@notice get a constant setting and check for new value baed on timestamp\n    ///@param _exchange Exchange name\n    ///@param _type Name of constant\n    ///@return value of constant\n\n    function getConst(string memory _exchange, string memory _type) external view returns (uint) {\n        sFee memory rv = mFee[_exchange][_type];\n        if (rv.replacement_amount == 0 && rv.current_amount == 0) {\n            rv = mFee['DEFAULT'][_type];\n        }\n        return (rv.start != 0 && rv.start <= block.timestamp) ? rv.replacement_amount : rv.current_amount;\n    }\n\n    ///@notice Accept a user and discount from the admin only\n    ///@param _user User address\n    ///@param _amount Discount amount\n    ///@param _expires Unix timestamp when the discount expires\n    function setDiscount(address _user, uint _amount, uint _expires) public onlyOwner {\n        require(_amount <= 100 ether,\"Cannot exceed 100%\");\n        mDiscounts[_user].discount_amount = _amount;\n        if (_expires > 0 && _expires < 31536000) {\n            _expires = block.timestamp + _expires;\n        }\n        mDiscounts[_user].expires = _expires;\n        if (mDataUint[\"LASTDISCOUNT\"] != block.timestamp) mDataUint['LASTDISCOUNT'] = block.timestamp;\n        emit sdDiscountSet(_user,_amount,_expires);\n    }\n\n    ///@notice Accept an array of users and discounts from teh admin only\n    ///@param _discount struct array of users and discounts    \n    function setDiscountArray(aDiscount[] calldata  _discount) public onlyOwner{ \n        for (uint i = 0; i < _discount.length; i++) {\n            setDiscount(_discount[i]._user, _discount[i]._discount, _discount[i]._expires);\n        }\n        emit sdDiscountsSet(_discount.length);\n    }\n\n    ///@notice get discount amount for a user\n    ///@param _user User address\n    ///@return discount amount\n    ///@return Unix timestamp when the discount expires\n    function getDiscount(address _user) external view returns (uint,uint) {\n        sDiscount memory disc = mDiscounts[_user];\n        return (disc.discount_amount, disc.expires);\n    }\n\n    ///@notice Sets a fee for an exchange and function\n    ///@param _exchange Exchange name\n    ///@param _type Function name\n    ///@param _replacement_amount Amount of the fee\n    ///@param _start Unix timestamp when the fee starts\n    function setFee(string memory _exchange, string memory _type, uint _replacement_amount, uint256 _start) external onlyOwner {\n        sFee memory rv = mFee[_exchange][_type];\n        \n        if (_start < 1209600) {\n            _start = block.timestamp + _start;\n        }\n        \n        if (rv.start != 0 && rv.start < block.timestamp) {\n            mFee[_exchange][_type].current_amount = mFee[_exchange][_type].replacement_amount;\n        }\n        \n        mFee[_exchange][_type].start = _start;\n        mFee[_exchange][_type].replacement_amount = _replacement_amount;\n\n        if (rv.current_amount == 0) {\n            mFee[_exchange][_type].current_amount = _replacement_amount;\n        }\n        emit sdFeeSet(_exchange,_type,_replacement_amount,_start, block.timestamp);\n    }\n    \n    ///@notice Get logic contract for an exchange\n    ///@param _exchange Exchange name\n    ///@return address of the logic contract\n    function getExchange(string memory _exchange) external view returns(address) {\n        sExchange memory rv = mExchanges[_exchange];\n\n        if (rv.start != 0 && rv.start < block.timestamp) {\n            return rv.replacement_logic_contract;\n        }\n        return rv.current_logic_contract;\n    }\n\n    //@notice Set address for a logic contract that comes into effect at specific timestamp\n    ///@dev set _start to 0 to take effect immediately\n    ///@param _exchange Exchange name\n    ///@param _replacement_logic_contract Address of the logic contract\n    ///@param _start Unix timestamp when the logic contract comes into effect\n    function setExchange(string memory _exchange, address _replacement_logic_contract, uint256 _start) public onlyOwner {\n        sExchange memory rv = mExchanges[_exchange];\n        \n        if (_start < 1209600) {\n            _start = block.timestamp + _start;\n        }\n        \n        if (rv.start != 0 && rv.start <= block.timestamp) {\n            mExchanges[_exchange].current_logic_contract = mExchanges[_exchange].replacement_logic_contract;\n        }\n        \n        mExchanges[_exchange].start = _start;\n        mExchanges[_exchange].replacement_logic_contract = _replacement_logic_contract;\n        if (mExchanges[_exchange].current_logic_contract == address(0) || _start <= block.timestamp) {\n            mExchanges[_exchange].current_logic_contract = _replacement_logic_contract;\n        }\n        emit sdExchangeSet(_exchange, _replacement_logic_contract, _start);\n    }\n    \n    //@notice Set information for exchange\n    ///@param _name Exchange name\n    ///@param _chefContract Address of the MasterChef contract for pool information\n    ///@param _routerContract Address of the Router contract \n    ///@param _rewardToken Address of the reward token for exchange\n    ///@param _pendingCall string of the function in the MasterChef contract that gets the pending reward for a pool\n    ///@param _baseToken FUTURE CODE: Address of the token used as base for all calculations. Currently it is only BNB\n    ///@param _contractType_solo Name of Logic Contract to be called  from \"getExchange\" for solo farming\n    ///@param _contractType_pooled Name of Logic Contract to be called  from \"getExchange\" for pooled farming\n    function setExchangeInfo(string memory _name, address _chefContract, address _routerContract, bool _psV2, address _rewardToken, string memory _pendingCall,address _intermediateToken, address _baseToken, string memory _contractType_solo, string memory _contractType_pooled) public onlyOwner {\n        require(bytes(_name).length > 0, \"Name cannot be empty\");\n        require(_chefContract != address(0), \"Chef contract cannot be empty\");\n        require(_routerContract != address(0), \"Route contract cannot be empty\");\n        require(_rewardToken != address(0), \"Reward token cannot be empty\");\n        require(bytes(_pendingCall).length > 0, \"Pending call cannot be empty\");\n        require(bytes(_contractType_solo).length > 0, \"Contract type cannot be empty\");\n        require(bytes(_contractType_pooled).length > 0, \"Contract type cannot be empty\");\n\n        mExchangeInfo[_name].chefContract = _chefContract;\n        mExchangeInfo[_name].routerContract = _routerContract;\n        mExchangeInfo[_name].psV2 = _psV2;\n        mExchangeInfo[_name].rewardToken = _rewardToken;\n        mExchangeInfo[_name].pendingCall = _pendingCall;\n        mExchangeInfo[_name].intermediateToken = _intermediateToken;\n        mExchangeInfo[_name].baseToken = _baseToken;\n        mExchangeInfo[_name].contractType_solo = _contractType_solo;\n        mExchangeInfo[_name].contractType_pooled = _contractType_pooled;\n        emit sdEexchangeInfoSet(_name, _chefContract, _routerContract, _psV2, _rewardToken, _pendingCall, _intermediateToken, _baseToken, _contractType_solo, _contractType_pooled);        \n    }\n    \n    ///@notice Get information for exchange\n    ///@param _name Exchange name\n    ///@return Structure containing exchange information creaded by setExchangeInfo\n    function getExchangeInfo(string memory _name) external view returns (sExchangeInfo memory) {\n        return mExchangeInfo[_name];\n    }\n\n    ///@notice Get identifier for contract type based on exchange name\n    ///@param _name Exchange name\n    ///@param _type Type of contract (0=solo, 1=pooled)\n    ///@return _contract Name of contract type\n\n    function getContractType(string memory _name, uint _type) public view returns (string memory _contract) {                \n        _contract = _type== 0?mExchangeInfo[_name].contractType_solo:mExchangeInfo[_name].contractType_pooled;\n    }\n\n\n    ///@notice Set address of lookup key (ie. FEECOLLECTOR, ADMINUSER, etc)\n    ///@param _key Key name\n    ///@param _value Address of specified key\n    function setAddress(string memory _key, address _value) public onlyOwner {\n        require(bytes(_key).length > 0, \"Key cannot be empty\");\n        require(_value != address(0), \"Value cannot be empty\");\n        mData[_key] = _value;\n        emit sdAddressSet(_key, _value);\n    }\n\n    ///@notice Get address of lookup key (ie. FEECOLLECTOR, ADMINUSER, etc)\n    ///@param _key Key name\n    ///@return Address of specified key\n    function getAddress(string memory _key) external view returns(address) {\n        return mData[_key];\n    }\n\n    ///@notice Get a uint of lookup key. Mostly used for LAST DEPOSITS\n    ///@param _key Key name\n    ///@return uint of specified key\n    function getDataUint(string memory _key) external view returns (uint) {\n        return mDataUint[_key];\n    }\n\n    ///@notice Set a uint of lookup key. Mostly used for LAST DEPOSITS\n    ///@param _key Key name\n    ///@param _value uint of specified key    \n    function setDataUint(string memory _key, uint _value) external onlyOwner {\n        require(bytes(_key).length > 0, \"Key cannot be empty\");\n        mDataUint[_key] = _value;\n        emit sdDataUintSet(_key, _value);\n    }\n}\n\n",
  "sourcePath": "/mnt/src/crypto/combine_sol/contracts/combine_beacon.sol",
  "compiler": {
    "name": "solc",
    "version": "0.8.13+commit.abaa5c0e.Emscripten.clang"
  },
  "schemaVersion": "3.4.7",
  "updatedAt": "2022-05-12T16:30:38.354Z",
  "devdoc": {
    "kind": "dev",
    "methods": {
      "getAddress(string)": {
        "params": {
          "_key": "Key name"
        },
        "returns": {
          "_0": "Address of specified key"
        }
      },
      "getConst(string,string)": {
        "params": {
          "_exchange": "Exchange name",
          "_type": "Name of constant"
        },
        "returns": {
          "_0": "value of constant"
        }
      },
      "getContractType(string,uint256)": {
        "params": {
          "_name": "Exchange name",
          "_type": "Type of contract (0=solo, 1=pooled)"
        },
        "returns": {
          "_contract": "Name of contract type"
        }
      },
      "getDataUint(string)": {
        "params": {
          "_key": "Key name"
        },
        "returns": {
          "_0": "uint of specified key"
        }
      },
      "getDiscount(address)": {
        "params": {
          "_user": "User address"
        },
        "returns": {
          "_0": "discount amount",
          "_1": "Unix timestamp when the discount expires"
        }
      },
      "getExchange(string)": {
        "params": {
          "_exchange": "Exchange name"
        },
        "returns": {
          "_0": "address of the logic contract"
        }
      },
      "getExchangeInfo(string)": {
        "params": {
          "_name": "Exchange name"
        },
        "returns": {
          "_0": "Structure containing exchange information creaded by setExchangeInfo"
        }
      },
      "getFee(string,string)": {
        "params": {
          "_exchange": "Exchange name",
          "_type": "Type of fee"
        },
        "returns": {
          "_0": "amount - amount of the fee",
          "_1": "expires - unix timestamp when the discount expires"
        }
      },
      "getFee(string,string,address)": {
        "params": {
          "_exchange": "Exchange name",
          "_type": "Type of fee",
          "_user": "User address"
        },
        "returns": {
          "_0": "amount - amount of the fee",
          "_1": "expires - unix timestamp when the discount expires"
        }
      },
      "owner()": {
        "details": "Returns the address of the current owner."
      },
      "renounceOwnership()": {
        "details": "Leaves the contract without owner. It will not be possible to call `onlyOwner` functions anymore. Can only be called by the current owner. NOTE: Renouncing ownership will leave the contract without an owner, thereby removing any functionality that is only available to the owner."
      },
      "setAddress(string,address)": {
        "params": {
          "_key": "Key name",
          "_value": "Address of specified key"
        }
      },
      "setDataUint(string,uint256)": {
        "params": {
          "_key": "Key name",
          "_value": "uint of specified key    "
        }
      },
      "setDiscount(address,uint256,uint256)": {
        "params": {
          "_amount": "Discount amount",
          "_expires": "Unix timestamp when the discount expires",
          "_user": "User address"
        }
      },
      "setDiscountArray((address,uint256,uint256)[])": {
        "params": {
          "_discount": "struct array of users and discounts    "
        }
      },
      "setExchange(string,address,uint256)": {
        "details": "set _start to 0 to take effect immediately",
        "params": {
          "_exchange": "Exchange name",
          "_replacement_logic_contract": "Address of the logic contract",
          "_start": "Unix timestamp when the logic contract comes into effect"
        }
      },
      "setExchangeInfo(string,address,address,bool,address,string,address,address,string,string)": {
        "params": {
          "_baseToken": "FUTURE CODE: Address of the token used as base for all calculations. Currently it is only BNB",
          "_chefContract": "Address of the MasterChef contract for pool information",
          "_contractType_pooled": "Name of Logic Contract to be called  from \"getExchange\" for pooled farming",
          "_contractType_solo": "Name of Logic Contract to be called  from \"getExchange\" for solo farming",
          "_name": "Exchange name",
          "_pendingCall": "string of the function in the MasterChef contract that gets the pending reward for a pool",
          "_rewardToken": "Address of the reward token for exchange",
          "_routerContract": "Address of the Router contract "
        }
      },
      "setFee(string,string,uint256,uint256)": {
        "params": {
          "_exchange": "Exchange name",
          "_replacement_amount": "Amount of the fee",
          "_start": "Unix timestamp when the fee starts",
          "_type": "Function name"
        }
      },
      "transferOwnership(address)": {
        "details": "Transfers ownership of the contract to a new account (`newOwner`). Can only be called by the current owner."
      }
    },
    "version": 1
  },
  "userdoc": {
    "kind": "user",
    "methods": {
      "getAddress(string)": {
        "notice": "Get address of lookup key (ie. FEECOLLECTOR, ADMINUSER, etc)"
      },
      "getConst(string,string)": {
        "notice": "get a constant setting and check for new value baed on timestamp"
      },
      "getContractType(string,uint256)": {
        "notice": "Get identifier for contract type based on exchange name"
      },
      "getDataUint(string)": {
        "notice": "Get a uint of lookup key. Mostly used for LAST DEPOSITS"
      },
      "getDiscount(address)": {
        "notice": "get discount amount for a user"
      },
      "getExchange(string)": {
        "notice": "Get logic contract for an exchange"
      },
      "getExchangeInfo(string)": {
        "notice": "Get information for exchange"
      },
      "getFee(string,string)": {
        "notice": "Calculate fee without discount from user"
      },
      "getFee(string,string,address)": {
        "notice": "Calculate fee with discount from user"
      },
      "setAddress(string,address)": {
        "notice": "Set address of lookup key (ie. FEECOLLECTOR, ADMINUSER, etc)"
      },
      "setDataUint(string,uint256)": {
        "notice": "Set a uint of lookup key. Mostly used for LAST DEPOSITS"
      },
      "setDiscount(address,uint256,uint256)": {
        "notice": "Accept a user and discount from the admin only"
      },
      "setDiscountArray((address,uint256,uint256)[])": {
        "notice": "Accept an array of users and discounts from teh admin only"
      },
      "setFee(string,string,uint256,uint256)": {
        "notice": "Sets a fee for an exchange and function"
      }
    },
    "version": 1
  }
}