{
  "contractName": "combineApp",
  "abi": [
    {
      "inputs": [
        {
          "internalType": "uint256",
          "name": "_poolID",
          "type": "uint256"
        }
      ],
      "name": "InactivePool",
      "type": "error"
    },
    {
      "inputs": [
        {
          "internalType": "string",
          "name": "param",
          "type": "string"
        }
      ],
      "name": "RequiredParameter",
      "type": "error"
    },
    {
      "inputs": [],
      "name": "SlotOutOfBounds",
      "type": "error"
    },
    {
      "inputs": [],
      "name": "sdInitializedError",
      "type": "error"
    },
    {
      "inputs": [],
      "name": "sdInsufficentBalance",
      "type": "error"
    },
    {
      "inputs": [],
      "name": "sdLocked",
      "type": "error"
    },
    {
      "inputs": [
        {
          "internalType": "string",
          "name": "param",
          "type": "string"
        }
      ],
      "name": "sdRequiredParameter",
      "type": "error"
    },
    {
      "anonymous": false,
      "inputs": [
        {
          "indexed": true,
          "internalType": "address",
          "name": "previousOwner",
          "type": "address"
        },
        {
          "indexed": true,
          "internalType": "address",
          "name": "newOwner",
          "type": "address"
        }
      ],
      "name": "OwnershipTransferred",
      "type": "event"
    },
    {
      "anonymous": false,
      "inputs": [
        {
          "indexed": true,
          "internalType": "bytes32",
          "name": "role",
          "type": "bytes32"
        },
        {
          "indexed": true,
          "internalType": "bytes32",
          "name": "previousAdminRole",
          "type": "bytes32"
        },
        {
          "indexed": true,
          "internalType": "bytes32",
          "name": "newAdminRole",
          "type": "bytes32"
        }
      ],
      "name": "RoleAdminChanged",
      "type": "event"
    },
    {
      "anonymous": false,
      "inputs": [
        {
          "indexed": true,
          "internalType": "bytes32",
          "name": "role",
          "type": "bytes32"
        },
        {
          "indexed": true,
          "internalType": "address",
          "name": "account",
          "type": "address"
        },
        {
          "indexed": true,
          "internalType": "address",
          "name": "sender",
          "type": "address"
        }
      ],
      "name": "RoleGranted",
      "type": "event"
    },
    {
      "anonymous": false,
      "inputs": [
        {
          "indexed": true,
          "internalType": "bytes32",
          "name": "role",
          "type": "bytes32"
        },
        {
          "indexed": true,
          "internalType": "address",
          "name": "account",
          "type": "address"
        },
        {
          "indexed": true,
          "internalType": "address",
          "name": "sender",
          "type": "address"
        }
      ],
      "name": "RoleRevoked",
      "type": "event"
    },
    {
      "anonymous": false,
      "inputs": [
        {
          "indexed": false,
          "internalType": "uint256",
          "name": "amount",
          "type": "uint256"
        }
      ],
      "name": "sdDeposit",
      "type": "event"
    },
    {
      "anonymous": false,
      "inputs": [
        {
          "indexed": false,
          "internalType": "uint256",
          "name": "amount",
          "type": "uint256"
        },
        {
          "indexed": false,
          "internalType": "uint256",
          "name": "total",
          "type": "uint256"
        }
      ],
      "name": "sdFeeSent",
      "type": "event"
    },
    {
      "anonymous": false,
      "inputs": [
        {
          "indexed": false,
          "internalType": "uint256",
          "name": "amount",
          "type": "uint256"
        },
        {
          "indexed": false,
          "internalType": "uint256",
          "name": "total",
          "type": "uint256"
        }
      ],
      "name": "sdHoldBack",
      "type": "event"
    },
    {
      "anonymous": false,
      "inputs": [
        {
          "indexed": false,
          "internalType": "uint64",
          "name": "poolId",
          "type": "uint64"
        },
        {
          "indexed": false,
          "internalType": "address",
          "name": "lpContract",
          "type": "address"
        }
      ],
      "name": "sdInitialized",
      "type": "event"
    },
    {
      "anonymous": false,
      "inputs": [
        {
          "indexed": false,
          "internalType": "uint256",
          "name": "farmIn",
          "type": "uint256"
        },
        {
          "indexed": false,
          "internalType": "uint256",
          "name": "wethIn",
          "type": "uint256"
        },
        {
          "indexed": false,
          "internalType": "uint256",
          "name": "lpOut",
          "type": "uint256"
        }
      ],
      "name": "sdLiquidityProvided",
      "type": "event"
    },
    {
      "anonymous": false,
      "inputs": [
        {
          "indexed": false,
          "internalType": "uint64",
          "name": "oldPool",
          "type": "uint64"
        },
        {
          "indexed": false,
          "internalType": "uint256",
          "name": "newPool",
          "type": "uint256"
        }
      ],
      "name": "sdNewPool",
      "type": "event"
    },
    {
      "anonymous": false,
      "inputs": [
        {
          "indexed": false,
          "internalType": "string",
          "name": "message",
          "type": "string"
        },
        {
          "indexed": false,
          "internalType": "uint256",
          "name": "value",
          "type": "uint256"
        }
      ],
      "name": "sdUintLog",
      "type": "event"
    },
    {
      "anonymous": false,
      "inputs": [
        {
          "indexed": false,
          "internalType": "string",
          "name": "message",
          "type": "string"
        },
        {
          "indexed": false,
          "internalType": "uint256[]",
          "name": "value",
          "type": "uint256[]"
        }
      ],
      "name": "sdUintLog",
      "type": "event"
    },
    {
      "inputs": [],
      "name": "DEFAULT_ADMIN_ROLE",
      "outputs": [
        {
          "internalType": "bytes32",
          "name": "",
          "type": "bytes32"
        }
      ],
      "stateMutability": "view",
      "type": "function"
    },
    {
      "inputs": [],
      "name": "HARVESTER",
      "outputs": [
        {
          "internalType": "bytes32",
          "name": "",
          "type": "bytes32"
        }
      ],
      "stateMutability": "view",
      "type": "function"
    },
    {
      "inputs": [],
      "name": "beaconContract",
      "outputs": [
        {
          "internalType": "address",
          "name": "",
          "type": "address"
        }
      ],
      "stateMutability": "view",
      "type": "function"
    },
    {
      "inputs": [],
      "name": "exchange",
      "outputs": [
        {
          "internalType": "string",
          "name": "",
          "type": "string"
        }
      ],
      "stateMutability": "view",
      "type": "function"
    },
    {
      "inputs": [
        {
          "internalType": "bytes32",
          "name": "role",
          "type": "bytes32"
        }
      ],
      "name": "getRoleAdmin",
      "outputs": [
        {
          "internalType": "bytes32",
          "name": "",
          "type": "bytes32"
        }
      ],
      "stateMutability": "view",
      "type": "function"
    },
    {
      "inputs": [
        {
          "internalType": "bytes32",
          "name": "role",
          "type": "bytes32"
        },
        {
          "internalType": "address",
          "name": "account",
          "type": "address"
        }
      ],
      "name": "grantRole",
      "outputs": [],
      "stateMutability": "nonpayable",
      "type": "function"
    },
    {
      "inputs": [
        {
          "internalType": "bytes32",
          "name": "role",
          "type": "bytes32"
        },
        {
          "internalType": "address",
          "name": "account",
          "type": "address"
        }
      ],
      "name": "hasRole",
      "outputs": [
        {
          "internalType": "bool",
          "name": "",
          "type": "bool"
        }
      ],
      "stateMutability": "view",
      "type": "function"
    },
    {
      "inputs": [],
      "name": "holdBack",
      "outputs": [
        {
          "internalType": "uint64",
          "name": "",
          "type": "uint64"
        }
      ],
      "stateMutability": "view",
      "type": "function"
    },
    {
      "inputs": [],
      "name": "lastGas",
      "outputs": [
        {
          "internalType": "uint256",
          "name": "",
          "type": "uint256"
        }
      ],
      "stateMutability": "view",
      "type": "function"
    },
    {
      "inputs": [],
      "name": "logic_contract",
      "outputs": [
        {
          "internalType": "address",
          "name": "",
          "type": "address"
        }
      ],
      "stateMutability": "view",
      "type": "function"
    },
    {
      "inputs": [],
      "name": "owner",
      "outputs": [
        {
          "internalType": "address",
          "name": "",
          "type": "address"
        }
      ],
      "stateMutability": "view",
      "type": "function"
    },
    {
      "inputs": [],
      "name": "renounceOwnership",
      "outputs": [],
      "stateMutability": "nonpayable",
      "type": "function"
    },
    {
      "inputs": [
        {
          "internalType": "bytes32",
          "name": "role",
          "type": "bytes32"
        },
        {
          "internalType": "address",
          "name": "account",
          "type": "address"
        }
      ],
      "name": "renounceRole",
      "outputs": [],
      "stateMutability": "nonpayable",
      "type": "function"
    },
    {
      "inputs": [
        {
          "internalType": "bytes32",
          "name": "role",
          "type": "bytes32"
        },
        {
          "internalType": "address",
          "name": "account",
          "type": "address"
        }
      ],
      "name": "revokeRole",
      "outputs": [],
      "stateMutability": "nonpayable",
      "type": "function"
    },
    {
      "inputs": [
        {
          "internalType": "uint256",
          "name": "",
          "type": "uint256"
        }
      ],
      "name": "slots",
      "outputs": [
        {
          "internalType": "uint256",
          "name": "poolId",
          "type": "uint256"
        },
        {
          "internalType": "string",
          "name": "exchangeName",
          "type": "string"
        },
        {
          "internalType": "address",
          "name": "lpContract",
          "type": "address"
        },
        {
          "internalType": "address",
          "name": "token0",
          "type": "address"
        },
        {
          "internalType": "address",
          "name": "token1",
          "type": "address"
        }
      ],
      "stateMutability": "view",
      "type": "function"
    },
    {
      "inputs": [
        {
          "internalType": "bytes4",
          "name": "interfaceId",
          "type": "bytes4"
        }
      ],
      "name": "supportsInterface",
      "outputs": [
        {
          "internalType": "bool",
          "name": "",
          "type": "bool"
        }
      ],
      "stateMutability": "view",
      "type": "function"
    },
    {
      "inputs": [
        {
          "internalType": "address",
          "name": "newOwner",
          "type": "address"
        }
      ],
      "name": "transferOwnership",
      "outputs": [],
      "stateMutability": "nonpayable",
      "type": "function"
    },
    {
      "stateMutability": "payable",
      "type": "receive"
    },
    {
      "inputs": [
        {
          "internalType": "uint64",
          "name": "_poolId",
          "type": "uint64"
        },
        {
          "internalType": "address",
          "name": "_beacon",
          "type": "address"
        },
        {
          "internalType": "string",
          "name": "_exchangeName",
          "type": "string"
        },
        {
          "internalType": "address",
          "name": "_owner",
          "type": "address"
        }
      ],
      "name": "initialize",
      "outputs": [],
      "stateMutability": "payable",
      "type": "function"
    },
    {
      "inputs": [
        {
          "internalType": "address",
          "name": "_address",
          "type": "address"
        }
      ],
      "name": "addHarvester",
      "outputs": [],
      "stateMutability": "nonpayable",
      "type": "function"
    },
    {
      "inputs": [
        {
          "internalType": "address",
          "name": "_address",
          "type": "address"
        }
      ],
      "name": "removeHarvester",
      "outputs": [],
      "stateMutability": "nonpayable",
      "type": "function"
    },
    {
      "inputs": [
        {
          "internalType": "uint64",
          "name": "_poolId",
          "type": "uint64"
        },
        {
          "internalType": "string",
          "name": "_exchangeName",
          "type": "string"
        }
      ],
      "name": "deposit",
      "outputs": [],
      "stateMutability": "payable",
      "type": "function"
    },
    {
      "inputs": [
        {
          "internalType": "uint64",
          "name": "_fromPoolId",
          "type": "uint64"
        },
        {
          "internalType": "string",
          "name": "_fromExchangeName",
          "type": "string"
        },
        {
          "internalType": "uint64",
          "name": "_toPoolId",
          "type": "uint64"
        },
        {
          "internalType": "string",
          "name": "_toExchangeName",
          "type": "string"
        }
      ],
      "name": "swapPool",
      "outputs": [],
      "stateMutability": "nonpayable",
      "type": "function"
    },
    {
      "inputs": [
        {
          "internalType": "uint64",
          "name": "_poolId",
          "type": "uint64"
        },
        {
          "internalType": "string",
          "name": "_exchangeName",
          "type": "string"
        }
      ],
      "name": "pendingReward",
      "outputs": [
        {
          "internalType": "uint256",
          "name": "",
          "type": "uint256"
        }
      ],
      "stateMutability": "view",
      "type": "function"
    },
    {
      "inputs": [
        {
          "internalType": "uint64",
          "name": "_poolId",
          "type": "uint64"
        },
        {
          "internalType": "string",
          "name": "_exchangeName",
          "type": "string"
        }
      ],
      "name": "liquidate",
      "outputs": [],
      "stateMutability": "nonpayable",
      "type": "function"
    },
    {
      "inputs": [
        {
          "internalType": "uint64",
          "name": "_holdback",
          "type": "uint64"
        }
      ],
      "name": "setHoldBack",
      "outputs": [],
      "stateMutability": "nonpayable",
      "type": "function"
    },
    {
      "inputs": [],
      "name": "sendHoldBack",
      "outputs": [],
      "stateMutability": "nonpayable",
      "type": "function"
    },
    {
      "inputs": [
        {
          "internalType": "uint64",
          "name": "_poolId",
          "type": "uint64"
        },
        {
          "internalType": "string",
          "name": "_exchangeName",
          "type": "string"
        }
      ],
      "name": "harvest",
      "outputs": [],
      "stateMutability": "nonpayable",
      "type": "function"
    },
    {
      "inputs": [
        {
          "internalType": "address",
          "name": "token",
          "type": "address"
        }
      ],
      "name": "rescueToken",
      "outputs": [],
      "stateMutability": "nonpayable",
      "type": "function"
    },
    {
      "inputs": [
        {
          "internalType": "uint64",
          "name": "_poolId",
          "type": "uint64"
        },
        {
          "internalType": "string",
          "name": "_exchangeName",
          "type": "string"
        }
      ],
      "name": "cakePerBlock",
      "outputs": [
        {
          "internalType": "uint256",
          "name": "",
          "type": "uint256"
        }
      ],
      "stateMutability": "view",
      "type": "function"
    },
    {
      "inputs": [
        {
          "internalType": "uint64",
          "name": "_poolId",
          "type": "uint64"
        },
        {
          "internalType": "string",
          "name": "_exchangeName",
          "type": "string"
        }
      ],
      "name": "updatePool",
      "outputs": [],
      "stateMutability": "nonpayable",
      "type": "function"
    },
    {
      "inputs": [
        {
          "internalType": "uint64",
          "name": "_poolId",
          "type": "uint64"
        },
        {
          "internalType": "string",
          "name": "_exchangeName",
          "type": "string"
        }
      ],
      "name": "userInfo",
      "outputs": [
        {
          "internalType": "uint256",
          "name": "",
          "type": "uint256"
        },
        {
          "internalType": "uint256",
          "name": "",
          "type": "uint256"
        },
        {
          "internalType": "uint256",
          "name": "",
          "type": "uint256"
        },
        {
          "internalType": "uint256",
          "name": "",
          "type": "uint256"
        },
        {
          "internalType": "uint256",
          "name": "",
          "type": "uint256"
        },
        {
          "internalType": "uint256",
          "name": "",
          "type": "uint256"
        }
      ],
      "stateMutability": "view",
      "type": "function"
    },
    {
      "inputs": [
        {
          "internalType": "uint64",
          "name": "_poolId",
          "type": "uint64"
        },
        {
          "internalType": "string",
          "name": "_exchangeName",
          "type": "string"
        }
      ],
      "name": "getSlot",
      "outputs": [
        {
          "components": [
            {
              "internalType": "uint64",
              "name": "poolId",
              "type": "uint64"
            },
            {
              "internalType": "string",
              "name": "exchangeName",
              "type": "string"
            },
            {
              "internalType": "address",
              "name": "lpContract",
              "type": "address"
            },
            {
              "internalType": "address",
              "name": "token0",
              "type": "address"
            },
            {
              "internalType": "address",
              "name": "token1",
              "type": "address"
            },
            {
              "internalType": "address",
              "name": "chefContract",
              "type": "address"
            },
            {
              "internalType": "address",
              "name": "routerContract",
              "type": "address"
            },
            {
              "internalType": "address",
              "name": "rewardToken",
              "type": "address"
            },
            {
              "internalType": "string",
              "name": "pendingCall",
              "type": "string"
            },
            {
              "internalType": "address",
              "name": "intermediateToken",
              "type": "address"
            }
          ],
          "internalType": "struct slotsLib.sSlots",
          "name": "",
          "type": "tuple"
        }
      ],
      "stateMutability": "view",
      "type": "function"
    }
  ],
  "bytecode": "0x60806040526000600d60006101000a81548160ff0219169083151502179055506000600d60016101000a81548160ff0219169083151502179055503480156200004757600080fd5b50620000686200005c6200006e60201b60201c565b6200007660201b60201c565b6200013c565b600033905090565b6000601060009054906101000a900473ffffffffffffffffffffffffffffffffffffffff16905081601060006101000a81548173ffffffffffffffffffffffffffffffffffffffff021916908373ffffffffffffffffffffffffffffffffffffffff1602179055508173ffffffffffffffffffffffffffffffffffffffff168173ffffffffffffffffffffffffffffffffffffffff167f8be0079c531659141344cd1fd0a4f28419497f9722a3daafe3b4186f6b6457e060405160405180910390a35050565b618455806200014c6000396000f3fe6080604052600436106101e75760003560e01c80638fab591711610102578063d2f7265a11610095578063e63828ce11610064578063e63828ce146106d4578063ea3fd42e14610711578063f1ed7dc71461073a578063f2fde38b14610765576101ee565b8063d2f7265a14610618578063d547741f14610643578063dc5d3a171461066c578063e2eea22c14610697576101ee565b8063a217fddf116100d1578063a217fddf14610570578063aff660951461059b578063c6e0e605146105c4578063cb9d9fa7146105ed576101ee565b80638fab5917146104b157806391d14854146104da57806393c9c352146105175780639f9476a71461052e576101ee565b80634de943201161017a5780637091a2e5116101495780637091a2e51461042a578063715018a6146104535780638da5cb5b1461046a5780638dee907014610495576101ee565b80634de943201461038f57806354bb3823146103ba578063611b8b2e146103d657806365034451146103ff576101ee565b806336568abe116101b657806336568abe146102d3578063387dd9e9146102fc5780633dac336d1461033d5780634460d3cf14610366576101ee565b806301ffc9a7146101f3578063248a9ca3146102305780632d9d97e21461026d5780632f2ff15d146102aa576101ee565b366101ee57005b600080fd5b3480156101ff57600080fd5b5061021a600480360381019061021591906164e3565b61078e565b604051610227919061652b565b60405180910390f35b34801561023c57600080fd5b506102576004803603810190610252919061657c565b610808565b60405161026491906165b8565b60405180910390f35b34801561027957600080fd5b50610294600480360381019061028f9190616759565b610828565b6040516102a1919061696e565b60405180910390f35b3480156102b657600080fd5b506102d160048036038101906102cc91906169bc565b610871565b005b3480156102df57600080fd5b506102fa60048036038101906102f591906169bc565b61089a565b005b34801561030857600080fd5b50610323600480360381019061031e9190616a32565b61091d565b604051610334959493929190616ac7565b60405180910390f35b34801561034957600080fd5b50610364600480360381019061035f9190616b21565b610a4b565b005b34801561037257600080fd5b5061038d60048036038101906103889190616b4e565b610b29565b005b34801561039b57600080fd5b506103a4610cad565b6040516103b19190616b7b565b60405180910390f35b6103d460048036038101906103cf9190616b96565b610cd3565b005b3480156103e257600080fd5b506103fd60048036038101906103f89190616759565b610ff2565b005b34801561040b57600080fd5b5061041461125f565b6040516104219190616b7b565b60405180910390f35b34801561043657600080fd5b50610451600480360381019061044c9190616759565b611285565b005b34801561045f57600080fd5b5061046861130b565b005b34801561047657600080fd5b5061047f611393565b60405161048c9190616b7b565b60405180910390f35b6104af60048036038101906104aa9190616759565b6113bd565b005b3480156104bd57600080fd5b506104d860048036038101906104d39190616b4e565b6114e8565b005b3480156104e657600080fd5b5061050160048036038101906104fc91906169bc565b611591565b60405161050e919061652b565b60405180910390f35b34801561052357600080fd5b5061052c6115fc565b005b34801561053a57600080fd5b5061055560048036038101906105509190616759565b6117c6565b60405161056796959493929190616c19565b60405180910390f35b34801561057c57600080fd5b50610585611a1c565b60405161059291906165b8565b60405180910390f35b3480156105a757600080fd5b506105c260048036038101906105bd9190616b4e565b611a23565b005b3480156105d057600080fd5b506105eb60048036038101906105e69190616c7a565b611acc565b005b3480156105f957600080fd5b50610602611cbf565b60405161060f91906165b8565b60405180910390f35b34801561062457600080fd5b5061062d611ce3565b60405161063a9190616d19565b60405180910390f35b34801561064f57600080fd5b5061066a600480360381019061066591906169bc565b611d71565b005b34801561067857600080fd5b50610681611d9a565b60405161068e9190616d3b565b60405180910390f35b3480156106a357600080fd5b506106be60048036038101906106b99190616759565b611da0565b6040516106cb9190616d3b565b60405180910390f35b3480156106e057600080fd5b506106fb60048036038101906106f69190616759565b611dc1565b6040516107089190616d3b565b60405180910390f35b34801561071d57600080fd5b5061073860048036038101906107339190616759565b611e4c565b005b34801561074657600080fd5b5061074f61206a565b60405161075c9190616d65565b60405180910390f35b34801561077157600080fd5b5061078c60048036038101906107879190616b4e565b612082565b005b60007f7965db0b000000000000000000000000000000000000000000000000000000007bffffffffffffffffffffffffffffffffffffffffffffffffffffffff1916827bffffffffffffffffffffffffffffffffffffffffffffffffffffffff1916148061080157506108008261217a565b5b9050919050565b600060116000838152602001908152602001600020600101549050919050565b610830616210565b6108698367ffffffffffffffff1683600f600460009054906101000a900473ffffffffffffffffffffffffffffffffffffffff166121e4565b905092915050565b61087a82610808565b61088b816108866126c4565b6126cc565b6108958383612769565b505050565b6108a26126c4565b73ffffffffffffffffffffffffffffffffffffffff168173ffffffffffffffffffffffffffffffffffffffff161461090f576040517f08c379a000000000000000000000000000000000000000000000000000000000815260040161090690616df2565b60405180910390fd5b610919828261284a565b5050565b600f818154811061092d57600080fd5b906000526020600020906005020160009150905080600001549080600101805461095690616e41565b80601f016020809104026020016040519081016040528092919081815260200182805461098290616e41565b80156109cf5780601f106109a4576101008083540402835291602001916109cf565b820191906000526020600020905b8154815290600101906020018083116109b257829003601f168201915b5050505050908060020160009054906101000a900473ffffffffffffffffffffffffffffffffffffffff16908060030160009054906101000a900473ffffffffffffffffffffffffffffffffffffffff16908060040160009054906101000a900473ffffffffffffffffffffffffffffffffffffffff16905085565b610a536126c4565b73ffffffffffffffffffffffffffffffffffffffff16610a71611393565b73ffffffffffffffffffffffffffffffffffffffff1614610ac7576040517f08c379a0000000000000000000000000000000000000000000000000000000008152600401610abe90616ebf565b60405180910390fd5b806000806101000a81548167ffffffffffffffff021916908367ffffffffffffffff1602179055507f715ed3cd24887b619d3d2da2885c7d1b21168674116e771e308e978be95934d881604051610b1e9190616f66565b60405180910390a150565b610b316126c4565b73ffffffffffffffffffffffffffffffffffffffff16610b4f611393565b73ffffffffffffffffffffffffffffffffffffffff1614610ba5576040517f08c379a0000000000000000000000000000000000000000000000000000000008152600401610b9c90616ebf565b60405180910390fd5b60008173ffffffffffffffffffffffffffffffffffffffff166370a08231306040518263ffffffff1660e01b8152600401610be09190616b7b565b602060405180830381865afa158015610bfd573d6000803e3d6000fd5b505050506040513d601f19601f82011682018060405250810190610c219190616fa9565b90508173ffffffffffffffffffffffffffffffffffffffff1663a9059cbb610c47611393565b836040518363ffffffff1660e01b8152600401610c65929190616fd6565b6020604051808303816000875af1158015610c84573d6000803e3d6000fd5b505050506040513d601f19601f82011682018060405250810190610ca8919061702b565b505050565b600260009054906101000a900473ffffffffffffffffffffffffffffffffffffffff1681565b610cdb6126c4565b73ffffffffffffffffffffffffffffffffffffffff16610cf9611393565b73ffffffffffffffffffffffffffffffffffffffff1614610d4f576040517f08c379a0000000000000000000000000000000000000000000000000000000008152600401610d4690616ebf565b60405180910390fd5b60011515600d60019054906101000a900460ff1615151415610d9d576040517f3cba1f3a00000000000000000000000000000000000000000000000000000000815260040160405180910390fd5b6001600d60016101000a81548160ff02191690831515021790555082600460006101000a81548173ffffffffffffffffffffffffffffffffffffffff021916908373ffffffffffffffffffffffffffffffffffffffff1602179055506000600460009054906101000a900473ffffffffffffffffffffffffffffffffffffffff1673ffffffffffffffffffffffffffffffffffffffff1663bf40fac16040518163ffffffff1660e01b8152600401610e54906170a4565b602060405180830381865afa158015610e71573d6000803e3d6000fd5b505050506040513d601f19601f82011682018060405250810190610e9591906170d9565b9050600460009054906101000a900473ffffffffffffffffffffffffffffffffffffffff1673ffffffffffffffffffffffffffffffffffffffff1663bf40fac16040518163ffffffff1660e01b8152600401610ef090617152565b602060405180830381865afa158015610f0d573d6000803e3d6000fd5b505050506040513d601f19601f82011682018060405250810190610f3191906170d9565b600360006101000a81548173ffffffffffffffffffffffffffffffffffffffff021916908373ffffffffffffffffffffffffffffffffffffffff160217905550610f9b7f27e3e4d29d60af3ae6456513164bb5db737d6fc8610aa36ad458736c9efb884c8261292c565b610faf6000801b610faa611393565b61292c565b60008060006101000a81548167ffffffffffffffff021916908367ffffffffffffffff160217905550610fe2858461293a565b610feb82612082565b5050505050565b60011515600d60009054906101000a900460ff1615151415611040576040517f8616e3bb00000000000000000000000000000000000000000000000000000000815260040160405180910390fd5b6001600d60006101000a81548160ff0219169083151502179055506110857f27e3e4d29d60af3ae6456513164bb5db737d6fc8610aa36ad458736c9efb884c33611591565b806110c257503373ffffffffffffffffffffffffffffffffffffffff166110aa611393565b73ffffffffffffffffffffffffffffffffffffffff16145b611101576040517f08c379a00000000000000000000000000000000000000000000000000000000081526004016110f8906171be565b60405180910390fd5b600061110d8383610828565b90506000600460009054906101000a900473ffffffffffffffffffffffffffffffffffffffff1673ffffffffffffffffffffffffffffffffffffffff1663d95ad3716040518163ffffffff1660e01b815260040161116a90617276565b6020604051808303816000875af1158015611189573d6000803e3d6000fd5b505050506040513d601f19601f820116820180604052508101906111ad91906172be565b905060008167ffffffffffffffff166152085a6111ca919061731a565b6111d4919061731a565b905060006111e3846001612a12565b90506111ef8482612dfb565b6111f7611393565b73ffffffffffffffffffffffffffffffffffffffff163373ffffffffffffffffffffffffffffffffffffffff161461123c575a826112359190617370565b6001819055505b505050506000600d60006101000a81548160ff0219169083151502179055505050565b600460009054906101000a900473ffffffffffffffffffffffffffffffffffffffff1681565b60006112918383610828565b90508060a0015173ffffffffffffffffffffffffffffffffffffffff166351eb05a682600001516040518263ffffffff1660e01b81526004016112d491906173a4565b600060405180830381600087803b1580156112ee57600080fd5b505af1158015611302573d6000803e3d6000fd5b50505050505050565b6113136126c4565b73ffffffffffffffffffffffffffffffffffffffff16611331611393565b73ffffffffffffffffffffffffffffffffffffffff1614611387576040517f08c379a000000000000000000000000000000000000000000000000000000000815260040161137e90616ebf565b60405180910390fd5b6113916000613134565b565b6000601060009054906101000a900473ffffffffffffffffffffffffffffffffffffffff16905090565b6113c56126c4565b73ffffffffffffffffffffffffffffffffffffffff166113e3611393565b73ffffffffffffffffffffffffffffffffffffffff1614611439576040517f08c379a000000000000000000000000000000000000000000000000000000000815260040161143090616ebf565b60405180910390fd5b600061146a8383600f600460009054906101000a900473ffffffffffffffffffffffffffffffffffffffff166131fa565b90506000349050600061147c836135cc565b905060008111156114a057611492836000612a12565b8261149d919061731a565b91505b6114aa8383612dfb565b7fb371d8e5053de89890d88e48d9a957d6a92527d176d7c909c0ab806e5cdbc847826040516114d99190616d3b565b60405180910390a15050505050565b6114f06126c4565b73ffffffffffffffffffffffffffffffffffffffff1661150e611393565b73ffffffffffffffffffffffffffffffffffffffff1614611564576040517f08c379a000000000000000000000000000000000000000000000000000000000815260040161155b90616ebf565b60405180910390fd5b61158e7f27e3e4d29d60af3ae6456513164bb5db737d6fc8610aa36ad458736c9efb884c8261292c565b50565b60006011600084815260200190815260200160002060000160008373ffffffffffffffffffffffffffffffffffffffff1673ffffffffffffffffffffffffffffffffffffffff16815260200190815260200160002060009054906101000a900460ff16905092915050565b6116046126c4565b73ffffffffffffffffffffffffffffffffffffffff16611622611393565b73ffffffffffffffffffffffffffffffffffffffff1614611678576040517f08c379a000000000000000000000000000000000000000000000000000000000815260040161166f90616ebf565b60405180910390fd5b60011515600d60009054906101000a900460ff16151514156116c6576040517f8616e3bb00000000000000000000000000000000000000000000000000000000815260040160405180910390fd5b6001600d60006101000a81548160ff02191690831515021790555060004790506000811415611721576040517f125d08b800000000000000000000000000000000000000000000000000000000815260040160405180910390fd5b611729611393565b73ffffffffffffffffffffffffffffffffffffffff166108fc829081150290604051600060405180830381858888f1935050505015801561176e573d6000803e3d6000fd5b507f2d2fdf8fe0a28febf1b874bc9ab0285dd0aa1a5ff1a73e7befec062d2e2a2b9081826040516117a09291906173bf565b60405180910390a1506000600d60006101000a81548160ff021916908315150217905550565b6000806000806000806117f97f27e3e4d29d60af3ae6456513164bb5db737d6fc8610aa36ad458736c9efb884c33611591565b8061183657503373ffffffffffffffffffffffffffffffffffffffff1661181e611393565b73ffffffffffffffffffffffffffffffffffffffff16145b611875576040517f08c379a000000000000000000000000000000000000000000000000000000000815260040161186c906171be565b60405180910390fd5b60006118818989610828565b9050600073ffffffffffffffffffffffffffffffffffffffff16816040015173ffffffffffffffffffffffffffffffffffffffff1614156118d75760008060008060008096509650965096509650965050611a12565b6000808260a0015173ffffffffffffffffffffffffffffffffffffffff166393f1a40b8460000151306040518363ffffffff1660e01b815260040161191d9291906173e8565b6040805180830381865afa158015611939573d6000803e3d6000fd5b505050506040513d601f19601f8201168201806040525081019061195d9190617411565b9150915060008061196d85613791565b9150915060008560e0015173ffffffffffffffffffffffffffffffffffffffff166370a08231306040518263ffffffff1660e01b81526004016119b09190616b7b565b602060405180830381865afa1580156119cd573d6000803e3d6000fd5b505050506040513d601f19601f820116820180604052508101906119f19190616fa9565b905060004790508585858585859c509c509c509c509c509c50505050505050505b9295509295509295565b6000801b81565b611a2b6126c4565b73ffffffffffffffffffffffffffffffffffffffff16611a49611393565b73ffffffffffffffffffffffffffffffffffffffff1614611a9f576040517f08c379a0000000000000000000000000000000000000000000000000000000008152600401611a9690616ebf565b60405180910390fd5b611ac97f27e3e4d29d60af3ae6456513164bb5db737d6fc8610aa36ad458736c9efb884c82611d71565b50565b611af67f27e3e4d29d60af3ae6456513164bb5db737d6fc8610aa36ad458736c9efb884c33611591565b80611b3357503373ffffffffffffffffffffffffffffffffffffffff16611b1b611393565b73ffffffffffffffffffffffffffffffffffffffff16145b611b72576040517f08c379a0000000000000000000000000000000000000000000000000000000008152600401611b69906171be565b60405180910390fd5b6000611b7e8585610828565b9050806000015167ffffffffffffffff168367ffffffffffffffff161415611bdb576040517f3e0b6c4e000000000000000000000000000000000000000000000000000000008152600401611bd29061749d565b60405180910390fd5b611be481613899565b611bed81613bf0565b60004790506000811415611c2d576040517f125d08b800000000000000000000000000000000000000000000000000000000815260040160405180910390fd5b611c728667ffffffffffffffff16868667ffffffffffffffff1686600f600460009054906101000a900473ffffffffffffffffffffffffffffffffffffffff16613e90565b9150611c7e8282612dfb565b7f276507b8409e96839105b040c4e961ae63d3fced6e9ea1c4152dd031368813008685604051611caf9291906174bd565b60405180910390a1505050505050565b7f27e3e4d29d60af3ae6456513164bb5db737d6fc8610aa36ad458736c9efb884c81565b600e8054611cf090616e41565b80601f0160208091040260200160405190810160405280929190818152602001828054611d1c90616e41565b8015611d695780601f10611d3e57610100808354040283529160200191611d69565b820191906000526020600020905b815481529060010190602001808311611d4c57829003601f168201915b505050505081565b611d7a82610808565b611d8b81611d866126c4565b6126cc565b611d95838361284a565b505050565b60015481565b600080611dad8484610828565b9050611db8816135cc565b91505092915050565b600080611dce8484610828565b90508060a0015173ffffffffffffffffffffffffffffffffffffffff16630755e0b66040518163ffffffff1660e01b8152600401602060405180830381865afa158015611e1f573d6000803e3d6000fd5b505050506040513d601f19601f82011682018060405250810190611e439190616fa9565b91505092915050565b611e546126c4565b73ffffffffffffffffffffffffffffffffffffffff16611e72611393565b73ffffffffffffffffffffffffffffffffffffffff1614611ec8576040517f08c379a0000000000000000000000000000000000000000000000000000000008152600401611ebf90616ebf565b60405180910390fd5b60011515600d60009054906101000a900460ff1615151415611f16576040517f8616e3bb00000000000000000000000000000000000000000000000000000000815260040160405180910390fd5b6001600d60006101000a81548160ff0219169083151502179055506000611f3d8383610828565b9050611f4a816000612a12565b50611f5481613899565b611f5d81613bf0565b6000479050611f80826000015167ffffffffffffffff168360200151600f613f1b565b50611fc26040518060400160405280600981526020017f4c49515549444154450000000000000000000000000000000000000000000000815250826000614218565b9050611fcc611393565b73ffffffffffffffffffffffffffffffffffffffff166108fc829081150290604051600060405180830381858888f19350505050158015612011573d6000803e3d6000fd5b507f715ed3cd24887b619d3d2da2885c7d1b21168674116e771e308e978be95934d8816040516120419190617532565b60405180910390a150506000600d60006101000a81548160ff0219169083151502179055505050565b60008054906101000a900467ffffffffffffffff1681565b61208a6126c4565b73ffffffffffffffffffffffffffffffffffffffff166120a8611393565b73ffffffffffffffffffffffffffffffffffffffff16146120fe576040517f08c379a00000000000000000000000000000000000000000000000000000000081526004016120f590616ebf565b60405180910390fd5b600073ffffffffffffffffffffffffffffffffffffffff168173ffffffffffffffffffffffffffffffffffffffff16141561216e576040517f08c379a0000000000000000000000000000000000000000000000000000000008152600401612165906175d2565b60405180910390fd5b61217781613134565b50565b60007f01ffc9a7000000000000000000000000000000000000000000000000000000007bffffffffffffffffffffffffffffffffffffffffffffffffffffffff1916827bffffffffffffffffffffffffffffffffffffffffffffffffffffffff1916149050919050565b6121ec616210565b60006121f98686866143da565b90506001606461220991906175f2565b67ffffffffffffffff168167ffffffffffffffff16141561233b576040518061014001604052808267ffffffffffffffff168152602001604051806020016040528060008152508152602001600073ffffffffffffffffffffffffffffffffffffffff168152602001600073ffffffffffffffffffffffffffffffffffffffff168152602001600073ffffffffffffffffffffffffffffffffffffffff168152602001600073ffffffffffffffffffffffffffffffffffffffff168152602001600073ffffffffffffffffffffffffffffffffffffffff168152602001600073ffffffffffffffffffffffffffffffffffffffff168152602001604051806020016040528060008152508152602001600073ffffffffffffffffffffffffffffffffffffffff168152509150506126bc565b60008373ffffffffffffffffffffffffffffffffffffffff1663c42465e3868467ffffffffffffffff168154811061237657612375617630565b5b90600052602060002090600502016001016040518263ffffffff1660e01b81526004016123a391906176f4565b600060405180830381865afa1580156123c0573d6000803e3d6000fd5b505050506040513d6000823e3d601f19601f820116820180604052508101906123e991906178ae565b9050604051806101400160405280868467ffffffffffffffff168154811061241457612413617630565b5b90600052602060002090600502016000015467ffffffffffffffff168152602001868467ffffffffffffffff168154811061245257612451617630565b5b9060005260206000209060050201600101805461246e90616e41565b80601f016020809104026020016040519081016040528092919081815260200182805461249a90616e41565b80156124e75780601f106124bc576101008083540402835291602001916124e7565b820191906000526020600020905b8154815290600101906020018083116124ca57829003601f168201915b50505050508152602001868467ffffffffffffffff168154811061250e5761250d617630565b5b906000526020600020906005020160020160009054906101000a900473ffffffffffffffffffffffffffffffffffffffff1673ffffffffffffffffffffffffffffffffffffffff168152602001868467ffffffffffffffff168154811061257857612577617630565b5b906000526020600020906005020160030160009054906101000a900473ffffffffffffffffffffffffffffffffffffffff1673ffffffffffffffffffffffffffffffffffffffff168152602001868467ffffffffffffffff16815481106125e2576125e1617630565b5b906000526020600020906005020160040160009054906101000a900473ffffffffffffffffffffffffffffffffffffffff1673ffffffffffffffffffffffffffffffffffffffff168152602001826000015173ffffffffffffffffffffffffffffffffffffffff168152602001826020015173ffffffffffffffffffffffffffffffffffffffff168152602001826040015173ffffffffffffffffffffffffffffffffffffffff1681526020018260a001518152602001826060015173ffffffffffffffffffffffffffffffffffffffff16815250925050505b949350505050565b600033905090565b6126d68282611591565b612765576126fb8173ffffffffffffffffffffffffffffffffffffffff1660146144b7565b6127098360001c60206144b7565b60405160200161271a9291906179cb565b6040516020818303038152906040526040517f08c379a000000000000000000000000000000000000000000000000000000000815260040161275c9190616d19565b60405180910390fd5b5050565b6127738282611591565b6128465760016011600084815260200190815260200160002060000160008373ffffffffffffffffffffffffffffffffffffffff1673ffffffffffffffffffffffffffffffffffffffff16815260200190815260200160002060006101000a81548160ff0219169083151502179055506127eb6126c4565b73ffffffffffffffffffffffffffffffffffffffff168173ffffffffffffffffffffffffffffffffffffffff16837f2f8788117e7eff1d82e926ec794901d17c78024a50270940304540a733656f0d60405160405180910390a45b5050565b6128548282611591565b156129285760006011600084815260200190815260200160002060000160008373ffffffffffffffffffffffffffffffffffffffff1673ffffffffffffffffffffffffffffffffffffffff16815260200190815260200160002060006101000a81548160ff0219169083151502179055506128cd6126c4565b73ffffffffffffffffffffffffffffffffffffffff168173ffffffffffffffffffffffffffffffffffffffff16837ff6391f5c32d9c69d2a47ea670b442974b53935d1edc7fd64eb21e047a839171b60405160405180910390a45b5050565b6129368282612769565b5050565b60006129836001606461294d91906175f2565b8467ffffffffffffffff1684600f600460009054906101000a900473ffffffffffffffffffffffffffffffffffffffff166146f3565b905060003411156129d0576129988134612dfb565b7fb371d8e5053de89890d88e48d9a957d6a92527d176d7c909c0ab806e5cdbc847346040516129c79190616d3b565b60405180910390a15b7ffd8db58874f063863fd400716c7664e80d79b28f4c24f409d6f1b885f2d0600d838260400151604051612a05929190617a05565b60405180910390a1505050565b60008060009050612a22846135cc565b90506000811415612a7b576001831415612a71576040517f08c379a0000000000000000000000000000000000000000000000000000000008152600401612a6890617a7a565b60405180910390fd5b6000915050612df5565b8360a0015173ffffffffffffffffffffffffffffffffffffffff1663e2bbb158856000015160006040518363ffffffff1660e01b8152600401612abf929190617ad5565b600060405180830381600087803b158015612ad957600080fd5b505af1158015612aed573d6000803e3d6000fd5b505050508360e0015173ffffffffffffffffffffffffffffffffffffffff166370a08231306040518263ffffffff1660e01b8152600401612b2e9190616b7b565b602060405180830381865afa158015612b4b573d6000803e3d6000fd5b505050506040513d601f19601f82011682018060405250810190612b6f9190616fa9565b90506000600267ffffffffffffffff811115612b8e57612b8d61662e565b5b604051908082528060200260200182016040528015612bbc5781602001602082028036833780820191505090505b5090508460e0015181600081518110612bd857612bd7617630565b5b602002602001019073ffffffffffffffffffffffffffffffffffffffff16908173ffffffffffffffffffffffffffffffffffffffff168152505073bb4cdb9cbd36b01bd1cbaebf2de08d9173bc095c81600181518110612c3b57612c3a617630565b5b602002602001019073ffffffffffffffffffffffffffffffffffffffff16908173ffffffffffffffffffffffffffffffffffffffff1681525050612c808583836156c4565b91506000612ce06040518060400160405280600781526020017f484152564553540000000000000000000000000000000000000000000000000081525084633b9aca003a600154612cd19190617afe565b612cdb9190617afe565b614218565b905060008060009054906101000a900467ffffffffffffffff1667ffffffffffffffff161115612dee576000670de0b6b3a764000060008054906101000a900467ffffffffffffffff16612d349190617b87565b67ffffffffffffffff16606483612d4b9190617bb8565b612d559190617afe565b90508082612d639190617370565b9150612d6d611393565b73ffffffffffffffffffffffffffffffffffffffff166108fc829081150290604051600060405180830381858888f19350505050158015612db2573d6000803e3d6000fd5b507f2d2fdf8fe0a28febf1b874bc9ab0285dd0aa1a5ff1a73e7befec062d2e2a2b908183604051612de49291906173bf565b60405180910390a1505b8093505050505b92915050565b6000811415612e36576040517f125d08b800000000000000000000000000000000000000000000000000000000815260040160405180910390fd5b60008060006064603285612e4a9190617afe565b612e549190617bb8565b905073bb4cdb9cbd36b01bd1cbaebf2de08d9173bc095c73ffffffffffffffffffffffffffffffffffffffff16856060015173ffffffffffffffffffffffffffffffffffffffff1614612fb8576000600267ffffffffffffffff811115612ebe57612ebd61662e565b5b604051908082528060200260200182016040528015612eec5781602001602082028036833780820191505090505b50905073bb4cdb9cbd36b01bd1cbaebf2de08d9173bc095c81600081518110612f1857612f17617630565b5b602002602001019073ffffffffffffffffffffffffffffffffffffffff16908173ffffffffffffffffffffffffffffffffffffffff1681525050856060015181600181518110612f6b57612f6a617630565b5b602002602001019073ffffffffffffffffffffffffffffffffffffffff16908173ffffffffffffffffffffffffffffffffffffffff1681525050612fb08683836156c4565b935050612fbc565b8092505b73bb4cdb9cbd36b01bd1cbaebf2de08d9173bc095c73ffffffffffffffffffffffffffffffffffffffff16856080015173ffffffffffffffffffffffffffffffffffffffff161461311e576000600267ffffffffffffffff8111156130245761302361662e565b5b6040519080825280602002602001820160405280156130525781602001602082028036833780820191505090505b50905073bb4cdb9cbd36b01bd1cbaebf2de08d9173bc095c8160008151811061307e5761307d617630565b5b602002602001019073ffffffffffffffffffffffffffffffffffffffff16908173ffffffffffffffffffffffffffffffffffffffff16815250508560800151816001815181106130d1576130d0617630565b5b602002602001019073ffffffffffffffffffffffffffffffffffffffff16908173ffffffffffffffffffffffffffffffffffffffff16815250506131168683836156c4565b925050613122565b8091505b61312d858484615ebb565b5050505050565b6000601060009054906101000a900473ffffffffffffffffffffffffffffffffffffffff16905081601060006101000a81548173ffffffffffffffffffffffffffffffffffffffff021916908373ffffffffffffffffffffffffffffffffffffffff1602179055508173ffffffffffffffffffffffffffffffffffffffff168173ffffffffffffffffffffffffffffffffffffffff167f8be0079c531659141344cd1fd0a4f28419497f9722a3daafe3b4186f6b6457e060405160405180910390a35050565b613202616210565b60006132198667ffffffffffffffff1686866143da565b90506001606461322991906175f2565b67ffffffffffffffff168167ffffffffffffffff161415613270576132686001606461325591906175f2565b8767ffffffffffffffff168787876146f3565b9150506135c4565b60008373ffffffffffffffffffffffffffffffffffffffff1663c42465e3876040518263ffffffff1660e01b81526004016132ab9190616d19565b600060405180830381865afa1580156132c8573d6000803e3d6000fd5b505050506040513d6000823e3d601f19601f820116820180604052508101906132f191906178ae565b9050604051806101400160405280868467ffffffffffffffff168154811061331c5761331b617630565b5b90600052602060002090600502016000015467ffffffffffffffff168152602001868467ffffffffffffffff168154811061335a57613359617630565b5b9060005260206000209060050201600101805461337690616e41565b80601f01602080910402602001604051908101604052809291908181526020018280546133a290616e41565b80156133ef5780601f106133c4576101008083540402835291602001916133ef565b820191906000526020600020905b8154815290600101906020018083116133d257829003601f168201915b50505050508152602001868467ffffffffffffffff168154811061341657613415617630565b5b906000526020600020906005020160020160009054906101000a900473ffffffffffffffffffffffffffffffffffffffff1673ffffffffffffffffffffffffffffffffffffffff168152602001868467ffffffffffffffff16815481106134805761347f617630565b5b906000526020600020906005020160030160009054906101000a900473ffffffffffffffffffffffffffffffffffffffff1673ffffffffffffffffffffffffffffffffffffffff168152602001868467ffffffffffffffff16815481106134ea576134e9617630565b5b906000526020600020906005020160040160009054906101000a900473ffffffffffffffffffffffffffffffffffffffff1673ffffffffffffffffffffffffffffffffffffffff168152602001826000015173ffffffffffffffffffffffffffffffffffffffff168152602001826020015173ffffffffffffffffffffffffffffffffffffffff168152602001826040015173ffffffffffffffffffffffffffffffffffffffff1681526020018260a001518152602001826060015173ffffffffffffffffffffffffffffffffffffffff16815250925050505b949350505050565b6000808260a0015173ffffffffffffffffffffffffffffffffffffffff16836101000151846000015130604051602401613607929190617a05565b604051602081830303815290604052906040516136249190617be9565b60405180910390207bffffffffffffffffffffffffffffffffffffffffffffffffffffffff19166020820180517bffffffffffffffffffffffffffffffffffffffffffffffffffffffff83818316178352505050506040516136869190617c47565b600060405180830381855afa9150503d80600081146136c1576040519150601f19603f3d011682016040523d82523d6000602084013e6136c6565b606091505b509150506000808251146136ed57818060200190518101906136e89190616fa9565b6136f0565b60005b90506000811415613787578360e0015173ffffffffffffffffffffffffffffffffffffffff166370a08231306040518263ffffffff1660e01b81526004016137389190616b7b565b602060405180830381865afa158015613755573d6000803e3d6000fd5b505050506040513d601f19601f820116820180604052508101906137799190616fa9565b81613784919061731a565b90505b8092505050919050565b600080826060015173ffffffffffffffffffffffffffffffffffffffff166370a08231306040518263ffffffff1660e01b81526004016137d19190616b7b565b602060405180830381865afa1580156137ee573d6000803e3d6000fd5b505050506040513d601f19601f820116820180604052508101906138129190616fa9565b9150826080015173ffffffffffffffffffffffffffffffffffffffff166370a08231306040518263ffffffff1660e01b81526004016138519190616b7b565b602060405180830381865afa15801561386e573d6000803e3d6000fd5b505050506040513d601f19601f820116820180604052508101906138929190616fa9565b9050915091565b6000806000610258426138ac919061731a565b905060008460a0015173ffffffffffffffffffffffffffffffffffffffff166393f1a40b8660000151306040518363ffffffff1660e01b81526004016138f39291906173e8565b6040805180830381865afa15801561390f573d6000803e3d6000fd5b505050506040513d601f19601f820116820180604052508101906139339190617411565b5090508460a0015173ffffffffffffffffffffffffffffffffffffffff1663441a3e708660000151836040518363ffffffff1660e01b8152600401613979929190617c5e565b600060405180830381600087803b15801561399357600080fd5b505af11580156139a7573d6000803e3d6000fd5b505050506000856040015173ffffffffffffffffffffffffffffffffffffffff166370a08231306040518263ffffffff1660e01b81526004016139ea9190616b7b565b602060405180830381865afa158015613a07573d6000803e3d6000fd5b505050506040513d601f19601f82011682018060405250810190613a2b9190616fa9565b90507f715ed3cd24887b619d3d2da2885c7d1b21168674116e771e308e978be95934d881604051613a5c9190617cd3565b60405180910390a173bb4cdb9cbd36b01bd1cbaebf2de08d9173bc095c73ffffffffffffffffffffffffffffffffffffffff16866080015173ffffffffffffffffffffffffffffffffffffffff161415613b4b578560c0015173ffffffffffffffffffffffffffffffffffffffff166302751cec87606001518360008030896040518763ffffffff1660e01b8152600401613afc96959493929190617d01565b60408051808303816000875af1158015613b1a573d6000803e3d6000fd5b505050506040513d601f19601f82011682018060405250810190613b3e9190617411565b8095508196505050613be8565b8560c0015173ffffffffffffffffffffffffffffffffffffffff1663baa2abde8760600151886080015184600080308a6040518863ffffffff1660e01b8152600401613b9d9796959493929190617d62565b60408051808303816000875af1158015613bbb573d6000803e3d6000fd5b505050506040513d601f19601f82011682018060405250810190613bdf9190617411565b80955081965050505b505050505050565b6000600267ffffffffffffffff811115613c0d57613c0c61662e565b5b604051908082528060200260200182016040528015613c3b5781602001602082028036833780820191505090505b50905073bb4cdb9cbd36b01bd1cbaebf2de08d9173bc095c81600181518110613c6757613c66617630565b5b602002602001019073ffffffffffffffffffffffffffffffffffffffff16908173ffffffffffffffffffffffffffffffffffffffff16815250506000808360e0015173ffffffffffffffffffffffffffffffffffffffff166370a08231306040518263ffffffff1660e01b8152600401613ce19190616b7b565b602060405180830381865afa158015613cfe573d6000803e3d6000fd5b505050506040513d601f19601f82011682018060405250810190613d229190616fa9565b90506000811115613d8e578360e0015183600081518110613d4657613d45617630565b5b602002602001019073ffffffffffffffffffffffffffffffffffffffff16908173ffffffffffffffffffffffffffffffffffffffff1681525050613d8b8482856156c4565b91505b600080613d9a86613791565b915091506000821115613e1357856060015185600081518110613dc057613dbf617630565b5b602002602001019073ffffffffffffffffffffffffffffffffffffffff16908173ffffffffffffffffffffffffffffffffffffffff1681525050613e058683876156c4565b84613e10919061731a565b93505b6000811115613e8857856080015185600081518110613e3557613e34617630565b5b602002602001019073ffffffffffffffffffffffffffffffffffffffff16908173ffffffffffffffffffffffffffffffffffffffff1681525050613e7a8682876156c4565b84613e85919061731a565b93505b505050505050565b613e98616210565b6000613ea58888866143da565b9050606467ffffffffffffffff168167ffffffffffffffff161415613f0157876040517fc54c27fc000000000000000000000000000000000000000000000000000000008152600401613ef89190616d3b565b60405180910390fd5b613f0e81878787876146f3565b9150509695505050505050565b600080613f298585856143da565b67ffffffffffffffff16905082805490508110613f72576040517ff8e3d81100000000000000000000000000000000000000000000000000000000815260040160405180910390fd5b8260018480549050613f849190617370565b81548110613f9557613f94617630565b5b9060005260206000209060050201838281548110613fb657613fb5617630565b5b9060005260206000209060050201600082015481600001556001820181600101908054613fe290616e41565b613fed929190616307565b506002820160009054906101000a900473ffffffffffffffffffffffffffffffffffffffff168160020160006101000a81548173ffffffffffffffffffffffffffffffffffffffff021916908373ffffffffffffffffffffffffffffffffffffffff1602179055506003820160009054906101000a900473ffffffffffffffffffffffffffffffffffffffff168160030160006101000a81548173ffffffffffffffffffffffffffffffffffffffff021916908373ffffffffffffffffffffffffffffffffffffffff1602179055506004820160009054906101000a900473ffffffffffffffffffffffffffffffffffffffff168160040160006101000a81548173ffffffffffffffffffffffffffffffffffffffff021916908373ffffffffffffffffffffffffffffffffffffffff1602179055509050508280548061413757614136617dd1565b5b60019003818190600052602060002090600502016000808201600090556001820160006141649190616394565b6002820160006101000a81549073ffffffffffffffffffffffffffffffffffffffff02191690556003820160006101000a81549073ffffffffffffffffffffffffffffffffffffffff02191690556004820160006101000a81549073ffffffffffffffffffffffffffffffffffffffff0219169055505090557f2ad593f3de4cd64c0c14e82addef84e7067e22b4e432b4b77834c656cb0584d160405160405180910390a182805490509150509392505050565b600080600460009054906101000a900473ffffffffffffffffffffffffffffffffffffffff1673ffffffffffffffffffffffffffffffffffffffff1663db1e420286614262611393565b6040518363ffffffff1660e01b815260040161427f929190617e00565b60408051808303816000875af115801561429d573d6000803e3d6000fd5b505050506040513d601f19601f820116820180604052508101906142c19190617411565b50905060008368056bc75e2d6310000083876142dd9190617afe565b6142e79190617bb8565b6142f1919061731a565b9050848111156142ff578490505b60008111156143ce578481111561431c578490506000945061432b565b80856143289190617370565b94505b600360009054906101000a900473ffffffffffffffffffffffffffffffffffffffff1673ffffffffffffffffffffffffffffffffffffffff166108fc829081150290604051600060405180830381858888f19350505050158015614393573d6000803e3d6000fd5b507f596e0bcd2f1a5ac10927ff9bb914618e32960081c556ad176b8b2642dc40c28881866040516143c59291906173bf565b60405180910390a15b84925050509392505050565b600080600090505b82805490508167ffffffffffffffff16101561449e5784838267ffffffffffffffff168154811061441657614415617630565b5b90600052602060002090600502016000015414801561447d57508380519060200120838267ffffffffffffffff168154811061445557614454617630565b5b90600052602060002090600502016001016040516144739190617ed7565b6040518091039020145b1561448b57809150506144b0565b808061449690617eee565b9150506143e2565b50600160646144ad91906175f2565b90505b9392505050565b6060600060028360026144ca9190617afe565b6144d4919061731a565b67ffffffffffffffff8111156144ed576144ec61662e565b5b6040519080825280601f01601f19166020018201604052801561451f5781602001600182028036833780820191505090505b5090507f30000000000000000000000000000000000000000000000000000000000000008160008151811061455757614556617630565b5b60200101907effffffffffffffffffffffffffffffffffffffffffffffffffffffffffffff1916908160001a9053507f7800000000000000000000000000000000000000000000000000000000000000816001815181106145bb576145ba617630565b5b60200101907effffffffffffffffffffffffffffffffffffffffffffffffffffffffffffff1916908160001a905350600060018460026145fb9190617afe565b614605919061731a565b90505b60018111156146a5577f3031323334353637383961626364656600000000000000000000000000000000600f86166010811061464757614646617630565b5b1a60f81b82828151811061465e5761465d617630565b5b60200101907effffffffffffffffffffffffffffffffffffffffffffffffffffffffffffff1916908160001a905350600485901c94508061469e90617f1f565b9050614608565b50600084146146e9576040517f08c379a00000000000000000000000000000000000000000000000000000000081526004016146e090617f95565b60405180910390fd5b8091505092915050565b6146fb616210565b60008273ffffffffffffffffffffffffffffffffffffffff1663c42465e3866040518263ffffffff1660e01b81526004016147369190616d19565b600060405180830381865afa158015614753573d6000803e3d6000fd5b505050506040513d6000823e3d601f19601f8201168201806040525081019061477c91906178ae565b9050600080826000015173ffffffffffffffffffffffffffffffffffffffff16631526fe27896040518263ffffffff1660e01b81526004016147be9190616d3b565b608060405180830381865afa1580156147db573d6000803e3d6000fd5b505050506040513d601f19601f820116820180604052508101906147ff9190617fb5565b505091509150600073ffffffffffffffffffffffffffffffffffffffff168273ffffffffffffffffffffffffffffffffffffffff161415614875576040517fba34e85000000000000000000000000000000000000000000000000000000000815260040161486c90618068565b60405180910390fd5b60008114156148bb57876040517fc54c27fc0000000000000000000000000000000000000000000000000000000081526004016148b29190616d3b565b60405180910390fd5b600160646148c991906175f2565b67ffffffffffffffff168967ffffffffffffffff161415614b6957856040518060a001604052808a81526020018981526020018473ffffffffffffffffffffffffffffffffffffffff1681526020018473ffffffffffffffffffffffffffffffffffffffff16630dfe16816040518163ffffffff1660e01b8152600401602060405180830381865afa158015614963573d6000803e3d6000fd5b505050506040513d601f19601f8201168201806040525081019061498791906170d9565b73ffffffffffffffffffffffffffffffffffffffff1681526020018473ffffffffffffffffffffffffffffffffffffffff1663d21220a76040518163ffffffff1660e01b8152600401602060405180830381865afa1580156149ed573d6000803e3d6000fd5b505050506040513d601f19601f82011682018060405250810190614a1191906170d9565b73ffffffffffffffffffffffffffffffffffffffff168152509080600181540180825580915050600190039060005260206000209060050201600090919091909150600082015181600001556020820151816001019080519060200190614a799291906163d4565b5060408201518160020160006101000a81548173ffffffffffffffffffffffffffffffffffffffff021916908373ffffffffffffffffffffffffffffffffffffffff16021790555060608201518160030160006101000a81548173ffffffffffffffffffffffffffffffffffffffff021916908373ffffffffffffffffffffffffffffffffffffffff16021790555060808201518160040160006101000a81548173ffffffffffffffffffffffffffffffffffffffff021916908373ffffffffffffffffffffffffffffffffffffffff160217905550505060018680549050614b629190617370565b9850614e20565b85805490508967ffffffffffffffff1610614bb0576040517ff8e3d81100000000000000000000000000000000000000000000000000000000815260040160405180910390fd5b6040518060a001604052808981526020018881526020018373ffffffffffffffffffffffffffffffffffffffff1681526020018373ffffffffffffffffffffffffffffffffffffffff16630dfe16816040518163ffffffff1660e01b8152600401602060405180830381865afa158015614c2e573d6000803e3d6000fd5b505050506040513d601f19601f82011682018060405250810190614c5291906170d9565b73ffffffffffffffffffffffffffffffffffffffff1681526020018373ffffffffffffffffffffffffffffffffffffffff1663d21220a76040518163ffffffff1660e01b8152600401602060405180830381865afa158015614cb8573d6000803e3d6000fd5b505050506040513d601f19601f82011682018060405250810190614cdc91906170d9565b73ffffffffffffffffffffffffffffffffffffffff16815250868a67ffffffffffffffff1681548110614d1257614d11617630565b5b9060005260206000209060050201600082015181600001556020820151816001019080519060200190614d469291906163d4565b5060408201518160020160006101000a81548173ffffffffffffffffffffffffffffffffffffffff021916908373ffffffffffffffffffffffffffffffffffffffff16021790555060608201518160030160006101000a81548173ffffffffffffffffffffffffffffffffffffffff021916908373ffffffffffffffffffffffffffffffffffffffff16021790555060808201518160040160006101000a81548173ffffffffffffffffffffffffffffffffffffffff021916908373ffffffffffffffffffffffffffffffffffffffff1602179055509050505b6000836040015173ffffffffffffffffffffffffffffffffffffffff1663dd62ed3e3086602001516040518363ffffffff1660e01b8152600401614e65929190618088565b602060405180830381865afa158015614e82573d6000803e3d6000fd5b505050506040513d601f19601f82011682018060405250810190614ea69190616fa9565b1415614ff757826040015173ffffffffffffffffffffffffffffffffffffffff1663095ea7b3307fffffffffffffffffffffffffffffffffffffffffffffffffffffffffffffffff6040518363ffffffff1660e01b8152600401614f0b929190616fd6565b6020604051808303816000875af1158015614f2a573d6000803e3d6000fd5b505050506040513d601f19601f82011682018060405250810190614f4e919061702b565b50826040015173ffffffffffffffffffffffffffffffffffffffff1663095ea7b384602001517fffffffffffffffffffffffffffffffffffffffffffffffffffffffffffffffff6040518363ffffffff1660e01b8152600401614fb2929190616fd6565b6020604051808303816000875af1158015614fd1573d6000803e3d6000fd5b505050506040513d601f19601f82011682018060405250810190614ff5919061702b565b505b858967ffffffffffffffff168154811061501457615013617630565b5b906000526020600020906005020160030160009054906101000a900473ffffffffffffffffffffffffffffffffffffffff1673ffffffffffffffffffffffffffffffffffffffff1663095ea7b384602001517fffffffffffffffffffffffffffffffffffffffffffffffffffffffffffffffff6040518363ffffffff1660e01b81526004016150a4929190616fd6565b6020604051808303816000875af11580156150c3573d6000803e3d6000fd5b505050506040513d601f19601f820116820180604052508101906150e7919061702b565b50858967ffffffffffffffff168154811061510557615104617630565b5b906000526020600020906005020160040160009054906101000a900473ffffffffffffffffffffffffffffffffffffffff1673ffffffffffffffffffffffffffffffffffffffff1663095ea7b384602001517fffffffffffffffffffffffffffffffffffffffffffffffffffffffffffffffff6040518363ffffffff1660e01b8152600401615195929190616fd6565b6020604051808303816000875af11580156151b4573d6000803e3d6000fd5b505050506040513d601f19601f820116820180604052508101906151d8919061702b565b508173ffffffffffffffffffffffffffffffffffffffff1663095ea7b3307fffffffffffffffffffffffffffffffffffffffffffffffffffffffffffffffff6040518363ffffffff1660e01b8152600401615234929190616fd6565b6020604051808303816000875af1158015615253573d6000803e3d6000fd5b505050506040513d601f19601f82011682018060405250810190615277919061702b565b508173ffffffffffffffffffffffffffffffffffffffff1663095ea7b384600001517fffffffffffffffffffffffffffffffffffffffffffffffffffffffffffffffff6040518363ffffffff1660e01b81526004016152d7929190616fd6565b6020604051808303816000875af11580156152f6573d6000803e3d6000fd5b505050506040513d601f19601f8201168201806040525081019061531a919061702b565b508173ffffffffffffffffffffffffffffffffffffffff1663095ea7b384602001517fffffffffffffffffffffffffffffffffffffffffffffffffffffffffffffffff6040518363ffffffff1660e01b815260040161537a929190616fd6565b6020604051808303816000875af1158015615399573d6000803e3d6000fd5b505050506040513d601f19601f820116820180604052508101906153bd919061702b565b507f2ad593f3de4cd64c0c14e82addef84e7067e22b4e432b4b77834c656cb0584d160405160405180910390a1604051806101400160405280878b67ffffffffffffffff168154811061541357615412617630565b5b90600052602060002090600502016000015467ffffffffffffffff168152602001878b67ffffffffffffffff168154811061545157615450617630565b5b9060005260206000209060050201600101805461546d90616e41565b80601f016020809104026020016040519081016040528092919081815260200182805461549990616e41565b80156154e65780601f106154bb576101008083540402835291602001916154e6565b820191906000526020600020905b8154815290600101906020018083116154c957829003601f168201915b50505050508152602001878b67ffffffffffffffff168154811061550d5761550c617630565b5b906000526020600020906005020160020160009054906101000a900473ffffffffffffffffffffffffffffffffffffffff1673ffffffffffffffffffffffffffffffffffffffff168152602001878b67ffffffffffffffff168154811061557757615576617630565b5b906000526020600020906005020160030160009054906101000a900473ffffffffffffffffffffffffffffffffffffffff1673ffffffffffffffffffffffffffffffffffffffff168152602001878b67ffffffffffffffff16815481106155e1576155e0617630565b5b906000526020600020906005020160040160009054906101000a900473ffffffffffffffffffffffffffffffffffffffff1673ffffffffffffffffffffffffffffffffffffffff168152602001846000015173ffffffffffffffffffffffffffffffffffffffff168152602001846020015173ffffffffffffffffffffffffffffffffffffffff168152602001846040015173ffffffffffffffffffffffffffffffffffffffff1681526020018460a001518152602001846060015173ffffffffffffffffffffffffffffffffffffffff16815250935050505095945050505050565b600080831415615700576040517f125d08b800000000000000000000000000000000000000000000000000000000815260040160405180910390fd5b60008073ffffffffffffffffffffffffffffffffffffffff1685610120015173ffffffffffffffffffffffffffffffffffffffff161415801561578f575084610120015173ffffffffffffffffffffffffffffffffffffffff168360008151811061576e5761576d617630565b5b602002602001015173ffffffffffffffffffffffffffffffffffffffff1614155b80156157e7575084610120015173ffffffffffffffffffffffffffffffffffffffff16836001815181106157c6576157c5617630565b5b602002602001015173ffffffffffffffffffffffffffffffffffffffff1614155b6157f25760026157f5565b60035b60ff16905060008167ffffffffffffffff8111156158165761581561662e565b5b6040519080825280602002602001820160405280156158445781602001602082028036833780820191505090505b5090506002821415615929578360008151811061586457615863617630565b5b6020026020010151816000815181106158805761587f617630565b5b602002602001019073ffffffffffffffffffffffffffffffffffffffff16908173ffffffffffffffffffffffffffffffffffffffff1681525050836001815181106158ce576158cd617630565b5b6020026020010151816001815181106158ea576158e9617630565b5b602002602001019073ffffffffffffffffffffffffffffffffffffffff16908173ffffffffffffffffffffffffffffffffffffffff1681525050615a52565b8360008151811061593d5761593c617630565b5b60200260200101518160008151811061595957615958617630565b5b602002602001019073ffffffffffffffffffffffffffffffffffffffff16908173ffffffffffffffffffffffffffffffffffffffff1681525050856101200151816001815181106159ad576159ac617630565b5b602002602001019073ffffffffffffffffffffffffffffffffffffffff16908173ffffffffffffffffffffffffffffffffffffffff1681525050836001815181106159fb576159fa617630565b5b602002602001015181600281518110615a1757615a16617630565b5b602002602001019073ffffffffffffffffffffffffffffffffffffffff16908173ffffffffffffffffffffffffffffffffffffffff16815250505b6060600061025842615a64919061731a565b9050600073bb4cdb9cbd36b01bd1cbaebf2de08d9173bc095c73ffffffffffffffffffffffffffffffffffffffff1687600081518110615aa757615aa6617630565b5b602002602001015173ffffffffffffffffffffffffffffffffffffffff1614615ad1576000615b60565b73bb4cdb9cbd36b01bd1cbaebf2de08d9173bc095c73ffffffffffffffffffffffffffffffffffffffff166370a08231306040518263ffffffff1660e01b8152600401615b1e9190616b7b565b602060405180830381865afa158015615b3b573d6000803e3d6000fd5b505050506040513d601f19601f82011682018060405250810190615b5f9190616fa9565b5b90506000811115615bf75773bb4cdb9cbd36b01bd1cbaebf2de08d9173bc095c73ffffffffffffffffffffffffffffffffffffffff16632e1a7d4d826040518263ffffffff1660e01b8152600401615bb89190616d3b565b600060405180830381600087803b158015615bd257600080fd5b505af1158015615be6573d6000803e3d6000fd5b505050508095505050505050615eb4565b73bb4cdb9cbd36b01bd1cbaebf2de08d9173bc095c73ffffffffffffffffffffffffffffffffffffffff168760018951615c319190617370565b81518110615c4257615c41617630565b5b602002602001015173ffffffffffffffffffffffffffffffffffffffff161415615cfb578860c0015173ffffffffffffffffffffffffffffffffffffffff166318cbafe58960008730876040518663ffffffff1660e01b8152600401615cac959493929190618160565b6000604051808303816000875af1158015615ccb573d6000803e3d6000fd5b505050506040513d6000823e3d601f19601f82011682018060405250810190615cf49190618282565b9250615e84565b73bb4cdb9cbd36b01bd1cbaebf2de08d9173bc095c73ffffffffffffffffffffffffffffffffffffffff1687600081518110615d3a57615d39617630565b5b602002602001015173ffffffffffffffffffffffffffffffffffffffff161415615df2578860c0015173ffffffffffffffffffffffffffffffffffffffff16637ff36ab58960008730876040518663ffffffff1660e01b8152600401615da394939291906182cb565b60006040518083038185885af1158015615dc1573d6000803e3d6000fd5b50505050506040513d6000823e3d601f19601f82011682018060405250810190615deb9190618282565b9250615e83565b8860c0015173ffffffffffffffffffffffffffffffffffffffff166338ed17398960008730876040518663ffffffff1660e01b8152600401615e38959493929190618160565b6000604051808303816000875af1158015615e57573d6000803e3d6000fd5b505050506040513d6000823e3d601f19601f82011682018060405250810190615e809190618282565b92505b5b8260018551615e939190617370565b81518110615ea457615ea3617630565b5b6020026020010151955050505050505b9392505050565b600080600073bb4cdb9cbd36b01bd1cbaebf2de08d9173bc095c73ffffffffffffffffffffffffffffffffffffffff16866080015173ffffffffffffffffffffffffffffffffffffffff161480615f55575073bb4cdb9cbd36b01bd1cbaebf2de08d9173bc095c73ffffffffffffffffffffffffffffffffffffffff16866060015173ffffffffffffffffffffffffffffffffffffffff16145b156160b45773bb4cdb9cbd36b01bd1cbaebf2de08d9173bc095c73ffffffffffffffffffffffffffffffffffffffff16866060015173ffffffffffffffffffffffffffffffffffffffff1614615fac578385615faf565b84845b8095508196505050600073bb4cdb9cbd36b01bd1cbaebf2de08d9173bc095c73ffffffffffffffffffffffffffffffffffffffff16876060015173ffffffffffffffffffffffffffffffffffffffff161461600e578660600151616014565b86608001515b90508660c0015173ffffffffffffffffffffffffffffffffffffffff1663f305d71987838860008030426040518863ffffffff1660e01b815260040161605f96959493929190617d01565b60606040518083038185885af115801561607d573d6000803e3d6000fd5b50505050506040513d601f19601f820116820180604052508101906160a29190618317565b80945081955082965050505050616158565b8560c0015173ffffffffffffffffffffffffffffffffffffffff1663e8e3370087606001518860800151888860008030426040518963ffffffff1660e01b815260040161610898979695949392919061836a565b6060604051808303816000875af1158015616127573d6000803e3d6000fd5b505050506040513d601f19601f8201168201806040525081019061614b9190618317565b8093508194508295505050505b8560a0015173ffffffffffffffffffffffffffffffffffffffff1663e2bbb1588760000151836040518363ffffffff1660e01b815260040161619b929190617c5e565b600060405180830381600087803b1580156161b557600080fd5b505af11580156161c9573d6000803e3d6000fd5b505050507ffb5d1f95093901664df381ff239630a1fc4a0d1d2c36327ba1106cbc60c0cb56838383604051616200939291906183e8565b60405180910390a1505050505050565b604051806101400160405280600067ffffffffffffffff16815260200160608152602001600073ffffffffffffffffffffffffffffffffffffffff168152602001600073ffffffffffffffffffffffffffffffffffffffff168152602001600073ffffffffffffffffffffffffffffffffffffffff168152602001600073ffffffffffffffffffffffffffffffffffffffff168152602001600073ffffffffffffffffffffffffffffffffffffffff168152602001600073ffffffffffffffffffffffffffffffffffffffff16815260200160608152602001600073ffffffffffffffffffffffffffffffffffffffff1681525090565b82805461631390616e41565b90600052602060002090601f0160209004810192826163355760008555616383565b82601f106163465780548555616383565b8280016001018555821561638357600052602060002091601f016020900482015b82811115616382578254825591600101919060010190616367565b5b509050616390919061645a565b5090565b5080546163a090616e41565b6000825580601f106163b257506163d1565b601f0160209004906000526020600020908101906163d0919061645a565b5b50565b8280546163e090616e41565b90600052602060002090601f0160209004810192826164025760008555616449565b82601f1061641b57805160ff1916838001178555616449565b82800160010185558215616449579182015b8281111561644857825182559160200191906001019061642d565b5b509050616456919061645a565b5090565b5b8082111561647357600081600090555060010161645b565b5090565b6000604051905090565b600080fd5b600080fd5b60007fffffffff0000000000000000000000000000000000000000000000000000000082169050919050565b6164c08161648b565b81146164cb57600080fd5b50565b6000813590506164dd816164b7565b92915050565b6000602082840312156164f9576164f8616481565b5b6000616507848285016164ce565b91505092915050565b60008115159050919050565b61652581616510565b82525050565b6000602082019050616540600083018461651c565b92915050565b6000819050919050565b61655981616546565b811461656457600080fd5b50565b60008135905061657681616550565b92915050565b60006020828403121561659257616591616481565b5b60006165a084828501616567565b91505092915050565b6165b281616546565b82525050565b60006020820190506165cd60008301846165a9565b92915050565b600067ffffffffffffffff82169050919050565b6165f0816165d3565b81146165fb57600080fd5b50565b60008135905061660d816165e7565b92915050565b600080fd5b600080fd5b6000601f19601f8301169050919050565b7f4e487b7100000000000000000000000000000000000000000000000000000000600052604160045260246000fd5b6166668261661d565b810181811067ffffffffffffffff821117156166855761668461662e565b5b80604052505050565b6000616698616477565b90506166a4828261665d565b919050565b600067ffffffffffffffff8211156166c4576166c361662e565b5b6166cd8261661d565b9050602081019050919050565b82818337600083830152505050565b60006166fc6166f7846166a9565b61668e565b90508281526020810184848401111561671857616717616618565b5b6167238482856166da565b509392505050565b600082601f8301126167405761673f616613565b5b81356167508482602086016166e9565b91505092915050565b600080604083850312156167705761676f616481565b5b600061677e858286016165fe565b925050602083013567ffffffffffffffff81111561679f5761679e616486565b5b6167ab8582860161672b565b9150509250929050565b6167be816165d3565b82525050565b600081519050919050565b600082825260208201905092915050565b60005b838110156167fe5780820151818401526020810190506167e3565b8381111561680d576000848401525b50505050565b600061681e826167c4565b61682881856167cf565b93506168388185602086016167e0565b6168418161661d565b840191505092915050565b600073ffffffffffffffffffffffffffffffffffffffff82169050919050565b60006168778261684c565b9050919050565b6168878161686c565b82525050565b6000610140830160008301516168a660008601826167b5565b50602083015184820360208601526168be8282616813565b91505060408301516168d3604086018261687e565b5060608301516168e6606086018261687e565b5060808301516168f9608086018261687e565b5060a083015161690c60a086018261687e565b5060c083015161691f60c086018261687e565b5060e083015161693260e086018261687e565b5061010083015184820361010086015261694c8282616813565b91505061012083015161696361012086018261687e565b508091505092915050565b60006020820190508181036000830152616988818461688d565b905092915050565b6169998161686c565b81146169a457600080fd5b50565b6000813590506169b681616990565b92915050565b600080604083850312156169d3576169d2616481565b5b60006169e185828601616567565b92505060206169f2858286016169a7565b9150509250929050565b6000819050919050565b616a0f816169fc565b8114616a1a57600080fd5b50565b600081359050616a2c81616a06565b92915050565b600060208284031215616a4857616a47616481565b5b6000616a5684828501616a1d565b91505092915050565b616a68816169fc565b82525050565b600082825260208201905092915050565b6000616a8a826167c4565b616a948185616a6e565b9350616aa48185602086016167e0565b616aad8161661d565b840191505092915050565b616ac18161686c565b82525050565b600060a082019050616adc6000830188616a5f565b8181036020830152616aee8187616a7f565b9050616afd6040830186616ab8565b616b0a6060830185616ab8565b616b176080830184616ab8565b9695505050505050565b600060208284031215616b3757616b36616481565b5b6000616b45848285016165fe565b91505092915050565b600060208284031215616b6457616b63616481565b5b6000616b72848285016169a7565b91505092915050565b6000602082019050616b906000830184616ab8565b92915050565b60008060008060808587031215616bb057616baf616481565b5b6000616bbe878288016165fe565b9450506020616bcf878288016169a7565b935050604085013567ffffffffffffffff811115616bf057616bef616486565b5b616bfc8782880161672b565b9250506060616c0d878288016169a7565b91505092959194509250565b600060c082019050616c2e6000830189616a5f565b616c3b6020830188616a5f565b616c486040830187616a5f565b616c556060830186616a5f565b616c626080830185616a5f565b616c6f60a0830184616a5f565b979650505050505050565b60008060008060808587031215616c9457616c93616481565b5b6000616ca2878288016165fe565b945050602085013567ffffffffffffffff811115616cc357616cc2616486565b5b616ccf8782880161672b565b9350506040616ce0878288016165fe565b925050606085013567ffffffffffffffff811115616d0157616d00616486565b5b616d0d8782880161672b565b91505092959194509250565b60006020820190508181036000830152616d338184616a7f565b905092915050565b6000602082019050616d506000830184616a5f565b92915050565b616d5f816165d3565b82525050565b6000602082019050616d7a6000830184616d56565b92915050565b7f416363657373436f6e74726f6c3a2063616e206f6e6c792072656e6f756e636560008201527f20726f6c657320666f722073656c660000000000000000000000000000000000602082015250565b6000616ddc602f83616a6e565b9150616de782616d80565b604082019050919050565b60006020820190508181036000830152616e0b81616dcf565b9050919050565b7f4e487b7100000000000000000000000000000000000000000000000000000000600052602260045260246000fd5b60006002820490506001821680616e5957607f821691505b60208210811415616e6d57616e6c616e12565b5b50919050565b7f4f776e61626c653a2063616c6c6572206973206e6f7420746865206f776e6572600082015250565b6000616ea9602083616a6e565b9150616eb482616e73565b602082019050919050565b60006020820190508181036000830152616ed881616e9c565b9050919050565b7f686f6c646261636b000000000000000000000000000000000000000000000000600082015250565b6000616f15600883616a6e565b9150616f2082616edf565b602082019050919050565b6000819050919050565b6000616f50616f4b616f46846165d3565b616f2b565b6169fc565b9050919050565b616f6081616f35565b82525050565b60006040820190508181036000830152616f7f81616f08565b9050616f8e6020830184616f57565b92915050565b600081519050616fa381616a06565b92915050565b600060208284031215616fbf57616fbe616481565b5b6000616fcd84828501616f94565b91505092915050565b6000604082019050616feb6000830185616ab8565b616ff86020830184616a5f565b9392505050565b61700881616510565b811461701357600080fd5b50565b60008151905061702581616fff565b92915050565b60006020828403121561704157617040616481565b5b600061704f84828501617016565b91505092915050565b7f4841525645535445520000000000000000000000000000000000000000000000600082015250565b600061708e600983616a6e565b915061709982617058565b602082019050919050565b600060208201905081810360008301526170bd81617081565b9050919050565b6000815190506170d381616990565b92915050565b6000602082840312156170ef576170ee616481565b5b60006170fd848285016170c4565b91505092915050565b7f464545434f4c4c4543544f520000000000000000000000000000000000000000600082015250565b600061713c600c83616a6e565b915061714782617106565b602082019050919050565b6000602082019050818103600083015261716b8161712f565b9050919050565b7f526573747269637465642046756e6374696f6e00000000000000000000000000600082015250565b60006171a8601383616a6e565b91506171b382617172565b602082019050919050565b600060208201905081810360008301526171d78161719b565b9050919050565b7f44454641554c5400000000000000000000000000000000000000000000000000600082015250565b6000617214600783616a6e565b915061721f826171de565b602082019050919050565b7f48415256455354534f4c4f474153000000000000000000000000000000000000600082015250565b6000617260600e83616a6e565b915061726b8261722a565b602082019050919050565b6000604082019050818103600083015261728f81617207565b905081810360208301526172a281617253565b9050919050565b6000815190506172b8816165e7565b92915050565b6000602082840312156172d4576172d3616481565b5b60006172e2848285016172a9565b91505092915050565b7f4e487b7100000000000000000000000000000000000000000000000000000000600052601160045260246000fd5b6000617325826169fc565b9150617330836169fc565b9250827fffffffffffffffffffffffffffffffffffffffffffffffffffffffffffffffff03821115617365576173646172eb565b5b828201905092915050565b600061737b826169fc565b9150617386836169fc565b925082821015617399576173986172eb565b5b828203905092915050565b60006020820190506173b96000830184616f57565b92915050565b60006040820190506173d46000830185616a5f565b6173e16020830184616a5f565b9392505050565b60006040820190506173fd6000830185616f57565b61740a6020830184616ab8565b9392505050565b6000806040838503121561742857617427616481565b5b600061743685828601616f94565b925050602061744785828601616f94565b9150509250929050565b7f4e657720706f6f6c207265717569726564000000000000000000000000000000600082015250565b6000617487601183616a6e565b915061749282617451565b602082019050919050565b600060208201905081810360008301526174b68161747a565b9050919050565b60006040820190506174d26000830185616d56565b6174df6020830184616f57565b9392505050565b7f4c697175696461746520546f74616c0000000000000000000000000000000000600082015250565b600061751c600f83616a6e565b9150617527826174e6565b602082019050919050565b6000604082019050818103600083015261754b8161750f565b905061755a6020830184616a5f565b92915050565b7f4f776e61626c653a206e6577206f776e657220697320746865207a65726f206160008201527f6464726573730000000000000000000000000000000000000000000000000000602082015250565b60006175bc602683616a6e565b91506175c782617560565b604082019050919050565b600060208201905081810360008301526175eb816175af565b9050919050565b60006175fd826165d3565b9150617608836165d3565b92508267ffffffffffffffff03821115617625576176246172eb565b5b828201905092915050565b7f4e487b7100000000000000000000000000000000000000000000000000000000600052603260045260246000fd5b60008190508160005260206000209050919050565b6000815461768181616e41565b61768b8186616a6e565b945060018216600081146176a657600181146176b8576176eb565b60ff19831686526020860193506176eb565b6176c18561765f565b60005b838110156176e3578154818901526001820191506020810190506176c4565b808801955050505b50505092915050565b6000602082019050818103600083015261770e8184617674565b905092915050565b600080fd5b600080fd5b600061773361772e846166a9565b61668e565b90508281526020810184848401111561774f5761774e616618565b5b61775a8482856167e0565b509392505050565b600082601f83011261777757617776616613565b5b8151617787848260208601617720565b91505092915050565b600061010082840312156177a7576177a6617716565b5b6177b261010061668e565b905060006177c2848285016170c4565b60008301525060206177d6848285016170c4565b60208301525060406177ea848285016170c4565b60408301525060606177fe848285016170c4565b6060830152506080617812848285016170c4565b60808301525060a082015167ffffffffffffffff8111156178365761783561771b565b5b61784284828501617762565b60a08301525060c082015167ffffffffffffffff8111156178665761786561771b565b5b61787284828501617762565b60c08301525060e082015167ffffffffffffffff8111156178965761789561771b565b5b6178a284828501617762565b60e08301525092915050565b6000602082840312156178c4576178c3616481565b5b600082015167ffffffffffffffff8111156178e2576178e1616486565b5b6178ee84828501617790565b91505092915050565b600081905092915050565b7f416363657373436f6e74726f6c3a206163636f756e7420000000000000000000600082015250565b60006179386017836178f7565b915061794382617902565b601782019050919050565b6000617959826167c4565b61796381856178f7565b93506179738185602086016167e0565b80840191505092915050565b7f206973206d697373696e6720726f6c6520000000000000000000000000000000600082015250565b60006179b56011836178f7565b91506179c08261797f565b601182019050919050565b60006179d68261792b565b91506179e2828561794e565b91506179ed826179a8565b91506179f9828461794e565b91508190509392505050565b6000604082019050617a1a6000830185616d56565b617a276020830184616ab8565b9392505050565b7f4e6f7468696e6720746f20686172766573740000000000000000000000000000600082015250565b6000617a64601283616a6e565b9150617a6f82617a2e565b602082019050919050565b60006020820190508181036000830152617a9381617a57565b9050919050565b6000819050919050565b6000617abf617aba617ab584617a9a565b616f2b565b6169fc565b9050919050565b617acf81617aa4565b82525050565b6000604082019050617aea6000830185616f57565b617af76020830184617ac6565b9392505050565b6000617b09826169fc565b9150617b14836169fc565b9250817fffffffffffffffffffffffffffffffffffffffffffffffffffffffffffffffff0483118215151615617b4d57617b4c6172eb565b5b828202905092915050565b7f4e487b7100000000000000000000000000000000000000000000000000000000600052601260045260246000fd5b6000617b92826165d3565b9150617b9d836165d3565b925082617bad57617bac617b58565b5b828204905092915050565b6000617bc3826169fc565b9150617bce836169fc565b925082617bde57617bdd617b58565b5b828204905092915050565b6000617bf5828461794e565b915081905092915050565b600081519050919050565b600081905092915050565b6000617c2182617c00565b617c2b8185617c0b565b9350617c3b8185602086016167e0565b80840191505092915050565b6000617c538284617c16565b915081905092915050565b6000604082019050617c736000830185616f57565b617c806020830184616a5f565b9392505050565b7f5f72656d6f766564000000000000000000000000000000000000000000000000600082015250565b6000617cbd600883616a6e565b9150617cc882617c87565b602082019050919050565b60006040820190508181036000830152617cec81617cb0565b9050617cfb6020830184616a5f565b92915050565b600060c082019050617d166000830189616ab8565b617d236020830188616a5f565b617d306040830187617ac6565b617d3d6060830186617ac6565b617d4a6080830185616ab8565b617d5760a0830184616a5f565b979650505050505050565b600060e082019050617d77600083018a616ab8565b617d846020830189616ab8565b617d916040830188616a5f565b617d9e6060830187617ac6565b617dab6080830186617ac6565b617db860a0830185616ab8565b617dc560c0830184616a5f565b98975050505050505050565b7f4e487b7100000000000000000000000000000000000000000000000000000000600052603160045260246000fd5b60006060820190508181036000830152617e1981617207565b90508181036020830152617e2d8185616a7f565b9050617e3c6040830184616ab8565b9392505050565b60008190508160005260206000209050919050565b60008154617e6581616e41565b617e6f8186617c0b565b94506001821660008114617e8a5760018114617e9b57617ece565b60ff19831686528186019350617ece565b617ea485617e43565b60005b83811015617ec657815481890152600182019150602081019050617ea7565b838801955050505b50505092915050565b6000617ee38284617e58565b915081905092915050565b6000617ef9826165d3565b915067ffffffffffffffff821415617f1457617f136172eb565b5b600182019050919050565b6000617f2a826169fc565b91506000821415617f3e57617f3d6172eb565b5b600182039050919050565b7f537472696e67733a20686578206c656e67746820696e73756666696369656e74600082015250565b6000617f7f602083616a6e565b9150617f8a82617f49565b602082019050919050565b60006020820190508181036000830152617fae81617f72565b9050919050565b60008060008060808587031215617fcf57617fce616481565b5b6000617fdd878288016170c4565b9450506020617fee87828801616f94565b9350506040617fff87828801616f94565b925050606061801087828801616f94565b91505092959194509250565b7f5f6c70436f6e7472616374000000000000000000000000000000000000000000600082015250565b6000618052600b83616a6e565b915061805d8261801c565b602082019050919050565b6000602082019050818103600083015261808181618045565b9050919050565b600060408201905061809d6000830185616ab8565b6180aa6020830184616ab8565b9392505050565b600081519050919050565b600082825260208201905092915050565b6000819050602082019050919050565b60006180e9838361687e565b60208301905092915050565b6000602082019050919050565b600061810d826180b1565b61811781856180bc565b9350618122836180cd565b8060005b8381101561815357815161813a88826180dd565b9750618145836180f5565b925050600181019050618126565b5085935050505092915050565b600060a0820190506181756000830188616a5f565b6181826020830187617ac6565b81810360408301526181948186618102565b90506181a36060830185616ab8565b6181b06080830184616a5f565b9695505050505050565b600067ffffffffffffffff8211156181d5576181d461662e565b5b602082029050602081019050919050565b600080fd5b60006181fe6181f9846181ba565b61668e565b90508083825260208201905060208402830185811115618221576182206181e6565b5b835b8181101561824a57806182368882616f94565b845260208401935050602081019050618223565b5050509392505050565b600082601f83011261826957618268616613565b5b81516182798482602086016181eb565b91505092915050565b60006020828403121561829857618297616481565b5b600082015167ffffffffffffffff8111156182b6576182b5616486565b5b6182c284828501618254565b91505092915050565b60006080820190506182e06000830187617ac6565b81810360208301526182f28186618102565b90506183016040830185616ab8565b61830e6060830184616a5f565b95945050505050565b6000806000606084860312156183305761832f616481565b5b600061833e86828701616f94565b935050602061834f86828701616f94565b925050604061836086828701616f94565b9150509250925092565b600061010082019050618380600083018b616ab8565b61838d602083018a616ab8565b61839a6040830189616a5f565b6183a76060830188616a5f565b6183b46080830187617ac6565b6183c160a0830186617ac6565b6183ce60c0830185616ab8565b6183db60e0830184616a5f565b9998505050505050505050565b60006060820190506183fd6000830186616a5f565b61840a6020830185616a5f565b6184176040830184616a5f565b94935050505056fea2646970667358221220b32d46bbf60f964f1447e1a67a23ead004ae46bc90db4ec02fe39179fae0ad0e64736f6c634300080c0033",
  "immutableReferences": {},
  "source": "//SPDX-License-Identifier: UNLICENSED\npragma solidity ^0.8.7;\npragma experimental ABIEncoderV2;\nimport \"./Interfaces.sol\";\nimport \"./Storage.sol\";\n\ncontract combineApp is Storage, Ownable, AccessControl {\n    event sdUintLog( string message, uint value);\n    event sdUintLog( string message, uint[] value);\n    event sdDeposit(uint amount);\n    event sdHoldBack(uint amount, uint total);\n    event sdFeeSent(uint amount,uint total);\n    event sdNewPool(uint64 oldPool, uint newPool);\n    event sdLiquidityProvided(uint256 farmIn, uint256 wethIn, uint256 lpOut);\n    event sdInitialized(uint64 poolId, address lpContract);\n\n    error sdLocked();\n    error sdInitializedError();\n    error sdInsufficentBalance();\n    error sdRequiredParameter(string param);\n    \n    modifier lockFunction() {\n        if (_locked == true) revert sdLocked();\n        _locked = true;\n        _;\n        _locked = false;\n    }\n     \n    modifier allowAdmin() {\n        require(hasRole(HARVESTER,msg.sender) || owner() == msg.sender,\"Restricted Function\");\n        _;\n    }\n    ///@notice Initialize the proxy contract\n    ///@param _poolId the id of the pool\n    ///@param _beacon the address of the beacon contract\n    ///@param _exchangeName name of the exchange to lookup on beacon\n    ///@param _owner the address of the owner\n    function initialize(uint64 _poolId, address _beacon, string memory _exchangeName, address _owner) public onlyOwner payable {\n        if (_initialized == true) revert sdInitializedError();\n        _initialized = true;\n        beaconContract = _beacon;\n\n        address harvester = iBeacon(beaconContract).getAddress(\"HARVESTER\");\n        feeCollector = iBeacon(beaconContract).getAddress(\"FEECOLLECTOR\");\n\n        _setupRole(HARVESTER, harvester);\n        _setupRole(DEFAULT_ADMIN_ROLE,owner());\n\n        holdBack = 0; \n        \n        setup(_poolId, _exchangeName);\n        transferOwnership(_owner);\n    }\n\n    ///@notice Add harvester permission to contract\n    ///@param _address address of user to add as harvester\n    function addHarvester(address _address) public onlyOwner {\n        _setupRole(HARVESTER,_address);\n    }\n\n    ///@notice Remove user as harvester\n    ///@param _address address of user to remove as harvester\n    function removeHarvester(address _address) public onlyOwner{\n        revokeRole(HARVESTER,_address);\n    }\n\n    ///@notice create slot for new pool\n    ///@param _poolId id of new pool\n    ///@param _exchangeName name of exchange to lookup on beacon\n    function setup(uint64 _poolId, string memory _exchangeName) private  {\n        slotsLib.sSlots memory _slot = slotsLib.updateSlot(uint64(slotsLib.MAX_SLOTS+1),_poolId,_exchangeName, slots, beaconContract);\n\n        if (msg.value > 0) {\n            addFunds(_slot, msg.value);\n            emit sdDeposit(msg.value);\n        }\n        emit sdInitialized(_poolId,_slot.lpContract);\n    }\n    \n    ///@notice default receive function\n    receive() external payable {}\n\n\n    //@notice Add funds to specified pool and exhange\n    ///@param _poolId id of pool to add funds to\n    ///@param _exchangeName name of exchange to lookup on beacon\n    function deposit(uint64 _poolId, string memory _exchangeName) external onlyOwner payable  {\n        slotsLib.sSlots memory _slot = slotsLib.getDepositSlot(_poolId, _exchangeName,slots, beaconContract);\n        uint deposit_amount = msg.value;\n        uint pendingReward_val =  pendingReward(_slot);\n        if (pendingReward_val > 0) {\n            deposit_amount = deposit_amount + do_harvest(_slot, 0);\n        }\n        addFunds(_slot, deposit_amount);\n        emit sdDeposit(deposit_amount);\n    }\n\n    ///@notice Swap funds from one pool/exchnage to another pool/exchange\n    ///@param _fromPoolId id of pool to swap from\n    ///@param _fromExchangeName name of exchange to lookup in slots\n    ///@param _toPoolId id of pool to swap to\n    ///@param _toExchangeName name of exchange to lookup in slots\n    function swapPool(uint64 _fromPoolId, string memory _fromExchangeName, uint64 _toPoolId, string memory _toExchangeName) public allowAdmin {\n        slotsLib.sSlots memory _slot = getSlot(_fromPoolId, _fromExchangeName);\n        \n        if(_toPoolId == _slot.poolId) revert sdRequiredParameter(\"New pool required\");\n        \n        removeLiquidity(_slot);\n        revertBalance(_slot);\n        \n        uint _bal = address(this).balance;\n        if (_bal==0) revert sdInsufficentBalance();\n        \n        _slot = slotsLib.swapSlot(_fromPoolId, _fromExchangeName,_toPoolId, _toExchangeName,slots, beaconContract);\n        addFunds(_slot,_bal);\n        emit sdNewPool(_fromPoolId,_toPoolId);\n    }\n    \n    ///@notice get pending rewards on a specific pool/exchange\n    ///@param _poolId id of pool to get pending rewards on\n    ///@param _exchangeName name of exchange to lookup in slots\n    ///@return pending rewards \n    function pendingReward(uint64 _poolId, string memory _exchangeName) public view returns (uint) {        \n        slotsLib.sSlots memory _slot = getSlot(_poolId, _exchangeName);\n        return pendingReward(_slot);\n    }\n\n    ///@notice get pending rewards on a specific slot id\n    ///@param _slot slot to get pending rewards on\n    ///@return pending rewards \n    function pendingReward(slotsLib.sSlots memory _slot) private view returns (uint) {\n        (, bytes memory data) = _slot.chefContract.staticcall(abi.encodeWithSignature(_slot.pendingCall, _slot.poolId,address(this)));\n        uint pendingReward_val = data.length==0?0:abi.decode(data,(uint256));\n        if (pendingReward_val == 0) {\n            pendingReward_val += ERC20(_slot.rewardToken).balanceOf(address(this));\n        }\n        return pendingReward_val;\n    }\n\n    ///@notice liquidate funds on a specific pool/exchange\n    ///@param _poolId id of pool to liquidate\n    ///@param _exchangeName name of exchange to lookup in slots    \n    function liquidate(uint64 _poolId, string memory _exchangeName) public onlyOwner lockFunction {\n        slotsLib.sSlots memory _slot = getSlot(_poolId, _exchangeName);\n        do_harvest(_slot, 0);\n        removeLiquidity(_slot);\n        revertBalance(_slot);        \n        uint _total = address(this).balance;\n        slotsLib.removeSlot(_slot.poolId, _slot.exchangeName,slots);\n\n        _total = sendFee(\"LIQUIDATE\",_total,0);\n\n        payable(owner()).transfer(_total);\n        emit sdUintLog(\"Liquidate Total\",_total);\n    }\n    \n    ///@notice set holdback on rewards to be sent back to user\n    ///@param _holdback amount of rewards to hold back\n    function setHoldBack(uint64 _holdback) public onlyOwner {\n        holdBack = _holdback;\n        emit sdUintLog(\"holdback\",_holdback);\n    }\n    \n    ///@notice send holdback funds to user (BNB Balance)\n    function sendHoldBack() public onlyOwner lockFunction{\n        uint bal = address(this).balance;\n        if (bal == 0) revert sdInsufficentBalance();\n        payable(owner()).transfer(bal);\n        emit sdHoldBack(bal,bal);\n    }\n    \n    ///@notice Manually perform a harvest on a specific pool/exchange\n    ///@param _poolId id of pool to harvest on\n    ///@param _exchangeName name of exchange to lookup in slots\n    function harvest(uint64  _poolId, string memory _exchangeName) public lockFunction allowAdmin {\n        slotsLib.sSlots memory _slot = getSlot(_poolId, _exchangeName);\n        uint64 _offset = iBeacon(beaconContract).getConst('DEFAULT','HARVESTSOLOGAS');\n        uint startGas = gasleft() + 21000 + _offset;\n        uint split = do_harvest(_slot, 1);\n        \n        addFunds(_slot, split);\n        if (msg.sender != owner()) {\n            lastGas = startGas - gasleft();\n        }\n    }\n    \n    ///@notice helper function to return balance of 2 tokens in a pool\n    ///@param _slot slot to get balance of\n    ///@return _bal0 of tokens of token0 from pool\n    ///@return _bal1 of tokens of token1 from pool\n    function tokenBalance(slotsLib.sSlots memory _slot) private view returns (uint _bal0,uint _bal1) {\n        _bal0 = ERC20(_slot.token0).balanceOf(address(this));\n        _bal1 = ERC20(_slot.token1).balanceOf(address(this));\n    }    \n    \n    ///@notice helper function to return balance of specified token from contract to the user\n    ///@param token address of token to recover\n    function rescueToken(address token) public onlyOwner{\n        uint _bal = ERC20(token).balanceOf(address(this));\n        ERC20(token).transfer(owner(),_bal);\n    }\n\n    ///@notice Internal funciton to add funds to a specified slot\n    ///@param _slot slot to add funds to\n    ///@param inValue amount of funds to add\n    function addFunds(slotsLib.sSlots memory _slot, uint inValue) private  {\n        if (inValue==0) revert sdInsufficentBalance();\n\n        uint amount0;\n        uint amount1;\n        uint split = (inValue*50)/100;\n        \n        if (_slot.token0 != WBNB_ADDR) {\n            address[] memory path1 = new address[](2);\n            path1[0] = WBNB_ADDR;\n            path1[1] = _slot.token0;\n            amount0 = swap(_slot, split,path1);\n        }\n        else{\n            amount0 = split;\n        }\n        \n        if (_slot.token1 != WBNB_ADDR) {\n            address[] memory path2 = new address[](2);\n            path2[0] = WBNB_ADDR;\n            path2[1] = _slot.token1;\n            amount1 = swap(_slot, split,path2);\n        }       \n        else{\n            amount1 = split;\n        }\n        addLiquidity(_slot,amount0,amount1);\n    }\n\n    ///@notice Internal function to add liquidity to a pool\n    ///@dev amount0 and amount1 should be the same value (converted to/from BNB)\n    ///@param _slot slot to add liquidity to\n    ///@param amount0 amount of liquidity to add of token0\n    ///@param amount1 amount of liquidity to add of token1\n    function addLiquidity(slotsLib.sSlots memory _slot, uint amount0, uint amount1) private {\n        uint amountA;\n        uint amountB;\n        uint liquidity;\n                \n\n        if (_slot.token1 == WBNB_ADDR || _slot.token0 == WBNB_ADDR) {\n            (amount0,amount1) = _slot.token0 == WBNB_ADDR?(amount0,amount1):(amount1,amount0);\n            address token = _slot.token0 == WBNB_ADDR?_slot.token1:_slot.token0;\n            (amountA, amountB, liquidity) = iRouter(_slot.routerContract).addLiquidityETH{value: amount0}(token, amount1, 0,0, address(this), block.timestamp);\n        }\n        else {\n            ( amountA,  amountB, liquidity) = iRouter(_slot.routerContract).addLiquidity(_slot.token0, _slot.token1, amount0, amount1, 0, 0, address(this), block.timestamp);\n        }\n\n        iMasterChef(_slot.chefContract).deposit(_slot.poolId,liquidity);\n        emit sdLiquidityProvided(amountA, amountB, liquidity);\n    }\n    \n    ///@notice Internal function to swap 2 tokens\n    ///@param _slot slot to swap tokens on\n    ///@param amountIn amount of tokens to swap\n    ///@param path address of tokens to swap\n    ///@return amountOut amount of tokens swapped\n    function swap(slotsLib.sSlots memory _slot, uint amountIn, address[] memory path) private returns (uint){\n        if (amountIn == 0) revert sdInsufficentBalance();\n        uint pathLength = (_slot.intermediateToken != address(0) && path[0] != _slot.intermediateToken && path[1] != _slot.intermediateToken) ? 3 : 2;\n        address[] memory swapPath = new address[](pathLength);\n        \n        if (pathLength == 2) {\n            swapPath[0] = path[0];\n            swapPath[1] = path[1];\n        }\n        else {\n            swapPath[0] = path[0];\n            swapPath[1] = _slot.intermediateToken;\n            swapPath[2] = path[1];\n        }\n\n        uint[] memory amounts;\n\n        uint deadline = block.timestamp + 600;\n        uint _bal = path[0] == WBNB_ADDR ? ERC20(WBNB_ADDR).balanceOf(address(this)) : 0;\n\n        if (_bal > 0) {\n            iWBNB(WBNB_ADDR).withdraw(_bal);\n            return _bal;\n        }\n        else {\n            if (path[path.length - 1] == WBNB_ADDR) {\n                amounts = iRouter(_slot.routerContract).swapExactTokensForETH(amountIn, 0,  swapPath, address(this), deadline);\n            } else if (path[0] == WBNB_ADDR) {\n                amounts = iRouter(_slot.routerContract).swapExactETHForTokens{value: amountIn}(0,swapPath,address(this),deadline);\n            }\n            else {\n                amounts = iRouter(_slot.routerContract).swapExactTokensForTokens(amountIn, 0,swapPath,address(this),deadline);\n            }\n            return amounts[swapPath.length-1];\n        }\n    }\n    \n\n    ///@notice Internal function to harvest spool\n    ///@param _slot slot to harvest\n    ///@param revert_trans (0 - return 0 on failure, 1 - revert on failure)\n    ///@return finalReward  Final amount of reward returned.\n    function do_harvest(slotsLib.sSlots memory _slot,uint revert_trans) private returns (uint) {\n        uint pendingCake = 0;\n        pendingCake = pendingReward(_slot);\n        if (pendingCake == 0) {\n            if (revert_trans == 1) {\n                revert(\"Nothing to harvest\");\n            }\n            else {\n                    return 0;\n            }\n        }\n        \n        iMasterChef(_slot.chefContract).deposit(_slot.poolId,0);\n        pendingCake = ERC20(_slot.rewardToken).balanceOf(address(this));\n\n        address[] memory path = new address[](2);\n        path[0] = _slot.rewardToken;\n        path[1] = WBNB_ADDR;\n\n        pendingCake = swap(_slot, pendingCake,path);\n        \n        uint finalReward = sendFee('HARVEST',pendingCake, ((lastGas * tx.gasprice)*10e8)); // lastGas is here in case 3rd party harvester is used, should normally be 0\n        \n        if (holdBack > 0) {\n            uint holdbackAmount = (finalReward/100) * (holdBack/10**18);\n            finalReward = finalReward - holdbackAmount;\n            payable(owner()).transfer(holdbackAmount);\n            emit sdHoldBack(holdbackAmount,finalReward);\n\n        }\n        return finalReward;\n    }\n    \n    ///@notice Internal function to remove liquididty from pool\n    ///@param _slot slot to remove liquidity from\n    function removeLiquidity(slotsLib.sSlots memory _slot) private {\n        uint amountTokenA;\n        uint amountTokenB;\n        uint deadline = block.timestamp + 600;\n\n        (uint _lpBal,) = iMasterChef(_slot.chefContract).userInfo(_slot.poolId,address(this));\n        iMasterChef(_slot.chefContract).withdraw(_slot.poolId,_lpBal);\n        \n        uint _removed = ERC20(_slot.lpContract).balanceOf(address(this));\n        emit sdUintLog(\"_removed\",_removed);\n        \n        if (_slot.token1 == WBNB_ADDR)\n            (amountTokenA, amountTokenB) = iRouter(_slot.routerContract).removeLiquidityETH(_slot.token0,_removed,0,0,address(this), deadline);\n        else\n            (amountTokenA, amountTokenB) = iRouter(_slot.routerContract).removeLiquidity(_slot.token0,_slot.token1,_removed,0,0,address(this), deadline);\n    }\n\n    ///@notice Internal function to convert token0/token1 to BNB/Base Token\n    ///@param _slot slot to convert\n    function revertBalance(slotsLib.sSlots memory _slot) private {\n        address[] memory path = new address[](2);\n        path[1] = WBNB_ADDR;\n        uint amount0 = 0;\n\n        uint _rewards = ERC20(_slot.rewardToken).balanceOf(address (this));\n        if (_rewards > 0 ){\n            path[0] = _slot.rewardToken;\n            amount0 = swap(_slot, _rewards, path);\n        }\n\n        (uint _bal0, uint _bal1) = tokenBalance(_slot);\n        \n        if (_bal0 > 0) {\n            path[0] = _slot.token0;\n            amount0 += swap(_slot, _bal0, path);\n        }\n        \n        if (_bal1 > 0) {\n            path[0] = _slot.token1;\n            amount0 += swap(_slot, _bal1, path);\n        }\n    }\n    \n    ///@notice Helper function for front end\n    ///@param _poolId pool to get info from\n    ///@param _exchangeName name of exchange to lookup in slots\n    function cakePerBlock(uint64  _poolId, string memory _exchangeName) public view returns(uint) {\n        slotsLib.sSlots memory _slot = getSlot(_poolId, _exchangeName);\n        return iMasterChef(_slot.chefContract).cakePerBlock();\n    }    \n    \n    ///@notice Helper function to force a pool to be updated\n    ///@dev for testing purrposes\n    ///@param _poolId pool to get info from\n    ///@param _exchangeName name of exchange to lookup in slots\n    function updatePool(uint64  _poolId, string memory _exchangeName) public {\n        slotsLib.sSlots memory _slot = getSlot(_poolId, _exchangeName);\n\n        iMasterChef(_slot.chefContract).updatePool(_slot.poolId);\n    }\n\n    ///@notice returns status of pool on specific pool/exchange\n    ///@param _poolId pool to get info from\n    ///@param _exchangeName name of exchange to lookup in slots\n    ///@return masterchef balance 0\n    ///@return masterchef balance 1\n    ///@return token0 balance\n    ///@return token1 balance\n    ///@return contract balance of rewward token\n    ///@return total of BNB\n    function userInfo(uint64  _poolId, string memory _exchangeName) public view allowAdmin returns (uint,uint,uint,uint,uint,uint) {\n        slotsLib.sSlots memory _slot = getSlot(_poolId, _exchangeName);\n\n        if (_slot.lpContract == address(0))  return (0,0,0,0,0,0);\n        \n        (uint a, uint b) = iMasterChef(_slot.chefContract).userInfo(_slot.poolId,address(this));\n        (uint c, uint d) = tokenBalance(_slot);\n        uint e = ERC20(_slot.rewardToken).balanceOf(address(this));\n        uint f = address(this).balance;\n        return (a,b,c,d,e,f);\n    }\n\n    ///@notice Internal function to handle fees for specific type\n    ///@param _type type of fee\n    ///@param _total amount of fee\n    ///@param  _extra fee to add (such as gas fee)\n    ///@return _total amount of fee sent\n    function sendFee(string memory _type, uint _total, uint _extra) private returns (uint){\n        (uint feeAmt,) = iBeacon(beaconContract).getFee('DEFAULT',_type,owner());\n        uint feeAmount = ((_total * feeAmt)/100e18) + _extra;\n        if (feeAmount > _total) feeAmount = _total;\n        \n        if(feeAmount > 0) {\n            if (feeAmount > _total) {\n                feeAmount = _total;\n                _total = 0;\n            }\n            else {\n                _total = _total - feeAmount;\n            }\n            payable(address(feeCollector)).transfer(feeAmount);\n            emit sdFeeSent(feeAmount,_total);\n        }\n        return _total;\n    }\n\n    ///@notice Public function to get slot for pool/exchange\n    ///@param _poolId pool to get info from\n    ///@param _exchangeName name of exchange to lookup in slots\n    ///@return slot info\n    function getSlot(uint64 _poolId, string memory _exchangeName) public view returns (slotsLib.sSlots memory) {\n        return slotsLib.getSlot(_poolId, _exchangeName, slots, beaconContract);\n    }\n}\n\n    ",
  "sourcePath": "/mnt/src/crypto/combine_sol/contracts/combineApp.sol",
  "compiler": {
    "name": "solc",
    "version": "0.8.12+commit.f00d7308.Emscripten.clang"
  },
  "schemaVersion": "3.4.3",
  "updatedAt": "2022-03-14T20:01:59.235Z",
  "devdoc": {
    "kind": "dev",
    "methods": {
      "addHarvester(address)": {
        "params": {
          "_address": "address of user to add as harvester"
        }
      },
      "cakePerBlock(uint64,string)": {
        "params": {
          "_exchangeName": "name of exchange to lookup in slots",
          "_poolId": "pool to get info from"
        }
      },
      "deposit(uint64,string)": {
        "params": {
          "_exchangeName": "name of exchange to lookup on beacon",
          "_poolId": "id of pool to add funds to"
        }
      },
      "getRoleAdmin(bytes32)": {
        "details": "Returns the admin role that controls `role`. See {grantRole} and {revokeRole}. To change a role's admin, use {_setRoleAdmin}."
      },
      "getSlot(uint64,string)": {
        "params": {
          "_exchangeName": "name of exchange to lookup in slots",
          "_poolId": "pool to get info from"
        },
        "returns": {
          "_0": "slot info"
        }
      },
      "grantRole(bytes32,address)": {
        "details": "Grants `role` to `account`. If `account` had not been already granted `role`, emits a {RoleGranted} event. Requirements: - the caller must have ``role``'s admin role."
      },
      "harvest(uint64,string)": {
        "params": {
          "_exchangeName": "name of exchange to lookup in slots",
          "_poolId": "id of pool to harvest on"
        }
      },
      "hasRole(bytes32,address)": {
        "details": "Returns `true` if `account` has been granted `role`."
      },
      "initialize(uint64,address,string,address)": {
        "params": {
          "_beacon": "the address of the beacon contract",
          "_exchangeName": "name of the exchange to lookup on beacon",
          "_owner": "the address of the owner",
          "_poolId": "the id of the pool"
        }
      },
      "liquidate(uint64,string)": {
        "params": {
          "_exchangeName": "name of exchange to lookup in slots    ",
          "_poolId": "id of pool to liquidate"
        }
      },
      "owner()": {
        "details": "Returns the address of the current owner."
      },
      "pendingReward(uint64,string)": {
        "params": {
          "_exchangeName": "name of exchange to lookup in slots",
          "_poolId": "id of pool to get pending rewards on"
        },
        "returns": {
          "_0": "pending rewards "
        }
      },
      "removeHarvester(address)": {
        "params": {
          "_address": "address of user to remove as harvester"
        }
      },
      "renounceOwnership()": {
        "details": "Leaves the contract without owner. It will not be possible to call `onlyOwner` functions anymore. Can only be called by the current owner. NOTE: Renouncing ownership will leave the contract without an owner, thereby removing any functionality that is only available to the owner."
      },
      "renounceRole(bytes32,address)": {
        "details": "Revokes `role` from the calling account. Roles are often managed via {grantRole} and {revokeRole}: this function's purpose is to provide a mechanism for accounts to lose their privileges if they are compromised (such as when a trusted device is misplaced). If the calling account had been granted `role`, emits a {RoleRevoked} event. Requirements: - the caller must be `account`."
      },
      "rescueToken(address)": {
        "params": {
          "token": "address of token to recover"
        }
      },
      "revokeRole(bytes32,address)": {
        "details": "Revokes `role` from `account`. If `account` had been granted `role`, emits a {RoleRevoked} event. Requirements: - the caller must have ``role``'s admin role."
      },
      "setHoldBack(uint64)": {
        "params": {
          "_holdback": "amount of rewards to hold back"
        }
      },
      "supportsInterface(bytes4)": {
        "details": "See {IERC165-supportsInterface}."
      },
      "swapPool(uint64,string,uint64,string)": {
        "params": {
          "_fromExchangeName": "name of exchange to lookup in slots",
          "_fromPoolId": "id of pool to swap from",
          "_toExchangeName": "name of exchange to lookup in slots",
          "_toPoolId": "id of pool to swap to"
        }
      },
      "transferOwnership(address)": {
        "details": "Transfers ownership of the contract to a new account (`newOwner`). Can only be called by the current owner."
      },
      "updatePool(uint64,string)": {
        "details": "for testing purrposes",
        "params": {
          "_exchangeName": "name of exchange to lookup in slots",
          "_poolId": "pool to get info from"
        }
      },
      "userInfo(uint64,string)": {
        "params": {
          "_exchangeName": "name of exchange to lookup in slots",
          "_poolId": "pool to get info from"
        },
        "returns": {
          "_0": "masterchef balance 0",
          "_1": "masterchef balance 1",
          "_2": "token0 balance",
          "_3": "token1 balance",
          "_4": "contract balance of rewward token",
          "_5": "total of BNB"
        }
      }
    },
    "version": 1
  },
  "userdoc": {
    "kind": "user",
    "methods": {
      "addHarvester(address)": {
        "notice": "Add harvester permission to contract"
      },
      "cakePerBlock(uint64,string)": {
        "notice": "Helper function for front end"
      },
      "getSlot(uint64,string)": {
        "notice": "Public function to get slot for pool/exchange"
      },
      "harvest(uint64,string)": {
        "notice": "Manually perform a harvest on a specific pool/exchange"
      },
      "initialize(uint64,address,string,address)": {
        "notice": "Initialize the proxy contract"
      },
      "liquidate(uint64,string)": {
        "notice": "liquidate funds on a specific pool/exchange"
      },
      "pendingReward(uint64,string)": {
        "notice": "get pending rewards on a specific pool/exchange"
      },
      "removeHarvester(address)": {
        "notice": "Remove user as harvester"
      },
      "rescueToken(address)": {
        "notice": "helper function to return balance of specified token from contract to the user"
      },
      "sendHoldBack()": {
        "notice": "send holdback funds to user (BNB Balance)"
      },
      "setHoldBack(uint64)": {
        "notice": "set holdback on rewards to be sent back to user"
      },
      "swapPool(uint64,string,uint64,string)": {
        "notice": "Swap funds from one pool/exchnage to another pool/exchange"
      },
      "updatePool(uint64,string)": {
        "notice": "Helper function to force a pool to be updated"
      },
      "userInfo(uint64,string)": {
        "notice": "returns status of pool on specific pool/exchange"
      }
    },
    "version": 1
  }
}