{
  "contractName": "combine_proxy",
  "abi": [
    {
      "inputs": [],
      "stateMutability": "nonpayable",
      "type": "constructor"
    },
    {
      "inputs": [],
      "name": "sdInitializedError",
      "type": "error"
    },
    {
      "anonymous": false,
      "inputs": [
        {
          "indexed": true,
          "internalType": "address",
          "name": "previousOwner",
          "type": "address"
        },
        {
          "indexed": true,
          "internalType": "address",
          "name": "newOwner",
          "type": "address"
        }
      ],
      "name": "OwnershipTransferred",
      "type": "event"
    },
    {
      "anonymous": false,
      "inputs": [
        {
          "indexed": true,
          "internalType": "bytes32",
          "name": "role",
          "type": "bytes32"
        },
        {
          "indexed": true,
          "internalType": "bytes32",
          "name": "previousAdminRole",
          "type": "bytes32"
        },
        {
          "indexed": true,
          "internalType": "bytes32",
          "name": "newAdminRole",
          "type": "bytes32"
        }
      ],
      "name": "RoleAdminChanged",
      "type": "event"
    },
    {
      "anonymous": false,
      "inputs": [
        {
          "indexed": true,
          "internalType": "bytes32",
          "name": "role",
          "type": "bytes32"
        },
        {
          "indexed": true,
          "internalType": "address",
          "name": "account",
          "type": "address"
        },
        {
          "indexed": true,
          "internalType": "address",
          "name": "sender",
          "type": "address"
        }
      ],
      "name": "RoleGranted",
      "type": "event"
    },
    {
      "anonymous": false,
      "inputs": [
        {
          "indexed": true,
          "internalType": "bytes32",
          "name": "role",
          "type": "bytes32"
        },
        {
          "indexed": true,
          "internalType": "address",
          "name": "account",
          "type": "address"
        },
        {
          "indexed": true,
          "internalType": "address",
          "name": "sender",
          "type": "address"
        }
      ],
      "name": "RoleRevoked",
      "type": "event"
    },
    {
      "stateMutability": "payable",
      "type": "fallback"
    },
    {
      "inputs": [],
      "name": "DEFAULT_ADMIN_ROLE",
      "outputs": [
        {
          "internalType": "bytes32",
          "name": "",
          "type": "bytes32"
        }
      ],
      "stateMutability": "view",
      "type": "function"
    },
    {
      "inputs": [],
      "name": "HARVESTER",
      "outputs": [
        {
          "internalType": "bytes32",
          "name": "",
          "type": "bytes32"
        }
      ],
      "stateMutability": "view",
      "type": "function"
    },
    {
      "inputs": [],
      "name": "beaconContract",
      "outputs": [
        {
          "internalType": "address",
          "name": "",
          "type": "address"
        }
      ],
      "stateMutability": "view",
      "type": "function"
    },
    {
      "inputs": [],
      "name": "exchange",
      "outputs": [
        {
          "internalType": "string",
          "name": "",
          "type": "string"
        }
      ],
      "stateMutability": "view",
      "type": "function"
    },
    {
      "inputs": [
        {
          "internalType": "bytes32",
          "name": "role",
          "type": "bytes32"
        }
      ],
      "name": "getRoleAdmin",
      "outputs": [
        {
          "internalType": "bytes32",
          "name": "",
          "type": "bytes32"
        }
      ],
      "stateMutability": "view",
      "type": "function"
    },
    {
      "inputs": [
        {
          "internalType": "bytes32",
          "name": "role",
          "type": "bytes32"
        },
        {
          "internalType": "address",
          "name": "account",
          "type": "address"
        }
      ],
      "name": "grantRole",
      "outputs": [],
      "stateMutability": "nonpayable",
      "type": "function"
    },
    {
      "inputs": [
        {
          "internalType": "bytes32",
          "name": "role",
          "type": "bytes32"
        },
        {
          "internalType": "address",
          "name": "account",
          "type": "address"
        }
      ],
      "name": "hasRole",
      "outputs": [
        {
          "internalType": "bool",
          "name": "",
          "type": "bool"
        }
      ],
      "stateMutability": "view",
      "type": "function"
    },
    {
      "inputs": [],
      "name": "holdBack",
      "outputs": [
        {
          "internalType": "uint64",
          "name": "",
          "type": "uint64"
        }
      ],
      "stateMutability": "view",
      "type": "function"
    },
    {
      "inputs": [],
      "name": "lastGas",
      "outputs": [
        {
          "internalType": "uint256",
          "name": "",
          "type": "uint256"
        }
      ],
      "stateMutability": "view",
      "type": "function"
    },
    {
      "inputs": [],
      "name": "logic_contract",
      "outputs": [
        {
          "internalType": "address",
          "name": "",
          "type": "address"
        }
      ],
      "stateMutability": "view",
      "type": "function"
    },
    {
      "inputs": [],
      "name": "owner",
      "outputs": [
        {
          "internalType": "address",
          "name": "",
          "type": "address"
        }
      ],
      "stateMutability": "view",
      "type": "function"
    },
    {
      "inputs": [],
      "name": "renounceOwnership",
      "outputs": [],
      "stateMutability": "nonpayable",
      "type": "function"
    },
    {
      "inputs": [
        {
          "internalType": "bytes32",
          "name": "role",
          "type": "bytes32"
        },
        {
          "internalType": "address",
          "name": "account",
          "type": "address"
        }
      ],
      "name": "renounceRole",
      "outputs": [],
      "stateMutability": "nonpayable",
      "type": "function"
    },
    {
      "inputs": [
        {
          "internalType": "bytes32",
          "name": "role",
          "type": "bytes32"
        },
        {
          "internalType": "address",
          "name": "account",
          "type": "address"
        }
      ],
      "name": "revokeRole",
      "outputs": [],
      "stateMutability": "nonpayable",
      "type": "function"
    },
    {
      "inputs": [
        {
          "internalType": "uint256",
          "name": "",
          "type": "uint256"
        }
      ],
      "name": "slots",
      "outputs": [
        {
          "internalType": "uint256",
          "name": "poolId",
          "type": "uint256"
        },
        {
          "internalType": "string",
          "name": "exchangeName",
          "type": "string"
        },
        {
          "internalType": "address",
          "name": "lpContract",
          "type": "address"
        },
        {
          "internalType": "address",
          "name": "token0",
          "type": "address"
        },
        {
          "internalType": "address",
          "name": "token1",
          "type": "address"
        }
      ],
      "stateMutability": "view",
      "type": "function"
    },
    {
      "inputs": [
        {
          "internalType": "bytes4",
          "name": "interfaceId",
          "type": "bytes4"
        }
      ],
      "name": "supportsInterface",
      "outputs": [
        {
          "internalType": "bool",
          "name": "",
          "type": "bool"
        }
      ],
      "stateMutability": "view",
      "type": "function"
    },
    {
      "inputs": [
        {
          "internalType": "address",
          "name": "newOwner",
          "type": "address"
        }
      ],
      "name": "transferOwnership",
      "outputs": [],
      "stateMutability": "nonpayable",
      "type": "function"
    },
    {
      "stateMutability": "payable",
      "type": "receive"
    },
    {
      "inputs": [
        {
          "internalType": "string",
          "name": "_exchange",
          "type": "string"
        },
        {
          "internalType": "address",
          "name": "_beacon",
          "type": "address"
        },
        {
          "internalType": "address",
          "name": "_owner",
          "type": "address"
        }
      ],
      "name": "initialize",
      "outputs": [],
      "stateMutability": "payable",
      "type": "function"
    },
    {
      "inputs": [
        {
          "internalType": "string",
          "name": "_exchange",
          "type": "string"
        }
      ],
      "name": "setExchange",
      "outputs": [
        {
          "internalType": "bool",
          "name": "success",
          "type": "bool"
        }
      ],
      "stateMutability": "nonpayable",
      "type": "function"
    },
    {
      "inputs": [],
      "name": "getLogicContract",
      "outputs": [
        {
          "internalType": "address",
          "name": "",
          "type": "address"
        }
      ],
      "stateMutability": "view",
      "type": "function"
    }
  ],
  "bytecode": "0x60806040523480156200001157600080fd5b5062000032620000266200003860201b60201c565b6200004060201b60201c565b62000106565b600033905090565b6000601060009054906101000a900473ffffffffffffffffffffffffffffffffffffffff16905081601060006101000a81548173ffffffffffffffffffffffffffffffffffffffff021916908373ffffffffffffffffffffffffffffffffffffffff1602179055508173ffffffffffffffffffffffffffffffffffffffff168173ffffffffffffffffffffffffffffffffffffffff167f8be0079c531659141344cd1fd0a4f28419497f9722a3daafe3b4186f6b6457e060405160405180910390a35050565b61273380620001166000396000f3fe6080604052600436106101235760003560e01c80638b18c7e3116100a0578063d2f7265a11610064578063d2f7265a146104d4578063d547741f146104ff578063dc5d3a1714610528578063f1ed7dc714610553578063f2fde38b1461057e5761012a565b80638b18c7e3146103eb5780638da5cb5b1461041657806391d1485414610441578063a217fddf1461047e578063cb9d9fa7146104a95761012a565b8063463fd1af116100e7578063463fd1af146103255780634de9432014610341578063650344511461036c5780637003c08014610397578063715018a6146103d45761012a565b806301ffc9a714610218578063248a9ca3146102555780632f2ff15d1461029257806336568abe146102bb578063387dd9e9146102e45761012a565b3661012a57005b600073ffffffffffffffffffffffffffffffffffffffff16600260009054906101000a900473ffffffffffffffffffffffffffffffffffffffff1673ffffffffffffffffffffffffffffffffffffffff16036101bb576040517f08c379a00000000000000000000000000000000000000000000000000000000081526004016101b29061181c565b60405180910390fd5b6000600260009054906101000a900473ffffffffffffffffffffffffffffffffffffffff16905060405136600082376000803683855af43d806000843e816000811461020e576001811461021257610216565b8184fd5b8184f35b005b34801561022457600080fd5b5061023f600480360381019061023a91906118a8565b6105a7565b60405161024c91906118f0565b60405180910390f35b34801561026157600080fd5b5061027c60048036038101906102779190611941565b610621565b604051610289919061197d565b60405180910390f35b34801561029e57600080fd5b506102b960048036038101906102b491906119f6565b610641565b005b3480156102c757600080fd5b506102e260048036038101906102dd91906119f6565b61066a565b005b3480156102f057600080fd5b5061030b60048036038101906103069190611a6c565b6106ed565b60405161031c959493929190611b3f565b60405180910390f35b61033f600480360381019061033a9190611cce565b61081b565b005b34801561034d57600080fd5b50610356610b2e565b6040516103639190611d3d565b60405180910390f35b34801561037857600080fd5b50610381610b54565b60405161038e9190611d3d565b60405180910390f35b3480156103a357600080fd5b506103be60048036038101906103b99190611d58565b610b7a565b6040516103cb91906118f0565b60405180910390f35b3480156103e057600080fd5b506103e9610dfc565b005b3480156103f757600080fd5b50610400610e84565b60405161040d9190611d3d565b60405180910390f35b34801561042257600080fd5b5061042b610eae565b6040516104389190611d3d565b60405180910390f35b34801561044d57600080fd5b50610468600480360381019061046391906119f6565b610ed8565b60405161047591906118f0565b60405180910390f35b34801561048a57600080fd5b50610493610f43565b6040516104a0919061197d565b60405180910390f35b3480156104b557600080fd5b506104be610f4a565b6040516104cb919061197d565b60405180910390f35b3480156104e057600080fd5b506104e9610f6e565b6040516104f69190611da1565b60405180910390f35b34801561050b57600080fd5b50610526600480360381019061052191906119f6565b610ffc565b005b34801561053457600080fd5b5061053d611025565b60405161054a9190611dc3565b60405180910390f35b34801561055f57600080fd5b5061056861102b565b6040516105759190611e01565b60405180910390f35b34801561058a57600080fd5b506105a560048036038101906105a09190611e1c565b611043565b005b60007f7965db0b000000000000000000000000000000000000000000000000000000007bffffffffffffffffffffffffffffffffffffffffffffffffffffffff1916827bffffffffffffffffffffffffffffffffffffffffffffffffffffffff1916148061061a57506106198261113a565b5b9050919050565b600060116000838152602001908152602001600020600101549050919050565b61064a82610621565b61065b816106566111a4565b6111ac565b6106658383611249565b505050565b6106726111a4565b73ffffffffffffffffffffffffffffffffffffffff168173ffffffffffffffffffffffffffffffffffffffff16146106df576040517f08c379a00000000000000000000000000000000000000000000000000000000081526004016106d690611ebb565b60405180910390fd5b6106e9828261132a565b5050565b600f81815481106106fd57600080fd5b906000526020600020906005020160009150905080600001549080600101805461072690611f0a565b80601f016020809104026020016040519081016040528092919081815260200182805461075290611f0a565b801561079f5780601f106107745761010080835404028352916020019161079f565b820191906000526020600020905b81548152906001019060200180831161078257829003601f168201915b5050505050908060020160009054906101000a900473ffffffffffffffffffffffffffffffffffffffff16908060030160009054906101000a900473ffffffffffffffffffffffffffffffffffffffff16908060040160009054906101000a900473ffffffffffffffffffffffffffffffffffffffff16905085565b60011515600d60019054906101000a900460ff16151503610868576040517f3cba1f3a00000000000000000000000000000000000000000000000000000000815260040160405180910390fd5b600083905060008151116108b1576040517f08c379a00000000000000000000000000000000000000000000000000000000081526004016108a890611f87565b60405180910390fd5b600073ffffffffffffffffffffffffffffffffffffffff168373ffffffffffffffffffffffffffffffffffffffff1603610920576040517f08c379a000000000000000000000000000000000000000000000000000000000815260040161091790611ff3565b60405180910390fd5b600073ffffffffffffffffffffffffffffffffffffffff168273ffffffffffffffffffffffffffffffffffffffff160361098f576040517f08c379a00000000000000000000000000000000000000000000000000000000081526004016109869061205f565b60405180910390fd5b6109a36000801b61099e610eae565b61140c565b82600460006101000a81548173ffffffffffffffffffffffffffffffffffffffff021916908373ffffffffffffffffffffffffffffffffffffffff1602179055506109ed84610b7a565b506000600460009054906101000a900473ffffffffffffffffffffffffffffffffffffffff1673ffffffffffffffffffffffffffffffffffffffff1663bf40fac16040518163ffffffff1660e01b8152600401610a49906120cb565b6020604051808303816000875af1158015610a68573d6000803e3d6000fd5b505050506040513d601f19601f82011682018060405250810190610a8c9190612100565b9050600073ffffffffffffffffffffffffffffffffffffffff168173ffffffffffffffffffffffffffffffffffffffff1603610afd576040517f08c379a0000000000000000000000000000000000000000000000000000000008152600401610af490612179565b60405180910390fd5b610b277f27e3e4d29d60af3ae6456513164bb5db737d6fc8610aa36ad458736c9efb884c8261140c565b5050505050565b600260009054906101000a900473ffffffffffffffffffffffffffffffffffffffff1681565b600460009054906101000a900473ffffffffffffffffffffffffffffffffffffffff1681565b6000610ba67f27e3e4d29d60af3ae6456513164bb5db737d6fc8610aa36ad458736c9efb884c33610ed8565b80610be357503373ffffffffffffffffffffffffffffffffffffffff16610bcb610eae565b73ffffffffffffffffffffffffffffffffffffffff16145b610c22576040517f08c379a0000000000000000000000000000000000000000000000000000000008152600401610c19906121e5565b60405180910390fd5b60008290506000815111610c6b576040517f08c379a0000000000000000000000000000000000000000000000000000000008152600401610c6290611f87565b60405180910390fd5b82600e9080519060200190610c8192919061171c565b50600460009054906101000a900473ffffffffffffffffffffffffffffffffffffffff1673ffffffffffffffffffffffffffffffffffffffff16630cec42a4600e6040518263ffffffff1660e01b8152600401610cde919061229a565b6020604051808303816000875af1158015610cfd573d6000803e3d6000fd5b505050506040513d601f19601f82011682018060405250810190610d219190612100565b600260006101000a81548173ffffffffffffffffffffffffffffffffffffffff021916908373ffffffffffffffffffffffffffffffffffffffff160217905550600073ffffffffffffffffffffffffffffffffffffffff16600260009054906101000a900473ffffffffffffffffffffffffffffffffffffffff1673ffffffffffffffffffffffffffffffffffffffff1603610df2576040517f08c379a0000000000000000000000000000000000000000000000000000000008152600401610de99061232e565b60405180910390fd5b6001915050919050565b610e046111a4565b73ffffffffffffffffffffffffffffffffffffffff16610e22610eae565b73ffffffffffffffffffffffffffffffffffffffff1614610e78576040517f08c379a0000000000000000000000000000000000000000000000000000000008152600401610e6f9061239a565b60405180910390fd5b610e82600061141a565b565b6000600260009054906101000a900473ffffffffffffffffffffffffffffffffffffffff16905090565b6000601060009054906101000a900473ffffffffffffffffffffffffffffffffffffffff16905090565b60006011600084815260200190815260200160002060000160008373ffffffffffffffffffffffffffffffffffffffff1673ffffffffffffffffffffffffffffffffffffffff16815260200190815260200160002060009054906101000a900460ff16905092915050565b6000801b81565b7f27e3e4d29d60af3ae6456513164bb5db737d6fc8610aa36ad458736c9efb884c81565b600e8054610f7b90611f0a565b80601f0160208091040260200160405190810160405280929190818152602001828054610fa790611f0a565b8015610ff45780601f10610fc957610100808354040283529160200191610ff4565b820191906000526020600020905b815481529060010190602001808311610fd757829003601f168201915b505050505081565b61100582610621565b611016816110116111a4565b6111ac565b611020838361132a565b505050565b60015481565b60008054906101000a900467ffffffffffffffff1681565b61104b6111a4565b73ffffffffffffffffffffffffffffffffffffffff16611069610eae565b73ffffffffffffffffffffffffffffffffffffffff16146110bf576040517f08c379a00000000000000000000000000000000000000000000000000000000081526004016110b69061239a565b60405180910390fd5b600073ffffffffffffffffffffffffffffffffffffffff168173ffffffffffffffffffffffffffffffffffffffff160361112e576040517f08c379a00000000000000000000000000000000000000000000000000000000081526004016111259061242c565b60405180910390fd5b6111378161141a565b50565b60007f01ffc9a7000000000000000000000000000000000000000000000000000000007bffffffffffffffffffffffffffffffffffffffffffffffffffffffff1916827bffffffffffffffffffffffffffffffffffffffffffffffffffffffff1916149050919050565b600033905090565b6111b68282610ed8565b611245576111db8173ffffffffffffffffffffffffffffffffffffffff1660146114e0565b6111e98360001c60206114e0565b6040516020016111fa929190612520565b6040516020818303038152906040526040517f08c379a000000000000000000000000000000000000000000000000000000000815260040161123c9190611da1565b60405180910390fd5b5050565b6112538282610ed8565b6113265760016011600084815260200190815260200160002060000160008373ffffffffffffffffffffffffffffffffffffffff1673ffffffffffffffffffffffffffffffffffffffff16815260200190815260200160002060006101000a81548160ff0219169083151502179055506112cb6111a4565b73ffffffffffffffffffffffffffffffffffffffff168173ffffffffffffffffffffffffffffffffffffffff16837f2f8788117e7eff1d82e926ec794901d17c78024a50270940304540a733656f0d60405160405180910390a45b5050565b6113348282610ed8565b156114085760006011600084815260200190815260200160002060000160008373ffffffffffffffffffffffffffffffffffffffff1673ffffffffffffffffffffffffffffffffffffffff16815260200190815260200160002060006101000a81548160ff0219169083151502179055506113ad6111a4565b73ffffffffffffffffffffffffffffffffffffffff168173ffffffffffffffffffffffffffffffffffffffff16837ff6391f5c32d9c69d2a47ea670b442974b53935d1edc7fd64eb21e047a839171b60405160405180910390a45b5050565b6114168282611249565b5050565b6000601060009054906101000a900473ffffffffffffffffffffffffffffffffffffffff16905081601060006101000a81548173ffffffffffffffffffffffffffffffffffffffff021916908373ffffffffffffffffffffffffffffffffffffffff1602179055508173ffffffffffffffffffffffffffffffffffffffff168173ffffffffffffffffffffffffffffffffffffffff167f8be0079c531659141344cd1fd0a4f28419497f9722a3daafe3b4186f6b6457e060405160405180910390a35050565b6060600060028360026114f39190612589565b6114fd91906125e3565b67ffffffffffffffff81111561151657611515611ba3565b5b6040519080825280601f01601f1916602001820160405280156115485781602001600182028036833780820191505090505b5090507f3000000000000000000000000000000000000000000000000000000000000000816000815181106115805761157f612639565b5b60200101907effffffffffffffffffffffffffffffffffffffffffffffffffffffffffffff1916908160001a9053507f7800000000000000000000000000000000000000000000000000000000000000816001815181106115e4576115e3612639565b5b60200101907effffffffffffffffffffffffffffffffffffffffffffffffffffffffffffff1916908160001a905350600060018460026116249190612589565b61162e91906125e3565b90505b60018111156116ce577f3031323334353637383961626364656600000000000000000000000000000000600f8616601081106116705761166f612639565b5b1a60f81b82828151811061168757611686612639565b5b60200101907effffffffffffffffffffffffffffffffffffffffffffffffffffffffffffff1916908160001a905350600485901c9450806116c790612668565b9050611631565b5060008414611712576040517f08c379a0000000000000000000000000000000000000000000000000000000008152600401611709906126dd565b60405180910390fd5b8091505092915050565b82805461172890611f0a565b90600052602060002090601f01602090048101928261174a5760008555611791565b82601f1061176357805160ff1916838001178555611791565b82800160010185558215611791579182015b82811115611790578251825591602001919060010190611775565b5b50905061179e91906117a2565b5090565b5b808211156117bb5760008160009055506001016117a3565b5090565b600082825260208201905092915050565b7f4c6f67696320636f6e7472616374207265717569726564000000000000000000600082015250565b60006118066017836117bf565b9150611811826117d0565b602082019050919050565b60006020820190508181036000830152611835816117f9565b9050919050565b6000604051905090565b600080fd5b600080fd5b60007fffffffff0000000000000000000000000000000000000000000000000000000082169050919050565b61188581611850565b811461189057600080fd5b50565b6000813590506118a28161187c565b92915050565b6000602082840312156118be576118bd611846565b5b60006118cc84828501611893565b91505092915050565b60008115159050919050565b6118ea816118d5565b82525050565b600060208201905061190560008301846118e1565b92915050565b6000819050919050565b61191e8161190b565b811461192957600080fd5b50565b60008135905061193b81611915565b92915050565b60006020828403121561195757611956611846565b5b60006119658482850161192c565b91505092915050565b6119778161190b565b82525050565b6000602082019050611992600083018461196e565b92915050565b600073ffffffffffffffffffffffffffffffffffffffff82169050919050565b60006119c382611998565b9050919050565b6119d3816119b8565b81146119de57600080fd5b50565b6000813590506119f0816119ca565b92915050565b60008060408385031215611a0d57611a0c611846565b5b6000611a1b8582860161192c565b9250506020611a2c858286016119e1565b9150509250929050565b6000819050919050565b611a4981611a36565b8114611a5457600080fd5b50565b600081359050611a6681611a40565b92915050565b600060208284031215611a8257611a81611846565b5b6000611a9084828501611a57565b91505092915050565b611aa281611a36565b82525050565b600081519050919050565b60005b83811015611ad1578082015181840152602081019050611ab6565b83811115611ae0576000848401525b50505050565b6000601f19601f8301169050919050565b6000611b0282611aa8565b611b0c81856117bf565b9350611b1c818560208601611ab3565b611b2581611ae6565b840191505092915050565b611b39816119b8565b82525050565b600060a082019050611b546000830188611a99565b8181036020830152611b668187611af7565b9050611b756040830186611b30565b611b826060830185611b30565b611b8f6080830184611b30565b9695505050505050565b600080fd5b600080fd5b7f4e487b7100000000000000000000000000000000000000000000000000000000600052604160045260246000fd5b611bdb82611ae6565b810181811067ffffffffffffffff82111715611bfa57611bf9611ba3565b5b80604052505050565b6000611c0d61183c565b9050611c198282611bd2565b919050565b600067ffffffffffffffff821115611c3957611c38611ba3565b5b611c4282611ae6565b9050602081019050919050565b82818337600083830152505050565b6000611c71611c6c84611c1e565b611c03565b905082815260208101848484011115611c8d57611c8c611b9e565b5b611c98848285611c4f565b509392505050565b600082601f830112611cb557611cb4611b99565b5b8135611cc5848260208601611c5e565b91505092915050565b600080600060608486031215611ce757611ce6611846565b5b600084013567ffffffffffffffff811115611d0557611d0461184b565b5b611d1186828701611ca0565b9350506020611d22868287016119e1565b9250506040611d33868287016119e1565b9150509250925092565b6000602082019050611d526000830184611b30565b92915050565b600060208284031215611d6e57611d6d611846565b5b600082013567ffffffffffffffff811115611d8c57611d8b61184b565b5b611d9884828501611ca0565b91505092915050565b60006020820190508181036000830152611dbb8184611af7565b905092915050565b6000602082019050611dd86000830184611a99565b92915050565b600067ffffffffffffffff82169050919050565b611dfb81611dde565b82525050565b6000602082019050611e166000830184611df2565b92915050565b600060208284031215611e3257611e31611846565b5b6000611e40848285016119e1565b91505092915050565b7f416363657373436f6e74726f6c3a2063616e206f6e6c792072656e6f756e636560008201527f20726f6c657320666f722073656c660000000000000000000000000000000000602082015250565b6000611ea5602f836117bf565b9150611eb082611e49565b604082019050919050565b60006020820190508181036000830152611ed481611e98565b9050919050565b7f4e487b7100000000000000000000000000000000000000000000000000000000600052602260045260246000fd5b60006002820490506001821680611f2257607f821691505b602082108103611f3557611f34611edb565b5b50919050565b7f45786368616e6765206973207265717569726564000000000000000000000000600082015250565b6000611f716014836117bf565b9150611f7c82611f3b565b602082019050919050565b60006020820190508181036000830152611fa081611f64565b9050919050565b7f426561636f6e20436f6e74726163742072657175697265640000000000000000600082015250565b6000611fdd6018836117bf565b9150611fe882611fa7565b602082019050919050565b6000602082019050818103600083015261200c81611fd0565b9050919050565b7f4f776e6572206973207265717569726564000000000000000000000000000000600082015250565b60006120496011836117bf565b915061205482612013565b602082019050919050565b600060208201905081810360008301526120788161203c565b9050919050565b7f41444d494e555345520000000000000000000000000000000000000000000000600082015250565b60006120b56009836117bf565b91506120c08261207f565b602082019050919050565b600060208201905081810360008301526120e4816120a8565b9050919050565b6000815190506120fa816119ca565b92915050565b60006020828403121561211657612115611846565b5b6000612124848285016120eb565b91505092915050565b7f41646d696e206164647265737320726571756972656400000000000000000000600082015250565b60006121636016836117bf565b915061216e8261212d565b602082019050919050565b6000602082019050818103600083015261219281612156565b9050919050565b7f526573747269637465642046756e6374696f6e00000000000000000000000000600082015250565b60006121cf6013836117bf565b91506121da82612199565b602082019050919050565b600060208201905081810360008301526121fe816121c2565b9050919050565b60008190508160005260206000209050919050565b6000815461222781611f0a565b61223181866117bf565b9450600182166000811461224c576001811461225e57612291565b60ff1983168652602086019350612291565b61226785612205565b60005b838110156122895781548189015260018201915060208101905061226a565b808801955050505b50505092915050565b600060208201905081810360008301526122b4818461221a565b905092915050565b7f4c6f67696320436f6e7472616374207265717569726564202d2073657445786360008201527f68616e6765000000000000000000000000000000000000000000000000000000602082015250565b60006123186025836117bf565b9150612323826122bc565b604082019050919050565b600060208201905081810360008301526123478161230b565b9050919050565b7f4f776e61626c653a2063616c6c6572206973206e6f7420746865206f776e6572600082015250565b60006123846020836117bf565b915061238f8261234e565b602082019050919050565b600060208201905081810360008301526123b381612377565b9050919050565b7f4f776e61626c653a206e6577206f776e657220697320746865207a65726f206160008201527f6464726573730000000000000000000000000000000000000000000000000000602082015250565b60006124166026836117bf565b9150612421826123ba565b604082019050919050565b6000602082019050818103600083015261244581612409565b9050919050565b600081905092915050565b7f416363657373436f6e74726f6c3a206163636f756e7420000000000000000000600082015250565b600061248d60178361244c565b915061249882612457565b601782019050919050565b60006124ae82611aa8565b6124b8818561244c565b93506124c8818560208601611ab3565b80840191505092915050565b7f206973206d697373696e6720726f6c6520000000000000000000000000000000600082015250565b600061250a60118361244c565b9150612515826124d4565b601182019050919050565b600061252b82612480565b915061253782856124a3565b9150612542826124fd565b915061254e82846124a3565b91508190509392505050565b7f4e487b7100000000000000000000000000000000000000000000000000000000600052601160045260246000fd5b600061259482611a36565b915061259f83611a36565b9250817fffffffffffffffffffffffffffffffffffffffffffffffffffffffffffffffff04831182151516156125d8576125d761255a565b5b828202905092915050565b60006125ee82611a36565b91506125f983611a36565b9250827fffffffffffffffffffffffffffffffffffffffffffffffffffffffffffffffff0382111561262e5761262d61255a565b5b828201905092915050565b7f4e487b7100000000000000000000000000000000000000000000000000000000600052603260045260246000fd5b600061267382611a36565b9150600082036126865761268561255a565b5b600182039050919050565b7f537472696e67733a20686578206c656e67746820696e73756666696369656e74600082015250565b60006126c76020836117bf565b91506126d282612691565b602082019050919050565b600060208201905081810360008301526126f6816126ba565b905091905056fea2646970667358221220d93a1628519b868450eaf0fdbfb9eb64d4c0b1818867625b5344c044a66667ef64736f6c634300080d0033",
  "immutableReferences": {},
  "source": "//SPDX-License-Identifier: UNLICENSED\npragma solidity ^0.8.7;\nimport \"./Storage.sol\";\ninterface iApp {\n    function  initialize(uint64 _poolId, address _beacon, string memory _exchangeName, address _owner) external payable;\n}\n\ninterface prBeacon {\n    function mExchanges(string memory _exchange) external returns(address);\n    function getAddress(string memory _exchange) external returns(address);\n    function getContractType(string memory _name, uint _type) external returns (string memory _contract);\n}\n\ncontract combine_proxy is Storage, Ownable, AccessControl  {\n    modifier allowAdmin() {\n        require(hasRole(HARVESTER,msg.sender) || owner() == msg.sender,\"Restricted Function\");\n        _;\n    }\n\n    error sdInitializedError();\n\n    receive() external payable {}\n\n    constructor () {}\n\n\n    ///@notice Initialize the proxy contract\n    ///@param _exchange the name of the exchange\n    ///@param _beacon the address of the beacon contract\n    ///@param _owner the address of the owner\n    function initialize (string memory _exchange, address _beacon, address _owner) public payable  {\n        if (_initialized == true) revert sdInitializedError();\n\n        bytes memory bExchange = bytes(_exchange);\n        require(bExchange.length > 0, \"Exchange is required\");\n        require(_beacon != address(0), \"Beacon Contract required\");\n        require(_owner != address(0), \"Owner is required\");\n        _setupRole(DEFAULT_ADMIN_ROLE,owner());\n        \n        beaconContract = _beacon;\n        setExchange(_exchange);\n\n        address _admin = prBeacon(beaconContract).getAddress(\"ADMINUSER\");        \n        require(_admin != address(0), \"Admin address required\");\n        _setupRole(HARVESTER, _admin);\n    }\n    \n    ///@notice Sets the logic contract for the exchange\n    ///@dev Call function if logic contract gets updated\n    ///@param _exchange the name of the exchange\n    ///@return success - success or failure\n    function setExchange(string memory _exchange) public allowAdmin returns (bool success){\n        bytes memory bExchange = bytes(_exchange);\n        require(bExchange.length > 0, \"Exchange is required\");\n        exchange = _exchange;\n        logic_contract = prBeacon(beaconContract).mExchanges(exchange);\n        require(logic_contract != address(0), \"Logic Contract required - setExchange\");\n        return true;\n    }\n\n    ///@notice Gets the logic contract for the exchange\n    function getLogicContract() public view returns (address) {\n       return logic_contract;\n    }\n    \n    ///@notice logic for the proxy part of the contract, uses delegatecall to send function call to the logic contract\n    fallback () payable external {\n       require(logic_contract != address(0),\"Logic contract required\");\n       address target = logic_contract;\n        \n        assembly {\n            let ptr := mload(0x40)\n            calldatacopy(ptr, 0, calldatasize())\n            let result := delegatecall(gas(), target, ptr, calldatasize(), 0, 0)\n            let size := returndatasize()\n            returndatacopy(ptr, 0, size)\n            switch result\n            case 0 { revert(ptr, size) }\n            case 1 { return(ptr, size) }\n        }\n    }\n}\n\ncontract proxyFactory is Ownable {\n    address public beaconContract;\n\n    mapping (address => address[]) public proxyContracts;\n    address[] public proxyContractsUsers;\n\n    event NewProxy(address proxy, address user);\n\n\n    ///@notice Initialize the proxy factory contract\n    ///@param _beacon the address of the beacon contract\n    constructor (address _beacon) {\n        require(_beacon != address(0), \"Beacon Contract required\");\n        beaconContract = _beacon;\n    }\n\n    ///@notice Sets the address of the beacon contract\n    ///@dev call when beacon contract gets updated\n    ///@param _beaconContract the address of the beacon contract\n    function setBeacon(address _beaconContract) public onlyOwner {\n        beaconContract = _beaconContract;\n    }\n\n    ///@notice Allows admin to add an existing proxy contract to the list of proxy contracts for a user\n    ///@param _proxyContract the address of the proxy contract\n    ///@param _user the address of the user\n    function addProxy(address _proxyContract, address _user) public onlyOwner {\n        require(_proxyContract != address(0), \"Proxy Contract required\");\n        require(_user != address(0), \"User required\");\n        proxyContracts[_user].push(_proxyContract);\n        proxyContractsUsers.push(_user);\n    }\n\n    ///@notice Returns the last proxy contract created (or added) for a specific user\n    ///@param _user the address of the user\n    ///@return the address of the proxy contract\n    function getLastProxy(address _user) public view returns (address) {\n        require(_user != address(0), \"User required\");\n        return proxyContracts[_user][proxyContracts[_user].length - 1];\n    }\n    \n    ///@notice Creates a new proxy contract for a specific exchange and pool. \n    ///@dev Proxy contract is owned by calling user\n    ///@dev for Solo contracts, only one proxy contract is needed unless custom logic contract is needed\n    ///@param _pid the pool id\n    ///@param _exchange the name of the exchange\n    ///@param _poolType the type of the pool (0=solo, 1=pool)\n    ///@return the address of the proxy contract\n    function initialize(uint64  _pid, string memory _exchange, uint _poolType) public payable returns (address) {        \n        require(beaconContract != address(0), \"Beacon Contract required\");\n        require(bytes(_exchange).length > 0,\"Exchange Name cannot be empty\");\n        string memory _contract = prBeacon(beaconContract).getContractType(_exchange,_poolType);\n\n        address proxy = deploy(_pid);\n        combine_proxy(payable(proxy)).initialize(_contract, beaconContract, msg.sender);\n\n        emit NewProxy(address(proxy), msg.sender);\n\n        proxyContracts[msg.sender].push(address(proxy));\n        proxyContractsUsers.push(msg.sender);\n        iApp(address(proxy)).initialize{value:msg.value}(_pid, beaconContract, _exchange,msg.sender);    \n\n        return address(proxy);\n    }\n\n    ///@notice Gets bytecode of proxyContract\n    ///@return the bytecode of the proxy contract\n    function getBytecode() private pure returns (bytes memory) {\n        bytes memory result = abi.encodePacked(type(combine_proxy).creationCode);\n        return result;\n    }\n\n    ///@notice generates an address of a new proxy contract\n    ///@dev used in front end\n    ///@param _pid the pool id\n    ///@return the address of the proxy contract\n    function getAddress(uint _pid) public view returns (address)\n    {\n        bytes32 newsalt = keccak256(abi.encodePacked(_pid,msg.sender));\n\n        bytes memory bytecode = getBytecode();\n        bytes32 hash = keccak256(\n            abi.encodePacked(bytes1(0xff), address(this), newsalt, keccak256(bytecode))\n        );\n\n        return address(uint160(uint(hash)));\n    }    \n\n    ///@notice deploys bytecode of proxy contract\n    ///@param _pid the pool id\n    ///@return addr the address of the proxy contract\n    function deploy(uint _pid) public payable returns (address addr){\n        bytes32 newsalt = keccak256(abi.encodePacked(_pid,msg.sender));\n        bytes memory bytecode = getBytecode();\n\n        assembly {\n            addr := create2(\n                0, \n                add(bytecode, 0x20),\n                mload(bytecode),\n                newsalt\n            )\n\n            if iszero(extcodesize(addr)) {\n                revert(0, 0)\n            }\n        }\n    }    \n}\n",
  "sourcePath": "/mnt/src/crypto/combine_sol/contracts/combine_proxy.sol",
  "compiler": {
    "name": "solc",
    "version": "0.8.13+commit.abaa5c0e.Emscripten.clang"
  },
  "schemaVersion": "3.4.3",
  "updatedAt": "2022-03-30T20:34:34.216Z",
  "devdoc": {
    "kind": "dev",
    "methods": {
      "getRoleAdmin(bytes32)": {
        "details": "Returns the admin role that controls `role`. See {grantRole} and {revokeRole}. To change a role's admin, use {_setRoleAdmin}."
      },
      "grantRole(bytes32,address)": {
        "details": "Grants `role` to `account`. If `account` had not been already granted `role`, emits a {RoleGranted} event. Requirements: - the caller must have ``role``'s admin role."
      },
      "hasRole(bytes32,address)": {
        "details": "Returns `true` if `account` has been granted `role`."
      },
      "initialize(string,address,address)": {
        "params": {
          "_beacon": "the address of the beacon contract",
          "_exchange": "the name of the exchange",
          "_owner": "the address of the owner"
        }
      },
      "owner()": {
        "details": "Returns the address of the current owner."
      },
      "renounceOwnership()": {
        "details": "Leaves the contract without owner. It will not be possible to call `onlyOwner` functions anymore. Can only be called by the current owner. NOTE: Renouncing ownership will leave the contract without an owner, thereby removing any functionality that is only available to the owner."
      },
      "renounceRole(bytes32,address)": {
        "details": "Revokes `role` from the calling account. Roles are often managed via {grantRole} and {revokeRole}: this function's purpose is to provide a mechanism for accounts to lose their privileges if they are compromised (such as when a trusted device is misplaced). If the calling account had been granted `role`, emits a {RoleRevoked} event. Requirements: - the caller must be `account`."
      },
      "revokeRole(bytes32,address)": {
        "details": "Revokes `role` from `account`. If `account` had been granted `role`, emits a {RoleRevoked} event. Requirements: - the caller must have ``role``'s admin role."
      },
      "setExchange(string)": {
        "details": "Call function if logic contract gets updated",
        "params": {
          "_exchange": "the name of the exchange"
        },
        "returns": {
          "success": "- success or failure"
        }
      },
      "supportsInterface(bytes4)": {
        "details": "See {IERC165-supportsInterface}."
      },
      "transferOwnership(address)": {
        "details": "Transfers ownership of the contract to a new account (`newOwner`). Can only be called by the current owner."
      }
    },
    "version": 1
  },
  "userdoc": {
    "kind": "user",
    "methods": {
      "getLogicContract()": {
        "notice": "Gets the logic contract for the exchange"
      },
      "initialize(string,address,address)": {
        "notice": "Initialize the proxy contract"
      },
      "setExchange(string)": {
        "notice": "Sets the logic contract for the exchange"
      }
    },
    "version": 1
  }
}