{
  "contractName": "combine_proxy",
  "abi": [
    {
      "inputs": [],
      "stateMutability": "nonpayable",
      "type": "constructor"
    },
    {
      "inputs": [],
      "name": "sdFunctionLocked",
      "type": "error"
    },
    {
      "inputs": [],
      "name": "sdInitializedError",
      "type": "error"
    },
    {
      "anonymous": false,
      "inputs": [
        {
          "indexed": true,
          "internalType": "address",
          "name": "previousOwner",
          "type": "address"
        },
        {
          "indexed": true,
          "internalType": "address",
          "name": "newOwner",
          "type": "address"
        }
      ],
      "name": "OwnershipTransferred",
      "type": "event"
    },
    {
      "anonymous": false,
      "inputs": [
        {
          "indexed": true,
          "internalType": "bytes32",
          "name": "role",
          "type": "bytes32"
        },
        {
          "indexed": true,
          "internalType": "bytes32",
          "name": "previousAdminRole",
          "type": "bytes32"
        },
        {
          "indexed": true,
          "internalType": "bytes32",
          "name": "newAdminRole",
          "type": "bytes32"
        }
      ],
      "name": "RoleAdminChanged",
      "type": "event"
    },
    {
      "anonymous": false,
      "inputs": [
        {
          "indexed": true,
          "internalType": "bytes32",
          "name": "role",
          "type": "bytes32"
        },
        {
          "indexed": true,
          "internalType": "address",
          "name": "account",
          "type": "address"
        },
        {
          "indexed": true,
          "internalType": "address",
          "name": "sender",
          "type": "address"
        }
      ],
      "name": "RoleGranted",
      "type": "event"
    },
    {
      "anonymous": false,
      "inputs": [
        {
          "indexed": true,
          "internalType": "bytes32",
          "name": "role",
          "type": "bytes32"
        },
        {
          "indexed": true,
          "internalType": "address",
          "name": "account",
          "type": "address"
        },
        {
          "indexed": true,
          "internalType": "address",
          "name": "sender",
          "type": "address"
        }
      ],
      "name": "RoleRevoked",
      "type": "event"
    },
    {
      "stateMutability": "payable",
      "type": "fallback"
    },
    {
      "inputs": [],
      "name": "DEFAULT_ADMIN_ROLE",
      "outputs": [
        {
          "internalType": "bytes32",
          "name": "",
          "type": "bytes32"
        }
      ],
      "stateMutability": "view",
      "type": "function"
    },
    {
      "inputs": [],
      "name": "HARVESTER",
      "outputs": [
        {
          "internalType": "bytes32",
          "name": "",
          "type": "bytes32"
        }
      ],
      "stateMutability": "view",
      "type": "function"
    },
    {
      "inputs": [],
      "name": "beaconContract",
      "outputs": [
        {
          "internalType": "address",
          "name": "",
          "type": "address"
        }
      ],
      "stateMutability": "view",
      "type": "function"
    },
    {
      "inputs": [],
      "name": "exchange",
      "outputs": [
        {
          "internalType": "string",
          "name": "",
          "type": "string"
        }
      ],
      "stateMutability": "view",
      "type": "function"
    },
    {
      "inputs": [
        {
          "internalType": "bytes32",
          "name": "role",
          "type": "bytes32"
        }
      ],
      "name": "getRoleAdmin",
      "outputs": [
        {
          "internalType": "bytes32",
          "name": "",
          "type": "bytes32"
        }
      ],
      "stateMutability": "view",
      "type": "function"
    },
    {
      "inputs": [
        {
          "internalType": "bytes32",
          "name": "role",
          "type": "bytes32"
        },
        {
          "internalType": "address",
          "name": "account",
          "type": "address"
        }
      ],
      "name": "grantRole",
      "outputs": [],
      "stateMutability": "nonpayable",
      "type": "function"
    },
    {
      "inputs": [
        {
          "internalType": "bytes32",
          "name": "role",
          "type": "bytes32"
        },
        {
          "internalType": "address",
          "name": "account",
          "type": "address"
        }
      ],
      "name": "hasRole",
      "outputs": [
        {
          "internalType": "bool",
          "name": "",
          "type": "bool"
        }
      ],
      "stateMutability": "view",
      "type": "function"
    },
    {
      "inputs": [],
      "name": "holdBack",
      "outputs": [
        {
          "internalType": "uint64",
          "name": "",
          "type": "uint64"
        }
      ],
      "stateMutability": "view",
      "type": "function"
    },
    {
      "inputs": [],
      "name": "lastGas",
      "outputs": [
        {
          "internalType": "uint256",
          "name": "",
          "type": "uint256"
        }
      ],
      "stateMutability": "view",
      "type": "function"
    },
    {
      "inputs": [],
      "name": "logic_contract",
      "outputs": [
        {
          "internalType": "address",
          "name": "",
          "type": "address"
        }
      ],
      "stateMutability": "view",
      "type": "function"
    },
    {
      "inputs": [],
      "name": "owner",
      "outputs": [
        {
          "internalType": "address",
          "name": "",
          "type": "address"
        }
      ],
      "stateMutability": "view",
      "type": "function"
    },
    {
      "inputs": [],
      "name": "renounceOwnership",
      "outputs": [],
      "stateMutability": "nonpayable",
      "type": "function"
    },
    {
      "inputs": [
        {
          "internalType": "bytes32",
          "name": "role",
          "type": "bytes32"
        },
        {
          "internalType": "address",
          "name": "account",
          "type": "address"
        }
      ],
      "name": "renounceRole",
      "outputs": [],
      "stateMutability": "nonpayable",
      "type": "function"
    },
    {
      "inputs": [
        {
          "internalType": "bytes32",
          "name": "role",
          "type": "bytes32"
        },
        {
          "internalType": "address",
          "name": "account",
          "type": "address"
        }
      ],
      "name": "revokeRole",
      "outputs": [],
      "stateMutability": "nonpayable",
      "type": "function"
    },
    {
      "inputs": [
        {
          "internalType": "uint256",
          "name": "",
          "type": "uint256"
        }
      ],
      "name": "slots",
      "outputs": [
        {
          "internalType": "uint256",
          "name": "poolId",
          "type": "uint256"
        },
        {
          "internalType": "string",
          "name": "exchangeName",
          "type": "string"
        },
        {
          "internalType": "address",
          "name": "lpContract",
          "type": "address"
        },
        {
          "internalType": "address",
          "name": "token0",
          "type": "address"
        },
        {
          "internalType": "address",
          "name": "token1",
          "type": "address"
        }
      ],
      "stateMutability": "view",
      "type": "function"
    },
    {
      "inputs": [
        {
          "internalType": "bytes4",
          "name": "interfaceId",
          "type": "bytes4"
        }
      ],
      "name": "supportsInterface",
      "outputs": [
        {
          "internalType": "bool",
          "name": "",
          "type": "bool"
        }
      ],
      "stateMutability": "view",
      "type": "function"
    },
    {
      "inputs": [
        {
          "internalType": "address",
          "name": "newOwner",
          "type": "address"
        }
      ],
      "name": "transferOwnership",
      "outputs": [],
      "stateMutability": "nonpayable",
      "type": "function"
    },
    {
      "stateMutability": "payable",
      "type": "receive"
    },
    {
      "inputs": [
        {
          "internalType": "string",
          "name": "_exchange",
          "type": "string"
        },
        {
          "internalType": "address",
          "name": "_beacon",
          "type": "address"
        },
        {
          "internalType": "address",
          "name": "_owner",
          "type": "address"
        },
        {
          "internalType": "uint256",
          "name": "_poolType",
          "type": "uint256"
        }
      ],
      "name": "initialize",
      "outputs": [],
      "stateMutability": "payable",
      "type": "function"
    },
    {
      "inputs": [
        {
          "internalType": "string",
          "name": "_exchange",
          "type": "string"
        }
      ],
      "name": "setExchange",
      "outputs": [
        {
          "internalType": "bool",
          "name": "success",
          "type": "bool"
        }
      ],
      "stateMutability": "nonpayable",
      "type": "function"
    },
    {
      "inputs": [],
      "name": "getLogicContract",
      "outputs": [
        {
          "internalType": "address",
          "name": "",
          "type": "address"
        }
      ],
      "stateMutability": "view",
      "type": "function"
    }
  ],
  "bytecode": "0x608060405234801561001057600080fd5b5061001a3361001f565b610071565b601180546001600160a01b038381166001600160a01b0319831681179093556040519116919082907f8be0079c531659141344cd1fd0a4f28419497f9722a3daafe3b4186f6b6457e090600090a35050565b611491806100806000396000f3fe6080604052600436106101235760003560e01c80638b18c7e3116100a0578063d2f7265a11610064578063d2f7265a14610444578063d547741f14610466578063dc5d3a1714610486578063f1ed7dc71461049c578063f2fde38b146104d65761012a565b80638b18c7e31461039f5780638da5cb5b146103bd57806391d14854146103db578063a217fddf146103fb578063cb9d9fa7146104105761012a565b80634de94320116100e75780634de94320146102ff57806365034451146103375780637003c08014610357578063715018a6146103775780637ff7e6161461038c5761012a565b806301ffc9a71461021b578063248a9ca3146102505780632f2ff15d1461028e57806336568abe146102ae578063387dd9e9146102ce5761012a565b3661012a57005b600e5462010000900460ff16158061014d57506011546001600160a01b03163314155b806101605750600e54610100900460ff16155b15610202576002546001600160a01b03166101c25760405162461bcd60e51b815260206004820152601760248201527f4c6f67696320636f6e747261637420726571756972656400000000000000000060448201526064015b60405180910390fd5b6002546040516001600160a01b039091169036600082376000803683855af43d806000843e8180156101f857600181146101fc57005b8184fd5b8184f35b005b60405163899f031560e01b815260040160405180910390fd5b34801561022757600080fd5b5061023b61023636600461103f565b6104f6565b60405190151581526020015b60405180910390f35b34801561025c57600080fd5b5061028061026b366004611069565b60009081526012602052604090206001015490565b604051908152602001610247565b34801561029a57600080fd5b506102006102a9366004611097565b61052d565b3480156102ba57600080fd5b506102006102c9366004611097565b610558565b3480156102da57600080fd5b506102ee6102e9366004611069565b6105d6565b604051610247959493929190611123565b34801561030b57600080fd5b5060025461031f906001600160a01b031681565b6040516001600160a01b039091168152602001610247565b34801561034357600080fd5b5060045461031f906001600160a01b031681565b34801561036357600080fd5b5061023b610372366004611209565b6106af565b34801561038357600080fd5b5061020061087f565b61020061039a366004611246565b6108b5565b3480156103ab57600080fd5b506002546001600160a01b031661031f565b3480156103c957600080fd5b506011546001600160a01b031661031f565b3480156103e757600080fd5b5061023b6103f6366004611097565b610b75565b34801561040757600080fd5b50610280600081565b34801561041c57600080fd5b506102807f27e3e4d29d60af3ae6456513164bb5db737d6fc8610aa36ad458736c9efb884c81565b34801561045057600080fd5b50610459610ba0565b60405161024791906112b0565b34801561047257600080fd5b50610200610481366004611097565b610c2e565b34801561049257600080fd5b5061028060015481565b3480156104a857600080fd5b506000546104bd9067ffffffffffffffff1681565b60405167ffffffffffffffff9091168152602001610247565b3480156104e257600080fd5b506102006104f13660046112c3565b610c54565b60006001600160e01b03198216637965db0b60e01b148061052757506301ffc9a760e01b6001600160e01b03198316145b92915050565b6000828152601260205260409020600101546105498133610cef565b6105538383610d53565b505050565b6001600160a01b03811633146105c85760405162461bcd60e51b815260206004820152602f60248201527f416363657373436f6e74726f6c3a2063616e206f6e6c792072656e6f756e636560448201526e103937b632b9903337b91039b2b63360891b60648201526084016101b9565b6105d28282610dd9565b5050565b601081815481106105e657600080fd5b6000918252602090912060059091020180546001820180549193509061060b906112e0565b80601f0160208091040260200160405190810160405280929190818152602001828054610637906112e0565b80156106845780601f1061065957610100808354040283529160200191610684565b820191906000526020600020905b81548152906001019060200180831161066757829003601f168201915b505050506002830154600384015460049094015492936001600160a01b039182169390821692501685565b60006106db7f27e3e4d29d60af3ae6456513164bb5db737d6fc8610aa36ad458736c9efb884c33610b75565b806106ff5750336106f46011546001600160a01b031690565b6001600160a01b0316145b6107415760405162461bcd60e51b81526020600482015260136024820152722932b9ba3934b1ba32b210233ab731ba34b7b760691b60448201526064016101b9565b815182906107885760405162461bcd60e51b8152602060048201526014602482015273115e18da185b99d9481a5cc81c995c5d5a5c995960621b60448201526064016101b9565b600480546040516001625a6fe760e11b031981526001600160a01b039091169163ff4b2032916107ba918791016112b0565b6020604051808303816000875af11580156107d9573d6000803e3d6000fd5b505050506040513d601f19601f820116820180604052508101906107fd919061131a565b600280546001600160a01b0319166001600160a01b039290921691821790556108765760405162461bcd60e51b815260206004820152602560248201527f4c6f67696320436f6e7472616374207265717569726564202d2073657445786360448201526468616e676560d81b60648201526084016101b9565b50600192915050565b6011546001600160a01b031633146108a95760405162461bcd60e51b81526004016101b990611337565b6108b36000610e40565b565b6011546001600160a01b031633146108df5760405162461bcd60e51b81526004016101b990611337565b600e54610100900460ff16151560010361090c57604051631e5d0f9d60e11b815260040160405180910390fd5b835184906109535760405162461bcd60e51b8152602060048201526014602482015273115e18da185b99d9481a5cc81c995c5d5a5c995960621b60448201526064016101b9565b6001600160a01b0384166109a95760405162461bcd60e51b815260206004820152601860248201527f426561636f6e20436f6e7472616374207265717569726564000000000000000060448201526064016101b9565b6001600160a01b0383166109f35760405162461bcd60e51b815260206004820152601160248201527013dddb995c881a5cc81c995c5d5a5c9959607a1b60448201526064016101b9565b610a0f6000610a0a6011546001600160a01b031690565b610e92565b81600114610a1e576000610a21565b60015b600e805462ff000019166201000092151592909202919091179055600480546001600160a01b0319166001600160a01b038616179055610a60856106af565b506004805460405163bf40fac160e01b81526000926001600160a01b039092169163bf40fac191610aaf910160208082526009908201526820a226a4a72aa9a2a960b91b604082015260600190565b6020604051808303816000875af1158015610ace573d6000803e3d6000fd5b505050506040513d601f19601f82011682018060405250810190610af2919061131a565b90506001600160a01b038116610b435760405162461bcd60e51b815260206004820152601660248201527510591b5a5b881859191c995cdcc81c995c5d5a5c995960521b60448201526064016101b9565b610b6d7f27e3e4d29d60af3ae6456513164bb5db737d6fc8610aa36ad458736c9efb884c82610e92565b505050505050565b60009182526012602090815260408084206001600160a01b0393909316845291905290205460ff1690565b600f8054610bad906112e0565b80601f0160208091040260200160405190810160405280929190818152602001828054610bd9906112e0565b8015610c265780601f10610bfb57610100808354040283529160200191610c26565b820191906000526020600020905b815481529060010190602001808311610c0957829003601f168201915b505050505081565b600082815260126020526040902060010154610c4a8133610cef565b6105538383610dd9565b6011546001600160a01b03163314610c7e5760405162461bcd60e51b81526004016101b990611337565b6001600160a01b038116610ce35760405162461bcd60e51b815260206004820152602660248201527f4f776e61626c653a206e6577206f776e657220697320746865207a65726f206160448201526564647265737360d01b60648201526084016101b9565b610cec81610e40565b50565b610cf98282610b75565b6105d257610d11816001600160a01b03166014610e9c565b610d1c836020610e9c565b604051602001610d2d92919061136c565b60408051601f198184030181529082905262461bcd60e51b82526101b9916004016112b0565b610d5d8282610b75565b6105d25760008281526012602090815260408083206001600160a01b03851684529091529020805460ff19166001179055610d953390565b6001600160a01b0316816001600160a01b0316837f2f8788117e7eff1d82e926ec794901d17c78024a50270940304540a733656f0d60405160405180910390a45050565b610de38282610b75565b156105d25760008281526012602090815260408083206001600160a01b0385168085529252808320805460ff1916905551339285917ff6391f5c32d9c69d2a47ea670b442974b53935d1edc7fd64eb21e047a839171b9190a45050565b601180546001600160a01b038381166001600160a01b0319831681179093556040519116919082907f8be0079c531659141344cd1fd0a4f28419497f9722a3daafe3b4186f6b6457e090600090a35050565b6105d28282610d53565b60606000610eab8360026113f7565b610eb6906002611416565b67ffffffffffffffff811115610ece57610ece611166565b6040519080825280601f01601f191660200182016040528015610ef8576020820181803683370190505b509050600360fc1b81600081518110610f1357610f1361142e565b60200101906001600160f81b031916908160001a905350600f60fb1b81600181518110610f4257610f4261142e565b60200101906001600160f81b031916908160001a9053506000610f668460026113f7565b610f71906001611416565b90505b6001811115610fe9576f181899199a1a9b1b9c1cb0b131b232b360811b85600f1660108110610fa557610fa561142e565b1a60f81b828281518110610fbb57610fbb61142e565b60200101906001600160f81b031916908160001a90535060049490941c93610fe281611444565b9050610f74565b5083156110385760405162461bcd60e51b815260206004820181905260248201527f537472696e67733a20686578206c656e67746820696e73756666696369656e7460448201526064016101b9565b9392505050565b60006020828403121561105157600080fd5b81356001600160e01b03198116811461103857600080fd5b60006020828403121561107b57600080fd5b5035919050565b6001600160a01b0381168114610cec57600080fd5b600080604083850312156110aa57600080fd5b8235915060208301356110bc81611082565b809150509250929050565b60005b838110156110e25781810151838201526020016110ca565b838111156110f1576000848401525b50505050565b6000815180845261110f8160208601602086016110c7565b601f01601f19169290920160200192915050565b85815260a06020820152600061113c60a08301876110f7565b6001600160a01b039586166040840152938516606083015250921660809092019190915292915050565b634e487b7160e01b600052604160045260246000fd5b600082601f83011261118d57600080fd5b813567ffffffffffffffff808211156111a8576111a8611166565b604051601f8301601f19908116603f011681019082821181831017156111d0576111d0611166565b816040528381528660208588010111156111e957600080fd5b836020870160208301376000602085830101528094505050505092915050565b60006020828403121561121b57600080fd5b813567ffffffffffffffff81111561123257600080fd5b61123e8482850161117c565b949350505050565b6000806000806080858703121561125c57600080fd5b843567ffffffffffffffff81111561127357600080fd5b61127f8782880161117c565b945050602085013561129081611082565b925060408501356112a081611082565b9396929550929360600135925050565b60208152600061103860208301846110f7565b6000602082840312156112d557600080fd5b813561103881611082565b600181811c908216806112f457607f821691505b60208210810361131457634e487b7160e01b600052602260045260246000fd5b50919050565b60006020828403121561132c57600080fd5b815161103881611082565b6020808252818101527f4f776e61626c653a2063616c6c6572206973206e6f7420746865206f776e6572604082015260600190565b7f416363657373436f6e74726f6c3a206163636f756e74200000000000000000008152600083516113a48160178501602088016110c7565b7001034b99036b4b9b9b4b733903937b6329607d1b60179184019182015283516113d58160288401602088016110c7565b01602801949350505050565b634e487b7160e01b600052601160045260246000fd5b6000816000190483118215151615611411576114116113e1565b500290565b60008219821115611429576114296113e1565b500190565b634e487b7160e01b600052603260045260246000fd5b600081611453576114536113e1565b50600019019056fea264697066735822122024fde97eef4477f163d2269309d29bf43f903728ce70817c01f948ee78b96b7364736f6c634300080d0033",
  "immutableReferences": {},
  "source": "//SPDX-License-Identifier: UNLICENSED\npragma solidity ^0.8.7;\nimport \"./Storage.sol\";\ninterface iApp {\n    function  initialize(uint64 _poolId, address _beacon, string memory _exchangeName, address _owner) external payable;\n}\n\ninterface prBeacon {\n    function getExchange(string memory _exchange) external returns(address);\n    function getAddress(string memory _exchange) external returns(address);\n    function getContractType(string memory _name, uint _type) external returns (string memory _contract);\n}\n\ncontract combine_proxy is Storage, Ownable, AccessControl  {\n    modifier allowAdmin() {\n        require(hasRole(HARVESTER,msg.sender) || owner() == msg.sender,\"Restricted Function\");\n        _;\n    }\n\n    error sdInitializedError();\n    error sdFunctionLocked();\n\n    receive() external payable {}\n\n    constructor () {}\n\n\n    ///@notice Initialize the proxy contract\n    ///@param _exchange the name of the exchange\n    ///@param _beacon the address of the beacon contract\n    ///@param _owner the address of the owner\n    function initialize (string memory _exchange, address _beacon, address _owner, uint _poolType) public payable onlyOwner {\n        if (_initialized == true) revert sdInitializedError();\n\n        bytes memory bExchange = bytes(_exchange);\n        require(bExchange.length > 0, \"Exchange is required\");\n        require(_beacon != address(0), \"Beacon Contract required\");\n        require(_owner != address(0), \"Owner is required\");\n        _setupRole(DEFAULT_ADMIN_ROLE,owner());\n        _shared = _poolType == 1 ? true  : false;\n        \n        beaconContract = _beacon;\n        setExchange(_exchange);\n\n        address _admin = prBeacon(beaconContract).getAddress(\"ADMINUSER\");        \n        require(_admin != address(0), \"Admin address required\");\n        _setupRole(HARVESTER, _admin);\n        // transferOwnership(_owner);\n    }\n    \n    ///@notice Sets the logic contract for the exchange\n    ///@dev Call function if logic contract gets updated\n    ///@param _exchange the name of the exchange\n    ///@return success - success or failure\n    function setExchange(string memory _exchange) public allowAdmin returns (bool success){\n        bytes memory bExchange = bytes(_exchange);\n        require(bExchange.length > 0, \"Exchange is required\");\n        logic_contract = prBeacon(beaconContract).getExchange(_exchange);\n        require(logic_contract != address(0), \"Logic Contract required - setExchange\");\n        return true;\n    }\n\n    ///@notice Gets the logic contract for the exchange\n    function getLogicContract() public view returns (address) {\n       return logic_contract;\n    }\n    \n    ///@notice logic for the proxy part of the contract, uses delegatecall to send function call to the logic contract\n    fallback () payable external {\n        if(!_shared || msg.sender != owner() || !_initialized){ \n            require(logic_contract != address(0),\"Logic contract required\");\n            address target = logic_contract;\n            \n            assembly {\n                let ptr := mload(0x40)\n                calldatacopy(ptr, 0, calldatasize())\n                let result := delegatecall(gas(), target, ptr, calldatasize(), 0, 0)\n                let size := returndatasize()\n                returndatacopy(ptr, 0, size)\n                switch result\n                case 0 { revert(ptr, size) }\n                case 1 { return(ptr, size) }\n            }\n        }\n        else{\n            revert sdFunctionLocked();\n        }\n    }\n}\n\ncontract proxyFactory is Ownable, AccessControl {\n    address public beaconContract;\n\n    mapping (address => address[]) public proxyContracts;\n    address[] public proxyContractsUsers;\n\n    event NewProxy(address proxy, address user);\n    bytes32 public constant DEPLOYER = keccak256(\"DEPLOYER\");\n\n\n    ///@notice Initialize the proxy factory contract\n    ///@param _beacon the address of the beacon contract\n    constructor (address _beacon, address _admin) {\n        require(_beacon != address(0), \"Beacon Contract required\");\n        beaconContract = _beacon;\n        _setupRole(DEPLOYER, _admin);\n    }\n\n    ///@notice Sets the address of the beacon contract\n    ///@dev call when beacon contract gets updated\n    ///@param _beaconContract the address of the beacon contract\n    function setBeacon(address _beaconContract) public onlyOwner {\n        beaconContract = _beaconContract;\n    }\n\n    ///@notice Allows admin to add an existing proxy contract to the list of proxy contracts for a user\n    ///@param _proxyContract the address of the proxy contract\n    ///@param _user the address of the user\n    function addProxy(address _proxyContract, address _user) public onlyOwner {\n        require(_proxyContract != address(0), \"Proxy Contract required\");\n        require(_user != address(0), \"User required\");\n        proxyContracts[_user].push(_proxyContract);\n        proxyContractsUsers.push(_user);\n    }\n\n    ///@notice Returns the last proxy contract created (or added) for a specific user\n    ///@param _user the address of the user\n    ///@return the address of the proxy contract\n    function getLastProxy(address _user) public view returns (address) {\n        require(_user != address(0), \"User required\");\n        return proxyContracts[_user][proxyContracts[_user].length - 1];\n    }\n    \n    ///@notice Creates a new proxy contract for a specific exchange and pool. \n    ///@dev Proxy contract is owned by calling user\n    ///@dev for Solo contracts, only one proxy contract is needed unless custom logic contract is needed\n    ///@param _pid the pool id\n    ///@param _exchange the name of the exchange\n    ///@param _poolType the type of the pool (0=solo, 1=pool)\n    ///@return the address of the proxy contract\n    function initialize(uint64  _pid, string memory _exchange, uint _poolType, uint _salt) public payable onlyOwner returns (address) {        \n        require(beaconContract != address(0), \"Beacon Contract required\");\n        require(bytes(_exchange).length > 0,\"Exchange Name cannot be empty\");\n        require(_salt > 0, \"Salt must be provided\");\n\n        string memory _contract = prBeacon(beaconContract).getContractType(_exchange,_poolType);\n\n        address proxy = deploy(_salt,_poolType);\n        proxyContracts[msg.sender].push(address(proxy));\n        proxyContractsUsers.push(msg.sender);\n        combine_proxy(payable(proxy)).initialize(_contract, beaconContract, msg.sender,_poolType);\n\n        emit NewProxy(address(proxy), msg.sender);\n\n        iApp(address(proxy)).initialize{value:msg.value}(_pid, beaconContract, _exchange,msg.sender);    \n\n        return address(proxy);\n    }\n\n    ///@notice Gets bytecode of proxyContract\n    ///@return the bytecode of the proxy contract\n    function getBytecode() private pure returns (bytes memory) {\n        bytes memory result = abi.encodePacked(type(combine_proxy).creationCode);\n        return result;\n    }\n\n    ///@notice generates an address of a new proxy contract\n    ///@dev used in front end\n    ///@param _salt the salt value for the address\n    ///@return the address of the proxy contract\n    function getAddress(uint _salt) public view returns (address)\n    {\n        require(_salt > 0, \"Salt must be provided\");\n        bytes32 newsalt = keccak256(abi.encodePacked(_salt,msg.sender));\n\n        bytes memory bytecode = getBytecode();\n        bytes32 hash = keccak256(\n            abi.encodePacked(bytes1(0xff), address(this), newsalt, keccak256(bytecode))\n        );\n\n        return address(uint160(uint(hash)));\n    }    \n\n    ///@notice adds new user to administrator role\n    ///@param _user the address of the user\n\n    function addAdmin(address _user) public onlyOwner {\n        _setupRole(DEPLOYER, _user);\n    }\n\n    ///@notice removes user from administrator role\n    ///@param _user the address of the user\n    function removeAdmin(address _user) public onlyOwner {\n        revokeRole(DEPLOYER, _user);\n    }\n\n    ///@notice deploys bytecode of proxy contract\n    ///@param _salt salt value for the address\n    ///@return addr the address of the proxy contract\n    ///@dev Public Payable becuase solo contracts can create contract with value\n    ///@dev Pooled contracts can only be created by deployer\n    function deploy(uint _salt,uint _poolType) public payable returns (address addr){\n        require(_poolType == 0 || (_poolType == 1 && hasRole(DEPLOYER,msg.sender)),\"Restricted Function\");\n\n        bytes32 newsalt = keccak256(abi.encodePacked(_salt,msg.sender));\n        bytes memory bytecode = getBytecode();\n\n        assembly {\n            addr := create2(\n                0, \n                add(bytecode, 0x20),\n                mload(bytecode),\n                newsalt\n            )\n\n            if iszero(extcodesize(addr)) {\n                revert(0, 0)\n            }\n        }\n    }    \n}\n",
  "sourcePath": "/mnt/src/crypto/combine_sol/contracts/combine_proxy.sol",
  "compiler": {
    "name": "solc",
    "version": "0.8.13+commit.abaa5c0e.Emscripten.clang"
  },
  "schemaVersion": "3.4.3",
  "updatedAt": "2022-04-21T18:27:09.856Z",
  "devdoc": {
    "kind": "dev",
    "methods": {
      "getRoleAdmin(bytes32)": {
        "details": "Returns the admin role that controls `role`. See {grantRole} and {revokeRole}. To change a role's admin, use {_setRoleAdmin}."
      },
      "grantRole(bytes32,address)": {
        "details": "Grants `role` to `account`. If `account` had not been already granted `role`, emits a {RoleGranted} event. Requirements: - the caller must have ``role``'s admin role."
      },
      "hasRole(bytes32,address)": {
        "details": "Returns `true` if `account` has been granted `role`."
      },
      "initialize(string,address,address,uint256)": {
        "params": {
          "_beacon": "the address of the beacon contract",
          "_exchange": "the name of the exchange",
          "_owner": "the address of the owner"
        }
      },
      "owner()": {
        "details": "Returns the address of the current owner."
      },
      "renounceOwnership()": {
        "details": "Leaves the contract without owner. It will not be possible to call `onlyOwner` functions anymore. Can only be called by the current owner. NOTE: Renouncing ownership will leave the contract without an owner, thereby removing any functionality that is only available to the owner."
      },
      "renounceRole(bytes32,address)": {
        "details": "Revokes `role` from the calling account. Roles are often managed via {grantRole} and {revokeRole}: this function's purpose is to provide a mechanism for accounts to lose their privileges if they are compromised (such as when a trusted device is misplaced). If the calling account had been granted `role`, emits a {RoleRevoked} event. Requirements: - the caller must be `account`."
      },
      "revokeRole(bytes32,address)": {
        "details": "Revokes `role` from `account`. If `account` had been granted `role`, emits a {RoleRevoked} event. Requirements: - the caller must have ``role``'s admin role."
      },
      "setExchange(string)": {
        "details": "Call function if logic contract gets updated",
        "params": {
          "_exchange": "the name of the exchange"
        },
        "returns": {
          "success": "- success or failure"
        }
      },
      "supportsInterface(bytes4)": {
        "details": "See {IERC165-supportsInterface}."
      },
      "transferOwnership(address)": {
        "details": "Transfers ownership of the contract to a new account (`newOwner`). Can only be called by the current owner."
      }
    },
    "version": 1
  },
  "userdoc": {
    "kind": "user",
    "methods": {
      "getLogicContract()": {
        "notice": "Gets the logic contract for the exchange"
      },
      "initialize(string,address,address,uint256)": {
        "notice": "Initialize the proxy contract"
      },
      "setExchange(string)": {
        "notice": "Sets the logic contract for the exchange"
      }
    },
    "version": 1
  }
}