{
  "contractName": "combine_beacon",
  "abi": [
    {
      "anonymous": false,
      "inputs": [
        {
          "indexed": true,
          "internalType": "address",
          "name": "previousOwner",
          "type": "address"
        },
        {
          "indexed": true,
          "internalType": "address",
          "name": "newOwner",
          "type": "address"
        }
      ],
      "name": "OwnershipTransferred",
      "type": "event"
    },
    {
      "anonymous": false,
      "inputs": [
        {
          "indexed": false,
          "internalType": "address",
          "name": "_user",
          "type": "address"
        },
        {
          "indexed": false,
          "internalType": "uint256",
          "name": "_discount",
          "type": "uint256"
        },
        {
          "indexed": false,
          "internalType": "uint256",
          "name": "_expires",
          "type": "uint256"
        }
      ],
      "name": "discountSet",
      "type": "event"
    },
    {
      "anonymous": false,
      "inputs": [
        {
          "indexed": false,
          "internalType": "string",
          "name": "_exchange",
          "type": "string"
        },
        {
          "indexed": false,
          "internalType": "address",
          "name": "_replacement_logic_contract",
          "type": "address"
        },
        {
          "indexed": false,
          "internalType": "uint256",
          "name": "_start",
          "type": "uint256"
        }
      ],
      "name": "exchangeSet",
      "type": "event"
    },
    {
      "anonymous": false,
      "inputs": [
        {
          "indexed": false,
          "internalType": "string",
          "name": "_exchange",
          "type": "string"
        },
        {
          "indexed": false,
          "internalType": "string",
          "name": "_function",
          "type": "string"
        },
        {
          "indexed": false,
          "internalType": "uint256",
          "name": "_amount",
          "type": "uint256"
        },
        {
          "indexed": false,
          "internalType": "uint256",
          "name": "_time",
          "type": "uint256"
        },
        {
          "indexed": false,
          "internalType": "uint256",
          "name": "_current",
          "type": "uint256"
        }
      ],
      "name": "feeSet",
      "type": "event"
    },
    {
      "inputs": [
        {
          "internalType": "string",
          "name": "",
          "type": "string"
        }
      ],
      "name": "mData",
      "outputs": [
        {
          "internalType": "address",
          "name": "",
          "type": "address"
        }
      ],
      "stateMutability": "view",
      "type": "function",
      "constant": true
    },
    {
      "inputs": [
        {
          "internalType": "address",
          "name": "",
          "type": "address"
        }
      ],
      "name": "mDiscounts",
      "outputs": [
        {
          "internalType": "uint256",
          "name": "discount_amount",
          "type": "uint256"
        },
        {
          "internalType": "uint256",
          "name": "expires",
          "type": "uint256"
        }
      ],
      "stateMutability": "view",
      "type": "function",
      "constant": true
    },
    {
      "inputs": [
        {
          "internalType": "string",
          "name": "",
          "type": "string"
        }
      ],
      "name": "mExchangeInfo",
      "outputs": [
        {
          "internalType": "address",
          "name": "chefContract",
          "type": "address"
        },
        {
          "internalType": "address",
          "name": "routerContract",
          "type": "address"
        },
        {
          "internalType": "address",
          "name": "rewardToken",
          "type": "address"
        },
        {
          "internalType": "address",
          "name": "intermediateToken",
          "type": "address"
        },
        {
          "internalType": "string",
          "name": "pendingCall",
          "type": "string"
        },
        {
          "internalType": "string",
          "name": "contractType",
          "type": "string"
        }
      ],
      "stateMutability": "view",
      "type": "function",
      "constant": true
    },
    {
      "inputs": [
        {
          "internalType": "string",
          "name": "",
          "type": "string"
        }
      ],
      "name": "mExchanges",
      "outputs": [
        {
          "internalType": "address",
          "name": "current_logic_contract",
          "type": "address"
        },
        {
          "internalType": "address",
          "name": "replacement_logic_contract",
          "type": "address"
        },
        {
          "internalType": "uint256",
          "name": "start",
          "type": "uint256"
        }
      ],
      "stateMutability": "view",
      "type": "function",
      "constant": true
    },
    {
      "inputs": [
        {
          "internalType": "string",
          "name": "",
          "type": "string"
        },
        {
          "internalType": "string",
          "name": "",
          "type": "string"
        }
      ],
      "name": "mFee",
      "outputs": [
        {
          "internalType": "uint256",
          "name": "current_amount",
          "type": "uint256"
        },
        {
          "internalType": "uint256",
          "name": "replacement_amount",
          "type": "uint256"
        },
        {
          "internalType": "uint256",
          "name": "start",
          "type": "uint256"
        }
      ],
      "stateMutability": "view",
      "type": "function",
      "constant": true
    },
    {
      "inputs": [],
      "name": "owner",
      "outputs": [
        {
          "internalType": "address",
          "name": "",
          "type": "address"
        }
      ],
      "stateMutability": "view",
      "type": "function",
      "constant": true
    },
    {
      "inputs": [],
      "name": "renounceOwnership",
      "outputs": [],
      "stateMutability": "nonpayable",
      "type": "function"
    },
    {
      "inputs": [
        {
          "internalType": "address",
          "name": "newOwner",
          "type": "address"
        }
      ],
      "name": "transferOwnership",
      "outputs": [],
      "stateMutability": "nonpayable",
      "type": "function"
    },
    {
      "inputs": [
        {
          "internalType": "string",
          "name": "_exchange",
          "type": "string"
        },
        {
          "internalType": "string",
          "name": "_type",
          "type": "string"
        },
        {
          "internalType": "address",
          "name": "_user",
          "type": "address"
        }
      ],
      "name": "getFee",
      "outputs": [
        {
          "internalType": "uint256",
          "name": "",
          "type": "uint256"
        }
      ],
      "stateMutability": "view",
      "type": "function",
      "constant": true
    },
    {
      "inputs": [
        {
          "internalType": "string",
          "name": "_exchange",
          "type": "string"
        },
        {
          "internalType": "string",
          "name": "_type",
          "type": "string"
        }
      ],
      "name": "getConst",
      "outputs": [
        {
          "internalType": "uint256",
          "name": "",
          "type": "uint256"
        }
      ],
      "stateMutability": "view",
      "type": "function",
      "constant": true
    },
    {
      "inputs": [
        {
          "internalType": "address",
          "name": "_user",
          "type": "address"
        },
        {
          "internalType": "uint256",
          "name": "_amount",
          "type": "uint256"
        },
        {
          "internalType": "uint256",
          "name": "_expires",
          "type": "uint256"
        }
      ],
      "name": "setDiscount",
      "outputs": [],
      "stateMutability": "nonpayable",
      "type": "function"
    },
    {
      "inputs": [],
      "name": "updateBlock",
      "outputs": [],
      "stateMutability": "nonpayable",
      "type": "function"
    },
    {
      "inputs": [
        {
          "internalType": "string",
          "name": "_exchange",
          "type": "string"
        },
        {
          "internalType": "string",
          "name": "_type",
          "type": "string"
        },
        {
          "internalType": "uint256",
          "name": "_replacement_amount",
          "type": "uint256"
        },
        {
          "internalType": "uint256",
          "name": "_start",
          "type": "uint256"
        }
      ],
      "name": "setFee",
      "outputs": [],
      "stateMutability": "nonpayable",
      "type": "function"
    },
    {
      "inputs": [
        {
          "internalType": "string",
          "name": "_exchange",
          "type": "string"
        }
      ],
      "name": "getExchange",
      "outputs": [
        {
          "internalType": "address",
          "name": "",
          "type": "address"
        }
      ],
      "stateMutability": "view",
      "type": "function",
      "constant": true
    },
    {
      "inputs": [
        {
          "internalType": "string",
          "name": "_exchange",
          "type": "string"
        },
        {
          "internalType": "address",
          "name": "_replacement_logic_contract",
          "type": "address"
        },
        {
          "internalType": "uint256",
          "name": "_start",
          "type": "uint256"
        }
      ],
      "name": "setExchange",
      "outputs": [],
      "stateMutability": "nonpayable",
      "type": "function"
    },
    {
      "inputs": [
        {
          "internalType": "string",
          "name": "_name",
          "type": "string"
        },
        {
          "internalType": "address",
          "name": "_chefContract",
          "type": "address"
        },
        {
          "internalType": "address",
          "name": "_routerContract",
          "type": "address"
        },
        {
          "internalType": "address",
          "name": "_rewardToken",
          "type": "address"
        },
        {
          "internalType": "string",
          "name": "_pendingCall",
          "type": "string"
        },
        {
          "internalType": "address",
          "name": "_intermediateToken",
          "type": "address"
        },
        {
          "internalType": "string",
          "name": "_contractType",
          "type": "string"
        }
      ],
      "name": "setExchangeInfo",
      "outputs": [],
      "stateMutability": "nonpayable",
      "type": "function"
    },
    {
      "inputs": [
        {
          "internalType": "string",
          "name": "_name",
          "type": "string"
        }
      ],
      "name": "getExchangeInfo",
      "outputs": [
        {
          "internalType": "address",
          "name": "_chefContract",
          "type": "address"
        },
        {
          "internalType": "address",
          "name": "_routerContract",
          "type": "address"
        },
        {
          "internalType": "address",
          "name": "_rewardToken",
          "type": "address"
        },
        {
          "internalType": "string",
          "name": "_pendingCall",
          "type": "string"
        },
        {
          "internalType": "address",
          "name": "_intermediateToken",
          "type": "address"
        },
        {
          "internalType": "string",
          "name": "_contractType",
          "type": "string"
        }
      ],
      "stateMutability": "view",
      "type": "function",
      "constant": true
    },
    {
      "inputs": [
        {
          "internalType": "string",
          "name": "_name",
          "type": "string"
        }
      ],
      "name": "getContractType",
      "outputs": [
        {
          "internalType": "string",
          "name": "_contract",
          "type": "string"
        }
      ],
      "stateMutability": "view",
      "type": "function",
      "constant": true
    },
    {
      "inputs": [
        {
          "internalType": "string",
          "name": "_key",
          "type": "string"
        },
        {
          "internalType": "address",
          "name": "_value",
          "type": "address"
        }
      ],
      "name": "setAddress",
      "outputs": [],
      "stateMutability": "nonpayable",
      "type": "function"
    },
    {
      "inputs": [
        {
          "internalType": "string",
          "name": "_key",
          "type": "string"
        }
      ],
      "name": "getAddress",
      "outputs": [
        {
          "internalType": "address",
          "name": "",
          "type": "address"
        }
      ],
      "stateMutability": "view",
      "type": "function",
      "constant": true
    }
  ],
  "bytecode": "0x60806040523480156200001157600080fd5b5062000032620000266200003860201b60201c565b6200004060201b60201c565b62000104565b600033905090565b60008060009054906101000a900473ffffffffffffffffffffffffffffffffffffffff169050816000806101000a81548173ffffffffffffffffffffffffffffffffffffffff021916908373ffffffffffffffffffffffffffffffffffffffff1602179055508173ffffffffffffffffffffffffffffffffffffffff168173ffffffffffffffffffffffffffffffffffffffff167f8be0079c531659141344cd1fd0a4f28419497f9722a3daafe3b4186f6b6457e060405160405180910390a35050565b6131a880620001146000396000f3fe608060405234801561001057600080fd5b506004361061012c5760003560e01c8063bf40fac1116100ad578063db1e420211610071578063db1e420214610373578063ddbd9977146103a3578063f2fde38b146103d4578063f4dfd8c7146103f0578063ff4b2032146103fa5761012c565b8063bf40fac11461028d578063c2dc8273146102bd578063c42465e3146102d9578063c4db83951461030e578063d95ad371146103435761012c565b8063715018a6116100f4578063715018a6146101fd5780638da5cb5b146102075780639b2ea4bd14610225578063a2724de714610241578063b466360c146102715761012c565b80630cec42a4146101315780631e67effe146101635780632884714b1461019357806360495b06146101af5780636da9ebeb146101cb575b600080fd5b61014b60048036038101906101469190612217565b61042a565b60405161015a939291906122ba565b60405180910390f35b61017d60048036038101906101789190612217565b6104aa565b60405161018a9190612379565b60405180910390f35b6101ad60048036038101906101a891906123c7565b61055d565b005b6101c960048036038101906101c49190612492565b610811565b005b6101e560048036038101906101e09190612501565b610be8565b6040516101f493929190612579565b60405180910390f35b610205610c4b565b005b61020f610cd3565b60405161021c91906125b0565b60405180910390f35b61023f600480360381019061023a91906125cb565b610cfc565b005b61025b60048036038101906102569190612217565b610e8d565b60405161026891906125b0565b60405180910390f35b61028b60048036038101906102869190612627565b610ed6565b005b6102a760048036038101906102a29190612217565b611093565b6040516102b491906125b0565b60405180910390f35b6102d760048036038101906102d2919061267a565b6110db565b005b6102f360048036038101906102ee9190612217565b611568565b60405161030596959493929190612770565b60405180910390f35b61032860048036038101906103239190612217565b6117e4565b60405161033a969594939291906127df565b60405180910390f35b61035d60048036038101906103589190612501565b6119c6565b60405161036a919061284e565b60405180910390f35b61038d60048036038101906103889190612869565b611ae5565b60405161039a919061284e565b60405180910390f35b6103bd60048036038101906103b891906128f4565b611cd6565b6040516103cb929190612921565b60405180910390f35b6103ee60048036038101906103e991906128f4565b611cfa565b005b6103f8611df2565b005b610414600480360381019061040f9190612217565b611e32565b60405161042191906125b0565b60405180910390f35b6002818051602081018201805184825260208301602085012081835280955050505050506000915090508060000160009054906101000a900473ffffffffffffffffffffffffffffffffffffffff16908060010160009054906101000a900473ffffffffffffffffffffffffffffffffffffffff16908060020154905083565b60606004826040516104bc9190612986565b908152602001604051809103902060050180546104d8906129cc565b80601f0160208091040260200160405190810160405280929190818152602001828054610504906129cc565b80156105515780601f1061052657610100808354040283529160200191610551565b820191906000526020600020905b81548152906001019060200180831161053457829003601f168201915b50505050509050919050565b610565611f4e565b73ffffffffffffffffffffffffffffffffffffffff16610583610cd3565b73ffffffffffffffffffffffffffffffffffffffff16146105d9576040517f08c379a00000000000000000000000000000000000000000000000000000000081526004016105d090612a4a565b60405180910390fd5b60006001856040516105eb9190612986565b9081526020016040518091039020846040516106079190612986565b9081526020016040518091039020604051806060016040529081600082015481526020016001820154815260200160028201548152505090506212750082101561065a5781426106579190612a99565b91505b60008160400151141580156106725750428160400151105b156106f7576001856040516106879190612986565b9081526020016040518091039020846040516106a39190612986565b9081526020016040518091039020600101546001866040516106c59190612986565b9081526020016040518091039020856040516106e19190612986565b9081526020016040518091039020600001819055505b816001866040516107089190612986565b9081526020016040518091039020856040516107249190612986565b9081526020016040518091039020600201819055508260018660405161074a9190612986565b9081526020016040518091039020856040516107669190612986565b9081526020016040518091039020600101819055506000816000015114156107cb57826001866040516107999190612986565b9081526020016040518091039020856040516107b59190612986565b9081526020016040518091039020600001819055505b7f1467ede995a90bb63c9422285be38084092ac426372f24473606946db538ada78585858542604051610802959493929190612aef565b60405180910390a15050505050565b610819611f4e565b73ffffffffffffffffffffffffffffffffffffffff16610837610cd3565b73ffffffffffffffffffffffffffffffffffffffff161461088d576040517f08c379a000000000000000000000000000000000000000000000000000000000815260040161088490612a4a565b60405180910390fd5b600060028460405161089f9190612986565b90815260200160405180910390206040518060600160405290816000820160009054906101000a900473ffffffffffffffffffffffffffffffffffffffff1673ffffffffffffffffffffffffffffffffffffffff1673ffffffffffffffffffffffffffffffffffffffff1681526020016001820160009054906101000a900473ffffffffffffffffffffffffffffffffffffffff1673ffffffffffffffffffffffffffffffffffffffff1673ffffffffffffffffffffffffffffffffffffffff16815260200160028201548152505090506212750082101561098a5781426109879190612a99565b91505b60008160400151141580156109a3575042816040015111155b15610a4a576002846040516109b89190612986565b908152602001604051809103902060010160009054906101000a900473ffffffffffffffffffffffffffffffffffffffff166002856040516109fa9190612986565b908152602001604051809103902060000160006101000a81548173ffffffffffffffffffffffffffffffffffffffff021916908373ffffffffffffffffffffffffffffffffffffffff1602179055505b81600285604051610a5b9190612986565b90815260200160405180910390206002018190555082600285604051610a819190612986565b908152602001604051809103902060010160006101000a81548173ffffffffffffffffffffffffffffffffffffffff021916908373ffffffffffffffffffffffffffffffffffffffff160217905550600073ffffffffffffffffffffffffffffffffffffffff16600285604051610af89190612986565b908152602001604051809103902060000160009054906101000a900473ffffffffffffffffffffffffffffffffffffffff1673ffffffffffffffffffffffffffffffffffffffff161415610ba75782600285604051610b579190612986565b908152602001604051809103902060000160006101000a81548173ffffffffffffffffffffffffffffffffffffffff021916908373ffffffffffffffffffffffffffffffffffffffff1602179055505b7f8fdac7b4b0d72f8e1e55f3c691ad5e48a7293233f1827de48f534b7db100eafe848484604051610bda93929190612b50565b60405180910390a150505050565b60018280516020810182018051848252602083016020850120818352809550505050505081805160208101820180518482526020830160208501208183528095505050505050600091509150508060000154908060010154908060020154905083565b610c53611f4e565b73ffffffffffffffffffffffffffffffffffffffff16610c71610cd3565b73ffffffffffffffffffffffffffffffffffffffff1614610cc7576040517f08c379a0000000000000000000000000000000000000000000000000000000008152600401610cbe90612a4a565b60405180910390fd5b610cd16000611f56565b565b60008060009054906101000a900473ffffffffffffffffffffffffffffffffffffffff16905090565b610d04611f4e565b73ffffffffffffffffffffffffffffffffffffffff16610d22610cd3565b73ffffffffffffffffffffffffffffffffffffffff1614610d78576040517f08c379a0000000000000000000000000000000000000000000000000000000008152600401610d6f90612a4a565b60405180910390fd5b6000825111610dbc576040517f08c379a0000000000000000000000000000000000000000000000000000000008152600401610db390612bda565b60405180910390fd5b600073ffffffffffffffffffffffffffffffffffffffff168173ffffffffffffffffffffffffffffffffffffffff161415610e2c576040517f08c379a0000000000000000000000000000000000000000000000000000000008152600401610e2390612c46565b60405180910390fd5b80600583604051610e3d9190612986565b908152602001604051809103902060006101000a81548173ffffffffffffffffffffffffffffffffffffffff021916908373ffffffffffffffffffffffffffffffffffffffff1602179055505050565b6005818051602081018201805184825260208301602085012081835280955050505050506000915054906101000a900473ffffffffffffffffffffffffffffffffffffffff1681565b610ede611f4e565b73ffffffffffffffffffffffffffffffffffffffff16610efc610cd3565b73ffffffffffffffffffffffffffffffffffffffff1614610f52576040517f08c379a0000000000000000000000000000000000000000000000000000000008152600401610f4990612a4a565b60405180910390fd5b68056bc75e2d63100000821115610f9e576040517f08c379a0000000000000000000000000000000000000000000000000000000008152600401610f9590612cb2565b60405180910390fd5b81600360008573ffffffffffffffffffffffffffffffffffffffff1673ffffffffffffffffffffffffffffffffffffffff16815260200190815260200160002060000181905550600081118015610ff857506301e1338081105b1561100c5780426110099190612a99565b90505b80600360008573ffffffffffffffffffffffffffffffffffffffff1673ffffffffffffffffffffffffffffffffffffffff168152602001908152602001600020600101819055507f2a6a35b24e9eddc7a01b473f3a9903c099d1eed70e51611a4edaa9702ce9f99983838360405161108693929190612cd2565b60405180910390a1505050565b60006005826040516110a59190612986565b908152602001604051809103902060009054906101000a900473ffffffffffffffffffffffffffffffffffffffff169050919050565b6110e3611f4e565b73ffffffffffffffffffffffffffffffffffffffff16611101610cd3565b73ffffffffffffffffffffffffffffffffffffffff1614611157576040517f08c379a000000000000000000000000000000000000000000000000000000000815260040161114e90612a4a565b60405180910390fd5b600087511161119b576040517f08c379a000000000000000000000000000000000000000000000000000000000815260040161119290612d55565b60405180910390fd5b600073ffffffffffffffffffffffffffffffffffffffff168673ffffffffffffffffffffffffffffffffffffffff16141561120b576040517f08c379a000000000000000000000000000000000000000000000000000000000815260040161120290612dc1565b60405180910390fd5b600073ffffffffffffffffffffffffffffffffffffffff168573ffffffffffffffffffffffffffffffffffffffff16141561127b576040517f08c379a000000000000000000000000000000000000000000000000000000000815260040161127290612e2d565b60405180910390fd5b600073ffffffffffffffffffffffffffffffffffffffff168473ffffffffffffffffffffffffffffffffffffffff1614156112eb576040517f08c379a00000000000000000000000000000000000000000000000000000000081526004016112e290612e99565b60405180910390fd5b600083511161132f576040517f08c379a000000000000000000000000000000000000000000000000000000000815260040161132690612f05565b60405180910390fd5b6000815111611373576040517f08c379a000000000000000000000000000000000000000000000000000000000815260040161136a90612f71565b60405180910390fd5b856004886040516113849190612986565b908152602001604051809103902060000160006101000a81548173ffffffffffffffffffffffffffffffffffffffff021916908373ffffffffffffffffffffffffffffffffffffffff160217905550846004886040516113e49190612986565b908152602001604051809103902060010160006101000a81548173ffffffffffffffffffffffffffffffffffffffff021916908373ffffffffffffffffffffffffffffffffffffffff160217905550836004886040516114449190612986565b908152602001604051809103902060020160006101000a81548173ffffffffffffffffffffffffffffffffffffffff021916908373ffffffffffffffffffffffffffffffffffffffff160217905550826004886040516114a49190612986565b908152602001604051809103902060040190805190602001906114c892919061201a565b50816004886040516114da9190612986565b908152602001604051809103902060030160006101000a81548173ffffffffffffffffffffffffffffffffffffffff021916908373ffffffffffffffffffffffffffffffffffffffff1602179055508060048860405161153a9190612986565b9081526020016040518091039020600501908051906020019061155e92919061201a565b5050505050505050565b60008060006060600060606004876040516115839190612986565b908152602001604051809103902060000160009054906101000a900473ffffffffffffffffffffffffffffffffffffffff1695506004876040516115c79190612986565b908152602001604051809103902060010160009054906101000a900473ffffffffffffffffffffffffffffffffffffffff16945060048760405161160b9190612986565b908152602001604051809103902060020160009054906101000a900473ffffffffffffffffffffffffffffffffffffffff16935060048760405161164f9190612986565b9081526020016040518091039020600401805461166b906129cc565b80601f0160208091040260200160405190810160405280929190818152602001828054611697906129cc565b80156116e45780601f106116b9576101008083540402835291602001916116e4565b820191906000526020600020905b8154815290600101906020018083116116c757829003601f168201915b505050505092506004876040516116fb9190612986565b908152602001604051809103902060030160009054906101000a900473ffffffffffffffffffffffffffffffffffffffff16915060048760405161173f9190612986565b9081526020016040518091039020600501805461175b906129cc565b80601f0160208091040260200160405190810160405280929190818152602001828054611787906129cc565b80156117d45780601f106117a9576101008083540402835291602001916117d4565b820191906000526020600020905b8154815290600101906020018083116117b757829003601f168201915b5050505050905091939550919395565b6004818051602081018201805184825260208301602085012081835280955050505050506000915090508060000160009054906101000a900473ffffffffffffffffffffffffffffffffffffffff16908060010160009054906101000a900473ffffffffffffffffffffffffffffffffffffffff16908060020160009054906101000a900473ffffffffffffffffffffffffffffffffffffffff16908060030160009054906101000a900473ffffffffffffffffffffffffffffffffffffffff16908060040180546118b5906129cc565b80601f01602080910402602001604051908101604052809291908181526020018280546118e1906129cc565b801561192e5780601f106119035761010080835404028352916020019161192e565b820191906000526020600020905b81548152906001019060200180831161191157829003601f168201915b505050505090806005018054611943906129cc565b80601f016020809104026020016040519081016040528092919081815260200182805461196f906129cc565b80156119bc5780601f10611991576101008083540402835291602001916119bc565b820191906000526020600020905b81548152906001019060200180831161199f57829003601f168201915b5050505050905086565b6000806001846040516119d99190612986565b9081526020016040518091039020836040516119f59190612986565b90815260200160405180910390206040518060600160405290816000820154815260200160018201548152602001600282015481525050905060008160200151148015611a46575060008160000151145b15611aaf576001604051611a5990612fdd565b908152602001604051809103902083604051611a759190612986565b9081526020016040518091039020604051806060016040529081600082015481526020016001820154815260200160028201548152505090505b6000816040015114158015611ac8575042816040015111155b611ad6578060000151611adc565b80602001515b91505092915050565b600080600185604051611af89190612986565b908152602001604051809103902084604051611b149190612986565b9081526020016040518091039020604051806060016040529081600082015481526020016001820154815260200160028201548152505090506000600360008573ffffffffffffffffffffffffffffffffffffffff1673ffffffffffffffffffffffffffffffffffffffff16815260200190815260200160002060405180604001604052908160008201548152602001600182015481525050905060008260200151148015611bc7575060008260000151145b15611c30576001604051611bda90612fdd565b908152602001604051809103902085604051611bf69190612986565b9081526020016040518091039020604051806060016040529081600082015481526020016001820154815260200160028201548152505091505b600080836040015114158015611c4a575042836040015111155b611c58578260000151611c5e565b82602001515b905060008260000151118015611c875750428260200151111580611c86575060008260200151145b5b15611cc957670de0b6b3a764000060648360000151611ca69190613021565b82611cb19190613052565b611cbb9190613021565b81611cc691906130ac565b90505b8093505050509392505050565b60036020528060005260406000206000915090508060000154908060010154905082565b611d02611f4e565b73ffffffffffffffffffffffffffffffffffffffff16611d20610cd3565b73ffffffffffffffffffffffffffffffffffffffff1614611d76576040517f08c379a0000000000000000000000000000000000000000000000000000000008152600401611d6d90612a4a565b60405180910390fd5b600073ffffffffffffffffffffffffffffffffffffffff168173ffffffffffffffffffffffffffffffffffffffff161415611de6576040517f08c379a0000000000000000000000000000000000000000000000000000000008152600401611ddd90613152565b60405180910390fd5b611def81611f56565b50565b60011515600660009054906101000a900460ff16151514611e14576001611e17565b60005b600660006101000a81548160ff021916908315150217905550565b600080600283604051611e459190612986565b90815260200160405180910390206040518060600160405290816000820160009054906101000a900473ffffffffffffffffffffffffffffffffffffffff1673ffffffffffffffffffffffffffffffffffffffff1673ffffffffffffffffffffffffffffffffffffffff1681526020016001820160009054906101000a900473ffffffffffffffffffffffffffffffffffffffff1673ffffffffffffffffffffffffffffffffffffffff1673ffffffffffffffffffffffffffffffffffffffff16815260200160028201548152505090506000816040015114158015611f2e5750428160400151105b15611f40578060200151915050611f49565b80600001519150505b919050565b600033905090565b60008060009054906101000a900473ffffffffffffffffffffffffffffffffffffffff169050816000806101000a81548173ffffffffffffffffffffffffffffffffffffffff021916908373ffffffffffffffffffffffffffffffffffffffff1602179055508173ffffffffffffffffffffffffffffffffffffffff168173ffffffffffffffffffffffffffffffffffffffff167f8be0079c531659141344cd1fd0a4f28419497f9722a3daafe3b4186f6b6457e060405160405180910390a35050565b828054612026906129cc565b90600052602060002090601f016020900481019282612048576000855561208f565b82601f1061206157805160ff191683800117855561208f565b8280016001018555821561208f579182015b8281111561208e578251825591602001919060010190612073565b5b50905061209c91906120a0565b5090565b5b808211156120b95760008160009055506001016120a1565b5090565b6000604051905090565b600080fd5b600080fd5b600080fd5b600080fd5b6000601f19601f8301169050919050565b7f4e487b7100000000000000000000000000000000000000000000000000000000600052604160045260246000fd5b612124826120db565b810181811067ffffffffffffffff82111715612143576121426120ec565b5b80604052505050565b60006121566120bd565b9050612162828261211b565b919050565b600067ffffffffffffffff821115612182576121816120ec565b5b61218b826120db565b9050602081019050919050565b82818337600083830152505050565b60006121ba6121b584612167565b61214c565b9050828152602081018484840111156121d6576121d56120d6565b5b6121e1848285612198565b509392505050565b600082601f8301126121fe576121fd6120d1565b5b813561220e8482602086016121a7565b91505092915050565b60006020828403121561222d5761222c6120c7565b5b600082013567ffffffffffffffff81111561224b5761224a6120cc565b5b612257848285016121e9565b91505092915050565b600073ffffffffffffffffffffffffffffffffffffffff82169050919050565b600061228b82612260565b9050919050565b61229b81612280565b82525050565b6000819050919050565b6122b4816122a1565b82525050565b60006060820190506122cf6000830186612292565b6122dc6020830185612292565b6122e960408301846122ab565b949350505050565b600081519050919050565b600082825260208201905092915050565b60005b8381101561232b578082015181840152602081019050612310565b8381111561233a576000848401525b50505050565b600061234b826122f1565b61235581856122fc565b935061236581856020860161230d565b61236e816120db565b840191505092915050565b600060208201905081810360008301526123938184612340565b905092915050565b6123a4816122a1565b81146123af57600080fd5b50565b6000813590506123c18161239b565b92915050565b600080600080608085870312156123e1576123e06120c7565b5b600085013567ffffffffffffffff8111156123ff576123fe6120cc565b5b61240b878288016121e9565b945050602085013567ffffffffffffffff81111561242c5761242b6120cc565b5b612438878288016121e9565b9350506040612449878288016123b2565b925050606061245a878288016123b2565b91505092959194509250565b61246f81612280565b811461247a57600080fd5b50565b60008135905061248c81612466565b92915050565b6000806000606084860312156124ab576124aa6120c7565b5b600084013567ffffffffffffffff8111156124c9576124c86120cc565b5b6124d5868287016121e9565b93505060206124e68682870161247d565b92505060406124f7868287016123b2565b9150509250925092565b60008060408385031215612518576125176120c7565b5b600083013567ffffffffffffffff811115612536576125356120cc565b5b612542858286016121e9565b925050602083013567ffffffffffffffff811115612563576125626120cc565b5b61256f858286016121e9565b9150509250929050565b600060608201905061258e60008301866122ab565b61259b60208301856122ab565b6125a860408301846122ab565b949350505050565b60006020820190506125c56000830184612292565b92915050565b600080604083850312156125e2576125e16120c7565b5b600083013567ffffffffffffffff811115612600576125ff6120cc565b5b61260c858286016121e9565b925050602061261d8582860161247d565b9150509250929050565b6000806000606084860312156126405761263f6120c7565b5b600061264e8682870161247d565b935050602061265f868287016123b2565b9250506040612670868287016123b2565b9150509250925092565b600080600080600080600060e0888a031215612699576126986120c7565b5b600088013567ffffffffffffffff8111156126b7576126b66120cc565b5b6126c38a828b016121e9565b97505060206126d48a828b0161247d565b96505060406126e58a828b0161247d565b95505060606126f68a828b0161247d565b945050608088013567ffffffffffffffff811115612717576127166120cc565b5b6127238a828b016121e9565b93505060a06127348a828b0161247d565b92505060c088013567ffffffffffffffff811115612755576127546120cc565b5b6127618a828b016121e9565b91505092959891949750929550565b600060c0820190506127856000830189612292565b6127926020830188612292565b61279f6040830187612292565b81810360608301526127b18186612340565b90506127c06080830185612292565b81810360a08301526127d28184612340565b9050979650505050505050565b600060c0820190506127f46000830189612292565b6128016020830188612292565b61280e6040830187612292565b61281b6060830186612292565b818103608083015261282d8185612340565b905081810360a08301526128418184612340565b9050979650505050505050565b600060208201905061286360008301846122ab565b92915050565b600080600060608486031215612882576128816120c7565b5b600084013567ffffffffffffffff8111156128a05761289f6120cc565b5b6128ac868287016121e9565b935050602084013567ffffffffffffffff8111156128cd576128cc6120cc565b5b6128d9868287016121e9565b92505060406128ea8682870161247d565b9150509250925092565b60006020828403121561290a576129096120c7565b5b60006129188482850161247d565b91505092915050565b600060408201905061293660008301856122ab565b61294360208301846122ab565b9392505050565b600081905092915050565b6000612960826122f1565b61296a818561294a565b935061297a81856020860161230d565b80840191505092915050565b60006129928284612955565b915081905092915050565b7f4e487b7100000000000000000000000000000000000000000000000000000000600052602260045260246000fd5b600060028204905060018216806129e457607f821691505b602082108114156129f8576129f761299d565b5b50919050565b7f4f776e61626c653a2063616c6c6572206973206e6f7420746865206f776e6572600082015250565b6000612a346020836122fc565b9150612a3f826129fe565b602082019050919050565b60006020820190508181036000830152612a6381612a27565b9050919050565b7f4e487b7100000000000000000000000000000000000000000000000000000000600052601160045260246000fd5b6000612aa4826122a1565b9150612aaf836122a1565b9250827fffffffffffffffffffffffffffffffffffffffffffffffffffffffffffffffff03821115612ae457612ae3612a6a565b5b828201905092915050565b600060a0820190508181036000830152612b098188612340565b90508181036020830152612b1d8187612340565b9050612b2c60408301866122ab565b612b3960608301856122ab565b612b4660808301846122ab565b9695505050505050565b60006060820190508181036000830152612b6a8186612340565b9050612b796020830185612292565b612b8660408301846122ab565b949350505050565b7f4b65792063616e6e6f7420626520656d70747900000000000000000000000000600082015250565b6000612bc46013836122fc565b9150612bcf82612b8e565b602082019050919050565b60006020820190508181036000830152612bf381612bb7565b9050919050565b7f56616c75652063616e6e6f7420626520656d7074790000000000000000000000600082015250565b6000612c306015836122fc565b9150612c3b82612bfa565b602082019050919050565b60006020820190508181036000830152612c5f81612c23565b9050919050565b7f43616e6e6f742065786365656420313030250000000000000000000000000000600082015250565b6000612c9c6012836122fc565b9150612ca782612c66565b602082019050919050565b60006020820190508181036000830152612ccb81612c8f565b9050919050565b6000606082019050612ce76000830186612292565b612cf460208301856122ab565b612d0160408301846122ab565b949350505050565b7f4e616d652063616e6e6f7420626520656d707479000000000000000000000000600082015250565b6000612d3f6014836122fc565b9150612d4a82612d09565b602082019050919050565b60006020820190508181036000830152612d6e81612d32565b9050919050565b7f4368656620636f6e74726163742063616e6e6f7420626520656d707479000000600082015250565b6000612dab601d836122fc565b9150612db682612d75565b602082019050919050565b60006020820190508181036000830152612dda81612d9e565b9050919050565b7f526f75746520636f6e74726163742063616e6e6f7420626520656d7074790000600082015250565b6000612e17601e836122fc565b9150612e2282612de1565b602082019050919050565b60006020820190508181036000830152612e4681612e0a565b9050919050565b7f52657761726420746f6b656e2063616e6e6f7420626520656d70747900000000600082015250565b6000612e83601c836122fc565b9150612e8e82612e4d565b602082019050919050565b60006020820190508181036000830152612eb281612e76565b9050919050565b7f50656e64696e672063616c6c2063616e6e6f7420626520656d70747900000000600082015250565b6000612eef601c836122fc565b9150612efa82612eb9565b602082019050919050565b60006020820190508181036000830152612f1e81612ee2565b9050919050565b7f436f6e747261637420747970652063616e6e6f7420626520656d707479000000600082015250565b6000612f5b601d836122fc565b9150612f6682612f25565b602082019050919050565b60006020820190508181036000830152612f8a81612f4e565b9050919050565b7f44454641554c5400000000000000000000000000000000000000000000000000600082015250565b6000612fc760078361294a565b9150612fd282612f91565b600782019050919050565b6000612fe882612fba565b9150819050919050565b7f4e487b7100000000000000000000000000000000000000000000000000000000600052601260045260246000fd5b600061302c826122a1565b9150613037836122a1565b92508261304757613046612ff2565b5b828204905092915050565b600061305d826122a1565b9150613068836122a1565b9250817fffffffffffffffffffffffffffffffffffffffffffffffffffffffffffffffff04831182151516156130a1576130a0612a6a565b5b828202905092915050565b60006130b7826122a1565b91506130c2836122a1565b9250828210156130d5576130d4612a6a565b5b828203905092915050565b7f4f776e61626c653a206e6577206f776e657220697320746865207a65726f206160008201527f6464726573730000000000000000000000000000000000000000000000000000602082015250565b600061313c6026836122fc565b9150613147826130e0565b604082019050919050565b6000602082019050818103600083015261316b8161312f565b905091905056fea264697066735822122095bc1a9f01a40e7c44e0d6987c5b063aee4d3c7a1441394d90307c12da43448e64736f6c634300080c0033",
  "immutableReferences": {},
  "source": "//SPDX-License-Identifier: UNLICENSED\npragma solidity ^0.8.7;\npragma experimental ABIEncoderV2;\nimport \"@openzeppelin/contracts/access/Ownable.sol\";\n\ncontract combine_beacon is Ownable {\n    struct sFee {\n        uint current_amount;\n        uint replacement_amount;\n        uint256 start;\n    }\n\n    struct sExchange {\n        address current_logic_contract;\n        address replacement_logic_contract;\n        uint256 start;\n    }\n\n    struct sDiscount {\n        uint discount_amount;\n        uint expires;\n    }\n\n    struct sExchangeInfo {\n        address chefContract;\n        address routerContract;\n        address rewardToken;\n        address intermediateToken;\n        string pendingCall;\n        string contractType;\n    }\n\n    mapping (string => mapping(string => sFee)) public mFee;\n    mapping (string => sExchange) public mExchanges;\n    mapping (address => sDiscount) public mDiscounts;\n    mapping (string => sExchangeInfo) public mExchangeInfo;\n    mapping (string => address) public mData;\n\n    bool bitFlip;\n\n    event feeSet(string _exchange, string _function, uint _amount, uint256 _time, uint256 _current);\n    event discountSet(address _user, uint _discount, uint _expires);\n    event exchangeSet(string  _exchange, address _replacement_logic_contract, uint256 _start);\n    \n    function getFee(string memory _exchange, string memory _type, address _user) public view returns (uint) {\n        sFee memory rv = mFee[_exchange][_type];\n        sDiscount memory disc = mDiscounts[_user];\n        if (rv.replacement_amount == 0 && rv.current_amount == 0) {\n            rv = mFee['DEFAULT'][_type];\n        }\n\n        uint amount =  (rv.start != 0 && rv.start <= block.timestamp) ? rv.replacement_amount : rv.current_amount;\n\n        if (disc.discount_amount > 0 && (disc.expires <= block.timestamp || disc.expires == 0)) {\n            amount = amount - (amount *(disc.discount_amount/100) / (10**18)); \n        }\n\n        return amount;\n    }\n\n    function getConst(string memory _exchange, string memory _type) public view returns (uint) {\n        sFee memory rv = mFee[_exchange][_type];\n        if (rv.replacement_amount == 0 && rv.current_amount == 0) {\n            rv = mFee['DEFAULT'][_type];\n        }\n        return (rv.start != 0 && rv.start <= block.timestamp) ? rv.replacement_amount : rv.current_amount;\n    }\n\n    function setDiscount(address _user, uint _amount, uint _expires) public onlyOwner {\n        require(_amount <= 100 ether,\"Cannot exceed 100%\");\n        mDiscounts[_user].discount_amount = _amount;\n        if (_expires > 0 && _expires < 31536000) {\n            _expires = block.timestamp + _expires;\n        }\n        mDiscounts[_user].expires = _expires;\n\n        emit discountSet(_user,_amount,_expires);\n    }\n    function updateBlock() public { //function used for testing to advance block time\n        bitFlip = bitFlip == true ? false : true;\n    }\n    function setFee(string memory _exchange, string memory _type, uint _replacement_amount, uint256 _start) public onlyOwner {\n        sFee memory rv = mFee[_exchange][_type];\n        \n        if (_start < 1209600) {\n            _start = block.timestamp + _start;\n        }\n        \n        if (rv.start != 0 && rv.start < block.timestamp) {\n            mFee[_exchange][_type].current_amount = mFee[_exchange][_type].replacement_amount;\n        }\n        \n        mFee[_exchange][_type].start = _start;\n        mFee[_exchange][_type].replacement_amount = _replacement_amount;\n\n        if (rv.current_amount == 0) {\n            mFee[_exchange][_type].current_amount = _replacement_amount;\n        }\n        emit feeSet(_exchange,_type,_replacement_amount,_start, block.timestamp);\n    }\n    \n    function getExchange(string memory _exchange) public view returns(address) {\n        sExchange memory rv = mExchanges[_exchange];\n\n        if (rv.start != 0 && rv.start < block.timestamp) {\n            return rv.replacement_logic_contract;\n        }\n        return rv.current_logic_contract;\n    }\n\n    function setExchange(string memory _exchange, address _replacement_logic_contract, uint256 _start) public onlyOwner {\n        sExchange memory rv = mExchanges[_exchange];\n        \n        if (_start < 1209600) {\n            _start = block.timestamp + _start;\n        }\n        \n        if (rv.start != 0 && rv.start <= block.timestamp) {\n            mExchanges[_exchange].current_logic_contract = mExchanges[_exchange].replacement_logic_contract;\n        }\n        \n        mExchanges[_exchange].start = _start;\n        mExchanges[_exchange].replacement_logic_contract = _replacement_logic_contract;\n        if (mExchanges[_exchange].current_logic_contract == address(0)) {\n            mExchanges[_exchange].current_logic_contract = _replacement_logic_contract;\n        }\n        emit exchangeSet(_exchange, _replacement_logic_contract, _start);\n    }\n    \n    function setExchangeInfo(string memory _name, address _chefContract, address _routerContract, address _rewardToken, string memory _pendingCall,address _intermediateToken, string memory _contractType) public onlyOwner {\n        require(bytes(_name).length > 0, \"Name cannot be empty\");\n        require(_chefContract != address(0), \"Chef contract cannot be empty\");\n        require(_routerContract != address(0), \"Route contract cannot be empty\");\n        require(_rewardToken != address(0), \"Reward token cannot be empty\");\n        require(bytes(_pendingCall).length > 0, \"Pending call cannot be empty\");\n        require(bytes(_contractType).length > 0, \"Contract type cannot be empty\");\n\n        mExchangeInfo[_name].chefContract = _chefContract;\n        mExchangeInfo[_name].routerContract = _routerContract;\n        mExchangeInfo[_name].rewardToken = _rewardToken;\n        mExchangeInfo[_name].pendingCall = _pendingCall;\n        mExchangeInfo[_name].intermediateToken = _intermediateToken;\n        mExchangeInfo[_name].contractType = _contractType;\n    }\n    \n    function getExchangeInfo(string memory _name) public view returns(address _chefContract, address _routerContract, address _rewardToken,string memory _pendingCall,address _intermediateToken, string memory _contractType)  {\n        _chefContract = mExchangeInfo[_name].chefContract;\n        _routerContract = mExchangeInfo[_name].routerContract;\n        _rewardToken = mExchangeInfo[_name].rewardToken;\n        _pendingCall = mExchangeInfo[_name].pendingCall;\n        _intermediateToken = mExchangeInfo[_name].intermediateToken;\n        _contractType = mExchangeInfo[_name].contractType;\n\n    }\n\n    function getContractType(string memory _name) public view returns (string memory _contract) {\n        _contract = mExchangeInfo[_name].contractType;\n    }\n\n    function setAddress(string memory _key, address _value) public onlyOwner {\n        require(bytes(_key).length > 0, \"Key cannot be empty\");\n        require(_value != address(0), \"Value cannot be empty\");\n        mData[_key] = _value;\n    }\n\n    function getAddress(string memory _key) public view returns(address) {\n        return mData[_key];\n    }\n}\n\n",
  "sourcePath": "/mnt/src/crypto/combine_sol/contracts/combine_beacon.sol",
  "compiler": {
    "name": "solc",
    "version": "0.8.12+commit.f00d7308.Emscripten.clang"
  },
  "schemaVersion": "3.4.3",
  "updatedAt": "2022-02-23T01:13:07.063Z",
  "networkType": "ethereum",
  "devdoc": {
    "kind": "dev",
    "methods": {
      "owner()": {
        "details": "Returns the address of the current owner."
      },
      "renounceOwnership()": {
        "details": "Leaves the contract without owner. It will not be possible to call `onlyOwner` functions anymore. Can only be called by the current owner. NOTE: Renouncing ownership will leave the contract without an owner, thereby removing any functionality that is only available to the owner."
      },
      "transferOwnership(address)": {
        "details": "Transfers ownership of the contract to a new account (`newOwner`). Can only be called by the current owner."
      }
    },
    "version": 1
  },
  "userdoc": {
    "kind": "user",
    "methods": {},
    "version": 1
  }
}