{
  "contractName": "combine_beacon",
  "abi": [
    {
      "anonymous": false,
      "inputs": [
        {
          "indexed": true,
          "internalType": "address",
          "name": "previousOwner",
          "type": "address"
        },
        {
          "indexed": true,
          "internalType": "address",
          "name": "newOwner",
          "type": "address"
        }
      ],
      "name": "OwnershipTransferred",
      "type": "event"
    },
    {
      "anonymous": false,
      "inputs": [
        {
          "indexed": false,
          "internalType": "string",
          "name": "_name",
          "type": "string"
        },
        {
          "indexed": false,
          "internalType": "address",
          "name": "_address",
          "type": "address"
        }
      ],
      "name": "sdAddressSet",
      "type": "event"
    },
    {
      "anonymous": false,
      "inputs": [
        {
          "indexed": false,
          "internalType": "string",
          "name": "_key",
          "type": "string"
        },
        {
          "indexed": false,
          "internalType": "uint256",
          "name": "_value",
          "type": "uint256"
        }
      ],
      "name": "sdDataUintSet",
      "type": "event"
    },
    {
      "anonymous": false,
      "inputs": [
        {
          "indexed": false,
          "internalType": "address",
          "name": "_user",
          "type": "address"
        },
        {
          "indexed": false,
          "internalType": "uint256",
          "name": "_discount",
          "type": "uint256"
        },
        {
          "indexed": false,
          "internalType": "uint256",
          "name": "_expires",
          "type": "uint256"
        }
      ],
      "name": "sdDiscountSet",
      "type": "event"
    },
    {
      "anonymous": false,
      "inputs": [
        {
          "indexed": false,
          "internalType": "uint256",
          "name": "_count",
          "type": "uint256"
        }
      ],
      "name": "sdDiscountsSet",
      "type": "event"
    },
    {
      "anonymous": false,
      "inputs": [
        {
          "indexed": false,
          "internalType": "string",
          "name": "_name",
          "type": "string"
        },
        {
          "indexed": false,
          "internalType": "address",
          "name": "_chefContract",
          "type": "address"
        },
        {
          "indexed": false,
          "internalType": "address",
          "name": "_routerContract",
          "type": "address"
        },
        {
          "indexed": false,
          "internalType": "bool",
          "name": "_psV2",
          "type": "bool"
        },
        {
          "indexed": false,
          "internalType": "address",
          "name": "_rewardToken",
          "type": "address"
        },
        {
          "indexed": false,
          "internalType": "string",
          "name": "_pendingCall",
          "type": "string"
        },
        {
          "indexed": false,
          "internalType": "address",
          "name": "_intermediateToken",
          "type": "address"
        },
        {
          "indexed": false,
          "internalType": "address",
          "name": "_baseToken",
          "type": "address"
        },
        {
          "indexed": false,
          "internalType": "string",
          "name": "_contractType_solo",
          "type": "string"
        },
        {
          "indexed": false,
          "internalType": "string",
          "name": "_contractType_pooled",
          "type": "string"
        }
      ],
      "name": "sdEexchangeInfoSet",
      "type": "event"
    },
    {
      "anonymous": false,
      "inputs": [
        {
          "indexed": false,
          "internalType": "string",
          "name": "_exchange",
          "type": "string"
        },
        {
          "indexed": false,
          "internalType": "address",
          "name": "_replacement_logic_contract",
          "type": "address"
        },
        {
          "indexed": false,
          "internalType": "uint256",
          "name": "_start",
          "type": "uint256"
        }
      ],
      "name": "sdExchangeSet",
      "type": "event"
    },
    {
      "anonymous": false,
      "inputs": [
        {
          "indexed": false,
          "internalType": "string",
          "name": "_exchange",
          "type": "string"
        },
        {
          "indexed": false,
          "internalType": "string",
          "name": "_function",
          "type": "string"
        },
        {
          "indexed": false,
          "internalType": "uint256",
          "name": "_amount",
          "type": "uint256"
        },
        {
          "indexed": false,
          "internalType": "uint256",
          "name": "_time",
          "type": "uint256"
        },
        {
          "indexed": false,
          "internalType": "uint256",
          "name": "_current",
          "type": "uint256"
        }
      ],
      "name": "sdFeeSet",
      "type": "event"
    },
    {
      "inputs": [
        {
          "internalType": "string",
          "name": "",
          "type": "string"
        }
      ],
      "name": "mData",
      "outputs": [
        {
          "internalType": "address",
          "name": "",
          "type": "address"
        }
      ],
      "stateMutability": "view",
      "type": "function"
    },
    {
      "inputs": [
        {
          "internalType": "string",
          "name": "",
          "type": "string"
        }
      ],
      "name": "mDataUint",
      "outputs": [
        {
          "internalType": "uint256",
          "name": "",
          "type": "uint256"
        }
      ],
      "stateMutability": "view",
      "type": "function"
    },
    {
      "inputs": [
        {
          "internalType": "address",
          "name": "",
          "type": "address"
        }
      ],
      "name": "mDiscounts",
      "outputs": [
        {
          "internalType": "uint256",
          "name": "discount_amount",
          "type": "uint256"
        },
        {
          "internalType": "uint256",
          "name": "expires",
          "type": "uint256"
        }
      ],
      "stateMutability": "view",
      "type": "function"
    },
    {
      "inputs": [
        {
          "internalType": "string",
          "name": "",
          "type": "string"
        }
      ],
      "name": "mExchangeInfo",
      "outputs": [
        {
          "internalType": "address",
          "name": "chefContract",
          "type": "address"
        },
        {
          "internalType": "address",
          "name": "routerContract",
          "type": "address"
        },
        {
          "internalType": "address",
          "name": "rewardToken",
          "type": "address"
        },
        {
          "internalType": "address",
          "name": "intermediateToken",
          "type": "address"
        },
        {
          "internalType": "address",
          "name": "baseToken",
          "type": "address"
        },
        {
          "internalType": "string",
          "name": "pendingCall",
          "type": "string"
        },
        {
          "internalType": "string",
          "name": "contractType_solo",
          "type": "string"
        },
        {
          "internalType": "string",
          "name": "contractType_pooled",
          "type": "string"
        },
        {
          "internalType": "bool",
          "name": "psV2",
          "type": "bool"
        }
      ],
      "stateMutability": "view",
      "type": "function"
    },
    {
      "inputs": [
        {
          "internalType": "string",
          "name": "",
          "type": "string"
        }
      ],
      "name": "mExchanges",
      "outputs": [
        {
          "internalType": "address",
          "name": "current_logic_contract",
          "type": "address"
        },
        {
          "internalType": "address",
          "name": "replacement_logic_contract",
          "type": "address"
        },
        {
          "internalType": "uint256",
          "name": "start",
          "type": "uint256"
        }
      ],
      "stateMutability": "view",
      "type": "function"
    },
    {
      "inputs": [
        {
          "internalType": "string",
          "name": "",
          "type": "string"
        },
        {
          "internalType": "string",
          "name": "",
          "type": "string"
        }
      ],
      "name": "mFee",
      "outputs": [
        {
          "internalType": "uint256",
          "name": "current_amount",
          "type": "uint256"
        },
        {
          "internalType": "uint256",
          "name": "replacement_amount",
          "type": "uint256"
        },
        {
          "internalType": "uint256",
          "name": "start",
          "type": "uint256"
        }
      ],
      "stateMutability": "view",
      "type": "function"
    },
    {
      "inputs": [],
      "name": "owner",
      "outputs": [
        {
          "internalType": "address",
          "name": "",
          "type": "address"
        }
      ],
      "stateMutability": "view",
      "type": "function"
    },
    {
      "inputs": [],
      "name": "renounceOwnership",
      "outputs": [],
      "stateMutability": "nonpayable",
      "type": "function"
    },
    {
      "inputs": [
        {
          "internalType": "address",
          "name": "newOwner",
          "type": "address"
        }
      ],
      "name": "transferOwnership",
      "outputs": [],
      "stateMutability": "nonpayable",
      "type": "function"
    },
    {
      "inputs": [
        {
          "internalType": "string",
          "name": "_exchange",
          "type": "string"
        },
        {
          "internalType": "string",
          "name": "_type",
          "type": "string"
        },
        {
          "internalType": "address",
          "name": "_user",
          "type": "address"
        }
      ],
      "name": "getFee",
      "outputs": [
        {
          "internalType": "uint256",
          "name": "",
          "type": "uint256"
        },
        {
          "internalType": "uint256",
          "name": "",
          "type": "uint256"
        }
      ],
      "stateMutability": "view",
      "type": "function"
    },
    {
      "inputs": [
        {
          "internalType": "string",
          "name": "_exchange",
          "type": "string"
        },
        {
          "internalType": "string",
          "name": "_type",
          "type": "string"
        }
      ],
      "name": "getConst",
      "outputs": [
        {
          "internalType": "uint256",
          "name": "",
          "type": "uint256"
        }
      ],
      "stateMutability": "view",
      "type": "function"
    },
    {
      "inputs": [
        {
          "internalType": "address",
          "name": "_user",
          "type": "address"
        },
        {
          "internalType": "uint256",
          "name": "_amount",
          "type": "uint256"
        },
        {
          "internalType": "uint256",
          "name": "_expires",
          "type": "uint256"
        }
      ],
      "name": "setDiscount",
      "outputs": [],
      "stateMutability": "nonpayable",
      "type": "function"
    },
    {
      "inputs": [
        {
          "components": [
            {
              "internalType": "address",
              "name": "_user",
              "type": "address"
            },
            {
              "internalType": "uint256",
              "name": "_discount",
              "type": "uint256"
            },
            {
              "internalType": "uint256",
              "name": "_expires",
              "type": "uint256"
            }
          ],
          "internalType": "struct combine_beacon.aDiscount[]",
          "name": "_discount",
          "type": "tuple[]"
        }
      ],
      "name": "setDiscountArray",
      "outputs": [],
      "stateMutability": "nonpayable",
      "type": "function"
    },
    {
      "inputs": [
        {
          "internalType": "address",
          "name": "_user",
          "type": "address"
        }
      ],
      "name": "getDiscount",
      "outputs": [
        {
          "internalType": "uint256",
          "name": "",
          "type": "uint256"
        },
        {
          "internalType": "uint256",
          "name": "",
          "type": "uint256"
        }
      ],
      "stateMutability": "view",
      "type": "function"
    },
    {
      "inputs": [
        {
          "internalType": "string",
          "name": "_exchange",
          "type": "string"
        },
        {
          "internalType": "string",
          "name": "_type",
          "type": "string"
        },
        {
          "internalType": "uint256",
          "name": "_replacement_amount",
          "type": "uint256"
        },
        {
          "internalType": "uint256",
          "name": "_start",
          "type": "uint256"
        }
      ],
      "name": "setFee",
      "outputs": [],
      "stateMutability": "nonpayable",
      "type": "function"
    },
    {
      "inputs": [
        {
          "internalType": "string",
          "name": "_exchange",
          "type": "string"
        }
      ],
      "name": "getExchange",
      "outputs": [
        {
          "internalType": "address",
          "name": "",
          "type": "address"
        }
      ],
      "stateMutability": "view",
      "type": "function"
    },
    {
      "inputs": [
        {
          "internalType": "string",
          "name": "_exchange",
          "type": "string"
        },
        {
          "internalType": "address",
          "name": "_replacement_logic_contract",
          "type": "address"
        },
        {
          "internalType": "uint256",
          "name": "_start",
          "type": "uint256"
        }
      ],
      "name": "setExchange",
      "outputs": [],
      "stateMutability": "nonpayable",
      "type": "function"
    },
    {
      "inputs": [
        {
          "internalType": "string",
          "name": "_name",
          "type": "string"
        },
        {
          "internalType": "address",
          "name": "_chefContract",
          "type": "address"
        },
        {
          "internalType": "address",
          "name": "_routerContract",
          "type": "address"
        },
        {
          "internalType": "bool",
          "name": "_psV2",
          "type": "bool"
        },
        {
          "internalType": "address",
          "name": "_rewardToken",
          "type": "address"
        },
        {
          "internalType": "string",
          "name": "_pendingCall",
          "type": "string"
        },
        {
          "internalType": "address",
          "name": "_intermediateToken",
          "type": "address"
        },
        {
          "internalType": "address",
          "name": "_baseToken",
          "type": "address"
        },
        {
          "internalType": "string",
          "name": "_contractType_solo",
          "type": "string"
        },
        {
          "internalType": "string",
          "name": "_contractType_pooled",
          "type": "string"
        }
      ],
      "name": "setExchangeInfo",
      "outputs": [],
      "stateMutability": "nonpayable",
      "type": "function"
    },
    {
      "inputs": [
        {
          "internalType": "string",
          "name": "_name",
          "type": "string"
        }
      ],
      "name": "getExchangeInfo",
      "outputs": [
        {
          "components": [
            {
              "internalType": "address",
              "name": "chefContract",
              "type": "address"
            },
            {
              "internalType": "address",
              "name": "routerContract",
              "type": "address"
            },
            {
              "internalType": "address",
              "name": "rewardToken",
              "type": "address"
            },
            {
              "internalType": "address",
              "name": "intermediateToken",
              "type": "address"
            },
            {
              "internalType": "address",
              "name": "baseToken",
              "type": "address"
            },
            {
              "internalType": "string",
              "name": "pendingCall",
              "type": "string"
            },
            {
              "internalType": "string",
              "name": "contractType_solo",
              "type": "string"
            },
            {
              "internalType": "string",
              "name": "contractType_pooled",
              "type": "string"
            },
            {
              "internalType": "bool",
              "name": "psV2",
              "type": "bool"
            }
          ],
          "internalType": "struct combine_beacon.sExchangeInfo",
          "name": "",
          "type": "tuple"
        }
      ],
      "stateMutability": "view",
      "type": "function"
    },
    {
      "inputs": [
        {
          "internalType": "string",
          "name": "_name",
          "type": "string"
        },
        {
          "internalType": "uint256",
          "name": "_type",
          "type": "uint256"
        }
      ],
      "name": "getContractType",
      "outputs": [
        {
          "internalType": "string",
          "name": "_contract",
          "type": "string"
        }
      ],
      "stateMutability": "view",
      "type": "function"
    },
    {
      "inputs": [
        {
          "internalType": "string",
          "name": "_key",
          "type": "string"
        },
        {
          "internalType": "address",
          "name": "_value",
          "type": "address"
        }
      ],
      "name": "setAddress",
      "outputs": [],
      "stateMutability": "nonpayable",
      "type": "function"
    },
    {
      "inputs": [
        {
          "internalType": "string",
          "name": "_key",
          "type": "string"
        }
      ],
      "name": "getAddress",
      "outputs": [
        {
          "internalType": "address",
          "name": "",
          "type": "address"
        }
      ],
      "stateMutability": "view",
      "type": "function"
    },
    {
      "inputs": [
        {
          "internalType": "string",
          "name": "_key",
          "type": "string"
        }
      ],
      "name": "getDataUint",
      "outputs": [
        {
          "internalType": "uint256",
          "name": "",
          "type": "uint256"
        }
      ],
      "stateMutability": "view",
      "type": "function"
    },
    {
      "inputs": [
        {
          "internalType": "string",
          "name": "_key",
          "type": "string"
        },
        {
          "internalType": "uint256",
          "name": "_value",
          "type": "uint256"
        }
      ],
      "name": "setDataUint",
      "outputs": [],
      "stateMutability": "nonpayable",
      "type": "function"
    }
  ],
  "bytecode": "0x608060405234801561001057600080fd5b5061001a3361001f565b61006f565b600080546001600160a01b038381166001600160a01b0319831681178455604051919092169283917f8be0079c531659141344cd1fd0a4f28419497f9722a3daafe3b4186f6b6457e09190a35050565b6127358061007e6000396000f3fe608060405234801561001057600080fd5b50600436106101585760003560e01c80639b2ea4bd116100c3578063c4db83951161007c578063c4db839514610429578063d95ad37114610451578063db1e420214610464578063ddbd997714610477578063f2fde38b1461049e578063ff4b2032146104b157600080fd5b80639b2ea4bd14610389578063a2724de71461039c578063a375e723146103d0578063b466360c146103e3578063bf40fac1146103f6578063c42465e31461040957600080fd5b806360495b061161011557806360495b06146102985780636da9ebeb146102ab578063715018a61461031e57806384ab0911146103265780638da5cb5b1461033957806391a14c561461035e57600080fd5b806306f2791a1461015d5780630cec42a4146101bd5780631e212ee71461022f5780631fb204e0146102445780632884714b146102645780633db9495314610277575b600080fd5b6101a361016b366004611d85565b6001600160a01b0316600090815260036020908152604091829020825180840190935280548084526001909101549290910182905291565b604080519283526020830191909152015b60405180910390f35b6102096101cb366004611e4a565b805180820160209081018051600280835293830192909401919091209290528154600183015492909101546001600160a01b03918216929091169083565b604080516001600160a01b039485168152939092166020840152908201526060016101b4565b61024261023d366004611e7f565b6104c4565b005b610257610252366004611e7f565b61059e565b6040516101b49190611f20565b610242610272366004611f33565b61067f565b61028a610285366004611e4a565b6108c6565b6040519081526020016101b4565b6102426102a6366004611fa7565b6108ee565b6103036102b9366004611ffe565b815160208184018101805160018083529383019583019590952094905282518084018201805195815290820193909101929092209290915281549082015460029092015490919083565b604080519384526020840192909252908201526060016101b4565b610242610b2e565b610242610334366004612062565b610b64565b6000546001600160a01b03165b6040516001600160a01b0390911681526020016101b4565b61028a61036c366004611e4a565b805160208183018101805160068252928201919093012091525481565b6102426103973660046120d7565b610c44565b6103466103aa366004611e4a565b80516020818301810180516005825292820191909301209152546001600160a01b031681565b6102426103de366004612135565b610d73565b6102426103f1366004612248565b61125d565b610346610404366004611e4a565b6113e3565b61041c610417366004611e4a565b611414565b6040516101b4919061227b565b61043c610437366004611e4a565b611696565b6040516101b49998979695949392919061236b565b61028a61045f366004611ffe565b61189e565b6101a36104723660046123f2565b6119a3565b6101a3610485366004611d85565b6003602052600090815260409020805460019091015482565b6102426104ac366004611d85565b611b6a565b6103466104bf366004611e4a565b611c05565b6000546001600160a01b031633146104f75760405162461bcd60e51b81526004016104ee90612466565b60405180910390fd5b600082511161053e5760405162461bcd60e51b81526020600482015260136024820152724b65792063616e6e6f7420626520656d70747960681b60448201526064016104ee565b8060068360405161054f919061249b565b9081526020016040518091039020819055507f4378027bf6db7bd6358449f0a8db32d5555d0e629081b8b6c535f917205acf8682826040516105929291906124b7565b60405180910390a15050565b606081156105cc576004836040516105b6919061249b565b90815260200160405180910390206007016105ee565b6004836040516105dc919061249b565b90815260200160405180910390206006015b80546105f9906124d9565b80601f0160208091040260200160405190810160405280929190818152602001828054610625906124d9565b80156106725780601f1061064757610100808354040283529160200191610672565b820191906000526020600020905b81548152906001019060200180831161065557829003601f168201915b5050505050905092915050565b6000546001600160a01b031633146106a95760405162461bcd60e51b81526004016104ee90612466565b60006001856040516106bb919061249b565b9081526020016040518091039020846040516106d7919061249b565b9081526040805191829003602090810183206060840183528054845260018101549184019190915260020154908201529050621275008210156107215761071e8242612529565b91505b6040810151158015906107375750428160400151105b156107b75760018560405161074c919061249b565b908152602001604051809103902084604051610768919061249b565b90815260200160405180910390206001015460018660405161078a919061249b565b9081526020016040518091039020856040516107a6919061249b565b908152604051908190036020019020555b816001866040516107c8919061249b565b9081526020016040518091039020856040516107e4919061249b565b9081526020016040518091039020600201819055508260018660405161080a919061249b565b908152602001604051809103902085604051610826919061249b565b9081526040519081900360200190206001015580516000036108805782600186604051610853919061249b565b90815260200160405180910390208560405161086f919061249b565b908152604051908190036020019020555b7f55e92804e43f8e0a36c8742b703cb19d8a3916eb3507b20b6a63fb8c5fa0414f85858585426040516108b7959493929190612541565b60405180910390a15050505050565b60006006826040516108d8919061249b565b9081526020016040518091039020549050919050565b6000546001600160a01b031633146109185760405162461bcd60e51b81526004016104ee90612466565b600060028460405161092a919061249b565b90815260408051918290036020908101832060608401835280546001600160a01b0390811685526001820154169184019190915260020154908201529050621275008210156109805761097d8242612529565b91505b604081015115801590610997575042816040015111155b15610a07576002846040516109ac919061249b565b908152604051908190036020018120600101546001600160a01b0316906002906109d790879061249b565b90815260405190819003602001902080546001600160a01b03929092166001600160a01b03199092169190911790555b81600285604051610a18919061249b565b90815260200160405180910390206002018190555082600285604051610a3e919061249b565b90815260405190819003602001812060010180546001600160a01b03939093166001600160a01b031990931692909217909155600090600290610a8290879061249b565b908152604051908190036020019020546001600160a01b03161480610aa75750428211155b15610aed5782600285604051610abd919061249b565b90815260405190819003602001902080546001600160a01b03929092166001600160a01b03199092169190911790555b7f9768fde922be6b0697c9f1580bf9fc21990275af7056d533b1359ea3be7ed8c1848484604051610b2093929190612584565b60405180910390a150505050565b6000546001600160a01b03163314610b585760405162461bcd60e51b81526004016104ee90612466565b610b626000611c80565b565b6000546001600160a01b03163314610b8e5760405162461bcd60e51b81526004016104ee90612466565b60005b81811015610c1357610c01838383818110610bae57610bae6125b2565b610bc49260206060909202019081019150611d85565b848484818110610bd657610bd66125b2565b90506060020160200135858585818110610bf257610bf26125b2565b9050606002016040013561125d565b80610c0b816125c8565b915050610b91565b506040518181527f3eb7fd5c7ac8f5e9145e2e9cd3646c6b71c51ff4926e747fe141e76cf7e3c77890602001610592565b6000546001600160a01b03163314610c6e5760405162461bcd60e51b81526004016104ee90612466565b6000825111610cb55760405162461bcd60e51b81526020600482015260136024820152724b65792063616e6e6f7420626520656d70747960681b60448201526064016104ee565b6001600160a01b038116610d035760405162461bcd60e51b815260206004820152601560248201527456616c75652063616e6e6f7420626520656d70747960581b60448201526064016104ee565b80600583604051610d14919061249b565b90815260405190819003602001812080546001600160a01b03939093166001600160a01b0319909316929092179091557fee1a6454429e2b0ae74101d9c99673efb6d9a8afddcb21056871a83dcb1cb5699061059290849084906125e1565b6000546001600160a01b03163314610d9d5760405162461bcd60e51b81526004016104ee90612466565b60008a5111610de55760405162461bcd60e51b81526020600482015260146024820152734e616d652063616e6e6f7420626520656d70747960601b60448201526064016104ee565b6001600160a01b038916610e3b5760405162461bcd60e51b815260206004820152601d60248201527f4368656620636f6e74726163742063616e6e6f7420626520656d70747900000060448201526064016104ee565b6001600160a01b038816610e915760405162461bcd60e51b815260206004820152601e60248201527f526f75746520636f6e74726163742063616e6e6f7420626520656d707479000060448201526064016104ee565b6001600160a01b038616610ee75760405162461bcd60e51b815260206004820152601c60248201527f52657761726420746f6b656e2063616e6e6f7420626520656d7074790000000060448201526064016104ee565b6000855111610f385760405162461bcd60e51b815260206004820152601c60248201527f50656e64696e672063616c6c2063616e6e6f7420626520656d7074790000000060448201526064016104ee565b6000825111610f895760405162461bcd60e51b815260206004820152601d60248201527f436f6e747261637420747970652063616e6e6f7420626520656d70747900000060448201526064016104ee565b6000815111610fda5760405162461bcd60e51b815260206004820152601d60248201527f436f6e747261637420747970652063616e6e6f7420626520656d70747900000060448201526064016104ee565b8860048b604051610feb919061249b565b90815260405190819003602001812080546001600160a01b03939093166001600160a01b031990931692909217909155889060049061102b908d9061249b565b908152602001604051809103902060010160006101000a8154816001600160a01b0302191690836001600160a01b031602179055508660048b604051611071919061249b565b908152604051908190036020018120600801805492151560ff199093169290921790915586906004906110a5908d9061249b565b908152602001604051809103902060020160006101000a8154816001600160a01b0302191690836001600160a01b031602179055508460048b6040516110eb919061249b565b9081526020016040518091039020600501908051906020019061110f929190611cd0565b508360048b604051611121919061249b565b908152602001604051809103902060030160006101000a8154816001600160a01b0302191690836001600160a01b031602179055508260048b604051611167919061249b565b908152602001604051809103902060040160006101000a8154816001600160a01b0302191690836001600160a01b031602179055508160048b6040516111ad919061249b565b908152602001604051809103902060060190805190602001906111d1929190611cd0565b508060048b6040516111e3919061249b565b90815260200160405180910390206007019080519060200190611207929190611cd0565b507f348bf07e3d54ebcad5be90f2455724dc8a833df9cb12665917fb54dd10a1da728a8a8a8a8a8a8a8a8a8a6040516112499a9998979695949392919061260b565b60405180910390a150505050505050505050565b6000546001600160a01b031633146112875760405162461bcd60e51b81526004016104ee90612466565b68056bc75e2d631000008211156112d55760405162461bcd60e51b815260206004820152601260248201527143616e6e6f7420657863656564203130302560701b60448201526064016104ee565b6001600160a01b0383166000908152600360205260409020829055801580159061130257506301e1338081105b15611314576113118142612529565b90505b6001600160a01b0383166000908152600360205260409081902060010182905580516b131054d5111254d0d3d5539560a21b81526006600c820152905190819003602c01902054421461139457426006604051611383906b131054d5111254d0d3d5539560a21b8152600c0190565b908152604051908190036020019020555b604080516001600160a01b0385168152602081018490529081018290527f3b780e28fe34da40d28792f1505aa01594268a890ebf510872c8117644258c229060600160405180910390a1505050565b60006005826040516113f5919061249b565b908152604051908190036020019020546001600160a01b031692915050565b604080516101208101825260008082526020820181905281830181905260608083018290526080830182905260a0830181905260c0830181905260e0830152610100820152905160049061146990849061249b565b9081526040805191829003602090810183206101208401835280546001600160a01b03908116855260018201548116928501929092526002810154821692840192909252600382015481166060840152600482015416608083015260058101805460a0840191906114d9906124d9565b80601f0160208091040260200160405190810160405280929190818152602001828054611505906124d9565b80156115525780601f1061152757610100808354040283529160200191611552565b820191906000526020600020905b81548152906001019060200180831161153557829003601f168201915b5050505050815260200160068201805461156b906124d9565b80601f0160208091040260200160405190810160405280929190818152602001828054611597906124d9565b80156115e45780601f106115b9576101008083540402835291602001916115e4565b820191906000526020600020905b8154815290600101906020018083116115c757829003601f168201915b505050505081526020016007820180546115fd906124d9565b80601f0160208091040260200160405190810160405280929190818152602001828054611629906124d9565b80156116765780601f1061164b57610100808354040283529160200191611676565b820191906000526020600020905b81548152906001019060200180831161165957829003601f168201915b50505091835250506008919091015460ff16151560209091015292915050565b805180820160209081018051600480835293830192909401919091209290528154600183015460028401546003850154938501546005860180546001600160a01b039586169794861696938616959384169492909316926116f6906124d9565b80601f0160208091040260200160405190810160405280929190818152602001828054611722906124d9565b801561176f5780601f106117445761010080835404028352916020019161176f565b820191906000526020600020905b81548152906001019060200180831161175257829003601f168201915b505050505090806006018054611784906124d9565b80601f01602080910402602001604051908101604052809291908181526020018280546117b0906124d9565b80156117fd5780601f106117d2576101008083540402835291602001916117fd565b820191906000526020600020905b8154815290600101906020018083116117e057829003601f168201915b505050505090806007018054611812906124d9565b80601f016020809104026020016040519081016040528092919081815260200182805461183e906124d9565b801561188b5780601f106118605761010080835404028352916020019161188b565b820191906000526020600020905b81548152906001019060200180831161186e57829003601f168201915b5050506008909301549192505060ff1689565b6000806001846040516118b1919061249b565b9081526020016040518091039020836040516118cd919061249b565b90815260408051602092819003830181206060820183528054825260018101549382018490526002015491810191909152915015801561190c57508051155b156119735760408051661111519055531560ca1b81526001600782015290519081900360270181209061194090859061249b565b90815260408051918290036020908101832060608401835280548452600181015491840191909152600201549082015290505b60408101511580159061198a575042816040015111155b61199557805161199b565b80602001515b949350505050565b6000806000806001876040516119b9919061249b565b9081526020016040518091039020866040516119d5919061249b565b90815260408051918290036020908101832060608401835280548452600180820154858401908152600290920154858501526001600160a01b038a166000908152600384528490208451808601909552805485520154918301919091525191925090158015611a4357508151155b15611aaa5760408051661111519055531560ca1b815260016007820152905190819003602701812090611a7790899061249b565b90815260408051918290036020908101832060608401835280548452600181015491840191909152600201549082015291505b60008260400151600014158015611ac5575042836040015111155b611ad0578251611ad6565b82602001515b90506000808360000151118015611afc57504283602001511180611afc57506020830151155b611b07576001611b0a565b60005b90508015611b1b5760009450611b5b565b8251670de0b6b3a764000090611b33906064906126a7565b611b3d90846126c9565b611b4791906126a7565b611b5190836126e8565b9150826020015194505b50989297509195505050505050565b6000546001600160a01b03163314611b945760405162461bcd60e51b81526004016104ee90612466565b6001600160a01b038116611bf95760405162461bcd60e51b815260206004820152602660248201527f4f776e61626c653a206e6577206f776e657220697320746865207a65726f206160448201526564647265737360d01b60648201526084016104ee565b611c0281611c80565b50565b600080600283604051611c18919061249b565b90815260408051918290036020908101832060608401835280546001600160a01b039081168552600182015416918401919091526002015490820181905290915015801590611c6a5750428160400151105b15611c79576020015192915050565b5192915050565b600080546001600160a01b038381166001600160a01b0319831681178455604051919092169283917f8be0079c531659141344cd1fd0a4f28419497f9722a3daafe3b4186f6b6457e09190a35050565b828054611cdc906124d9565b90600052602060002090601f016020900481019282611cfe5760008555611d44565b82601f10611d1757805160ff1916838001178555611d44565b82800160010185558215611d44579182015b82811115611d44578251825591602001919060010190611d29565b50611d50929150611d54565b5090565b5b80821115611d505760008155600101611d55565b80356001600160a01b0381168114611d8057600080fd5b919050565b600060208284031215611d9757600080fd5b611da082611d69565b9392505050565b634e487b7160e01b600052604160045260246000fd5b600082601f830112611dce57600080fd5b813567ffffffffffffffff80821115611de957611de9611da7565b604051601f8301601f19908116603f01168101908282118183101715611e1157611e11611da7565b81604052838152866020858801011115611e2a57600080fd5b836020870160208301376000602085830101528094505050505092915050565b600060208284031215611e5c57600080fd5b813567ffffffffffffffff811115611e7357600080fd5b61199b84828501611dbd565b60008060408385031215611e9257600080fd5b823567ffffffffffffffff811115611ea957600080fd5b611eb585828601611dbd565b95602094909401359450505050565b60005b83811015611edf578181015183820152602001611ec7565b83811115611eee576000848401525b50505050565b60008151808452611f0c816020860160208601611ec4565b601f01601f19169290920160200192915050565b602081526000611da06020830184611ef4565b60008060008060808587031215611f4957600080fd5b843567ffffffffffffffff80821115611f6157600080fd5b611f6d88838901611dbd565b95506020870135915080821115611f8357600080fd5b50611f9087828801611dbd565b949794965050505060408301359260600135919050565b600080600060608486031215611fbc57600080fd5b833567ffffffffffffffff811115611fd357600080fd5b611fdf86828701611dbd565b935050611fee60208501611d69565b9150604084013590509250925092565b6000806040838503121561201157600080fd5b823567ffffffffffffffff8082111561202957600080fd5b61203586838701611dbd565b9350602085013591508082111561204b57600080fd5b5061205885828601611dbd565b9150509250929050565b6000806020838503121561207557600080fd5b823567ffffffffffffffff8082111561208d57600080fd5b818501915085601f8301126120a157600080fd5b8135818111156120b057600080fd5b8660206060830285010111156120c557600080fd5b60209290920196919550909350505050565b600080604083850312156120ea57600080fd5b823567ffffffffffffffff81111561210157600080fd5b61210d85828601611dbd565b92505061211c60208401611d69565b90509250929050565b80358015158114611d8057600080fd5b6000806000806000806000806000806101408b8d03121561215557600080fd5b8a3567ffffffffffffffff8082111561216d57600080fd5b6121798e838f01611dbd565b9b5061218760208e01611d69565b9a5061219560408e01611d69565b99506121a360608e01612125565b98506121b160808e01611d69565b975060a08d01359150808211156121c757600080fd5b6121d38e838f01611dbd565b96506121e160c08e01611d69565b95506121ef60e08e01611d69565b94506101008d013591508082111561220657600080fd5b6122128e838f01611dbd565b93506101208d013591508082111561222957600080fd5b506122368d828e01611dbd565b9150509295989b9194979a5092959850565b60008060006060848603121561225d57600080fd5b61226684611d69565b95602085013595506040909401359392505050565b602081526122956020820183516001600160a01b03169052565b600060208301516122b160408401826001600160a01b03169052565b5060408301516001600160a01b03811660608401525060608301516001600160a01b03811660808401525060808301516001600160a01b03811660a08401525060a08301516101208060c085015261230d610140850183611ef4565b915060c0850151601f19808685030160e087015261232b8483611ef4565b935060e0870151915061010081878603018188015261234a8584611ef4565b945080880151925050506123618286018215159052565b5090949350505050565b6001600160a01b038a811682528981166020830152888116604083015287811660608301528616608082015261012060a082018190526000906123b083820188611ef4565b905082810360c08401526123c48187611ef4565b905082810360e08401526123d88186611ef4565b9150508215156101008301529a9950505050505050505050565b60008060006060848603121561240757600080fd5b833567ffffffffffffffff8082111561241f57600080fd5b61242b87838801611dbd565b9450602086013591508082111561244157600080fd5b5061244e86828701611dbd565b92505061245d60408501611d69565b90509250925092565b6020808252818101527f4f776e61626c653a2063616c6c6572206973206e6f7420746865206f776e6572604082015260600190565b600082516124ad818460208701611ec4565b9190910192915050565b6040815260006124ca6040830185611ef4565b90508260208301529392505050565b600181811c908216806124ed57607f821691505b60208210810361250d57634e487b7160e01b600052602260045260246000fd5b50919050565b634e487b7160e01b600052601160045260246000fd5b6000821982111561253c5761253c612513565b500190565b60a08152600061255460a0830188611ef4565b82810360208401526125668188611ef4565b60408401969096525050606081019290925260809091015292915050565b6060815260006125976060830186611ef4565b6001600160a01b039490941660208301525060400152919050565b634e487b7160e01b600052603260045260246000fd5b6000600182016125da576125da612513565b5060010190565b6040815260006125f46040830185611ef4565b905060018060a01b03831660208301529392505050565b600061014080835261261f8184018e611ef4565b6001600160a01b038d811660208601528c811660408601528b151560608601528a8116608086015284820360a086015290915061265c828a611ef4565b88821660c086015290871660e085015283810361010085015290506126818186611ef4565b90508281036101208401526126968185611ef4565b9d9c50505050505050505050505050565b6000826126c457634e487b7160e01b600052601260045260246000fd5b500490565b60008160001904831182151516156126e3576126e3612513565b500290565b6000828210156126fa576126fa612513565b50039056fea26469706673582212207bfbca7115d61dcbb0b41d00a507a0eb63830daf8c7ddc28290b28e58751a69664736f6c634300080d0033",
  "immutableReferences": {},
  "source": "//SPDX-License-Identifier: UNLICENSED\npragma solidity ^0.8.7;\npragma experimental ABIEncoderV2;\nimport \"@openzeppelin/contracts/access/Ownable.sol\";\n\ncontract combine_beacon is Ownable {\n    struct sFee {\n        uint current_amount;\n        uint replacement_amount;\n        uint256 start;\n    }\n\n    struct sExchange {\n        address current_logic_contract;\n        address replacement_logic_contract;\n        uint256 start;\n    }\n    struct aDiscount {\n        address _user;\n        uint _discount;\n        uint _expires;\n    }\n    struct sDiscount {\n        uint discount_amount;\n        uint expires;\n    }\n\n    struct sExchangeInfo {\n        address chefContract;\n        address routerContract;\n        address rewardToken;\n        address intermediateToken;\n        address baseToken;\n        string pendingCall;\n        string contractType_solo;\n        string contractType_pooled;\n        bool psV2;\n    }\n\n    mapping (string => mapping(string => sFee)) public mFee;\n    mapping (string => sExchange) public mExchanges;\n    mapping (address => sDiscount) public mDiscounts;\n    mapping (string => sExchangeInfo) public mExchangeInfo;\n    mapping (string => address) public mData;\n    mapping (string => uint) public mDataUint;\n\n    bool bitFlip;\n\n    event sdFeeSet(string _exchange, string _function, uint _amount, uint256 _time, uint256 _current);\n    event sdDiscountSet(address _user, uint _discount, uint _expires);\n    event sdDiscountsSet(uint _count);\n    event sdExchangeSet(string  _exchange, address _replacement_logic_contract, uint256 _start);\n    event sdEexchangeInfoSet(string _name, address _chefContract, address _routerContract, bool _psV2, address _rewardToken, string _pendingCall,address _intermediateToken, address _baseToken, string _contractType_solo, string _contractType_pooled);\n    event sdAddressSet(string _name, address _address);\n    event sdDataUintSet(string _key, uint _value);\n\n    ///@notice Calculate fee with discount from user\n    ///@param _exchange Exchange name\n    ///@param _type Type of fee\n    ///@param _user User address\n    ///@return amount - amount of the fee\n    ///@return expires - unix timestamp when the discount expires\n\n    function getFee(string memory _exchange, string memory _type, address _user) external view returns (uint,uint) {\n        uint expires;\n\n        sFee memory rv = mFee[_exchange][_type];\n        sDiscount memory disc = mDiscounts[_user];\n        if (rv.replacement_amount == 0 && rv.current_amount == 0) {\n            rv = mFee['DEFAULT'][_type];\n        }\n\n        uint amount =  (rv.start != 0 && rv.start <= block.timestamp) ? rv.replacement_amount : rv.current_amount;   // \n        bool expired = (disc.discount_amount > 0 && (disc.expires > block.timestamp || disc.expires == 0)) ? false : true;\n\n        if (expired) {            \n            expires = 0;\n        }\n        else {\n            amount = amount - (amount *(disc.discount_amount/100) / (10**18)); \n            expires = disc.expires;\n        }\n\n        return (amount,expires);\n    }\n    ///@notice get a constant setting and check for new value baed on timestamp\n    ///@param _exchange Exchange name\n    ///@param _type Name of constant\n    ///@return value of constant\n\n    function getConst(string memory _exchange, string memory _type) external view returns (uint) {\n        sFee memory rv = mFee[_exchange][_type];\n        if (rv.replacement_amount == 0 && rv.current_amount == 0) {\n            rv = mFee['DEFAULT'][_type];\n        }\n        return (rv.start != 0 && rv.start <= block.timestamp) ? rv.replacement_amount : rv.current_amount;\n    }\n\n    ///@notice Accept a user and discount from the admin only\n    ///@param _user User address\n    ///@param _amount Discount amount\n    ///@param _expires Unix timestamp when the discount expires\n    function setDiscount(address _user, uint _amount, uint _expires) public onlyOwner {\n        require(_amount <= 100 ether,\"Cannot exceed 100%\");\n        mDiscounts[_user].discount_amount = _amount;\n        if (_expires > 0 && _expires < 31536000) {\n            _expires = block.timestamp + _expires;\n        }\n        mDiscounts[_user].expires = _expires;\n        if (mDataUint[\"LASTDISCOUNT\"] != block.timestamp) mDataUint['LASTDISCOUNT'] = block.timestamp;\n        emit sdDiscountSet(_user,_amount,_expires);\n    }\n\n    ///@notice Accept an array of users and discounts from teh admin only\n    ///@param _discount struct array of users and discounts    \n    function setDiscountArray(aDiscount[] calldata  _discount) public onlyOwner{ \n        for (uint i = 0; i < _discount.length; i++) {\n            setDiscount(_discount[i]._user, _discount[i]._discount, _discount[i]._expires);\n        }\n        emit sdDiscountsSet(_discount.length);\n    }\n\n    ///@notice get discount amount for a user\n    ///@param _user User address\n    ///@return discount amount\n    ///@return Unix timestamp when the discount expires\n    function getDiscount(address _user) external view returns (uint,uint) {\n        sDiscount memory disc = mDiscounts[_user];\n        return (disc.discount_amount, disc.expires);\n    }\n\n    ///@notice Sets a fee for an exchange and function\n    ///@param _exchange Exchange name\n    ///@param _type Function name\n    ///@param _replacement_amount Amount of the fee\n    ///@param _start Unix timestamp when the fee starts\n    function setFee(string memory _exchange, string memory _type, uint _replacement_amount, uint256 _start) external onlyOwner {\n        sFee memory rv = mFee[_exchange][_type];\n        \n        if (_start < 1209600) {\n            _start = block.timestamp + _start;\n        }\n        \n        if (rv.start != 0 && rv.start < block.timestamp) {\n            mFee[_exchange][_type].current_amount = mFee[_exchange][_type].replacement_amount;\n        }\n        \n        mFee[_exchange][_type].start = _start;\n        mFee[_exchange][_type].replacement_amount = _replacement_amount;\n\n        if (rv.current_amount == 0) {\n            mFee[_exchange][_type].current_amount = _replacement_amount;\n        }\n        emit sdFeeSet(_exchange,_type,_replacement_amount,_start, block.timestamp);\n    }\n    \n    ///@notice Get logic contract for an exchange\n    ///@param _exchange Exchange name\n    ///@return address of the logic contract\n    function getExchange(string memory _exchange) external view returns(address) {\n        sExchange memory rv = mExchanges[_exchange];\n\n        if (rv.start != 0 && rv.start < block.timestamp) {\n            return rv.replacement_logic_contract;\n        }\n        return rv.current_logic_contract;\n    }\n\n    //@notice Set address for a logic contract that comes into effect at specific timestamp\n    ///@dev set _start to 0 to take effect immediately\n    ///@param _exchange Exchange name\n    ///@param _replacement_logic_contract Address of the logic contract\n    ///@param _start Unix timestamp when the logic contract comes into effect\n    function setExchange(string memory _exchange, address _replacement_logic_contract, uint256 _start) public onlyOwner {\n        sExchange memory rv = mExchanges[_exchange];\n        \n        if (_start < 1209600) {\n            _start = block.timestamp + _start;\n        }\n        \n        if (rv.start != 0 && rv.start <= block.timestamp) {\n            mExchanges[_exchange].current_logic_contract = mExchanges[_exchange].replacement_logic_contract;\n        }\n        \n        mExchanges[_exchange].start = _start;\n        mExchanges[_exchange].replacement_logic_contract = _replacement_logic_contract;\n        if (mExchanges[_exchange].current_logic_contract == address(0) || _start <= block.timestamp) {\n            mExchanges[_exchange].current_logic_contract = _replacement_logic_contract;\n        }\n        emit sdExchangeSet(_exchange, _replacement_logic_contract, _start);\n    }\n    \n    //@notice Set information for exchange\n    ///@param _name Exchange name\n    ///@param _chefContract Address of the MasterChef contract for pool information\n    ///@param _routerContract Address of the Router contract \n    ///@param _rewardToken Address of the reward token for exchange\n    ///@param _pendingCall string of the function in the MasterChef contract that gets the pending reward for a pool\n    ///@param _baseToken FUTURE CODE: Address of the token used as base for all calculations. Currently it is only BNB\n    ///@param _contractType_solo Name of Logic Contract to be called  from \"getExchange\" for solo farming\n    ///@param _contractType_pooled Name of Logic Contract to be called  from \"getExchange\" for pooled farming\n    function setExchangeInfo(string memory _name, address _chefContract, address _routerContract, bool _psV2, address _rewardToken, string memory _pendingCall,address _intermediateToken, address _baseToken, string memory _contractType_solo, string memory _contractType_pooled) public onlyOwner {\n        require(bytes(_name).length > 0, \"Name cannot be empty\");\n        require(_chefContract != address(0), \"Chef contract cannot be empty\");\n        require(_routerContract != address(0), \"Route contract cannot be empty\");\n        require(_rewardToken != address(0), \"Reward token cannot be empty\");\n        require(bytes(_pendingCall).length > 0, \"Pending call cannot be empty\");\n        require(bytes(_contractType_solo).length > 0, \"Contract type cannot be empty\");\n        require(bytes(_contractType_pooled).length > 0, \"Contract type cannot be empty\");\n\n        mExchangeInfo[_name].chefContract = _chefContract;\n        mExchangeInfo[_name].routerContract = _routerContract;\n        mExchangeInfo[_name].psV2 = _psV2;\n        mExchangeInfo[_name].rewardToken = _rewardToken;\n        mExchangeInfo[_name].pendingCall = _pendingCall;\n        mExchangeInfo[_name].intermediateToken = _intermediateToken;\n        mExchangeInfo[_name].baseToken = _baseToken;\n        mExchangeInfo[_name].contractType_solo = _contractType_solo;\n        mExchangeInfo[_name].contractType_pooled = _contractType_pooled;\n        emit sdEexchangeInfoSet(_name, _chefContract, _routerContract, _psV2, _rewardToken, _pendingCall, _intermediateToken, _baseToken, _contractType_solo, _contractType_pooled);        \n    }\n    \n    ///@notice Get information for exchange\n    ///@param _name Exchange name\n    ///@return Structure containing exchange information creaded by setExchangeInfo\n    function getExchangeInfo(string memory _name) external view returns (sExchangeInfo memory) {\n        return mExchangeInfo[_name];\n    }\n\n    ///@notice Get identifier for contract type based on exchange name\n    ///@param _name Exchange name\n    ///@param _type Type of contract (0=solo, 1=pooled)\n    ///@return _contract Name of contract type\n\n    function getContractType(string memory _name, uint _type) public view returns (string memory _contract) {                \n        _contract = _type== 0?mExchangeInfo[_name].contractType_solo:mExchangeInfo[_name].contractType_pooled;\n    }\n\n\n    ///@notice Set address of lookup key (ie. FEECOLLECTOR, ADMINUSER, etc)\n    ///@param _key Key name\n    ///@param _value Address of specified key\n    function setAddress(string memory _key, address _value) public onlyOwner {\n        require(bytes(_key).length > 0, \"Key cannot be empty\");\n        require(_value != address(0), \"Value cannot be empty\");\n        mData[_key] = _value;\n        emit sdAddressSet(_key, _value);\n    }\n\n    ///@notice Get address of lookup key (ie. FEECOLLECTOR, ADMINUSER, etc)\n    ///@param _key Key name\n    ///@return Address of specified key\n    function getAddress(string memory _key) external view returns(address) {\n        return mData[_key];\n    }\n\n    ///@notice Get a uint of lookup key. Mostly used for LAST DEPOSITS\n    ///@param _key Key name\n    ///@return uint of specified key\n    function getDataUint(string memory _key) external view returns (uint) {\n        return mDataUint[_key];\n    }\n\n    ///@notice Set a uint of lookup key. Mostly used for LAST DEPOSITS\n    ///@param _key Key name\n    ///@param _value uint of specified key    \n    function setDataUint(string memory _key, uint _value) external onlyOwner {\n        require(bytes(_key).length > 0, \"Key cannot be empty\");\n        mDataUint[_key] = _value;\n        emit sdDataUintSet(_key, _value);\n    }\n}\n\n",
  "sourcePath": "/mnt/src/crypto/combine_sol/contracts/combine_beacon.sol",
  "compiler": {
    "name": "solc",
    "version": "0.8.13+commit.abaa5c0e.Emscripten.clang"
  },
  "schemaVersion": "3.4.3",
  "updatedAt": "2022-04-21T18:27:09.623Z",
  "devdoc": {
    "kind": "dev",
    "methods": {
      "getAddress(string)": {
        "params": {
          "_key": "Key name"
        },
        "returns": {
          "_0": "Address of specified key"
        }
      },
      "getConst(string,string)": {
        "params": {
          "_exchange": "Exchange name",
          "_type": "Name of constant"
        },
        "returns": {
          "_0": "value of constant"
        }
      },
      "getContractType(string,uint256)": {
        "params": {
          "_name": "Exchange name",
          "_type": "Type of contract (0=solo, 1=pooled)"
        },
        "returns": {
          "_contract": "Name of contract type"
        }
      },
      "getDataUint(string)": {
        "params": {
          "_key": "Key name"
        },
        "returns": {
          "_0": "uint of specified key"
        }
      },
      "getDiscount(address)": {
        "params": {
          "_user": "User address"
        },
        "returns": {
          "_0": "discount amount",
          "_1": "Unix timestamp when the discount expires"
        }
      },
      "getExchange(string)": {
        "params": {
          "_exchange": "Exchange name"
        },
        "returns": {
          "_0": "address of the logic contract"
        }
      },
      "getExchangeInfo(string)": {
        "params": {
          "_name": "Exchange name"
        },
        "returns": {
          "_0": "Structure containing exchange information creaded by setExchangeInfo"
        }
      },
      "getFee(string,string,address)": {
        "params": {
          "_exchange": "Exchange name",
          "_type": "Type of fee",
          "_user": "User address"
        },
        "returns": {
          "_0": "amount - amount of the fee",
          "_1": "expires - unix timestamp when the discount expires"
        }
      },
      "owner()": {
        "details": "Returns the address of the current owner."
      },
      "renounceOwnership()": {
        "details": "Leaves the contract without owner. It will not be possible to call `onlyOwner` functions anymore. Can only be called by the current owner. NOTE: Renouncing ownership will leave the contract without an owner, thereby removing any functionality that is only available to the owner."
      },
      "setAddress(string,address)": {
        "params": {
          "_key": "Key name",
          "_value": "Address of specified key"
        }
      },
      "setDataUint(string,uint256)": {
        "params": {
          "_key": "Key name",
          "_value": "uint of specified key    "
        }
      },
      "setDiscount(address,uint256,uint256)": {
        "params": {
          "_amount": "Discount amount",
          "_expires": "Unix timestamp when the discount expires",
          "_user": "User address"
        }
      },
      "setDiscountArray((address,uint256,uint256)[])": {
        "params": {
          "_discount": "struct array of users and discounts    "
        }
      },
      "setExchange(string,address,uint256)": {
        "details": "set _start to 0 to take effect immediately",
        "params": {
          "_exchange": "Exchange name",
          "_replacement_logic_contract": "Address of the logic contract",
          "_start": "Unix timestamp when the logic contract comes into effect"
        }
      },
      "setExchangeInfo(string,address,address,bool,address,string,address,address,string,string)": {
        "params": {
          "_baseToken": "FUTURE CODE: Address of the token used as base for all calculations. Currently it is only BNB",
          "_chefContract": "Address of the MasterChef contract for pool information",
          "_contractType_pooled": "Name of Logic Contract to be called  from \"getExchange\" for pooled farming",
          "_contractType_solo": "Name of Logic Contract to be called  from \"getExchange\" for solo farming",
          "_name": "Exchange name",
          "_pendingCall": "string of the function in the MasterChef contract that gets the pending reward for a pool",
          "_rewardToken": "Address of the reward token for exchange",
          "_routerContract": "Address of the Router contract "
        }
      },
      "setFee(string,string,uint256,uint256)": {
        "params": {
          "_exchange": "Exchange name",
          "_replacement_amount": "Amount of the fee",
          "_start": "Unix timestamp when the fee starts",
          "_type": "Function name"
        }
      },
      "transferOwnership(address)": {
        "details": "Transfers ownership of the contract to a new account (`newOwner`). Can only be called by the current owner."
      }
    },
    "version": 1
  },
  "userdoc": {
    "kind": "user",
    "methods": {
      "getAddress(string)": {
        "notice": "Get address of lookup key (ie. FEECOLLECTOR, ADMINUSER, etc)"
      },
      "getConst(string,string)": {
        "notice": "get a constant setting and check for new value baed on timestamp"
      },
      "getContractType(string,uint256)": {
        "notice": "Get identifier for contract type based on exchange name"
      },
      "getDataUint(string)": {
        "notice": "Get a uint of lookup key. Mostly used for LAST DEPOSITS"
      },
      "getDiscount(address)": {
        "notice": "get discount amount for a user"
      },
      "getExchange(string)": {
        "notice": "Get logic contract for an exchange"
      },
      "getExchangeInfo(string)": {
        "notice": "Get information for exchange"
      },
      "getFee(string,string,address)": {
        "notice": "Calculate fee with discount from user"
      },
      "setAddress(string,address)": {
        "notice": "Set address of lookup key (ie. FEECOLLECTOR, ADMINUSER, etc)"
      },
      "setDataUint(string,uint256)": {
        "notice": "Set a uint of lookup key. Mostly used for LAST DEPOSITS"
      },
      "setDiscount(address,uint256,uint256)": {
        "notice": "Accept a user and discount from the admin only"
      },
      "setDiscountArray((address,uint256,uint256)[])": {
        "notice": "Accept an array of users and discounts from teh admin only"
      },
      "setFee(string,string,uint256,uint256)": {
        "notice": "Sets a fee for an exchange and function"
      }
    },
    "version": 1
  }
}