{
  "contractName": "combineApp",
  "abi": [
    {
      "inputs": [
        {
          "internalType": "uint256",
          "name": "_poolID",
          "type": "uint256"
        }
      ],
      "name": "InactivePool",
      "type": "error"
    },
    {
      "inputs": [
        {
          "internalType": "string",
          "name": "param",
          "type": "string"
        }
      ],
      "name": "RequiredParameter",
      "type": "error"
    },
    {
      "inputs": [],
      "name": "SlotOutOfBounds",
      "type": "error"
    },
    {
      "inputs": [],
      "name": "sdInitializedError",
      "type": "error"
    },
    {
      "inputs": [],
      "name": "sdInsufficentBalance",
      "type": "error"
    },
    {
      "inputs": [],
      "name": "sdInsufficentFunds",
      "type": "error"
    },
    {
      "inputs": [],
      "name": "sdLocked",
      "type": "error"
    },
    {
      "inputs": [
        {
          "internalType": "string",
          "name": "param",
          "type": "string"
        }
      ],
      "name": "sdRequiredParameter",
      "type": "error"
    },
    {
      "anonymous": false,
      "inputs": [
        {
          "indexed": true,
          "internalType": "address",
          "name": "previousOwner",
          "type": "address"
        },
        {
          "indexed": true,
          "internalType": "address",
          "name": "newOwner",
          "type": "address"
        }
      ],
      "name": "OwnershipTransferred",
      "type": "event"
    },
    {
      "anonymous": false,
      "inputs": [
        {
          "indexed": true,
          "internalType": "bytes32",
          "name": "role",
          "type": "bytes32"
        },
        {
          "indexed": true,
          "internalType": "bytes32",
          "name": "previousAdminRole",
          "type": "bytes32"
        },
        {
          "indexed": true,
          "internalType": "bytes32",
          "name": "newAdminRole",
          "type": "bytes32"
        }
      ],
      "name": "RoleAdminChanged",
      "type": "event"
    },
    {
      "anonymous": false,
      "inputs": [
        {
          "indexed": true,
          "internalType": "bytes32",
          "name": "role",
          "type": "bytes32"
        },
        {
          "indexed": true,
          "internalType": "address",
          "name": "account",
          "type": "address"
        },
        {
          "indexed": true,
          "internalType": "address",
          "name": "sender",
          "type": "address"
        }
      ],
      "name": "RoleGranted",
      "type": "event"
    },
    {
      "anonymous": false,
      "inputs": [
        {
          "indexed": true,
          "internalType": "bytes32",
          "name": "role",
          "type": "bytes32"
        },
        {
          "indexed": true,
          "internalType": "address",
          "name": "account",
          "type": "address"
        },
        {
          "indexed": true,
          "internalType": "address",
          "name": "sender",
          "type": "address"
        }
      ],
      "name": "RoleRevoked",
      "type": "event"
    },
    {
      "anonymous": false,
      "inputs": [
        {
          "indexed": false,
          "internalType": "uint256",
          "name": "amount",
          "type": "uint256"
        }
      ],
      "name": "sdDeposit",
      "type": "event"
    },
    {
      "anonymous": false,
      "inputs": [
        {
          "indexed": false,
          "internalType": "uint256",
          "name": "amount",
          "type": "uint256"
        },
        {
          "indexed": false,
          "internalType": "uint256",
          "name": "total",
          "type": "uint256"
        }
      ],
      "name": "sdFeeSent",
      "type": "event"
    },
    {
      "anonymous": false,
      "inputs": [
        {
          "indexed": false,
          "internalType": "address",
          "name": "_harvester",
          "type": "address"
        }
      ],
      "name": "sdHarvesterAdd",
      "type": "event"
    },
    {
      "anonymous": false,
      "inputs": [
        {
          "indexed": false,
          "internalType": "address",
          "name": "_harvester",
          "type": "address"
        }
      ],
      "name": "sdHarvesterRemove",
      "type": "event"
    },
    {
      "anonymous": false,
      "inputs": [
        {
          "indexed": false,
          "internalType": "uint256",
          "name": "amount",
          "type": "uint256"
        },
        {
          "indexed": false,
          "internalType": "uint256",
          "name": "total",
          "type": "uint256"
        }
      ],
      "name": "sdHoldBack",
      "type": "event"
    },
    {
      "anonymous": false,
      "inputs": [
        {
          "indexed": false,
          "internalType": "uint64",
          "name": "_poolId",
          "type": "uint64"
        },
        {
          "indexed": false,
          "internalType": "address",
          "name": "_beacon",
          "type": "address"
        },
        {
          "indexed": false,
          "internalType": "string",
          "name": "_exchangeName",
          "type": "string"
        },
        {
          "indexed": false,
          "internalType": "address",
          "name": "_owner",
          "type": "address"
        }
      ],
      "name": "sdInitialize",
      "type": "event"
    },
    {
      "anonymous": false,
      "inputs": [
        {
          "indexed": false,
          "internalType": "uint64",
          "name": "poolId",
          "type": "uint64"
        },
        {
          "indexed": false,
          "internalType": "address",
          "name": "lpContract",
          "type": "address"
        }
      ],
      "name": "sdInitialized",
      "type": "event"
    },
    {
      "anonymous": false,
      "inputs": [
        {
          "indexed": false,
          "internalType": "uint256",
          "name": "farmIn",
          "type": "uint256"
        },
        {
          "indexed": false,
          "internalType": "uint256",
          "name": "wethIn",
          "type": "uint256"
        },
        {
          "indexed": false,
          "internalType": "uint256",
          "name": "lpOut",
          "type": "uint256"
        }
      ],
      "name": "sdLiquidityProvided",
      "type": "event"
    },
    {
      "anonymous": false,
      "inputs": [
        {
          "indexed": false,
          "internalType": "uint64",
          "name": "oldPool",
          "type": "uint64"
        },
        {
          "indexed": false,
          "internalType": "uint256",
          "name": "newPool",
          "type": "uint256"
        }
      ],
      "name": "sdNewPool",
      "type": "event"
    },
    {
      "anonymous": false,
      "inputs": [
        {
          "indexed": false,
          "internalType": "address",
          "name": "_token",
          "type": "address"
        },
        {
          "indexed": false,
          "internalType": "uint256",
          "name": "_amount",
          "type": "uint256"
        }
      ],
      "name": "sdRescueToken",
      "type": "event"
    },
    {
      "anonymous": false,
      "inputs": [
        {
          "indexed": false,
          "internalType": "string",
          "name": "message",
          "type": "string"
        },
        {
          "indexed": false,
          "internalType": "uint256",
          "name": "value",
          "type": "uint256"
        }
      ],
      "name": "sdUintLog",
      "type": "event"
    },
    {
      "anonymous": false,
      "inputs": [
        {
          "indexed": false,
          "internalType": "string",
          "name": "message",
          "type": "string"
        },
        {
          "indexed": false,
          "internalType": "uint256[]",
          "name": "value",
          "type": "uint256[]"
        }
      ],
      "name": "sdUintLog",
      "type": "event"
    },
    {
      "inputs": [],
      "name": "DEFAULT_ADMIN_ROLE",
      "outputs": [
        {
          "internalType": "bytes32",
          "name": "",
          "type": "bytes32"
        }
      ],
      "stateMutability": "view",
      "type": "function"
    },
    {
      "inputs": [],
      "name": "HARVESTER",
      "outputs": [
        {
          "internalType": "bytes32",
          "name": "",
          "type": "bytes32"
        }
      ],
      "stateMutability": "view",
      "type": "function"
    },
    {
      "inputs": [],
      "name": "beaconContract",
      "outputs": [
        {
          "internalType": "address",
          "name": "",
          "type": "address"
        }
      ],
      "stateMutability": "view",
      "type": "function"
    },
    {
      "inputs": [],
      "name": "exchange",
      "outputs": [
        {
          "internalType": "string",
          "name": "",
          "type": "string"
        }
      ],
      "stateMutability": "view",
      "type": "function"
    },
    {
      "inputs": [
        {
          "internalType": "bytes32",
          "name": "role",
          "type": "bytes32"
        }
      ],
      "name": "getRoleAdmin",
      "outputs": [
        {
          "internalType": "bytes32",
          "name": "",
          "type": "bytes32"
        }
      ],
      "stateMutability": "view",
      "type": "function"
    },
    {
      "inputs": [
        {
          "internalType": "bytes32",
          "name": "role",
          "type": "bytes32"
        },
        {
          "internalType": "address",
          "name": "account",
          "type": "address"
        }
      ],
      "name": "grantRole",
      "outputs": [],
      "stateMutability": "nonpayable",
      "type": "function"
    },
    {
      "inputs": [
        {
          "internalType": "bytes32",
          "name": "role",
          "type": "bytes32"
        },
        {
          "internalType": "address",
          "name": "account",
          "type": "address"
        }
      ],
      "name": "hasRole",
      "outputs": [
        {
          "internalType": "bool",
          "name": "",
          "type": "bool"
        }
      ],
      "stateMutability": "view",
      "type": "function"
    },
    {
      "inputs": [],
      "name": "holdBack",
      "outputs": [
        {
          "internalType": "uint64",
          "name": "",
          "type": "uint64"
        }
      ],
      "stateMutability": "view",
      "type": "function"
    },
    {
      "inputs": [],
      "name": "lastGas",
      "outputs": [
        {
          "internalType": "uint256",
          "name": "",
          "type": "uint256"
        }
      ],
      "stateMutability": "view",
      "type": "function"
    },
    {
      "inputs": [],
      "name": "logic_contract",
      "outputs": [
        {
          "internalType": "address",
          "name": "",
          "type": "address"
        }
      ],
      "stateMutability": "view",
      "type": "function"
    },
    {
      "inputs": [],
      "name": "owner",
      "outputs": [
        {
          "internalType": "address",
          "name": "",
          "type": "address"
        }
      ],
      "stateMutability": "view",
      "type": "function"
    },
    {
      "inputs": [],
      "name": "renounceOwnership",
      "outputs": [],
      "stateMutability": "nonpayable",
      "type": "function"
    },
    {
      "inputs": [
        {
          "internalType": "bytes32",
          "name": "role",
          "type": "bytes32"
        },
        {
          "internalType": "address",
          "name": "account",
          "type": "address"
        }
      ],
      "name": "renounceRole",
      "outputs": [],
      "stateMutability": "nonpayable",
      "type": "function"
    },
    {
      "inputs": [
        {
          "internalType": "bytes32",
          "name": "role",
          "type": "bytes32"
        },
        {
          "internalType": "address",
          "name": "account",
          "type": "address"
        }
      ],
      "name": "revokeRole",
      "outputs": [],
      "stateMutability": "nonpayable",
      "type": "function"
    },
    {
      "inputs": [
        {
          "internalType": "uint256",
          "name": "",
          "type": "uint256"
        }
      ],
      "name": "slots",
      "outputs": [
        {
          "internalType": "uint256",
          "name": "poolId",
          "type": "uint256"
        },
        {
          "internalType": "string",
          "name": "exchangeName",
          "type": "string"
        },
        {
          "internalType": "address",
          "name": "lpContract",
          "type": "address"
        },
        {
          "internalType": "address",
          "name": "token0",
          "type": "address"
        },
        {
          "internalType": "address",
          "name": "token1",
          "type": "address"
        }
      ],
      "stateMutability": "view",
      "type": "function"
    },
    {
      "inputs": [
        {
          "internalType": "bytes4",
          "name": "interfaceId",
          "type": "bytes4"
        }
      ],
      "name": "supportsInterface",
      "outputs": [
        {
          "internalType": "bool",
          "name": "",
          "type": "bool"
        }
      ],
      "stateMutability": "view",
      "type": "function"
    },
    {
      "inputs": [
        {
          "internalType": "address",
          "name": "newOwner",
          "type": "address"
        }
      ],
      "name": "transferOwnership",
      "outputs": [],
      "stateMutability": "nonpayable",
      "type": "function"
    },
    {
      "stateMutability": "payable",
      "type": "receive"
    },
    {
      "inputs": [
        {
          "internalType": "uint64",
          "name": "_poolId",
          "type": "uint64"
        },
        {
          "internalType": "address",
          "name": "_beacon",
          "type": "address"
        },
        {
          "internalType": "string",
          "name": "_exchangeName",
          "type": "string"
        },
        {
          "internalType": "address",
          "name": "_owner",
          "type": "address"
        }
      ],
      "name": "initialize",
      "outputs": [],
      "stateMutability": "payable",
      "type": "function"
    },
    {
      "inputs": [
        {
          "internalType": "address",
          "name": "_address",
          "type": "address"
        }
      ],
      "name": "addHarvester",
      "outputs": [],
      "stateMutability": "nonpayable",
      "type": "function"
    },
    {
      "inputs": [
        {
          "internalType": "address",
          "name": "_address",
          "type": "address"
        }
      ],
      "name": "removeHarvester",
      "outputs": [],
      "stateMutability": "nonpayable",
      "type": "function"
    },
    {
      "inputs": [
        {
          "internalType": "uint64",
          "name": "_poolId",
          "type": "uint64"
        },
        {
          "internalType": "string",
          "name": "_exchangeName",
          "type": "string"
        }
      ],
      "name": "deposit",
      "outputs": [],
      "stateMutability": "payable",
      "type": "function"
    },
    {
      "inputs": [
        {
          "internalType": "uint64",
          "name": "_fromPoolId",
          "type": "uint64"
        },
        {
          "internalType": "string",
          "name": "_fromExchangeName",
          "type": "string"
        },
        {
          "internalType": "uint64",
          "name": "_toPoolId",
          "type": "uint64"
        },
        {
          "internalType": "string",
          "name": "_toExchangeName",
          "type": "string"
        }
      ],
      "name": "swapPool",
      "outputs": [],
      "stateMutability": "nonpayable",
      "type": "function"
    },
    {
      "inputs": [
        {
          "internalType": "uint64",
          "name": "_fromPoolId",
          "type": "uint64"
        },
        {
          "internalType": "string",
          "name": "_fromExchangeName",
          "type": "string"
        },
        {
          "internalType": "address",
          "name": "_toContract",
          "type": "address"
        },
        {
          "internalType": "uint64",
          "name": "_toPoolId",
          "type": "uint64"
        },
        {
          "internalType": "string",
          "name": "_toExchangeName",
          "type": "string"
        }
      ],
      "name": "swapContractPool",
      "outputs": [],
      "stateMutability": "nonpayable",
      "type": "function"
    },
    {
      "inputs": [
        {
          "internalType": "uint64",
          "name": "_poolId",
          "type": "uint64"
        },
        {
          "internalType": "string",
          "name": "_exchangeName",
          "type": "string"
        }
      ],
      "name": "pendingReward",
      "outputs": [
        {
          "internalType": "uint256",
          "name": "",
          "type": "uint256"
        }
      ],
      "stateMutability": "view",
      "type": "function"
    },
    {
      "inputs": [
        {
          "internalType": "uint64",
          "name": "_poolId",
          "type": "uint64"
        },
        {
          "internalType": "string",
          "name": "_exchangeName",
          "type": "string"
        }
      ],
      "name": "liquidate",
      "outputs": [],
      "stateMutability": "nonpayable",
      "type": "function"
    },
    {
      "inputs": [
        {
          "internalType": "uint64",
          "name": "_holdback",
          "type": "uint64"
        }
      ],
      "name": "setHoldBack",
      "outputs": [],
      "stateMutability": "nonpayable",
      "type": "function"
    },
    {
      "inputs": [],
      "name": "sendHoldBack",
      "outputs": [],
      "stateMutability": "nonpayable",
      "type": "function"
    },
    {
      "inputs": [
        {
          "internalType": "uint64",
          "name": "_poolId",
          "type": "uint64"
        },
        {
          "internalType": "string",
          "name": "_exchangeName",
          "type": "string"
        }
      ],
      "name": "harvest",
      "outputs": [],
      "stateMutability": "nonpayable",
      "type": "function"
    },
    {
      "inputs": [
        {
          "internalType": "address",
          "name": "token",
          "type": "address"
        }
      ],
      "name": "rescueToken",
      "outputs": [],
      "stateMutability": "nonpayable",
      "type": "function"
    },
    {
      "inputs": [
        {
          "internalType": "uint64",
          "name": "_poolId",
          "type": "uint64"
        },
        {
          "internalType": "string",
          "name": "_exchangeName",
          "type": "string"
        }
      ],
      "name": "updatePool",
      "outputs": [],
      "stateMutability": "nonpayable",
      "type": "function"
    },
    {
      "inputs": [
        {
          "internalType": "uint64",
          "name": "_poolId",
          "type": "uint64"
        },
        {
          "internalType": "string",
          "name": "_exchangeName",
          "type": "string"
        }
      ],
      "name": "userInfo",
      "outputs": [
        {
          "internalType": "uint256",
          "name": "",
          "type": "uint256"
        },
        {
          "internalType": "uint256",
          "name": "",
          "type": "uint256"
        },
        {
          "internalType": "uint256",
          "name": "",
          "type": "uint256"
        },
        {
          "internalType": "uint256",
          "name": "",
          "type": "uint256"
        },
        {
          "internalType": "uint256",
          "name": "",
          "type": "uint256"
        },
        {
          "internalType": "uint256",
          "name": "",
          "type": "uint256"
        }
      ],
      "stateMutability": "view",
      "type": "function"
    },
    {
      "inputs": [
        {
          "internalType": "uint64",
          "name": "_poolId",
          "type": "uint64"
        },
        {
          "internalType": "string",
          "name": "_exchangeName",
          "type": "string"
        }
      ],
      "name": "getSlot",
      "outputs": [
        {
          "components": [
            {
              "internalType": "uint64",
              "name": "poolId",
              "type": "uint64"
            },
            {
              "internalType": "string",
              "name": "exchangeName",
              "type": "string"
            },
            {
              "internalType": "address",
              "name": "lpContract",
              "type": "address"
            },
            {
              "internalType": "address",
              "name": "token0",
              "type": "address"
            },
            {
              "internalType": "address",
              "name": "token1",
              "type": "address"
            },
            {
              "internalType": "address",
              "name": "chefContract",
              "type": "address"
            },
            {
              "internalType": "address",
              "name": "routerContract",
              "type": "address"
            },
            {
              "internalType": "address",
              "name": "rewardToken",
              "type": "address"
            },
            {
              "internalType": "string",
              "name": "pendingCall",
              "type": "string"
            },
            {
              "internalType": "address",
              "name": "intermediateToken",
              "type": "address"
            }
          ],
          "internalType": "struct slotsLib.sSlots",
          "name": "",
          "type": "tuple"
        }
      ],
      "stateMutability": "view",
      "type": "function"
    }
  ],
  "bytecode": "0x60806040523480156200001157600080fd5b506200001d3362000023565b62000075565b601180546001600160a01b038381166001600160a01b0319831681179093556040519116919082907f8be0079c531659141344cd1fd0a4f28419497f9722a3daafe3b4186f6b6457e090600090a35050565b615ff980620000856000396000f3fe6080604052600436106101e75760003560e01c80638fab591711610102578063cb9d9fa711610095578063e2eea22c11610064578063e2eea22c146105c8578063ea3fd42e146105e8578063f1ed7dc714610608578063f2fde38b1461064057600080fd5b8063cb9d9fa71461054e578063d2f7265a14610570578063d547741f14610592578063dc5d3a17146105b257600080fd5b80639f9476a7116100d15780639f9476a7146104ac578063a217fddf146104f9578063aff660951461050e578063c6e0e6051461052e57600080fd5b80638fab59171461043757806391d148541461045757806393c9c352146104775780639ad2dd871461048c57600080fd5b80634de943201161017a5780637091a2e5116101495780637091a2e5146103d1578063715018a6146103f15780638da5cb5b146104065780638dee90701461042457600080fd5b80634de943201461034657806354bb38231461037e578063611b8b2e1461039157806365034451146103b157600080fd5b806336568abe116101b657806336568abe146102b5578063387dd9e9146102d55780633dac336d146103065780634460d3cf1461032657600080fd5b806301ffc9a7146101f3578063248a9ca3146102285780632d9d97e2146102665780632f2ff15d1461029357600080fd5b366101ee57005b600080fd5b3480156101ff57600080fd5b5061021361020e366004615103565b610660565b60405190151581526020015b60405180910390f35b34801561023457600080fd5b5061025861024336600461512d565b60009081526012602052604090206001015490565b60405190815260200161021f565b34801561027257600080fd5b50610286610281366004615247565b610697565b60405161021f91906152f2565b34801561029f57600080fd5b506102b36102ae366004615404565b6106cb565b005b3480156102c157600080fd5b506102b36102d0366004615404565b6106f6565b3480156102e157600080fd5b506102f56102f036600461512d565b610779565b60405161021f959493929190615434565b34801561031257600080fd5b506102b3610321366004615477565b610852565b34801561033257600080fd5b506102b3610341366004615494565b6108f5565b34801561035257600080fd5b50600254610366906001600160a01b031681565b6040516001600160a01b03909116815260200161021f565b6102b361038c3660046154b1565b610a4c565b34801561039d57600080fd5b506102b36103ac366004615247565b610c9b565b3480156103bd57600080fd5b50600454610366906001600160a01b031681565b3480156103dd57600080fd5b506102b36103ec366004615247565b610e1d565b3480156103fd57600080fd5b506102b3610e9a565b34801561041257600080fd5b506011546001600160a01b0316610366565b6102b3610432366004615247565b610ed0565b34801561044357600080fd5b506102b3610452366004615494565b610f57565b34801561046357600080fd5b50610213610472366004615404565b610fd2565b34801561048357600080fd5b506102b3610ffd565b34801561049857600080fd5b506102b36104a7366004615525565b611100565b3480156104b857600080fd5b506104cc6104c7366004615247565b611260565b604080519687526020870195909552938501929092526060840152608083015260a082015260c00161021f565b34801561050557600080fd5b50610258600081565b34801561051a57600080fd5b506102b3610529366004615494565b61141b565b34801561053a57600080fd5b506102b36105493660046155c4565b611496565b34801561055a57600080fd5b50610258600080516020615fa483398151915281565b34801561057c57600080fd5b5061058561160e565b60405161021f919061564e565b34801561059e57600080fd5b506102b36105ad366004615404565b61169c565b3480156105be57600080fd5b5061025860015481565b3480156105d457600080fd5b506102586105e3366004615247565b6116c2565b3480156105f457600080fd5b506102b3610603366004615247565b6116e2565b34801561061457600080fd5b50600054610628906001600160401b031681565b6040516001600160401b03909116815260200161021f565b34801561064c57600080fd5b506102b361065b366004615494565b611872565b60006001600160e01b03198216637965db0b60e01b148061069157506301ffc9a760e01b6001600160e01b03198316145b92915050565b61069f614f5f565b6004546106c4906001600160401b0385169084906010906001600160a01b031661190d565b9392505050565b6000828152601260205260409020600101546106e78133611c8e565b6106f18383611cf2565b505050565b6001600160a01b038116331461076b5760405162461bcd60e51b815260206004820152602f60248201527f416363657373436f6e74726f6c3a2063616e206f6e6c792072656e6f756e636560448201526e103937b632b9903337b91039b2b63360891b60648201526084015b60405180910390fd5b6107758282611d78565b5050565b6010818154811061078957600080fd5b600091825260209091206005909102018054600182018054919350906107ae90615661565b80601f01602080910402602001604051908101604052809291908181526020018280546107da90615661565b80156108275780601f106107fc57610100808354040283529160200191610827565b820191906000526020600020905b81548152906001019060200180831161080a57829003601f168201915b505050506002830154600384015460049094015492936001600160a01b039182169390821692501685565b6011546001600160a01b0316331461087c5760405162461bcd60e51b81526004016107629061569b565b6000805467ffffffffffffffff19166001600160401b0383169081179091556040805181815260089181019190915267686f6c646261636b60c01b606082015260208101919091527f715ed3cd24887b619d3d2da2885c7d1b21168674116e771e308e978be95934d8906080015b60405180910390a150565b6011546001600160a01b0316331461091f5760405162461bcd60e51b81526004016107629061569b565b6040516370a0823160e01b81523060048201526000906001600160a01b038316906370a0823190602401602060405180830381865afa158015610966573d6000803e3d6000fd5b505050506040513d601f19601f8201168201806040525081019061098a91906156d0565b9050816001600160a01b031663a9059cbb6109ad6011546001600160a01b031690565b836040518363ffffffff1660e01b81526004016109cb9291906156e9565b6020604051808303816000875af11580156109ea573d6000803e3d6000fd5b505050506040513d601f19601f82011682018060405250810190610a0e9190615717565b507f746746ac44b7e67ef64ac95235dedba141b50f126cf1ee4d6df64ba8f2db88288282604051610a409291906156e9565b60405180910390a15050565b6011546001600160a01b03163314610a765760405162461bcd60e51b81526004016107629061569b565b600e54610100900460ff161515600103610aa357604051631e5d0f9d60e11b815260040160405180910390fd5b600e805461ff001916610100179055600480546001600160a01b0385166001600160a01b03199091168117825560405163bf40fac160e01b815260009263bf40fac191610b0e91016020808252600990820152682420a92b22a9aa22a960b91b604082015260600190565b602060405180830381865afa158015610b2b573d6000803e3d6000fd5b505050506040513d601f19601f82011682018060405250810190610b4f919061573d565b6004805460405163bf40fac160e01b81529293506001600160a01b03169163bf40fac191610b9e91016020808252600c908201526b2322a2a1a7a62622a1aa27a960a11b604082015260600190565b602060405180830381865afa158015610bbb573d6000803e3d6000fd5b505050506040513d601f19601f82011682018060405250810190610bdf919061573d565b600380546001600160a01b0319166001600160a01b0392909216919091179055610c17600080516020615fa483398151915282611ddf565b610c336000610c2e6011546001600160a01b031690565b611ddf565b6000805467ffffffffffffffff19169055610c4e8584611de9565b610c5782611872565b7fd66b9774701c93571723ccd53d767d583300ae5b5dc0fe4ac8b0856565de15fd85858585604051610c8c949392919061575a565b60405180910390a15050505050565b600e5460ff161515600103610cc357604051638616e3bb60e01b815260040160405180910390fd5b600e805460ff19166001179055610ce8600080516020615fa483398151915233610fd2565b80610d0c575033610d016011546001600160a01b031690565b6001600160a01b0316145b610d285760405162461bcd60e51b81526004016107629061579f565b6000610d348383610697565b6004805460405163d95ad37160e01b81529293506000926001600160a01b039091169163d95ad37191610d6791016157cc565b6020604051808303816000875af1158015610d86573d6000803e3d6000fd5b505050506040513d601f19601f82011682018060405250810190610daa9190615820565b90506000816001600160401b03165a610dc590615208615853565b610dcf9190615853565b90506000610dde846001611ea3565b9050610dea84826121cb565b6011546001600160a01b03163314610e0b575a610e07908361586b565b6001555b5050600e805460ff1916905550505050565b6000610e298383610697565b60a081015181516040516328f582d360e11b81526001600160401b0390911660048201529192506001600160a01b0316906351eb05a690602401600060405180830381600087803b158015610e7d57600080fd5b505af1158015610e91573d6000803e3d6000fd5b50505050505050565b6011546001600160a01b03163314610ec45760405162461bcd60e51b81526004016107629061569b565b610ece60006123c4565b565b600454600090610eef90849084906010906001600160a01b0316612416565b9050346000610efd83612725565b90508015610f1d57610f10836000611ea3565b610f1a9083615853565b91505b610f2783836121cb565b6040518281527fb371d8e5053de89890d88e48d9a957d6a92527d176d7c909c0ab806e5cdbc84790602001610c8c565b6011546001600160a01b03163314610f815760405162461bcd60e51b81526004016107629061569b565b610f99600080516020615fa483398151915282611ddf565b6040516001600160a01b03821681527f1f938bf9dbd915b6999411f417532fd6c4a4e9ee127102237c8ee98d556019f7906020016108ea565b60009182526012602090815260408084206001600160a01b0393909316845291905290205460ff1690565b6011546001600160a01b031633146110275760405162461bcd60e51b81526004016107629061569b565b600e5460ff16151560010361104f57604051638616e3bb60e01b815260040160405180910390fd5b600e805460ff1916600117905547600081900361107f5760405163024ba11760e31b815260040160405180910390fd5b6011546040516001600160a01b039091169082156108fc029083906000818181858888f193505050501580156110b9573d6000803e3d6000fd5b5060408051828152602081018390527f2d2fdf8fe0a28febf1b874bc9ab0285dd0aa1a5ff1a73e7befec062d2e2a2b90910160405180910390a150600e805460ff19169055565b611118600080516020615fa483398151915233610fd2565b8061113c5750336111316011546001600160a01b031690565b6001600160a01b0316145b6111585760405162461bcd60e51b81526004016107629061579f565b60006111648686610697565b905080600001516001600160401b0316836001600160401b0316036111c057604051631f05b62760e11b815260206004820152601160248201527013995dc81c1bdbdb081c995c5d5a5c9959607a1b6044820152606401610762565b6111c981612892565b6111d281612c01565b4760008190036111f55760405163024ba11760e31b815260040160405180910390fd5b6040516308dee90760e41b81526001600160a01b03861690638dee90709083906112259088908890600401615882565b6000604051808303818588803b15801561123e57600080fd5b505af1158015611252573d6000803e3d6000fd5b505050505050505050505050565b600080600080600080611281600080516020615fa483398151915233610fd2565b806112a557503361129a6011546001600160a01b031690565b6001600160a01b0316145b6112c15760405162461bcd60e51b81526004016107629061579f565b60006112cd8989610697565b60408101519091506001600160a01b03166112fd5760008060008060008096509650965096509650965050611411565b60a081015181516040516393f1a40b60e01b815260009283926001600160a01b03909116916393f1a40b916113369130906004016158a4565b6040805180830381865afa158015611352573d6000803e3d6000fd5b505050506040513d601f19601f8201168201806040525081019061137691906158c6565b9150915060008061138685612dd6565b60e08701516040516370a0823160e01b81523060048201529294509092506000916001600160a01b03909116906370a0823190602401602060405180830381865afa1580156113d9573d6000803e3d6000fd5b505050506040513d601f19601f820116820180604052508101906113fd91906156d0565b949b50929950909750955090935047925050505b9295509295509295565b6011546001600160a01b031633146114455760405162461bcd60e51b81526004016107629061569b565b61145d600080516020615fa48339815191528261169c565b6040516001600160a01b03821681527fcb70a184c46c28acea35db867284ba8cf1ca6b88b8326e657b6ecb3c14a3a871906020016108ea565b6114ae600080516020615fa483398151915233610fd2565b806114d25750336114c76011546001600160a01b031690565b6001600160a01b0316145b6114ee5760405162461bcd60e51b81526004016107629061579f565b60006114fa8585610697565b905080600001516001600160401b0316836001600160401b03160361155657604051631f05b62760e11b815260206004820152601160248201527013995dc81c1bdbdb081c995c5d5a5c9959607a1b6044820152606401610762565b61155f81612892565b61156881612c01565b47600081900361158b5760405163024ba11760e31b815260040160405180910390fd5b6004546115b6906001600160401b0380891691889188169087906010906001600160a01b0316612ebf565b91506115c282826121cb565b604080516001600160401b038089168252861660208201527f276507b8409e96839105b040c4e961ae63d3fced6e9ea1c4152dd0313688130091015b60405180910390a1505050505050565b600f805461161b90615661565b80601f016020809104026020016040519081016040528092919081815260200182805461164790615661565b80156116945780601f1061166957610100808354040283529160200191611694565b820191906000526020600020905b81548152906001019060200180831161167757829003601f168201915b505050505081565b6000828152601260205260409020600101546116b88133611c8e565b6106f18383611d78565b6000806116cf8484610697565b90506116da81612725565b949350505050565b6011546001600160a01b0316331461170c5760405162461bcd60e51b81526004016107629061569b565b600e5460ff16151560010361173457604051638616e3bb60e01b815260040160405180910390fd5b600e805460ff19166001179055600061174d8383610697565b905061175a816000611ea3565b5061176481612892565b61176d81612c01565b600047905061178f82600001516001600160401b031683602001516010612f1d565b506117bd604051806040016040528060098152602001684c495155494441544560b81b8152508260006130bc565b90506117d16011546001600160a01b031690565b6001600160a01b03166108fc829081150290604051600060405180830381858888f19350505050158015611809573d6000803e3d6000fd5b5060408051818152600f818301526e131a5c5d5a59185d1948151bdd185b608a1b60608201526020810183905290517f715ed3cd24887b619d3d2da2885c7d1b21168674116e771e308e978be95934d89181900360800190a15050600e805460ff191690555050565b6011546001600160a01b0316331461189c5760405162461bcd60e51b81526004016107629061569b565b6001600160a01b0381166119015760405162461bcd60e51b815260206004820152602660248201527f4f776e61626c653a206e6577206f776e657220697320746865207a65726f206160448201526564647265737360d01b6064820152608401610762565b61190a816123c4565b50565b611915614f5f565b6000611922868686613222565b9050611930606460016158ea565b6001600160401b0316816001600160401b0316036119bf5760408051610140810182526001600160401b039092168252805160208181018352600080835281850192909252838301829052606084018290526080840182905260a0840182905260c0840182905260e08401829052825190810190925280825261010083019190915261012082015290506116da565b6000836001600160a01b031663c42465e386846001600160401b0316815481106119eb576119eb615915565b90600052602060002090600502016001016040518263ffffffff1660e01b8152600401611a18919061592b565b600060405180830381865afa158015611a35573d6000803e3d6000fd5b505050506040513d6000823e601f3d908101601f19168201604052611a5d91908101906159f5565b905060405180610140016040528086846001600160401b031681548110611a8657611a86615915565b9060005260206000209060050201600001546001600160401b0316815260200186846001600160401b031681548110611ac157611ac1615915565b90600052602060002090600502016001018054611add90615661565b80601f0160208091040260200160405190810160405280929190818152602001828054611b0990615661565b8015611b565780601f10611b2b57610100808354040283529160200191611b56565b820191906000526020600020905b815481529060010190602001808311611b3957829003601f168201915b5050505050815260200186846001600160401b031681548110611b7b57611b7b615915565b6000918252602091829020600260059092020101546001600160a01b03168252875491019087906001600160401b038616908110611bbb57611bbb615915565b6000918252602091829020600360059092020101546001600160a01b03168252875491019087906001600160401b038616908110611bfb57611bfb615915565b906000526020600020906005020160040160009054906101000a90046001600160a01b03166001600160a01b0316815260200182600001516001600160a01b0316815260200182602001516001600160a01b0316815260200182604001516001600160a01b031681526020018260a00151815260200182606001516001600160a01b031681525092505050949350505050565b611c988282610fd2565b61077557611cb0816001600160a01b031660146132e4565b611cbb8360206132e4565b604051602001611ccc929190615b15565b60408051601f198184030181529082905262461bcd60e51b82526107629160040161564e565b611cfc8282610fd2565b6107755760008281526012602090815260408083206001600160a01b03851684529091529020805460ff19166001179055611d343390565b6001600160a01b0316816001600160a01b0316837f2f8788117e7eff1d82e926ec794901d17c78024a50270940304540a733656f0d60405160405180910390a45050565b611d828282610fd2565b156107755760008281526012602090815260408083206001600160a01b0385168085529252808320805460ff1916905551339285917ff6391f5c32d9c69d2a47ea670b442974b53935d1edc7fd64eb21e047a839171b9190a45050565b6107758282611cf2565b6000611e1b611dfa606460016158ea565b6004546001600160401b0386169085906010906001600160a01b031661347f565b90503415611e6157611e2d81346121cb565b6040513481527fb371d8e5053de89890d88e48d9a957d6a92527d176d7c909c0ab806e5cdbc8479060200160405180910390a15b7ffd8db58874f063863fd400716c7664e80d79b28f4c24f409d6f1b885f2d0600d838260400151604051611e969291906158a4565b60405180910390a1505050565b600080611eaf84612725565b905080600003611f085782600103611efe5760405162461bcd60e51b8152602060048201526012602482015271139bdd1a1a5b99c81d1bc81a185c9d995cdd60721b6044820152606401610762565b6000915050610691565b60a08401518451604051631c57762b60e31b81526001600160401b039091166004820152600060248201526001600160a01b039091169063e2bbb15890604401600060405180830381600087803b158015611f6257600080fd5b505af1158015611f76573d6000803e3d6000fd5b50505060e08501516040516370a0823160e01b81523060048201526001600160a01b0390911691506370a0823190602401602060405180830381865afa158015611fc4573d6000803e3d6000fd5b505050506040513d601f19601f82011682018060405250810190611fe891906156d0565b60408051600280825260608201835292935060009290916020830190803683370190505090508460e001518160008151811061202657612026615915565b60200260200101906001600160a01b031690816001600160a01b031681525050600080516020615f848339815191528160018151811061206857612068615915565b60200260200101906001600160a01b031690816001600160a01b031681525050612093858383614510565b915060006120dc60405180604001604052806007815260200166121054959154d560ca1b815250843a6001546120c99190615b8a565b6120d790633b9aca00615b8a565b6130bc565b6000549091506001600160401b0316156121c2576000805461211090670de0b6b3a7640000906001600160401b0316615bbf565b6001600160401b0316612124606484615be5565b61212e9190615b8a565b905061213a818361586b565b915061214e6011546001600160a01b031690565b6001600160a01b03166108fc829081150290604051600060405180830381858888f19350505050158015612186573d6000803e3d6000fd5b5060408051828152602081018490527f2d2fdf8fe0a28febf1b874bc9ab0285dd0aa1a5ff1a73e7befec062d2e2a2b90910160405180910390a1505b95945050505050565b806000036121ec5760405163024ba11760e31b815260040160405180910390fd5b6000808060646121fd856032615b8a565b6122079190615be5565b60608601519091506001600160a01b0316600080516020615f84833981519152146122da57604080516002808252606082018352600092602083019080368337019050509050600080516020615f848339815191528160008151811061226f5761226f615915565b60200260200101906001600160a01b031690816001600160a01b0316815250508560600151816001815181106122a7576122a7615915565b60200260200101906001600160a01b031690816001600160a01b0316815250506122d2868383614510565b9350506122de565b8092505b60808501516001600160a01b0316600080516020615f84833981519152146123ae57604080516002808252606082018352600092602083019080368337019050509050600080516020615f848339815191528160008151811061234357612343615915565b60200260200101906001600160a01b031690816001600160a01b03168152505085608001518160018151811061237b5761237b615915565b60200260200101906001600160a01b031690816001600160a01b0316815250506123a6868383614510565b9250506123b2565b8091505b6123bd858484614cb0565b5050505050565b601180546001600160a01b038381166001600160a01b0319831681179093556040519116919082907f8be0079c531659141344cd1fd0a4f28419497f9722a3daafe3b4186f6b6457e090600090a35050565b61241e614f5f565b6000612434866001600160401b03168686613222565b9050612442606460016158ea565b6001600160401b0316816001600160401b0316036124835761247b612469606460016158ea565b876001600160401b031687878761347f565b9150506116da565b60405163c42465e360e01b81526000906001600160a01b0385169063c42465e3906124b290899060040161564e565b600060405180830381865afa1580156124cf573d6000803e3d6000fd5b505050506040513d6000823e601f3d908101601f191682016040526124f791908101906159f5565b905060405180610140016040528086846001600160401b03168154811061252057612520615915565b9060005260206000209060050201600001546001600160401b0316815260200186846001600160401b03168154811061255b5761255b615915565b9060005260206000209060050201600101805461257790615661565b80601f01602080910402602001604051908101604052809291908181526020018280546125a390615661565b80156125f05780601f106125c5576101008083540402835291602001916125f0565b820191906000526020600020905b8154815290600101906020018083116125d357829003601f168201915b5050505050815260200186846001600160401b03168154811061261557612615615915565b6000918252602091829020600260059092020101546001600160a01b03168252875491019087906001600160401b03861690811061265557612655615915565b6000918252602091829020600360059092020101546001600160a01b03168252875491019087906001600160401b03861690811061269557612695615915565b906000526020600020906005020160040160009054906101000a90046001600160a01b03166001600160a01b0316815260200182600001516001600160a01b0316815260200182602001516001600160a01b0316815260200182604001516001600160a01b031681526020018260a00151815260200182606001516001600160a01b0316815250925050506116da565b6000808260a001516001600160a01b03168361010001518460000151306040516024016127539291906158a4565b60408051601f19818403018152908290529161276e91615bf9565b60408051918290039091206020830180516001600160e01b03166001600160e01b0319909216919091179052516127a59190615bf9565b600060405180830381855afa9150503d80600081146127e0576040519150601f19603f3d011682016040523d82523d6000602084013e6127e5565b606091505b509150506000815160001461280d578180602001905181019061280891906156d0565b612810565b60005b9050806000036106c45760e08401516040516370a0823160e01b81523060048201526001600160a01b03909116906370a0823190602401602060405180830381865afa158015612864573d6000803e3d6000fd5b505050506040513d601f19601f8201168201806040525081019061288891906156d0565b6116da9082615853565b600080806128a242610258615853565b60a085015185516040516393f1a40b60e01b81529293506000926001600160a01b03909216916393f1a40b916128dc9130906004016158a4565b6040805180830381865afa1580156128f8573d6000803e3d6000fd5b505050506040513d601f19601f8201168201806040525081019061291c91906158c6565b5060a08601518651604051630441a3e760e41b81526001600160401b039091166004820152602481018390529192506001600160a01b03169063441a3e7090604401600060405180830381600087803b15801561297857600080fd5b505af115801561298c573d6000803e3d6000fd5b5050505060408581015190516370a0823160e01b81523060048201526000916001600160a01b0316906370a0823190602401602060405180830381865afa1580156129db573d6000803e3d6000fd5b505050506040513d601f19601f820116820180604052508101906129ff91906156d0565b90507f715ed3cd24887b619d3d2da2885c7d1b21168674116e771e308e978be95934d881604051612a55919060408082526008908201526717dc995b5bdd995960c21b6060820152602081019190915260800190565b60405180910390a1600080600080516020615f848339815191526001600160a01b031688606001516001600160a01b031614612a9a5787606001518860800151612aa5565b876080015188606001515b909250905073bb4cdb9cbd36b01bd1cbaebf2de08d9173bc095b196001600160a01b03821601612b56578760c001516001600160a01b03166302751cec8385600080308b6040518763ffffffff1660e01b8152600401612b0a96959493929190615c15565b60408051808303816000875af1158015612b28573d6000803e3d6000fd5b505050506040513d601f19601f82011682018060405250810190612b4c91906158c6565b9097509550612bf7565b60c0880151604051635d5155ef60e11b81526001600160a01b03848116600483015283811660248301526044820186905260006064830181905260848301523060a483015260c482018890529091169063baa2abde9060e40160408051808303816000875af1158015612bcd573d6000803e3d6000fd5b505050506040513d601f19601f82011682018060405250810190612bf191906158c6565b90975095505b5050505050505050565b604080516002808252606082018352600092602083019080368337019050509050600080516020615f8483398151915281600181518110612c4457612c44615915565b6001600160a01b03928316602091820292909201015260e08301516040516370a0823160e01b8152306004820152600092839216906370a0823190602401602060405180830381865afa158015612c9f573d6000803e3d6000fd5b505050506040513d601f19601f82011682018060405250810190612cc391906156d0565b90508015612d11578360e0015183600081518110612ce357612ce3615915565b60200260200101906001600160a01b031690816001600160a01b031681525050612d0e848285614510565b91505b600080612d1d86612dd6565b90925090508115612d7857856060015185600081518110612d4057612d40615915565b60200260200101906001600160a01b031690816001600160a01b031681525050612d6b868387614510565b612d759085615853565b93505b8015612dce57856080015185600081518110612d9657612d96615915565b60200260200101906001600160a01b031690816001600160a01b031681525050612dc1868287614510565b612dcb9085615853565b93505b505050505050565b60608101516040516370a0823160e01b815230600482015260009182916001600160a01b03909116906370a0823190602401602060405180830381865afa158015612e25573d6000803e3d6000fd5b505050506040513d601f19601f82011682018060405250810190612e4991906156d0565b60808401516040516370a0823160e01b81523060048201529193506001600160a01b0316906370a0823190602401602060405180830381865afa158015612e94573d6000803e3d6000fd5b505050506040513d601f19601f82011682018060405250810190612eb891906156d0565b9050915091565b612ec7614f5f565b6000612ed4888886613222565b90506063196001600160401b03821601612f045760405163315309ff60e21b815260048101899052602401610762565b612f11818787878761347f565b98975050505050505050565b600080612f2b858585613222565b6001600160401b0316905082805490508110612f5a5760405163f8e3d81160e01b815260040160405180910390fd5b82548390612f6a9060019061586b565b81548110612f7a57612f7a615915565b9060005260206000209060050201838281548110612f9a57612f9a615915565b9060005260206000209060050201600082015481600001556001820181600101908054612fc690615661565b612fd1929190614fb5565b5060028281015490820180546001600160a01b03199081166001600160a01b0393841617909155600380850154908401805483169184169190911790556004938401549390920180549092169216919091179055825483908061303657613036615c50565b6000828152602081206005600019909301928302018181559061305c6001830182615040565b506002810180546001600160a01b03199081169091556003820180548216905560049091018054909116905590556040517f2ad593f3de4cd64c0c14e82addef84e7067e22b4e432b4b77834c656cb0584d190600090a150505492915050565b60045460009081906001600160a01b031663db1e4202866130e56011546001600160a01b031690565b6040518363ffffffff1660e01b8152600401613102929190615c66565b60408051808303816000875af1158015613120573d6000803e3d6000fd5b505050506040513d601f19601f8201168201806040525081019061314491906158c6565b50905060008368056bc75e2d6310000061315e8488615b8a565b6131689190615be5565b6131729190615853565b90508481111561317f5750835b8015613218578481111561319657506000936131a3565b6131a0818661586b565b94505b6003546040516001600160a01b039091169082156108fc029083906000818181858888f193505050501580156131dd573d6000803e3d6000fd5b5060408051828152602081018790527f596e0bcd2f1a5ac10927ff9bb914618e32960081c556ad176b8b2642dc40c288910160405180910390a15b5092949350505050565b6000805b82546001600160401b03821610156132d7578483826001600160401b03168154811061325457613254615915565b9060005260206000209060050201600001541480156132b95750838051906020012083826001600160401b03168154811061329157613291615915565b90600052602060002090600502016001016040516132af9190615cb7565b6040518091039020145b156132c55790506106c4565b806132cf81615d29565b915050613226565b506116da606460016158ea565b606060006132f3836002615b8a565b6132fe906002615853565b6001600160401b038111156133155761331561515b565b6040519080825280601f01601f19166020018201604052801561333f576020820181803683370190505b509050600360fc1b8160008151811061335a5761335a615915565b60200101906001600160f81b031916908160001a905350600f60fb1b8160018151811061338957613389615915565b60200101906001600160f81b031916908160001a90535060006133ad846002615b8a565b6133b8906001615853565b90505b6001811115613430576f181899199a1a9b1b9c1cb0b131b232b360811b85600f16601081106133ec576133ec615915565b1a60f81b82828151811061340257613402615915565b60200101906001600160f81b031916908160001a90535060049490941c9361342981615d4f565b90506133bb565b5083156106c45760405162461bcd60e51b815260206004820181905260248201527f537472696e67733a20686578206c656e67746820696e73756666696369656e746044820152606401610762565b613487614f5f565b613493606460016158ea565b6001600160401b0316866001600160401b0316141580156134fb5750838051906020012083876001600160401b0316815481106134d2576134d2615915565b90600052602060002090600502016001016040516134f09190615cb7565b604051809103902014155b1561399c576000805b845481101561357a57858051906020012085828154811061352757613527615915565b90600052602060002090600502016001016040516135459190615cb7565b604051809103902014801561355a5750868114155b15613568576001915061357a565b8061357281615d66565b915050613504565b508061399a5760405163c42465e360e01b81526000906001600160a01b0385169063c42465e3906135af90899060040161564e565b600060405180830381865afa1580156135cc573d6000803e3d6000fd5b505050506040513d6000823e601f3d908101601f191682016040526135f491908101906159f5565b90506000816101000151156136765781516040516378ed5d1f60e01b8152600481018a90526001600160a01b03909116906378ed5d1f90602401602060405180830381865afa15801561364b573d6000803e3d6000fd5b505050506040513d601f19601f8201168201806040525081019061366f919061573d565b90506136e9565b8151604051631526fe2760e01b8152600481018a90526001600160a01b0390911690631526fe2790602401608060405180830381865afa1580156136be573d6000803e3d6000fd5b505050506040513d601f19601f820116820180604052508101906136e29190615d7f565b5091925050505b81604001516001600160a01b031663095ea7b3836020015160006040518363ffffffff1660e01b81526004016137209291906156e9565b6020604051808303816000875af115801561373f573d6000803e3d6000fd5b505050506040513d601f19601f820116820180604052508101906137639190615717565b5085896001600160401b03168154811061377f5761377f615915565b60009182526020808320600360059093020191909101549084015160405163095ea7b360e01b81526001600160a01b039092169263095ea7b3926137c79291906004016156e9565b6020604051808303816000875af11580156137e6573d6000803e3d6000fd5b505050506040513d601f19601f8201168201806040525081019061380a9190615717565b5085896001600160401b03168154811061382657613826615915565b6000918252602080832060046005909302018201549085015160405163095ea7b360e01b81526001600160a01b039092169363095ea7b39361386893016156e9565b6020604051808303816000875af1158015613887573d6000803e3d6000fd5b505050506040513d601f19601f820116820180604052508101906138ab9190615717565b50815160405163095ea7b360e01b81526001600160a01b0383169163095ea7b3916138dc91906000906004016156e9565b6020604051808303816000875af11580156138fb573d6000803e3d6000fd5b505050506040513d601f19601f8201168201806040525081019061391f9190615717565b50602082015160405163095ea7b360e01b81526001600160a01b0383169163095ea7b39161395391906000906004016156e9565b6020604051808303816000875af1158015613972573d6000803e3d6000fd5b505050506040513d601f19601f820116820180604052508101906139969190615717565b5050505b505b60405163c42465e360e01b81526000906001600160a01b0384169063c42465e3906139cb90889060040161564e565b600060405180830381865afa1580156139e8573d6000803e3d6000fd5b505050506040513d6000823e601f3d908101601f19168201604052613a1091908101906159f5565b905060008082610100015115613b065782516040516378ed5d1f60e01b8152600481018a90526001600160a01b03909116906378ed5d1f90602401602060405180830381865afa158015613a68573d6000803e3d6000fd5b505050506040513d601f19601f82011682018060405250810190613a8c919061573d565b8351604051631526fe2760e01b8152600481018b90529193506001600160a01b031690631526fe279060240160a060405180830381865afa158015613ad5573d6000803e3d6000fd5b505050506040513d601f19601f82011682018060405250810190613af99190615dbe565b50909350613b7a92505050565b8251604051631526fe2760e01b8152600481018a90526001600160a01b0390911690631526fe2790602401608060405180830381865afa158015613b4e573d6000803e3d6000fd5b505050506040513d601f19601f82011682018060405250810190613b729190615d7f565b509193509150505b6001600160a01b038216613bbf57604051630ba34e8560e41b815260206004820152600b60248201526a17db1c10dbdb9d1c9858dd60aa1b6044820152606401610762565b80600003613be35760405163315309ff60e21b815260048101899052602401610762565b613bef606460016158ea565b6001600160401b0316896001600160401b031603613dad57856040518060a001604052808a8152602001898152602001846001600160a01b03168152602001846001600160a01b0316630dfe16816040518163ffffffff1660e01b8152600401602060405180830381865afa158015613c6c573d6000803e3d6000fd5b505050506040513d601f19601f82011682018060405250810190613c90919061573d565b6001600160a01b03168152602001846001600160a01b031663d21220a76040518163ffffffff1660e01b8152600401602060405180830381865afa158015613cdc573d6000803e3d6000fd5b505050506040513d601f19601f82011682018060405250810190613d00919061573d565b6001600160a01b031690528154600181810184556000938452602093849020835160059093020191825583830151805193949293613d469392850192919091019061507a565b5060408201516002820180546001600160a01b03199081166001600160a01b0393841617909155606084015160038401805483169184169190911790556080909301516004909201805490931691161790558554613da69060019061586b565b9850613f7d565b85546001600160401b038a1610613dd75760405163f8e3d81160e01b815260040160405180910390fd5b6040518060a00160405280898152602001888152602001836001600160a01b03168152602001836001600160a01b0316630dfe16816040518163ffffffff1660e01b8152600401602060405180830381865afa158015613e3b573d6000803e3d6000fd5b505050506040513d601f19601f82011682018060405250810190613e5f919061573d565b6001600160a01b03168152602001836001600160a01b031663d21220a76040518163ffffffff1660e01b8152600401602060405180830381865afa158015613eab573d6000803e3d6000fd5b505050506040513d601f19601f82011682018060405250810190613ecf919061573d565b6001600160a01b0316815250868a6001600160401b031681548110613ef657613ef6615915565b9060005260206000209060050201600082015181600001556020820151816001019080519060200190613f2a92919061507a565b5060408201516002820180546001600160a01b03199081166001600160a01b0393841617909155606084015160038401805483169184169190911790556080909301516004909201805490931691161790555b60408084015160208501519151636eb1769f60e11b81523060048201526001600160a01b03928316602482015291169063dd62ed3e90604401602060405180830381865afa158015613fd3573d6000803e3d6000fd5b505050506040513d601f19601f82011682018060405250810190613ff791906156d0565b60000361407b5782604001516001600160a01b031663095ea7b384602001516000196040518363ffffffff1660e01b81526004016140369291906156e9565b6020604051808303816000875af1158015614055573d6000803e3d6000fd5b505050506040513d601f19601f820116820180604052508101906140799190615717565b505b85896001600160401b03168154811061409657614096615915565b6000918252602091829020600360059092020101549084015160405163095ea7b360e01b81526001600160a01b039092169163095ea7b3916140de91600019906004016156e9565b6020604051808303816000875af11580156140fd573d6000803e3d6000fd5b505050506040513d601f19601f820116820180604052508101906141219190615717565b5085896001600160401b03168154811061413d5761413d615915565b600091825260209182902060046005909202018101549185015160405163095ea7b360e01b81526001600160a01b039093169263095ea7b392614185929160001991016156e9565b6020604051808303816000875af11580156141a4573d6000803e3d6000fd5b505050506040513d601f19601f820116820180604052508101906141c89190615717565b50825160405163095ea7b360e01b81526001600160a01b0384169163095ea7b3916141fa9190600019906004016156e9565b6020604051808303816000875af1158015614219573d6000803e3d6000fd5b505050506040513d601f19601f8201168201806040525081019061423d9190615717565b50602083015160405163095ea7b360e01b81526001600160a01b0384169163095ea7b3916142729190600019906004016156e9565b6020604051808303816000875af1158015614291573d6000803e3d6000fd5b505050506040513d601f19601f820116820180604052508101906142b59190615717565b506040517f2ad593f3de4cd64c0c14e82addef84e7067e22b4e432b4b77834c656cb0584d190600090a1604051806101400160405280878b6001600160401b03168154811061430657614306615915565b9060005260206000209060050201600001546001600160401b03168152602001878b6001600160401b03168154811061434157614341615915565b9060005260206000209060050201600101805461435d90615661565b80601f016020809104026020016040519081016040528092919081815260200182805461438990615661565b80156143d65780601f106143ab576101008083540402835291602001916143d6565b820191906000526020600020905b8154815290600101906020018083116143b957829003601f168201915b50505050508152602001878b6001600160401b0316815481106143fb576143fb615915565b6000918252602091829020600260059092020101546001600160a01b03168252885491019088906001600160401b038d1690811061443b5761443b615915565b6000918252602091829020600360059092020101546001600160a01b03168252885491019088906001600160401b038d1690811061447b5761447b615915565b906000526020600020906005020160040160009054906101000a90046001600160a01b03166001600160a01b0316815260200184600001516001600160a01b0316815260200184602001516001600160a01b0316815260200184604001516001600160a01b031681526020018460a00151815260200184606001516001600160a01b0316815250935050505095945050505050565b6000826000036145335760405163024ba11760e31b815260040160405180910390fd5b81514790600080516020615f8483398151915290849060009061455857614558615915565b60200260200101516001600160a01b03161480156145bb5750600080516020615f848339815191526001600160a01b03168360018551614598919061586b565b815181106145a8576145a8615915565b60200260200101516001600160a01b0316145b156146c1576040516370a0823160e01b81523060048201528490600080516020615f84833981519152906370a0823190602401602060405180830381865afa15801561460b573d6000803e3d6000fd5b505050506040513d601f19601f8201168201806040525081019061462f91906156d0565b1061469757604051632e1a7d4d60e01b815260048101859052600080516020615f8483398151915290632e1a7d4d90602401600060405180830381600087803b15801561467b57600080fd5b505af115801561468f573d6000803e3d6000fd5b505050504790505b808411156146b85760405163b3e9cd3560e01b815260040160405180910390fd5b839150506106c4565b6101208501516000906001600160a01b03161580159061471257508561012001516001600160a01b0316846000815181106146fe576146fe615915565b60200260200101516001600160a01b031614155b801561474f57508561012001516001600160a01b03168460018151811061473b5761473b615915565b60200260200101516001600160a01b031614155b61475a57600261475d565b60035b60ff1690506000816001600160401b0381111561477c5761477c61515b565b6040519080825280602002602001820160405280156147a5578160200160208202803683370190505b5090508160020361485157846000815181106147c3576147c3615915565b6020026020010151816000815181106147de576147de615915565b60200260200101906001600160a01b031690816001600160a01b0316815250508460018151811061481157614811615915565b60200260200101518160018151811061482c5761482c615915565b60200260200101906001600160a01b031690816001600160a01b031681525050614927565b8460008151811061486457614864615915565b60200260200101518160008151811061487f5761487f615915565b60200260200101906001600160a01b031690816001600160a01b031681525050866101200151816001815181106148b8576148b8615915565b60200260200101906001600160a01b031690816001600160a01b031681525050846001815181106148eb576148eb615915565b60200260200101518160028151811061490657614906615915565b60200260200101906001600160a01b031690816001600160a01b0316815250505b6060600061493742610258615853565b9050600080516020615f848339815191526001600160a01b03168760008151811061496457614964615915565b60200260200101516001600160a01b03161480156149ef57506040516370a0823160e01b81523060048201528890600080516020615f84833981519152906370a0823190602401602060405180830381865afa1580156149c8573d6000803e3d6000fd5b505050506040513d601f19601f820116820180604052508101906149ec91906156d0565b10155b15614a5757604051632e1a7d4d60e01b815260048101899052600080516020615f8483398151915290632e1a7d4d90602401600060405180830381600087803b158015614a3b57600080fd5b505af1158015614a4f573d6000803e3d6000fd5b505050504794505b600080516020615f848339815191526001600160a01b03168760018951614a7e919061586b565b81518110614a8e57614a8e615915565b60200260200101516001600160a01b031603614b2b578860c001516001600160a01b03166318cbafe58960008630866040518663ffffffff1660e01b8152600401614add959493929190615e4b565b6000604051808303816000875af1158015614afc573d6000803e3d6000fd5b505050506040513d6000823e601f3d908101601f19168201604052614b249190810190615e87565b9150614c7b565b600080516020615f848339815191526001600160a01b031687600081518110614b5657614b56615915565b60200260200101516001600160a01b0316148015614b745750878510155b15614bf8578860c001516001600160a01b0316637ff36ab58960008630866040518663ffffffff1660e01b8152600401614bb19493929190615f20565b60006040518083038185885af1158015614bcf573d6000803e3d6000fd5b50505050506040513d6000823e601f3d908101601f19168201604052614b249190810190615e87565b8860c001516001600160a01b03166338ed17398960008630866040518663ffffffff1660e01b8152600401614c31959493929190615e4b565b6000604051808303816000875af1158015614c50573d6000803e3d6000fd5b505050506040513d6000823e601f3d908101601f19168201604052614c789190810190615e87565b91505b8160018451614c8a919061586b565b81518110614c9a57614c9a615915565b6020026020010151955050505050509392505050565b6000806000600080516020615f848339815191526001600160a01b031686608001516001600160a01b03161480614d01575060608601516001600160a01b0316600080516020615f84833981519152145b15614dfb5760608601516001600160a01b0316600080516020615f8483398151915214614d2f578385614d32565b84845b606088015191965094506000906001600160a01b0316600080516020615f8483398151915214614d66578660600151614d6c565b86608001515b90508660c001516001600160a01b031663f305d71987838860008030426040518863ffffffff1660e01b8152600401614daa96959493929190615c15565b60606040518083038185885af1158015614dc8573d6000803e3d6000fd5b50505050506040513d601f19601f82011682018060405250810190614ded9190615f55565b91955093509150614eae9050565b60c08601516060870151608088015160405162e8e33760e81b81526001600160a01b0392831660048201529082166024820152604481018890526064810187905260006084820181905260a48201523060c48201524260e482015291169063e8e3370090610104016060604051808303816000875af1158015614e82573d6000803e3d6000fd5b505050506040513d601f19601f82011682018060405250810190614ea69190615f55565b919450925090505b60a08601518651604051631c57762b60e31b81526001600160401b039091166004820152602481018390526001600160a01b039091169063e2bbb15890604401600060405180830381600087803b158015614f0857600080fd5b505af1158015614f1c573d6000803e3d6000fd5b505060408051868152602081018690529081018490527ffb5d1f95093901664df381ff239630a1fc4a0d1d2c36327ba1106cbc60c0cb56925060600190506115fe565b604080516101408101825260008082526060602083018190529282018190528282018190526080820181905260a0820181905260c0820181905260e0820181905261010082019290925261012081019190915290565b828054614fc190615661565b90600052602060002090601f016020900481019282614fe35760008555615030565b82601f10614ff45780548555615030565b8280016001018555821561503057600052602060002091601f016020900482015b82811115615030578254825591600101919060010190615015565b5061503c9291506150ee565b5090565b50805461504c90615661565b6000825580601f1061505c575050565b601f01602090049060005260206000209081019061190a91906150ee565b82805461508690615661565b90600052602060002090601f0160209004810192826150a85760008555615030565b82601f106150c157805160ff1916838001178555615030565b82800160010185558215615030579182015b828111156150305782518255916020019190600101906150d3565b5b8082111561503c57600081556001016150ef565b60006020828403121561511557600080fd5b81356001600160e01b0319811681146106c457600080fd5b60006020828403121561513f57600080fd5b5035919050565b6001600160401b038116811461190a57600080fd5b634e487b7160e01b600052604160045260246000fd5b60405161012081016001600160401b03811182821017156151945761519461515b565b60405290565b604051601f8201601f191681016001600160401b03811182821017156151c2576151c261515b565b604052919050565b60006001600160401b038211156151e3576151e361515b565b50601f01601f191660200190565b600082601f83011261520257600080fd5b8135615215615210826151ca565b61519a565b81815284602083860101111561522a57600080fd5b816020850160208301376000918101602001919091529392505050565b6000806040838503121561525a57600080fd5b823561526581615146565b915060208301356001600160401b0381111561528057600080fd5b61528c858286016151f1565b9150509250929050565b60005b838110156152b1578181015183820152602001615299565b838111156152c0576000848401525b50505050565b600081518084526152de816020860160208601615296565b601f01601f19169290920160200192915050565b6020815261530c6020820183516001600160401b03169052565b6000602083015161014080604085015261532a6101608501836152c6565b9150604085015161534660608601826001600160a01b03169052565b5060608501516001600160a01b03811660808601525060808501516001600160a01b03811660a08601525060a08501516001600160a01b03811660c08601525060c08501516001600160a01b03811660e08601525060e08501516101006153b7818701836001600160a01b03169052565b80870151915050610120601f1986850301818701526153d684836152c6565b9601516001600160a01b03169190940152509192915050565b6001600160a01b038116811461190a57600080fd5b6000806040838503121561541757600080fd5b823591506020830135615429816153ef565b809150509250929050565b85815260a06020820152600061544d60a08301876152c6565b6001600160a01b039586166040840152938516606083015250921660809092019190915292915050565b60006020828403121561548957600080fd5b81356106c481615146565b6000602082840312156154a657600080fd5b81356106c4816153ef565b600080600080608085870312156154c757600080fd5b84356154d281615146565b935060208501356154e2816153ef565b925060408501356001600160401b038111156154fd57600080fd5b615509878288016151f1565b925050606085013561551a816153ef565b939692955090935050565b600080600080600060a0868803121561553d57600080fd5b853561554881615146565b945060208601356001600160401b038082111561556457600080fd5b61557089838a016151f1565b955060408801359150615582826153ef565b90935060608701359061559482615146565b909250608087013590808211156155aa57600080fd5b506155b7888289016151f1565b9150509295509295909350565b600080600080608085870312156155da57600080fd5b84356155e581615146565b935060208501356001600160401b038082111561560157600080fd5b61560d888389016151f1565b94506040870135915061561f82615146565b9092506060860135908082111561563557600080fd5b50615642878288016151f1565b91505092959194509250565b6020815260006106c460208301846152c6565b600181811c9082168061567557607f821691505b60208210810361569557634e487b7160e01b600052602260045260246000fd5b50919050565b6020808252818101527f4f776e61626c653a2063616c6c6572206973206e6f7420746865206f776e6572604082015260600190565b6000602082840312156156e257600080fd5b5051919050565b6001600160a01b03929092168252602082015260400190565b8051801515811461571257600080fd5b919050565b60006020828403121561572957600080fd5b6106c482615702565b8051615712816153ef565b60006020828403121561574f57600080fd5b81516106c4816153ef565b6001600160401b0385168152600060018060a01b0380861660208401526080604084015261578b60808401866152c6565b915080841660608401525095945050505050565b6020808252601390820152722932b9ba3934b1ba32b210233ab731ba34b7b760691b604082015260600190565b6040815260006157f36040830160078152661111519055531560ca1b602082015260400190565b828103602093840152600e81526d48415256455354534f4c4f47415360901b928101929092525060400190565b60006020828403121561583257600080fd5b81516106c481615146565b634e487b7160e01b600052601160045260246000fd5b600082198211156158665761586661583d565b500190565b60008282101561587d5761587d61583d565b500390565b6001600160401b03831681526040602082015260006116da60408301846152c6565b6001600160401b039290921682526001600160a01b0316602082015260400190565b600080604083850312156158d957600080fd5b505080516020909101519092909150565b60006001600160401b0380831681851680830382111561590c5761590c61583d565b01949350505050565b634e487b7160e01b600052603260045260246000fd5b600060208083526000845461593f81615661565b808487015260406001808416600081146159605760018114615974576159a2565b60ff198516898401526060890195506159a2565b896000528660002060005b8581101561599a5781548b820186015290830190880161597f565b8a0184019650505b509398975050505050505050565b600082601f8301126159c157600080fd5b81516159cf615210826151ca565b8181528460208386010111156159e457600080fd5b6116da826020830160208701615296565b600060208284031215615a0757600080fd5b81516001600160401b0380821115615a1e57600080fd5b908301906101208286031215615a3357600080fd5b615a3b615171565b615a4483615732565b8152615a5260208401615732565b6020820152615a6360408401615732565b6040820152615a7460608401615732565b6060820152615a8560808401615732565b608082015260a083015182811115615a9c57600080fd5b615aa8878286016159b0565b60a08301525060c083015182811115615ac057600080fd5b615acc878286016159b0565b60c08301525060e083015182811115615ae457600080fd5b615af0878286016159b0565b60e0830152506101009150615b06828401615702565b91810191909152949350505050565b7f416363657373436f6e74726f6c3a206163636f756e7420000000000000000000815260008351615b4d816017850160208801615296565b7001034b99036b4b9b9b4b733903937b6329607d1b6017918401918201528351615b7e816028840160208801615296565b01602801949350505050565b6000816000190483118215151615615ba457615ba461583d565b500290565b634e487b7160e01b600052601260045260246000fd5b60006001600160401b0380841680615bd957615bd9615ba9565b92169190910492915050565b600082615bf457615bf4615ba9565b500490565b60008251615c0b818460208701615296565b9190910192915050565b6001600160a01b039687168152602081019590955260408501939093526060840191909152909216608082015260a081019190915260c00190565b634e487b7160e01b600052603160045260246000fd5b606081526000615c8d6060830160078152661111519055531560ca1b602082015260400190565b8281036020840152615c9f81866152c6565b91505060018060a01b03831660408301529392505050565b6000808354615cc581615661565b60018281168015615cdd5760018114615cee57615d1d565b60ff19841687528287019450615d1d565b8760005260208060002060005b85811015615d145781548a820152908401908201615cfb565b50505082870194505b50929695505050505050565b60006001600160401b03808316818103615d4557615d4561583d565b6001019392505050565b600081615d5e57615d5e61583d565b506000190190565b600060018201615d7857615d7861583d565b5060010190565b60008060008060808587031215615d9557600080fd5b8451615da0816153ef565b60208601516040870151606090970151919890975090945092505050565b600080600080600060a08688031215615dd657600080fd5b85519450602086015193506040860151925060608601519150615dfb60808701615702565b90509295509295909350565b600081518084526020808501945080840160005b83811015615e405781516001600160a01b031687529582019590820190600101615e1b565b509495945050505050565b85815284602082015260a060408201526000615e6a60a0830186615e07565b6001600160a01b0394909416606083015250608001529392505050565b60006020808385031215615e9a57600080fd5b82516001600160401b0380821115615eb157600080fd5b818501915085601f830112615ec557600080fd5b815181811115615ed757615ed761515b565b8060051b9150615ee884830161519a565b8181529183018401918481019088841115615f0257600080fd5b938501935b83851015612f1157845182529385019390850190615f07565b848152608060208201526000615f396080830186615e07565b6001600160a01b03949094166040830152506060015292915050565b600080600060608486031215615f6a57600080fd5b835192506020840151915060408401519050925092509256fe000000000000000000000000bb4cdb9cbd36b01bd1cbaebf2de08d9173bc095c27e3e4d29d60af3ae6456513164bb5db737d6fc8610aa36ad458736c9efb884ca2646970667358221220012d4aea9d441405df9050ca3faa571d437765f65c761234b213a5c0cd6c925d64736f6c634300080d0033",
  "immutableReferences": {},
  "source": "//SPDX-License-Identifier: UNLICENSED\npragma solidity ^0.8.7;\npragma experimental ABIEncoderV2;\nimport \"./Interfaces.sol\";\nimport \"./Storage.sol\";\n\ncontract combineApp is Storage, Ownable, AccessControl {\n    event sdUintLog( string message, uint value);\n    event sdUintLog( string message, uint[] value);\n    event sdDeposit(uint amount);\n    event sdHoldBack(uint amount, uint total);\n    event sdFeeSent(uint amount,uint total);\n    event sdNewPool(uint64 oldPool, uint newPool);\n    event sdLiquidityProvided(uint256 farmIn, uint256 wethIn, uint256 lpOut);\n    event sdInitialized(uint64 poolId, address lpContract);\n    event sdInitialize(uint64 _poolId, address _beacon, string _exchangeName, address _owner);\n    event sdHarvesterAdd(address _harvester);\n    event sdHarvesterRemove(address _harvester);\n    event sdRescueToken(address _token,uint _amount);\n\n    error sdLocked();\n    error sdInitializedError();\n    error sdInsufficentBalance();\n    error sdRequiredParameter(string param);\n    error sdInsufficentFunds();\n\n    \n    modifier lockFunction() {\n        if (_locked == true) revert sdLocked();\n        _locked = true;\n        _;\n        _locked = false;\n    }\n     \n    modifier allowAdmin() {\n        require(hasRole(HARVESTER,msg.sender) || owner() == msg.sender,\"Restricted Function\");\n        _;\n    }\n    ///@notice Initialize the proxy contract\n    ///@param _poolId the id of the pool\n    ///@param _beacon the address of the beacon contract\n    ///@param _exchangeName name of the exchange to lookup on beacon\n    ///@param _owner the address of the owner\n    function initialize(uint64 _poolId, address _beacon, string memory _exchangeName, address _owner) public onlyOwner payable {\n        if (_initialized == true) revert sdInitializedError();\n        _initialized = true;\n        beaconContract = _beacon;\n\n        address harvester = iBeacon(beaconContract).getAddress(\"HARVESTER\");\n        feeCollector = iBeacon(beaconContract).getAddress(\"FEECOLLECTOR\");\n\n        _setupRole(HARVESTER, harvester);\n        _setupRole(DEFAULT_ADMIN_ROLE,owner());\n\n        holdBack = 0; \n        \n        setup(_poolId, _exchangeName);\n        transferOwnership(_owner);\n        emit sdInitialize(_poolId, _beacon,_exchangeName,_owner);\n    }\n\n    ///@notice Add harvester permission to contract\n    ///@param _address address of user to add as harvester\n    function addHarvester(address _address) external onlyOwner {\n        _setupRole(HARVESTER,_address);\n        emit sdHarvesterAdd(_address);\n    }\n\n    ///@notice Remove user as harvester\n    ///@param _address address of user to remove as harvester\n    function removeHarvester(address _address) external onlyOwner{\n        revokeRole(HARVESTER,_address);\n        emit sdHarvesterRemove(_address);\n    }\n\n    ///@notice create slot for new pool\n    ///@param _poolId id of new pool\n    ///@param _exchangeName name of exchange to lookup on beacon\n    function setup(uint64 _poolId, string memory _exchangeName) private  {\n        slotsLib.sSlots memory _slot = slotsLib.updateSlot(uint64(slotsLib.MAX_SLOTS+1),_poolId,_exchangeName, slots, beaconContract);\n\n        if (msg.value > 0) {\n            addFunds(_slot, msg.value);\n            emit sdDeposit(msg.value);\n        }\n        emit sdInitialized(_poolId,_slot.lpContract);\n    }\n    \n    ///@notice default receive function\n    receive() external payable {}\n\n\n    //@notice Add funds to specified pool and exhange\n    ///@param _poolId id of pool to add funds to\n    ///@param _exchangeName name of exchange to lookup on beacon\n    function deposit(uint64 _poolId, string memory _exchangeName) external payable  {\n        slotsLib.sSlots memory _slot = slotsLib.getDepositSlot(_poolId, _exchangeName,slots, beaconContract);\n        uint deposit_amount = msg.value;\n        uint pendingReward_val =  pendingReward(_slot);\n        if (pendingReward_val > 0) {\n            deposit_amount = deposit_amount + do_harvest(_slot, 0);\n        }\n        addFunds(_slot, deposit_amount);\n        emit sdDeposit(deposit_amount);\n    }\n\n    ///@notice Swap funds from one pool/exchnage to another pool/exchange\n    ///@param _fromPoolId id of pool to swap from\n    ///@param _fromExchangeName name of exchange to lookup in slots\n    ///@param _toPoolId id of pool to swap to\n    ///@param _toExchangeName name of exchange to lookup in slots\n    function swapPool(uint64 _fromPoolId, string memory _fromExchangeName, uint64 _toPoolId, string memory _toExchangeName) public allowAdmin {\n        slotsLib.sSlots memory _slot = getSlot(_fromPoolId, _fromExchangeName);\n        \n        if(_toPoolId == _slot.poolId) revert sdRequiredParameter(\"New pool required\");\n        \n        removeLiquidity(_slot);\n        revertBalance(_slot);\n        \n        uint _bal = address(this).balance;\n        if (_bal==0) revert sdInsufficentBalance();\n        \n        _slot = slotsLib.swapSlot(_fromPoolId, _fromExchangeName,_toPoolId, _toExchangeName,slots, beaconContract);\n        addFunds(_slot,_bal);\n        emit sdNewPool(_fromPoolId,_toPoolId);\n    }\n\n    ///@notice Swap funds from one pool/exchnage to another pool/exchange in a different contract\n    ///@param _toContract the address of the contract to swap to\n    ///@param _fromPoolId id of pool to swap from\n    ///@param _fromExchangeName name of exchange to lookup in slots\n    ///@param _toPoolId id of pool to swap to\n    ///@param _toExchangeName name of exchange to lookup in slots\n    function swapContractPool(uint64 _fromPoolId, string memory _fromExchangeName, address _toContract, uint64 _toPoolId, string memory _toExchangeName) external allowAdmin {\n        //liquidate current user and do not send funds\n        slotsLib.sSlots memory _slot = getSlot(_fromPoolId, _fromExchangeName);\n        \n        if(_toPoolId == _slot.poolId) revert sdRequiredParameter(\"New pool required\");\n        \n        removeLiquidity(_slot);\n        revertBalance(_slot);\n        \n        uint _bal = address(this).balance;\n        if (_bal==0) revert sdInsufficentBalance();\n        iSimpleDefiSolo(payable(_toContract)).deposit{value: _bal}(_toPoolId,_toExchangeName);\n    }\n\n\n    ///@notice get pending rewards on a specific pool/exchange\n    ///@param _poolId id of pool to get pending rewards on\n    ///@param _exchangeName name of exchange to lookup in slots\n    ///@return pending rewards \n    function pendingReward(uint64 _poolId, string memory _exchangeName) public view returns (uint) {        \n        slotsLib.sSlots memory _slot = getSlot(_poolId, _exchangeName);\n        return pendingReward(_slot);\n    }\n\n    ///@notice get pending rewards on a specific slot id\n    ///@param _slot slot to get pending rewards on\n    ///@return pending rewards \n    function pendingReward(slotsLib.sSlots memory _slot) private view returns (uint) {\n        (, bytes memory data) = _slot.chefContract.staticcall(abi.encodeWithSignature(_slot.pendingCall, _slot.poolId,address(this)));\n        uint pendingReward_val = data.length==0?0:abi.decode(data,(uint256));\n        if (pendingReward_val == 0) {\n            pendingReward_val += ERC20(_slot.rewardToken).balanceOf(address(this));\n        }\n        return pendingReward_val;\n    }\n\n    ///@notice liquidate funds on a specific pool/exchange\n    ///@param _poolId id of pool to liquidate\n    ///@param _exchangeName name of exchange to lookup in slots    \n    function liquidate(uint64 _poolId, string memory _exchangeName) public onlyOwner lockFunction {\n        slotsLib.sSlots memory _slot = getSlot(_poolId, _exchangeName);\n        do_harvest(_slot, 0);\n        removeLiquidity(_slot);\n        revertBalance(_slot);        \n        uint _total = address(this).balance;\n        slotsLib.removeSlot(_slot.poolId, _slot.exchangeName,slots);\n\n        _total = sendFee(\"LIQUIDATE\",_total,0);\n\n        payable(owner()).transfer(_total);\n        emit sdUintLog(\"Liquidate Total\",_total);\n    }\n    \n    ///@notice set holdback on rewards to be sent back to user\n    ///@param _holdback amount of rewards to hold back\n    function setHoldBack(uint64 _holdback) external onlyOwner {\n        holdBack = _holdback;\n        emit sdUintLog(\"holdback\",_holdback);\n    }\n    \n    ///@notice send holdback funds to user (BNB Balance)\n    function sendHoldBack() external onlyOwner lockFunction{\n        uint bal = address(this).balance;\n        if (bal == 0) revert sdInsufficentBalance();\n        payable(owner()).transfer(bal);\n        emit sdHoldBack(bal,bal);\n    }\n    \n    ///@notice Manually perform a harvest on a specific pool/exchange\n    ///@param _poolId id of pool to harvest on\n    ///@param _exchangeName name of exchange to lookup in slots\n    function harvest(uint64  _poolId, string memory _exchangeName) public lockFunction allowAdmin {\n        slotsLib.sSlots memory _slot = getSlot(_poolId, _exchangeName);\n        uint64 _offset = iBeacon(beaconContract).getConst('DEFAULT','HARVESTSOLOGAS');\n        uint startGas = gasleft() + 21000 + _offset;\n        uint split = do_harvest(_slot, 1);\n        \n        addFunds(_slot, split);\n        if (msg.sender != owner()) {\n            lastGas = startGas - gasleft();\n        }\n    }\n    \n    ///@notice helper function to return balance of 2 tokens in a pool\n    ///@param _slot slot to get balance of\n    ///@return _bal0 of tokens of token0 from pool\n    ///@return _bal1 of tokens of token1 from pool\n    function tokenBalance(slotsLib.sSlots memory _slot) private view returns (uint _bal0,uint _bal1) {\n        _bal0 = ERC20(_slot.token0).balanceOf(address(this));\n        _bal1 = ERC20(_slot.token1).balanceOf(address(this));\n    }    \n    \n    ///@notice helper function to return balance of specified token from contract to the user\n    ///@param token address of token to recover\n    function rescueToken(address token) external onlyOwner{\n        uint _bal = ERC20(token).balanceOf(address(this));\n        ERC20(token).transfer(owner(),_bal);\n        emit sdRescueToken(token,_bal);\n    }\n\n    ///@notice Internal funciton to add funds to a specified slot\n    ///@param _slot slot to add funds to\n    ///@param inValue amount of funds to add\n    function addFunds(slotsLib.sSlots memory _slot, uint inValue) private  {\n        if (inValue==0) revert sdInsufficentBalance();\n\n        uint amount0;\n        uint amount1;\n        uint split = (inValue*50)/100;\n        \n        if (_slot.token0 != WBNB_ADDR) {\n            address[] memory path1 = new address[](2);\n            path1[0] = WBNB_ADDR;\n            path1[1] = _slot.token0;\n            amount0 = swap(_slot, split,path1);\n        }\n        else{\n            amount0 = split;\n        }\n        \n        if (_slot.token1 != WBNB_ADDR) {\n            address[] memory path2 = new address[](2);\n            path2[0] = WBNB_ADDR;\n            path2[1] = _slot.token1;\n            amount1 = swap(_slot, split,path2);\n        }       \n        else{\n            amount1 = split;\n        }\n        addLiquidity(_slot,amount0,amount1);\n    }\n\n    ///@notice Internal function to add liquidity to a pool\n    ///@dev amount0 and amount1 should be the same value (converted to/from BNB)\n    ///@param _slot slot to add liquidity to\n    ///@param amount0 amount of liquidity to add of token0\n    ///@param amount1 amount of liquidity to add of token1\n    function addLiquidity(slotsLib.sSlots memory _slot, uint amount0, uint amount1) private {\n        uint amountA;\n        uint amountB;\n        uint liquidity;\n                \n\n        if (_slot.token1 == WBNB_ADDR || _slot.token0 == WBNB_ADDR) {\n            (amount0,amount1) = _slot.token0 == WBNB_ADDR?(amount0,amount1):(amount1,amount0);\n            address token = _slot.token0 == WBNB_ADDR?_slot.token1:_slot.token0;\n            (amountA, amountB, liquidity) = iRouter(_slot.routerContract).addLiquidityETH{value: amount0}(token, amount1, 0,0, address(this), block.timestamp);\n        }\n        else {\n            ( amountA,  amountB, liquidity) = iRouter(_slot.routerContract).addLiquidity(_slot.token0, _slot.token1, amount0, amount1, 0, 0, address(this), block.timestamp);\n        }\n\n        iMasterChef(_slot.chefContract).deposit(_slot.poolId,liquidity);\n        emit sdLiquidityProvided(amountA, amountB, liquidity);\n    }\n    \n    ///@notice Internal function to swap 2 tokens\n    ///@param _slot slot to swap tokens on\n    ///@param amountIn amount of tokens to swap\n    ///@param path address of tokens to swap\n    ///@return amountOut amount of tokens swapped\n    function swap(slotsLib.sSlots memory _slot, uint amountIn, address[] memory path) private returns (uint){\n        if (amountIn == 0) revert sdInsufficentBalance();\n\n        uint _cBalance = address(this).balance;\n        if (path[0] == WBNB_ADDR && path[path.length-1] == WBNB_ADDR) {\n            if (ERC20(WBNB_ADDR).balanceOf(address(this)) >= amountIn) {\n                iWBNB(WBNB_ADDR).withdraw(amountIn);\n                _cBalance = address(this).balance;\n            }\n            if (amountIn > _cBalance) revert sdInsufficentFunds();\n            return amountIn;\n        }\n\n        uint pathLength = (_slot.intermediateToken != address(0) && path[0] != _slot.intermediateToken && path[1] != _slot.intermediateToken) ? 3 : 2;\n        address[] memory swapPath = new address[](pathLength);\n        \n        if (pathLength == 2) {\n            swapPath[0] = path[0];\n            swapPath[1] = path[1];\n        }\n        else {\n            swapPath[0] = path[0];\n            swapPath[1] = _slot.intermediateToken;\n            swapPath[2] = path[1];\n        }\n\n        uint[] memory amounts;\n\n        uint deadline = block.timestamp + 600;\n\n        if (path[0] == WBNB_ADDR && ERC20(WBNB_ADDR).balanceOf(address(this)) >= amountIn) {\n            iWBNB(WBNB_ADDR).withdraw(amountIn);\n            _cBalance = address(this).balance;\n        }\n\n        if (path[path.length - 1] == WBNB_ADDR) {\n            amounts = iRouter(_slot.routerContract).swapExactTokensForETH(amountIn, 0,  swapPath, address(this), deadline);\n        } else if (path[0] == WBNB_ADDR && _cBalance >= amountIn) {\n            amounts = iRouter(_slot.routerContract).swapExactETHForTokens{value: amountIn}(0,swapPath,address(this),deadline);\n        }\n        else {\n            amounts = iRouter(_slot.routerContract).swapExactTokensForTokens(amountIn, 0,swapPath,address(this),deadline);\n        }\n        return amounts[swapPath.length-1];\n    }\n    \n\n    ///@notice Internal function to harvest spool\n    ///@param _slot slot to harvest\n    ///@param revert_trans (0 - return 0 on failure, 1 - revert on failure)\n    ///@return finalReward  Final amount of reward returned.\n    function do_harvest(slotsLib.sSlots memory _slot,uint revert_trans) private returns (uint) {\n        uint pendingCake = 0;\n        pendingCake = pendingReward(_slot);\n        if (pendingCake == 0) {\n            if (revert_trans == 1) {\n                revert(\"Nothing to harvest\");\n            }\n            else {\n                    return 0;\n            }\n        }\n        \n        iMasterChef(_slot.chefContract).deposit(_slot.poolId,0);\n        pendingCake = ERC20(_slot.rewardToken).balanceOf(address(this));\n\n        address[] memory path = new address[](2);\n        path[0] = _slot.rewardToken;\n        path[1] = WBNB_ADDR;\n\n        pendingCake = swap(_slot, pendingCake,path);\n        \n        uint finalReward = sendFee('HARVEST',pendingCake, ((lastGas * tx.gasprice)*10e8)); // lastGas is here in case 3rd party harvester is used, should normally be 0\n        \n        if (holdBack > 0) {\n            uint holdbackAmount = (finalReward/100) * (holdBack/10**18);\n            finalReward = finalReward - holdbackAmount;\n            payable(owner()).transfer(holdbackAmount);\n            emit sdHoldBack(holdbackAmount,finalReward);\n\n        }\n        return finalReward;\n    }\n    \n    ///@notice Internal function to remove liquididty from pool\n    ///@param _slot slot to remove liquidity from\n    function removeLiquidity(slotsLib.sSlots memory _slot) private {\n        uint amountTokenA;\n        uint amountTokenB;\n        uint deadline = block.timestamp + 600;\n\n        (uint _lpBal,) = iMasterChef(_slot.chefContract).userInfo(_slot.poolId,address(this));\n        iMasterChef(_slot.chefContract).withdraw(_slot.poolId,_lpBal);\n        \n        uint _removed = ERC20(_slot.lpContract).balanceOf(address(this));\n        emit sdUintLog(\"_removed\",_removed);\n        \n        (address token0,address token1) = _slot.token0==WBNB_ADDR?(_slot.token1,_slot.token0):(_slot.token0,_slot.token1);\n\n        if (token1 == WBNB_ADDR)\n            (amountTokenA, amountTokenB) = iRouter(_slot.routerContract).removeLiquidityETH(token0,_removed,0,0,address(this), deadline);\n        else\n            (amountTokenA, amountTokenB) = iRouter(_slot.routerContract).removeLiquidity(token0,token1,_removed,0,0,address(this), deadline);\n    }\n\n    ///@notice Internal function to convert token0/token1 to BNB/Base Token\n    ///@param _slot slot to convert\n    function revertBalance(slotsLib.sSlots memory _slot) private {\n        address[] memory path = new address[](2);\n        path[1] = WBNB_ADDR;\n        uint amount0 = 0;\n\n        uint _rewards = ERC20(_slot.rewardToken).balanceOf(address (this));\n        if (_rewards > 0 ){\n            path[0] = _slot.rewardToken;\n            amount0 = swap(_slot, _rewards, path);\n        }\n\n        (uint _bal0, uint _bal1) = tokenBalance(_slot);\n        \n        if (_bal0 > 0) {\n            path[0] = _slot.token0;\n            amount0 += swap(_slot, _bal0, path);\n        }\n        \n        if (_bal1 > 0) {\n            path[0] = _slot.token1;\n            amount0 += swap(_slot, _bal1, path);\n        }\n    }\n    \n        ///@notice helper function to force a pool update\n    ///@param _poolId pool to get info from\n    ///@param _exchangeName name of exchange to lookup in slots\n    ///@dev Not part of simpleDefi app, just proxy to ensure proper masterChef and pool Id are called. \n    ///@dev Does not affect our app in any way, needed for testing.\n    function updatePool(uint64  _poolId, string memory _exchangeName) public {\n        slotsLib.sSlots memory _slot = getSlot(_poolId, _exchangeName);\n\n        iMasterChef(_slot.chefContract).updatePool(_slot.poolId);\n    }\n\n    ///@notice returns status of pool on specific pool/exchange\n    ///@param _poolId pool to get info from\n    ///@param _exchangeName name of exchange to lookup in slots\n    ///@return masterchef balance 0\n    ///@return masterchef balance 1\n    ///@return token0 balance\n    ///@return token1 balance\n    ///@return contract balance of rewward token\n    ///@return total of BNB\n    function userInfo(uint64  _poolId, string memory _exchangeName) public view allowAdmin returns (uint,uint,uint,uint,uint,uint) {\n        slotsLib.sSlots memory _slot = getSlot(_poolId, _exchangeName);\n\n        if (_slot.lpContract == address(0))  return (0,0,0,0,0,0);\n        \n        (uint a, uint b) = iMasterChef(_slot.chefContract).userInfo(_slot.poolId,address(this));\n        (uint c, uint d) = tokenBalance(_slot);\n        uint e = ERC20(_slot.rewardToken).balanceOf(address(this));\n        uint f = address(this).balance;\n        return (a,b,c,d,e,f);\n    }\n\n    ///@notice Internal function to handle fees for specific type\n    ///@param _type type of fee\n    ///@param _total amount of fee\n    ///@param  _extra fee to add (such as gas fee)\n    ///@return _total amount of fee sent\n    function sendFee(string memory _type, uint _total, uint _extra) private returns (uint){\n        (uint feeAmt,) = iBeacon(beaconContract).getFee('DEFAULT',_type,owner());\n        uint feeAmount = ((_total * feeAmt)/100e18) + _extra;\n        if (feeAmount > _total) feeAmount = _total; // required to recover fee\n        \n        if(feeAmount > 0) {\n            if (feeAmount > _total) {\n                feeAmount = _total;\n                _total = 0;\n            }\n            else {\n                _total = _total - feeAmount;\n            }\n            payable(address(feeCollector)).transfer(feeAmount);\n            emit sdFeeSent(feeAmount,_total);\n        }\n        return _total;\n    }\n\n    ///@notice Public function to get slot for pool/exchange\n    ///@param _poolId pool to get info from\n    ///@param _exchangeName name of exchange to lookup in slots\n    ///@return slot info\n    function getSlot(uint64 _poolId, string memory _exchangeName) public view returns (slotsLib.sSlots memory) {\n        return slotsLib.getSlot(_poolId, _exchangeName, slots, beaconContract);\n    }\n}\n\n    ",
  "sourcePath": "/mnt/src/crypto/combine_sol/contracts/combineApp.sol",
  "compiler": {
    "name": "solc",
    "version": "0.8.13+commit.abaa5c0e.Emscripten.clang"
  },
  "schemaVersion": "3.4.3",
  "updatedAt": "2022-04-21T18:34:37.507Z",
  "devdoc": {
    "kind": "dev",
    "methods": {
      "addHarvester(address)": {
        "params": {
          "_address": "address of user to add as harvester"
        }
      },
      "deposit(uint64,string)": {
        "params": {
          "_exchangeName": "name of exchange to lookup on beacon",
          "_poolId": "id of pool to add funds to"
        }
      },
      "getRoleAdmin(bytes32)": {
        "details": "Returns the admin role that controls `role`. See {grantRole} and {revokeRole}. To change a role's admin, use {_setRoleAdmin}."
      },
      "getSlot(uint64,string)": {
        "params": {
          "_exchangeName": "name of exchange to lookup in slots",
          "_poolId": "pool to get info from"
        },
        "returns": {
          "_0": "slot info"
        }
      },
      "grantRole(bytes32,address)": {
        "details": "Grants `role` to `account`. If `account` had not been already granted `role`, emits a {RoleGranted} event. Requirements: - the caller must have ``role``'s admin role."
      },
      "harvest(uint64,string)": {
        "params": {
          "_exchangeName": "name of exchange to lookup in slots",
          "_poolId": "id of pool to harvest on"
        }
      },
      "hasRole(bytes32,address)": {
        "details": "Returns `true` if `account` has been granted `role`."
      },
      "initialize(uint64,address,string,address)": {
        "params": {
          "_beacon": "the address of the beacon contract",
          "_exchangeName": "name of the exchange to lookup on beacon",
          "_owner": "the address of the owner",
          "_poolId": "the id of the pool"
        }
      },
      "liquidate(uint64,string)": {
        "params": {
          "_exchangeName": "name of exchange to lookup in slots    ",
          "_poolId": "id of pool to liquidate"
        }
      },
      "owner()": {
        "details": "Returns the address of the current owner."
      },
      "pendingReward(uint64,string)": {
        "params": {
          "_exchangeName": "name of exchange to lookup in slots",
          "_poolId": "id of pool to get pending rewards on"
        },
        "returns": {
          "_0": "pending rewards "
        }
      },
      "removeHarvester(address)": {
        "params": {
          "_address": "address of user to remove as harvester"
        }
      },
      "renounceOwnership()": {
        "details": "Leaves the contract without owner. It will not be possible to call `onlyOwner` functions anymore. Can only be called by the current owner. NOTE: Renouncing ownership will leave the contract without an owner, thereby removing any functionality that is only available to the owner."
      },
      "renounceRole(bytes32,address)": {
        "details": "Revokes `role` from the calling account. Roles are often managed via {grantRole} and {revokeRole}: this function's purpose is to provide a mechanism for accounts to lose their privileges if they are compromised (such as when a trusted device is misplaced). If the calling account had been granted `role`, emits a {RoleRevoked} event. Requirements: - the caller must be `account`."
      },
      "rescueToken(address)": {
        "params": {
          "token": "address of token to recover"
        }
      },
      "revokeRole(bytes32,address)": {
        "details": "Revokes `role` from `account`. If `account` had been granted `role`, emits a {RoleRevoked} event. Requirements: - the caller must have ``role``'s admin role."
      },
      "setHoldBack(uint64)": {
        "params": {
          "_holdback": "amount of rewards to hold back"
        }
      },
      "supportsInterface(bytes4)": {
        "details": "See {IERC165-supportsInterface}."
      },
      "swapContractPool(uint64,string,address,uint64,string)": {
        "params": {
          "_fromExchangeName": "name of exchange to lookup in slots",
          "_fromPoolId": "id of pool to swap from",
          "_toContract": "the address of the contract to swap to",
          "_toExchangeName": "name of exchange to lookup in slots",
          "_toPoolId": "id of pool to swap to"
        }
      },
      "swapPool(uint64,string,uint64,string)": {
        "params": {
          "_fromExchangeName": "name of exchange to lookup in slots",
          "_fromPoolId": "id of pool to swap from",
          "_toExchangeName": "name of exchange to lookup in slots",
          "_toPoolId": "id of pool to swap to"
        }
      },
      "transferOwnership(address)": {
        "details": "Transfers ownership of the contract to a new account (`newOwner`). Can only be called by the current owner."
      },
      "updatePool(uint64,string)": {
        "details": "Not part of simpleDefi app, just proxy to ensure proper masterChef and pool Id are called. Does not affect our app in any way, needed for testing.",
        "params": {
          "_exchangeName": "name of exchange to lookup in slots",
          "_poolId": "pool to get info from"
        }
      },
      "userInfo(uint64,string)": {
        "params": {
          "_exchangeName": "name of exchange to lookup in slots",
          "_poolId": "pool to get info from"
        },
        "returns": {
          "_0": "masterchef balance 0",
          "_1": "masterchef balance 1",
          "_2": "token0 balance",
          "_3": "token1 balance",
          "_4": "contract balance of rewward token",
          "_5": "total of BNB"
        }
      }
    },
    "version": 1
  },
  "userdoc": {
    "kind": "user",
    "methods": {
      "addHarvester(address)": {
        "notice": "Add harvester permission to contract"
      },
      "getSlot(uint64,string)": {
        "notice": "Public function to get slot for pool/exchange"
      },
      "harvest(uint64,string)": {
        "notice": "Manually perform a harvest on a specific pool/exchange"
      },
      "initialize(uint64,address,string,address)": {
        "notice": "Initialize the proxy contract"
      },
      "liquidate(uint64,string)": {
        "notice": "liquidate funds on a specific pool/exchange"
      },
      "pendingReward(uint64,string)": {
        "notice": "get pending rewards on a specific pool/exchange"
      },
      "removeHarvester(address)": {
        "notice": "Remove user as harvester"
      },
      "rescueToken(address)": {
        "notice": "helper function to return balance of specified token from contract to the user"
      },
      "sendHoldBack()": {
        "notice": "send holdback funds to user (BNB Balance)"
      },
      "setHoldBack(uint64)": {
        "notice": "set holdback on rewards to be sent back to user"
      },
      "swapContractPool(uint64,string,address,uint64,string)": {
        "notice": "Swap funds from one pool/exchnage to another pool/exchange in a different contract"
      },
      "swapPool(uint64,string,uint64,string)": {
        "notice": "Swap funds from one pool/exchnage to another pool/exchange"
      },
      "updatePool(uint64,string)": {
        "notice": "helper function to force a pool update"
      },
      "userInfo(uint64,string)": {
        "notice": "returns status of pool on specific pool/exchange"
      }
    },
    "version": 1
  }
}