{
  "contractName": "combineApp",
  "abi": [
    {
      "inputs": [
        {
          "internalType": "uint256",
          "name": "_poolID",
          "type": "uint256"
        }
      ],
      "name": "InactivePool",
      "type": "error"
    },
    {
      "inputs": [
        {
          "internalType": "string",
          "name": "param",
          "type": "string"
        }
      ],
      "name": "RequiredParameter",
      "type": "error"
    },
    {
      "inputs": [],
      "name": "SlotOutOfBounds",
      "type": "error"
    },
    {
      "inputs": [],
      "name": "sdInitializedError",
      "type": "error"
    },
    {
      "inputs": [],
      "name": "sdInsufficentBalance",
      "type": "error"
    },
    {
      "inputs": [],
      "name": "sdLocked",
      "type": "error"
    },
    {
      "inputs": [
        {
          "internalType": "string",
          "name": "param",
          "type": "string"
        }
      ],
      "name": "sdRequiredParameter",
      "type": "error"
    },
    {
      "anonymous": false,
      "inputs": [
        {
          "indexed": true,
          "internalType": "address",
          "name": "previousOwner",
          "type": "address"
        },
        {
          "indexed": true,
          "internalType": "address",
          "name": "newOwner",
          "type": "address"
        }
      ],
      "name": "OwnershipTransferred",
      "type": "event"
    },
    {
      "anonymous": false,
      "inputs": [
        {
          "indexed": true,
          "internalType": "bytes32",
          "name": "role",
          "type": "bytes32"
        },
        {
          "indexed": true,
          "internalType": "bytes32",
          "name": "previousAdminRole",
          "type": "bytes32"
        },
        {
          "indexed": true,
          "internalType": "bytes32",
          "name": "newAdminRole",
          "type": "bytes32"
        }
      ],
      "name": "RoleAdminChanged",
      "type": "event"
    },
    {
      "anonymous": false,
      "inputs": [
        {
          "indexed": true,
          "internalType": "bytes32",
          "name": "role",
          "type": "bytes32"
        },
        {
          "indexed": true,
          "internalType": "address",
          "name": "account",
          "type": "address"
        },
        {
          "indexed": true,
          "internalType": "address",
          "name": "sender",
          "type": "address"
        }
      ],
      "name": "RoleGranted",
      "type": "event"
    },
    {
      "anonymous": false,
      "inputs": [
        {
          "indexed": true,
          "internalType": "bytes32",
          "name": "role",
          "type": "bytes32"
        },
        {
          "indexed": true,
          "internalType": "address",
          "name": "account",
          "type": "address"
        },
        {
          "indexed": true,
          "internalType": "address",
          "name": "sender",
          "type": "address"
        }
      ],
      "name": "RoleRevoked",
      "type": "event"
    },
    {
      "anonymous": false,
      "inputs": [
        {
          "indexed": false,
          "internalType": "uint256",
          "name": "amount",
          "type": "uint256"
        }
      ],
      "name": "sdDeposit",
      "type": "event"
    },
    {
      "anonymous": false,
      "inputs": [
        {
          "indexed": false,
          "internalType": "uint256",
          "name": "amount",
          "type": "uint256"
        },
        {
          "indexed": false,
          "internalType": "uint256",
          "name": "total",
          "type": "uint256"
        }
      ],
      "name": "sdFeeSent",
      "type": "event"
    },
    {
      "anonymous": false,
      "inputs": [
        {
          "indexed": false,
          "internalType": "uint256",
          "name": "amount",
          "type": "uint256"
        },
        {
          "indexed": false,
          "internalType": "uint256",
          "name": "total",
          "type": "uint256"
        }
      ],
      "name": "sdHoldBack",
      "type": "event"
    },
    {
      "anonymous": false,
      "inputs": [
        {
          "indexed": false,
          "internalType": "uint64",
          "name": "poolId",
          "type": "uint64"
        },
        {
          "indexed": false,
          "internalType": "address",
          "name": "lpContract",
          "type": "address"
        }
      ],
      "name": "sdInitialized",
      "type": "event"
    },
    {
      "anonymous": false,
      "inputs": [
        {
          "indexed": false,
          "internalType": "uint256",
          "name": "farmIn",
          "type": "uint256"
        },
        {
          "indexed": false,
          "internalType": "uint256",
          "name": "wethIn",
          "type": "uint256"
        },
        {
          "indexed": false,
          "internalType": "uint256",
          "name": "lpOut",
          "type": "uint256"
        }
      ],
      "name": "sdLiquidityProvided",
      "type": "event"
    },
    {
      "anonymous": false,
      "inputs": [
        {
          "indexed": false,
          "internalType": "uint64",
          "name": "oldPool",
          "type": "uint64"
        },
        {
          "indexed": false,
          "internalType": "uint256",
          "name": "newPool",
          "type": "uint256"
        }
      ],
      "name": "sdNewPool",
      "type": "event"
    },
    {
      "anonymous": false,
      "inputs": [
        {
          "indexed": false,
          "internalType": "string",
          "name": "message",
          "type": "string"
        },
        {
          "indexed": false,
          "internalType": "uint256",
          "name": "value",
          "type": "uint256"
        }
      ],
      "name": "sdUintLog",
      "type": "event"
    },
    {
      "anonymous": false,
      "inputs": [
        {
          "indexed": false,
          "internalType": "string",
          "name": "message",
          "type": "string"
        },
        {
          "indexed": false,
          "internalType": "uint256[]",
          "name": "value",
          "type": "uint256[]"
        }
      ],
      "name": "sdUintLog",
      "type": "event"
    },
    {
      "inputs": [],
      "name": "DEFAULT_ADMIN_ROLE",
      "outputs": [
        {
          "internalType": "bytes32",
          "name": "",
          "type": "bytes32"
        }
      ],
      "stateMutability": "view",
      "type": "function"
    },
    {
      "inputs": [],
      "name": "HARVESTER",
      "outputs": [
        {
          "internalType": "bytes32",
          "name": "",
          "type": "bytes32"
        }
      ],
      "stateMutability": "view",
      "type": "function"
    },
    {
      "inputs": [],
      "name": "beaconContract",
      "outputs": [
        {
          "internalType": "address",
          "name": "",
          "type": "address"
        }
      ],
      "stateMutability": "view",
      "type": "function"
    },
    {
      "inputs": [],
      "name": "exchange",
      "outputs": [
        {
          "internalType": "string",
          "name": "",
          "type": "string"
        }
      ],
      "stateMutability": "view",
      "type": "function"
    },
    {
      "inputs": [
        {
          "internalType": "bytes32",
          "name": "role",
          "type": "bytes32"
        }
      ],
      "name": "getRoleAdmin",
      "outputs": [
        {
          "internalType": "bytes32",
          "name": "",
          "type": "bytes32"
        }
      ],
      "stateMutability": "view",
      "type": "function"
    },
    {
      "inputs": [
        {
          "internalType": "bytes32",
          "name": "role",
          "type": "bytes32"
        },
        {
          "internalType": "address",
          "name": "account",
          "type": "address"
        }
      ],
      "name": "grantRole",
      "outputs": [],
      "stateMutability": "nonpayable",
      "type": "function"
    },
    {
      "inputs": [
        {
          "internalType": "bytes32",
          "name": "role",
          "type": "bytes32"
        },
        {
          "internalType": "address",
          "name": "account",
          "type": "address"
        }
      ],
      "name": "hasRole",
      "outputs": [
        {
          "internalType": "bool",
          "name": "",
          "type": "bool"
        }
      ],
      "stateMutability": "view",
      "type": "function"
    },
    {
      "inputs": [],
      "name": "holdBack",
      "outputs": [
        {
          "internalType": "uint64",
          "name": "",
          "type": "uint64"
        }
      ],
      "stateMutability": "view",
      "type": "function"
    },
    {
      "inputs": [],
      "name": "lastGas",
      "outputs": [
        {
          "internalType": "uint256",
          "name": "",
          "type": "uint256"
        }
      ],
      "stateMutability": "view",
      "type": "function"
    },
    {
      "inputs": [],
      "name": "logic_contract",
      "outputs": [
        {
          "internalType": "address",
          "name": "",
          "type": "address"
        }
      ],
      "stateMutability": "view",
      "type": "function"
    },
    {
      "inputs": [],
      "name": "owner",
      "outputs": [
        {
          "internalType": "address",
          "name": "",
          "type": "address"
        }
      ],
      "stateMutability": "view",
      "type": "function"
    },
    {
      "inputs": [],
      "name": "renounceOwnership",
      "outputs": [],
      "stateMutability": "nonpayable",
      "type": "function"
    },
    {
      "inputs": [
        {
          "internalType": "bytes32",
          "name": "role",
          "type": "bytes32"
        },
        {
          "internalType": "address",
          "name": "account",
          "type": "address"
        }
      ],
      "name": "renounceRole",
      "outputs": [],
      "stateMutability": "nonpayable",
      "type": "function"
    },
    {
      "inputs": [
        {
          "internalType": "bytes32",
          "name": "role",
          "type": "bytes32"
        },
        {
          "internalType": "address",
          "name": "account",
          "type": "address"
        }
      ],
      "name": "revokeRole",
      "outputs": [],
      "stateMutability": "nonpayable",
      "type": "function"
    },
    {
      "inputs": [
        {
          "internalType": "uint256",
          "name": "",
          "type": "uint256"
        }
      ],
      "name": "slots",
      "outputs": [
        {
          "internalType": "uint256",
          "name": "poolId",
          "type": "uint256"
        },
        {
          "internalType": "string",
          "name": "exchangeName",
          "type": "string"
        },
        {
          "internalType": "address",
          "name": "lpContract",
          "type": "address"
        },
        {
          "internalType": "address",
          "name": "token0",
          "type": "address"
        },
        {
          "internalType": "address",
          "name": "token1",
          "type": "address"
        }
      ],
      "stateMutability": "view",
      "type": "function"
    },
    {
      "inputs": [
        {
          "internalType": "bytes4",
          "name": "interfaceId",
          "type": "bytes4"
        }
      ],
      "name": "supportsInterface",
      "outputs": [
        {
          "internalType": "bool",
          "name": "",
          "type": "bool"
        }
      ],
      "stateMutability": "view",
      "type": "function"
    },
    {
      "inputs": [
        {
          "internalType": "address",
          "name": "newOwner",
          "type": "address"
        }
      ],
      "name": "transferOwnership",
      "outputs": [],
      "stateMutability": "nonpayable",
      "type": "function"
    },
    {
      "stateMutability": "payable",
      "type": "receive"
    },
    {
      "inputs": [
        {
          "internalType": "uint64",
          "name": "_poolId",
          "type": "uint64"
        },
        {
          "internalType": "address",
          "name": "_beacon",
          "type": "address"
        },
        {
          "internalType": "string",
          "name": "_exchangeName",
          "type": "string"
        },
        {
          "internalType": "address",
          "name": "_owner",
          "type": "address"
        }
      ],
      "name": "initialize",
      "outputs": [],
      "stateMutability": "payable",
      "type": "function"
    },
    {
      "inputs": [
        {
          "internalType": "address",
          "name": "_address",
          "type": "address"
        }
      ],
      "name": "addHarvester",
      "outputs": [],
      "stateMutability": "nonpayable",
      "type": "function"
    },
    {
      "inputs": [
        {
          "internalType": "address",
          "name": "_address",
          "type": "address"
        }
      ],
      "name": "removeHarvester",
      "outputs": [],
      "stateMutability": "nonpayable",
      "type": "function"
    },
    {
      "inputs": [
        {
          "internalType": "uint64",
          "name": "_poolId",
          "type": "uint64"
        },
        {
          "internalType": "string",
          "name": "_exchangeName",
          "type": "string"
        }
      ],
      "name": "deposit",
      "outputs": [],
      "stateMutability": "payable",
      "type": "function"
    },
    {
      "inputs": [
        {
          "internalType": "uint64",
          "name": "_fromPoolId",
          "type": "uint64"
        },
        {
          "internalType": "string",
          "name": "_fromExchangeName",
          "type": "string"
        },
        {
          "internalType": "uint64",
          "name": "_toPoolId",
          "type": "uint64"
        },
        {
          "internalType": "string",
          "name": "_toExchangeName",
          "type": "string"
        }
      ],
      "name": "swapPool",
      "outputs": [],
      "stateMutability": "nonpayable",
      "type": "function"
    },
    {
      "inputs": [
        {
          "internalType": "uint64",
          "name": "_poolId",
          "type": "uint64"
        },
        {
          "internalType": "string",
          "name": "_exchangeName",
          "type": "string"
        }
      ],
      "name": "pendingReward",
      "outputs": [
        {
          "internalType": "uint256",
          "name": "",
          "type": "uint256"
        }
      ],
      "stateMutability": "view",
      "type": "function"
    },
    {
      "inputs": [
        {
          "internalType": "uint64",
          "name": "_poolId",
          "type": "uint64"
        },
        {
          "internalType": "string",
          "name": "_exchangeName",
          "type": "string"
        }
      ],
      "name": "liquidate",
      "outputs": [],
      "stateMutability": "nonpayable",
      "type": "function"
    },
    {
      "inputs": [
        {
          "internalType": "uint64",
          "name": "_holdback",
          "type": "uint64"
        }
      ],
      "name": "setHoldBack",
      "outputs": [],
      "stateMutability": "nonpayable",
      "type": "function"
    },
    {
      "inputs": [],
      "name": "sendHoldBack",
      "outputs": [],
      "stateMutability": "nonpayable",
      "type": "function"
    },
    {
      "inputs": [
        {
          "internalType": "uint64",
          "name": "_poolId",
          "type": "uint64"
        },
        {
          "internalType": "string",
          "name": "_exchangeName",
          "type": "string"
        }
      ],
      "name": "harvest",
      "outputs": [],
      "stateMutability": "nonpayable",
      "type": "function"
    },
    {
      "inputs": [
        {
          "internalType": "address",
          "name": "token",
          "type": "address"
        }
      ],
      "name": "rescueToken",
      "outputs": [],
      "stateMutability": "nonpayable",
      "type": "function"
    },
    {
      "inputs": [
        {
          "internalType": "uint64",
          "name": "_poolId",
          "type": "uint64"
        },
        {
          "internalType": "string",
          "name": "_exchangeName",
          "type": "string"
        }
      ],
      "name": "cakePerBlock",
      "outputs": [
        {
          "internalType": "uint256",
          "name": "",
          "type": "uint256"
        }
      ],
      "stateMutability": "view",
      "type": "function"
    },
    {
      "inputs": [
        {
          "internalType": "uint64",
          "name": "_poolId",
          "type": "uint64"
        },
        {
          "internalType": "string",
          "name": "_exchangeName",
          "type": "string"
        }
      ],
      "name": "updatePool",
      "outputs": [],
      "stateMutability": "nonpayable",
      "type": "function"
    },
    {
      "inputs": [
        {
          "internalType": "uint64",
          "name": "_poolId",
          "type": "uint64"
        },
        {
          "internalType": "string",
          "name": "_exchangeName",
          "type": "string"
        }
      ],
      "name": "userInfo",
      "outputs": [
        {
          "internalType": "uint256",
          "name": "",
          "type": "uint256"
        },
        {
          "internalType": "uint256",
          "name": "",
          "type": "uint256"
        },
        {
          "internalType": "uint256",
          "name": "",
          "type": "uint256"
        },
        {
          "internalType": "uint256",
          "name": "",
          "type": "uint256"
        },
        {
          "internalType": "uint256",
          "name": "",
          "type": "uint256"
        },
        {
          "internalType": "uint256",
          "name": "",
          "type": "uint256"
        }
      ],
      "stateMutability": "view",
      "type": "function"
    },
    {
      "inputs": [
        {
          "internalType": "uint64",
          "name": "_poolId",
          "type": "uint64"
        },
        {
          "internalType": "string",
          "name": "_exchangeName",
          "type": "string"
        }
      ],
      "name": "getSlot",
      "outputs": [
        {
          "components": [
            {
              "internalType": "uint64",
              "name": "poolId",
              "type": "uint64"
            },
            {
              "internalType": "string",
              "name": "exchangeName",
              "type": "string"
            },
            {
              "internalType": "address",
              "name": "lpContract",
              "type": "address"
            },
            {
              "internalType": "address",
              "name": "token0",
              "type": "address"
            },
            {
              "internalType": "address",
              "name": "token1",
              "type": "address"
            },
            {
              "internalType": "address",
              "name": "chefContract",
              "type": "address"
            },
            {
              "internalType": "address",
              "name": "routerContract",
              "type": "address"
            },
            {
              "internalType": "address",
              "name": "rewardToken",
              "type": "address"
            },
            {
              "internalType": "string",
              "name": "pendingCall",
              "type": "string"
            },
            {
              "internalType": "address",
              "name": "intermediateToken",
              "type": "address"
            }
          ],
          "internalType": "struct slotsLib.sSlots",
          "name": "",
          "type": "tuple"
        }
      ],
      "stateMutability": "view",
      "type": "function"
    }
  ],
  "bytecode": "0x60806040526000600d60006101000a81548160ff0219169083151502179055506000600d60016101000a81548160ff0219169083151502179055503480156200004757600080fd5b50620000686200005c6200006e60201b60201c565b6200007660201b60201c565b6200013c565b600033905090565b6000601060009054906101000a900473ffffffffffffffffffffffffffffffffffffffff16905081601060006101000a81548173ffffffffffffffffffffffffffffffffffffffff021916908373ffffffffffffffffffffffffffffffffffffffff1602179055508173ffffffffffffffffffffffffffffffffffffffff168173ffffffffffffffffffffffffffffffffffffffff167f8be0079c531659141344cd1fd0a4f28419497f9722a3daafe3b4186f6b6457e060405160405180910390a35050565b61837a806200014c6000396000f3fe6080604052600436106101e75760003560e01c80638fab591711610102578063d2f7265a11610095578063e63828ce11610064578063e63828ce146106d4578063ea3fd42e14610711578063f1ed7dc71461073a578063f2fde38b14610765576101ee565b8063d2f7265a14610618578063d547741f14610643578063dc5d3a171461066c578063e2eea22c14610697576101ee565b8063a217fddf116100d1578063a217fddf14610570578063aff660951461059b578063c6e0e605146105c4578063cb9d9fa7146105ed576101ee565b80638fab5917146104b157806391d14854146104da57806393c9c352146105175780639f9476a71461052e576101ee565b80634de943201161017a5780637091a2e5116101495780637091a2e51461042a578063715018a6146104535780638da5cb5b1461046a5780638dee907014610495576101ee565b80634de943201461038f57806354bb3823146103ba578063611b8b2e146103d657806365034451146103ff576101ee565b806336568abe116101b657806336568abe146102d3578063387dd9e9146102fc5780633dac336d1461033d5780634460d3cf14610366576101ee565b806301ffc9a7146101f3578063248a9ca3146102305780632d9d97e21461026d5780632f2ff15d146102aa576101ee565b366101ee57005b600080fd5b3480156101ff57600080fd5b5061021a600480360381019061021591906164bb565b61078e565b6040516102279190616503565b60405180910390f35b34801561023c57600080fd5b5061025760048036038101906102529190616554565b610808565b6040516102649190616590565b60405180910390f35b34801561027957600080fd5b50610294600480360381019061028f9190616731565b610828565b6040516102a19190616946565b60405180910390f35b3480156102b657600080fd5b506102d160048036038101906102cc9190616994565b610871565b005b3480156102df57600080fd5b506102fa60048036038101906102f59190616994565b61089a565b005b34801561030857600080fd5b50610323600480360381019061031e9190616a0a565b61091d565b604051610334959493929190616a9f565b60405180910390f35b34801561034957600080fd5b50610364600480360381019061035f9190616af9565b610a4b565b005b34801561037257600080fd5b5061038d60048036038101906103889190616b26565b610b29565b005b34801561039b57600080fd5b506103a4610cad565b6040516103b19190616b53565b60405180910390f35b6103d460048036038101906103cf9190616b6e565b610cd3565b005b3480156103e257600080fd5b506103fd60048036038101906103f89190616731565b610ff2565b005b34801561040b57600080fd5b5061041461125f565b6040516104219190616b53565b60405180910390f35b34801561043657600080fd5b50610451600480360381019061044c9190616731565b611285565b005b34801561045f57600080fd5b5061046861130b565b005b34801561047657600080fd5b5061047f611393565b60405161048c9190616b53565b60405180910390f35b6104af60048036038101906104aa9190616731565b6113bd565b005b3480156104bd57600080fd5b506104d860048036038101906104d39190616b26565b6114e8565b005b3480156104e657600080fd5b5061050160048036038101906104fc9190616994565b611591565b60405161050e9190616503565b60405180910390f35b34801561052357600080fd5b5061052c6115fc565b005b34801561053a57600080fd5b5061055560048036038101906105509190616731565b6117c6565b60405161056796959493929190616bf1565b60405180910390f35b34801561057c57600080fd5b50610585611a1c565b6040516105929190616590565b60405180910390f35b3480156105a757600080fd5b506105c260048036038101906105bd9190616b26565b611a23565b005b3480156105d057600080fd5b506105eb60048036038101906105e69190616c52565b611acc565b005b3480156105f957600080fd5b50610602611cbf565b60405161060f9190616590565b60405180910390f35b34801561062457600080fd5b5061062d611ce3565b60405161063a9190616cf1565b60405180910390f35b34801561064f57600080fd5b5061066a60048036038101906106659190616994565b611d71565b005b34801561067857600080fd5b50610681611d9a565b60405161068e9190616d13565b60405180910390f35b3480156106a357600080fd5b506106be60048036038101906106b99190616731565b611da0565b6040516106cb9190616d13565b60405180910390f35b3480156106e057600080fd5b506106fb60048036038101906106f69190616731565b611dc1565b6040516107089190616d13565b60405180910390f35b34801561071d57600080fd5b5061073860048036038101906107339190616731565b611e4c565b005b34801561074657600080fd5b5061074f61206a565b60405161075c9190616d3d565b60405180910390f35b34801561077157600080fd5b5061078c60048036038101906107879190616b26565b612082565b005b60007f7965db0b000000000000000000000000000000000000000000000000000000007bffffffffffffffffffffffffffffffffffffffffffffffffffffffff1916827bffffffffffffffffffffffffffffffffffffffffffffffffffffffff1916148061080157506108008261217a565b5b9050919050565b600060116000838152602001908152602001600020600101549050919050565b6108306161e8565b6108698367ffffffffffffffff1683600f600460009054906101000a900473ffffffffffffffffffffffffffffffffffffffff166121e4565b905092915050565b61087a82610808565b61088b816108866126c4565b6126cc565b6108958383612769565b505050565b6108a26126c4565b73ffffffffffffffffffffffffffffffffffffffff168173ffffffffffffffffffffffffffffffffffffffff161461090f576040517f08c379a000000000000000000000000000000000000000000000000000000000815260040161090690616dca565b60405180910390fd5b610919828261284a565b5050565b600f818154811061092d57600080fd5b906000526020600020906005020160009150905080600001549080600101805461095690616e19565b80601f016020809104026020016040519081016040528092919081815260200182805461098290616e19565b80156109cf5780601f106109a4576101008083540402835291602001916109cf565b820191906000526020600020905b8154815290600101906020018083116109b257829003601f168201915b5050505050908060020160009054906101000a900473ffffffffffffffffffffffffffffffffffffffff16908060030160009054906101000a900473ffffffffffffffffffffffffffffffffffffffff16908060040160009054906101000a900473ffffffffffffffffffffffffffffffffffffffff16905085565b610a536126c4565b73ffffffffffffffffffffffffffffffffffffffff16610a71611393565b73ffffffffffffffffffffffffffffffffffffffff1614610ac7576040517f08c379a0000000000000000000000000000000000000000000000000000000008152600401610abe90616e97565b60405180910390fd5b806000806101000a81548167ffffffffffffffff021916908367ffffffffffffffff1602179055507f715ed3cd24887b619d3d2da2885c7d1b21168674116e771e308e978be95934d881604051610b1e9190616f3e565b60405180910390a150565b610b316126c4565b73ffffffffffffffffffffffffffffffffffffffff16610b4f611393565b73ffffffffffffffffffffffffffffffffffffffff1614610ba5576040517f08c379a0000000000000000000000000000000000000000000000000000000008152600401610b9c90616e97565b60405180910390fd5b60008173ffffffffffffffffffffffffffffffffffffffff166370a08231306040518263ffffffff1660e01b8152600401610be09190616b53565b602060405180830381865afa158015610bfd573d6000803e3d6000fd5b505050506040513d601f19601f82011682018060405250810190610c219190616f81565b90508173ffffffffffffffffffffffffffffffffffffffff1663a9059cbb610c47611393565b836040518363ffffffff1660e01b8152600401610c65929190616fae565b6020604051808303816000875af1158015610c84573d6000803e3d6000fd5b505050506040513d601f19601f82011682018060405250810190610ca89190617003565b505050565b600260009054906101000a900473ffffffffffffffffffffffffffffffffffffffff1681565b610cdb6126c4565b73ffffffffffffffffffffffffffffffffffffffff16610cf9611393565b73ffffffffffffffffffffffffffffffffffffffff1614610d4f576040517f08c379a0000000000000000000000000000000000000000000000000000000008152600401610d4690616e97565b60405180910390fd5b60011515600d60019054906101000a900460ff1615151415610d9d576040517f3cba1f3a00000000000000000000000000000000000000000000000000000000815260040160405180910390fd5b6001600d60016101000a81548160ff02191690831515021790555082600460006101000a81548173ffffffffffffffffffffffffffffffffffffffff021916908373ffffffffffffffffffffffffffffffffffffffff1602179055506000600460009054906101000a900473ffffffffffffffffffffffffffffffffffffffff1673ffffffffffffffffffffffffffffffffffffffff1663bf40fac16040518163ffffffff1660e01b8152600401610e549061707c565b602060405180830381865afa158015610e71573d6000803e3d6000fd5b505050506040513d601f19601f82011682018060405250810190610e9591906170b1565b9050600460009054906101000a900473ffffffffffffffffffffffffffffffffffffffff1673ffffffffffffffffffffffffffffffffffffffff1663bf40fac16040518163ffffffff1660e01b8152600401610ef09061712a565b602060405180830381865afa158015610f0d573d6000803e3d6000fd5b505050506040513d601f19601f82011682018060405250810190610f3191906170b1565b600360006101000a81548173ffffffffffffffffffffffffffffffffffffffff021916908373ffffffffffffffffffffffffffffffffffffffff160217905550610f9b7f27e3e4d29d60af3ae6456513164bb5db737d6fc8610aa36ad458736c9efb884c8261292c565b610faf6000801b610faa611393565b61292c565b60008060006101000a81548167ffffffffffffffff021916908367ffffffffffffffff160217905550610fe2858461293a565b610feb82612082565b5050505050565b60011515600d60009054906101000a900460ff1615151415611040576040517f8616e3bb00000000000000000000000000000000000000000000000000000000815260040160405180910390fd5b6001600d60006101000a81548160ff0219169083151502179055506110857f27e3e4d29d60af3ae6456513164bb5db737d6fc8610aa36ad458736c9efb884c33611591565b806110c257503373ffffffffffffffffffffffffffffffffffffffff166110aa611393565b73ffffffffffffffffffffffffffffffffffffffff16145b611101576040517f08c379a00000000000000000000000000000000000000000000000000000000081526004016110f890617196565b60405180910390fd5b600061110d8383610828565b90506000600460009054906101000a900473ffffffffffffffffffffffffffffffffffffffff1673ffffffffffffffffffffffffffffffffffffffff1663d95ad3716040518163ffffffff1660e01b815260040161116a9061724e565b6020604051808303816000875af1158015611189573d6000803e3d6000fd5b505050506040513d601f19601f820116820180604052508101906111ad9190617296565b905060008167ffffffffffffffff166152085a6111ca91906172f2565b6111d491906172f2565b905060006111e3846001612a12565b90506111ef8482612dfb565b6111f7611393565b73ffffffffffffffffffffffffffffffffffffffff163373ffffffffffffffffffffffffffffffffffffffff161461123c575a826112359190617348565b6001819055505b505050506000600d60006101000a81548160ff0219169083151502179055505050565b600460009054906101000a900473ffffffffffffffffffffffffffffffffffffffff1681565b60006112918383610828565b90508060a0015173ffffffffffffffffffffffffffffffffffffffff166351eb05a682600001516040518263ffffffff1660e01b81526004016112d4919061737c565b600060405180830381600087803b1580156112ee57600080fd5b505af1158015611302573d6000803e3d6000fd5b50505050505050565b6113136126c4565b73ffffffffffffffffffffffffffffffffffffffff16611331611393565b73ffffffffffffffffffffffffffffffffffffffff1614611387576040517f08c379a000000000000000000000000000000000000000000000000000000000815260040161137e90616e97565b60405180910390fd5b6113916000613134565b565b6000601060009054906101000a900473ffffffffffffffffffffffffffffffffffffffff16905090565b6113c56126c4565b73ffffffffffffffffffffffffffffffffffffffff166113e3611393565b73ffffffffffffffffffffffffffffffffffffffff1614611439576040517f08c379a000000000000000000000000000000000000000000000000000000000815260040161143090616e97565b60405180910390fd5b600061146a8383600f600460009054906101000a900473ffffffffffffffffffffffffffffffffffffffff166131fa565b90506000349050600061147c836135cc565b905060008111156114a057611492836000612a12565b8261149d91906172f2565b91505b6114aa8383612dfb565b7fb371d8e5053de89890d88e48d9a957d6a92527d176d7c909c0ab806e5cdbc847826040516114d99190616d13565b60405180910390a15050505050565b6114f06126c4565b73ffffffffffffffffffffffffffffffffffffffff1661150e611393565b73ffffffffffffffffffffffffffffffffffffffff1614611564576040517f08c379a000000000000000000000000000000000000000000000000000000000815260040161155b90616e97565b60405180910390fd5b61158e7f27e3e4d29d60af3ae6456513164bb5db737d6fc8610aa36ad458736c9efb884c8261292c565b50565b60006011600084815260200190815260200160002060000160008373ffffffffffffffffffffffffffffffffffffffff1673ffffffffffffffffffffffffffffffffffffffff16815260200190815260200160002060009054906101000a900460ff16905092915050565b6116046126c4565b73ffffffffffffffffffffffffffffffffffffffff16611622611393565b73ffffffffffffffffffffffffffffffffffffffff1614611678576040517f08c379a000000000000000000000000000000000000000000000000000000000815260040161166f90616e97565b60405180910390fd5b60011515600d60009054906101000a900460ff16151514156116c6576040517f8616e3bb00000000000000000000000000000000000000000000000000000000815260040160405180910390fd5b6001600d60006101000a81548160ff02191690831515021790555060004790506000811415611721576040517f125d08b800000000000000000000000000000000000000000000000000000000815260040160405180910390fd5b611729611393565b73ffffffffffffffffffffffffffffffffffffffff166108fc829081150290604051600060405180830381858888f1935050505015801561176e573d6000803e3d6000fd5b507f2d2fdf8fe0a28febf1b874bc9ab0285dd0aa1a5ff1a73e7befec062d2e2a2b9081826040516117a0929190617397565b60405180910390a1506000600d60006101000a81548160ff021916908315150217905550565b6000806000806000806117f97f27e3e4d29d60af3ae6456513164bb5db737d6fc8610aa36ad458736c9efb884c33611591565b8061183657503373ffffffffffffffffffffffffffffffffffffffff1661181e611393565b73ffffffffffffffffffffffffffffffffffffffff16145b611875576040517f08c379a000000000000000000000000000000000000000000000000000000000815260040161186c90617196565b60405180910390fd5b60006118818989610828565b9050600073ffffffffffffffffffffffffffffffffffffffff16816040015173ffffffffffffffffffffffffffffffffffffffff1614156118d75760008060008060008096509650965096509650965050611a12565b6000808260a0015173ffffffffffffffffffffffffffffffffffffffff166393f1a40b8460000151306040518363ffffffff1660e01b815260040161191d9291906173c0565b6040805180830381865afa158015611939573d6000803e3d6000fd5b505050506040513d601f19601f8201168201806040525081019061195d91906173e9565b9150915060008061196d85613791565b9150915060008560e0015173ffffffffffffffffffffffffffffffffffffffff166370a08231306040518263ffffffff1660e01b81526004016119b09190616b53565b602060405180830381865afa1580156119cd573d6000803e3d6000fd5b505050506040513d601f19601f820116820180604052508101906119f19190616f81565b905060004790508585858585859c509c509c509c509c509c50505050505050505b9295509295509295565b6000801b81565b611a2b6126c4565b73ffffffffffffffffffffffffffffffffffffffff16611a49611393565b73ffffffffffffffffffffffffffffffffffffffff1614611a9f576040517f08c379a0000000000000000000000000000000000000000000000000000000008152600401611a9690616e97565b60405180910390fd5b611ac97f27e3e4d29d60af3ae6456513164bb5db737d6fc8610aa36ad458736c9efb884c82611d71565b50565b611af67f27e3e4d29d60af3ae6456513164bb5db737d6fc8610aa36ad458736c9efb884c33611591565b80611b3357503373ffffffffffffffffffffffffffffffffffffffff16611b1b611393565b73ffffffffffffffffffffffffffffffffffffffff16145b611b72576040517f08c379a0000000000000000000000000000000000000000000000000000000008152600401611b6990617196565b60405180910390fd5b6000611b7e8585610828565b9050806000015167ffffffffffffffff168367ffffffffffffffff161415611bdb576040517f3e0b6c4e000000000000000000000000000000000000000000000000000000008152600401611bd290617475565b60405180910390fd5b611be481613899565b611bed81613bf0565b60004790506000811415611c2d576040517f125d08b800000000000000000000000000000000000000000000000000000000815260040160405180910390fd5b611c728667ffffffffffffffff16868667ffffffffffffffff1686600f600460009054906101000a900473ffffffffffffffffffffffffffffffffffffffff16613e90565b9150611c7e8282612dfb565b7f276507b8409e96839105b040c4e961ae63d3fced6e9ea1c4152dd031368813008685604051611caf929190617495565b60405180910390a1505050505050565b7f27e3e4d29d60af3ae6456513164bb5db737d6fc8610aa36ad458736c9efb884c81565b600e8054611cf090616e19565b80601f0160208091040260200160405190810160405280929190818152602001828054611d1c90616e19565b8015611d695780601f10611d3e57610100808354040283529160200191611d69565b820191906000526020600020905b815481529060010190602001808311611d4c57829003601f168201915b505050505081565b611d7a82610808565b611d8b81611d866126c4565b6126cc565b611d95838361284a565b505050565b60015481565b600080611dad8484610828565b9050611db8816135cc565b91505092915050565b600080611dce8484610828565b90508060a0015173ffffffffffffffffffffffffffffffffffffffff16630755e0b66040518163ffffffff1660e01b8152600401602060405180830381865afa158015611e1f573d6000803e3d6000fd5b505050506040513d601f19601f82011682018060405250810190611e439190616f81565b91505092915050565b611e546126c4565b73ffffffffffffffffffffffffffffffffffffffff16611e72611393565b73ffffffffffffffffffffffffffffffffffffffff1614611ec8576040517f08c379a0000000000000000000000000000000000000000000000000000000008152600401611ebf90616e97565b60405180910390fd5b60011515600d60009054906101000a900460ff1615151415611f16576040517f8616e3bb00000000000000000000000000000000000000000000000000000000815260040160405180910390fd5b6001600d60006101000a81548160ff0219169083151502179055506000611f3d8383610828565b9050611f4a816000612a12565b50611f5481613899565b611f5d81613bf0565b6000479050611f80826000015167ffffffffffffffff168360200151600f613f1b565b50611fc26040518060400160405280600981526020017f4c49515549444154450000000000000000000000000000000000000000000000815250826000614218565b9050611fcc611393565b73ffffffffffffffffffffffffffffffffffffffff166108fc829081150290604051600060405180830381858888f19350505050158015612011573d6000803e3d6000fd5b507f715ed3cd24887b619d3d2da2885c7d1b21168674116e771e308e978be95934d881604051612041919061750a565b60405180910390a150506000600d60006101000a81548160ff0219169083151502179055505050565b60008054906101000a900467ffffffffffffffff1681565b61208a6126c4565b73ffffffffffffffffffffffffffffffffffffffff166120a8611393565b73ffffffffffffffffffffffffffffffffffffffff16146120fe576040517f08c379a00000000000000000000000000000000000000000000000000000000081526004016120f590616e97565b60405180910390fd5b600073ffffffffffffffffffffffffffffffffffffffff168173ffffffffffffffffffffffffffffffffffffffff16141561216e576040517f08c379a0000000000000000000000000000000000000000000000000000000008152600401612165906175aa565b60405180910390fd5b61217781613134565b50565b60007f01ffc9a7000000000000000000000000000000000000000000000000000000007bffffffffffffffffffffffffffffffffffffffffffffffffffffffff1916827bffffffffffffffffffffffffffffffffffffffffffffffffffffffff1916149050919050565b6121ec6161e8565b60006121f98686866143da565b90506001606461220991906175ca565b67ffffffffffffffff168167ffffffffffffffff16141561233b576040518061014001604052808267ffffffffffffffff168152602001604051806020016040528060008152508152602001600073ffffffffffffffffffffffffffffffffffffffff168152602001600073ffffffffffffffffffffffffffffffffffffffff168152602001600073ffffffffffffffffffffffffffffffffffffffff168152602001600073ffffffffffffffffffffffffffffffffffffffff168152602001600073ffffffffffffffffffffffffffffffffffffffff168152602001600073ffffffffffffffffffffffffffffffffffffffff168152602001604051806020016040528060008152508152602001600073ffffffffffffffffffffffffffffffffffffffff168152509150506126bc565b60008060008060008773ffffffffffffffffffffffffffffffffffffffff1663c42465e38a8867ffffffffffffffff168154811061237c5761237b617608565b5b90600052602060002090600502016001016040518263ffffffff1660e01b81526004016123a991906176cc565b600060405180830381865afa1580156123c6573d6000803e3d6000fd5b505050506040513d6000823e3d601f19601f820116820180604052508101906123ef919061775e565b5050945094509450945094506040518061014001604052808a8867ffffffffffffffff168154811061242457612423617608565b5b90600052602060002090600502016000015467ffffffffffffffff1681526020018a8867ffffffffffffffff168154811061246257612461617608565b5b9060005260206000209060050201600101805461247e90616e19565b80601f01602080910402602001604051908101604052809291908181526020018280546124aa90616e19565b80156124f75780601f106124cc576101008083540402835291602001916124f7565b820191906000526020600020905b8154815290600101906020018083116124da57829003601f168201915b505050505081526020018a8867ffffffffffffffff168154811061251e5761251d617608565b5b906000526020600020906005020160020160009054906101000a900473ffffffffffffffffffffffffffffffffffffffff1673ffffffffffffffffffffffffffffffffffffffff1681526020018a8867ffffffffffffffff168154811061258857612587617608565b5b906000526020600020906005020160030160009054906101000a900473ffffffffffffffffffffffffffffffffffffffff1673ffffffffffffffffffffffffffffffffffffffff1681526020018a8867ffffffffffffffff16815481106125f2576125f1617608565b5b906000526020600020906005020160040160009054906101000a900473ffffffffffffffffffffffffffffffffffffffff1673ffffffffffffffffffffffffffffffffffffffff1681526020018673ffffffffffffffffffffffffffffffffffffffff1681526020018573ffffffffffffffffffffffffffffffffffffffff1681526020018473ffffffffffffffffffffffffffffffffffffffff1681526020018381526020018273ffffffffffffffffffffffffffffffffffffffff1681525096505050505050505b949350505050565b600033905090565b6126d68282611591565b612765576126fb8173ffffffffffffffffffffffffffffffffffffffff1660146144b7565b6127098360001c60206144b7565b60405160200161271a9291906178f0565b6040516020818303038152906040526040517f08c379a000000000000000000000000000000000000000000000000000000000815260040161275c9190616cf1565b60405180910390fd5b5050565b6127738282611591565b6128465760016011600084815260200190815260200160002060000160008373ffffffffffffffffffffffffffffffffffffffff1673ffffffffffffffffffffffffffffffffffffffff16815260200190815260200160002060006101000a81548160ff0219169083151502179055506127eb6126c4565b73ffffffffffffffffffffffffffffffffffffffff168173ffffffffffffffffffffffffffffffffffffffff16837f2f8788117e7eff1d82e926ec794901d17c78024a50270940304540a733656f0d60405160405180910390a45b5050565b6128548282611591565b156129285760006011600084815260200190815260200160002060000160008373ffffffffffffffffffffffffffffffffffffffff1673ffffffffffffffffffffffffffffffffffffffff16815260200190815260200160002060006101000a81548160ff0219169083151502179055506128cd6126c4565b73ffffffffffffffffffffffffffffffffffffffff168173ffffffffffffffffffffffffffffffffffffffff16837ff6391f5c32d9c69d2a47ea670b442974b53935d1edc7fd64eb21e047a839171b60405160405180910390a45b5050565b6129368282612769565b5050565b60006129836001606461294d91906175ca565b8467ffffffffffffffff1684600f600460009054906101000a900473ffffffffffffffffffffffffffffffffffffffff166146f3565b905060003411156129d0576129988134612dfb565b7fb371d8e5053de89890d88e48d9a957d6a92527d176d7c909c0ab806e5cdbc847346040516129c79190616d13565b60405180910390a15b7ffd8db58874f063863fd400716c7664e80d79b28f4c24f409d6f1b885f2d0600d838260400151604051612a0592919061792a565b60405180910390a1505050565b60008060009050612a22846135cc565b90506000811415612a7b576001831415612a71576040517f08c379a0000000000000000000000000000000000000000000000000000000008152600401612a689061799f565b60405180910390fd5b6000915050612df5565b8360a0015173ffffffffffffffffffffffffffffffffffffffff1663e2bbb158856000015160006040518363ffffffff1660e01b8152600401612abf9291906179fa565b600060405180830381600087803b158015612ad957600080fd5b505af1158015612aed573d6000803e3d6000fd5b505050508360e0015173ffffffffffffffffffffffffffffffffffffffff166370a08231306040518263ffffffff1660e01b8152600401612b2e9190616b53565b602060405180830381865afa158015612b4b573d6000803e3d6000fd5b505050506040513d601f19601f82011682018060405250810190612b6f9190616f81565b90506000600267ffffffffffffffff811115612b8e57612b8d616606565b5b604051908082528060200260200182016040528015612bbc5781602001602082028036833780820191505090505b5090508460e0015181600081518110612bd857612bd7617608565b5b602002602001019073ffffffffffffffffffffffffffffffffffffffff16908173ffffffffffffffffffffffffffffffffffffffff168152505073bb4cdb9cbd36b01bd1cbaebf2de08d9173bc095c81600181518110612c3b57612c3a617608565b5b602002602001019073ffffffffffffffffffffffffffffffffffffffff16908173ffffffffffffffffffffffffffffffffffffffff1681525050612c8085838361569c565b91506000612ce06040518060400160405280600781526020017f484152564553540000000000000000000000000000000000000000000000000081525084633b9aca003a600154612cd19190617a23565b612cdb9190617a23565b614218565b905060008060009054906101000a900467ffffffffffffffff1667ffffffffffffffff161115612dee576000670de0b6b3a764000060008054906101000a900467ffffffffffffffff16612d349190617aac565b67ffffffffffffffff16606483612d4b9190617add565b612d559190617a23565b90508082612d639190617348565b9150612d6d611393565b73ffffffffffffffffffffffffffffffffffffffff166108fc829081150290604051600060405180830381858888f19350505050158015612db2573d6000803e3d6000fd5b507f2d2fdf8fe0a28febf1b874bc9ab0285dd0aa1a5ff1a73e7befec062d2e2a2b908183604051612de4929190617397565b60405180910390a1505b8093505050505b92915050565b6000811415612e36576040517f125d08b800000000000000000000000000000000000000000000000000000000815260040160405180910390fd5b60008060006064603285612e4a9190617a23565b612e549190617add565b905073bb4cdb9cbd36b01bd1cbaebf2de08d9173bc095c73ffffffffffffffffffffffffffffffffffffffff16856060015173ffffffffffffffffffffffffffffffffffffffff1614612fb8576000600267ffffffffffffffff811115612ebe57612ebd616606565b5b604051908082528060200260200182016040528015612eec5781602001602082028036833780820191505090505b50905073bb4cdb9cbd36b01bd1cbaebf2de08d9173bc095c81600081518110612f1857612f17617608565b5b602002602001019073ffffffffffffffffffffffffffffffffffffffff16908173ffffffffffffffffffffffffffffffffffffffff1681525050856060015181600181518110612f6b57612f6a617608565b5b602002602001019073ffffffffffffffffffffffffffffffffffffffff16908173ffffffffffffffffffffffffffffffffffffffff1681525050612fb086838361569c565b935050612fbc565b8092505b73bb4cdb9cbd36b01bd1cbaebf2de08d9173bc095c73ffffffffffffffffffffffffffffffffffffffff16856080015173ffffffffffffffffffffffffffffffffffffffff161461311e576000600267ffffffffffffffff81111561302457613023616606565b5b6040519080825280602002602001820160405280156130525781602001602082028036833780820191505090505b50905073bb4cdb9cbd36b01bd1cbaebf2de08d9173bc095c8160008151811061307e5761307d617608565b5b602002602001019073ffffffffffffffffffffffffffffffffffffffff16908173ffffffffffffffffffffffffffffffffffffffff16815250508560800151816001815181106130d1576130d0617608565b5b602002602001019073ffffffffffffffffffffffffffffffffffffffff16908173ffffffffffffffffffffffffffffffffffffffff168152505061311686838361569c565b925050613122565b8091505b61312d858484615e93565b5050505050565b6000601060009054906101000a900473ffffffffffffffffffffffffffffffffffffffff16905081601060006101000a81548173ffffffffffffffffffffffffffffffffffffffff021916908373ffffffffffffffffffffffffffffffffffffffff1602179055508173ffffffffffffffffffffffffffffffffffffffff168173ffffffffffffffffffffffffffffffffffffffff167f8be0079c531659141344cd1fd0a4f28419497f9722a3daafe3b4186f6b6457e060405160405180910390a35050565b6132026161e8565b60006132198667ffffffffffffffff1686866143da565b90506001606461322991906175ca565b67ffffffffffffffff168167ffffffffffffffff161415613270576132686001606461325591906175ca565b8767ffffffffffffffff168787876146f3565b9150506135c4565b60008060008060008773ffffffffffffffffffffffffffffffffffffffff1663c42465e38b6040518263ffffffff1660e01b81526004016132b19190616cf1565b600060405180830381865afa1580156132ce573d6000803e3d6000fd5b505050506040513d6000823e3d601f19601f820116820180604052508101906132f7919061775e565b5050945094509450945094506040518061014001604052808a8867ffffffffffffffff168154811061332c5761332b617608565b5b90600052602060002090600502016000015467ffffffffffffffff1681526020018a8867ffffffffffffffff168154811061336a57613369617608565b5b9060005260206000209060050201600101805461338690616e19565b80601f01602080910402602001604051908101604052809291908181526020018280546133b290616e19565b80156133ff5780601f106133d4576101008083540402835291602001916133ff565b820191906000526020600020905b8154815290600101906020018083116133e257829003601f168201915b505050505081526020018a8867ffffffffffffffff168154811061342657613425617608565b5b906000526020600020906005020160020160009054906101000a900473ffffffffffffffffffffffffffffffffffffffff1673ffffffffffffffffffffffffffffffffffffffff1681526020018a8867ffffffffffffffff16815481106134905761348f617608565b5b906000526020600020906005020160030160009054906101000a900473ffffffffffffffffffffffffffffffffffffffff1673ffffffffffffffffffffffffffffffffffffffff1681526020018a8867ffffffffffffffff16815481106134fa576134f9617608565b5b906000526020600020906005020160040160009054906101000a900473ffffffffffffffffffffffffffffffffffffffff1673ffffffffffffffffffffffffffffffffffffffff1681526020018673ffffffffffffffffffffffffffffffffffffffff1681526020018573ffffffffffffffffffffffffffffffffffffffff1681526020018473ffffffffffffffffffffffffffffffffffffffff1681526020018381526020018273ffffffffffffffffffffffffffffffffffffffff1681525096505050505050505b949350505050565b6000808260a0015173ffffffffffffffffffffffffffffffffffffffff1683610100015184600001513060405160240161360792919061792a565b604051602081830303815290604052906040516136249190617b0e565b60405180910390207bffffffffffffffffffffffffffffffffffffffffffffffffffffffff19166020820180517bffffffffffffffffffffffffffffffffffffffffffffffffffffffff83818316178352505050506040516136869190617b6c565b600060405180830381855afa9150503d80600081146136c1576040519150601f19603f3d011682016040523d82523d6000602084013e6136c6565b606091505b509150506000808251146136ed57818060200190518101906136e89190616f81565b6136f0565b60005b90506000811415613787578360e0015173ffffffffffffffffffffffffffffffffffffffff166370a08231306040518263ffffffff1660e01b81526004016137389190616b53565b602060405180830381865afa158015613755573d6000803e3d6000fd5b505050506040513d601f19601f820116820180604052508101906137799190616f81565b8161378491906172f2565b90505b8092505050919050565b600080826060015173ffffffffffffffffffffffffffffffffffffffff166370a08231306040518263ffffffff1660e01b81526004016137d19190616b53565b602060405180830381865afa1580156137ee573d6000803e3d6000fd5b505050506040513d601f19601f820116820180604052508101906138129190616f81565b9150826080015173ffffffffffffffffffffffffffffffffffffffff166370a08231306040518263ffffffff1660e01b81526004016138519190616b53565b602060405180830381865afa15801561386e573d6000803e3d6000fd5b505050506040513d601f19601f820116820180604052508101906138929190616f81565b9050915091565b6000806000610258426138ac91906172f2565b905060008460a0015173ffffffffffffffffffffffffffffffffffffffff166393f1a40b8660000151306040518363ffffffff1660e01b81526004016138f39291906173c0565b6040805180830381865afa15801561390f573d6000803e3d6000fd5b505050506040513d601f19601f8201168201806040525081019061393391906173e9565b5090508460a0015173ffffffffffffffffffffffffffffffffffffffff1663441a3e708660000151836040518363ffffffff1660e01b8152600401613979929190617b83565b600060405180830381600087803b15801561399357600080fd5b505af11580156139a7573d6000803e3d6000fd5b505050506000856040015173ffffffffffffffffffffffffffffffffffffffff166370a08231306040518263ffffffff1660e01b81526004016139ea9190616b53565b602060405180830381865afa158015613a07573d6000803e3d6000fd5b505050506040513d601f19601f82011682018060405250810190613a2b9190616f81565b90507f715ed3cd24887b619d3d2da2885c7d1b21168674116e771e308e978be95934d881604051613a5c9190617bf8565b60405180910390a173bb4cdb9cbd36b01bd1cbaebf2de08d9173bc095c73ffffffffffffffffffffffffffffffffffffffff16866080015173ffffffffffffffffffffffffffffffffffffffff161415613b4b578560c0015173ffffffffffffffffffffffffffffffffffffffff166302751cec87606001518360008030896040518763ffffffff1660e01b8152600401613afc96959493929190617c26565b60408051808303816000875af1158015613b1a573d6000803e3d6000fd5b505050506040513d601f19601f82011682018060405250810190613b3e91906173e9565b8095508196505050613be8565b8560c0015173ffffffffffffffffffffffffffffffffffffffff1663baa2abde8760600151886080015184600080308a6040518863ffffffff1660e01b8152600401613b9d9796959493929190617c87565b60408051808303816000875af1158015613bbb573d6000803e3d6000fd5b505050506040513d601f19601f82011682018060405250810190613bdf91906173e9565b80955081965050505b505050505050565b6000600267ffffffffffffffff811115613c0d57613c0c616606565b5b604051908082528060200260200182016040528015613c3b5781602001602082028036833780820191505090505b50905073bb4cdb9cbd36b01bd1cbaebf2de08d9173bc095c81600181518110613c6757613c66617608565b5b602002602001019073ffffffffffffffffffffffffffffffffffffffff16908173ffffffffffffffffffffffffffffffffffffffff16815250506000808360e0015173ffffffffffffffffffffffffffffffffffffffff166370a08231306040518263ffffffff1660e01b8152600401613ce19190616b53565b602060405180830381865afa158015613cfe573d6000803e3d6000fd5b505050506040513d601f19601f82011682018060405250810190613d229190616f81565b90506000811115613d8e578360e0015183600081518110613d4657613d45617608565b5b602002602001019073ffffffffffffffffffffffffffffffffffffffff16908173ffffffffffffffffffffffffffffffffffffffff1681525050613d8b84828561569c565b91505b600080613d9a86613791565b915091506000821115613e1357856060015185600081518110613dc057613dbf617608565b5b602002602001019073ffffffffffffffffffffffffffffffffffffffff16908173ffffffffffffffffffffffffffffffffffffffff1681525050613e0586838761569c565b84613e1091906172f2565b93505b6000811115613e8857856080015185600081518110613e3557613e34617608565b5b602002602001019073ffffffffffffffffffffffffffffffffffffffff16908173ffffffffffffffffffffffffffffffffffffffff1681525050613e7a86828761569c565b84613e8591906172f2565b93505b505050505050565b613e986161e8565b6000613ea58888866143da565b9050606467ffffffffffffffff168167ffffffffffffffff161415613f0157876040517fc54c27fc000000000000000000000000000000000000000000000000000000008152600401613ef89190616d13565b60405180910390fd5b613f0e81878787876146f3565b9150509695505050505050565b600080613f298585856143da565b67ffffffffffffffff16905082805490508110613f72576040517ff8e3d81100000000000000000000000000000000000000000000000000000000815260040160405180910390fd5b8260018480549050613f849190617348565b81548110613f9557613f94617608565b5b9060005260206000209060050201838281548110613fb657613fb5617608565b5b9060005260206000209060050201600082015481600001556001820181600101908054613fe290616e19565b613fed9291906162df565b506002820160009054906101000a900473ffffffffffffffffffffffffffffffffffffffff168160020160006101000a81548173ffffffffffffffffffffffffffffffffffffffff021916908373ffffffffffffffffffffffffffffffffffffffff1602179055506003820160009054906101000a900473ffffffffffffffffffffffffffffffffffffffff168160030160006101000a81548173ffffffffffffffffffffffffffffffffffffffff021916908373ffffffffffffffffffffffffffffffffffffffff1602179055506004820160009054906101000a900473ffffffffffffffffffffffffffffffffffffffff168160040160006101000a81548173ffffffffffffffffffffffffffffffffffffffff021916908373ffffffffffffffffffffffffffffffffffffffff1602179055509050508280548061413757614136617cf6565b5b6001900381819060005260206000209060050201600080820160009055600182016000614164919061636c565b6002820160006101000a81549073ffffffffffffffffffffffffffffffffffffffff02191690556003820160006101000a81549073ffffffffffffffffffffffffffffffffffffffff02191690556004820160006101000a81549073ffffffffffffffffffffffffffffffffffffffff0219169055505090557f2ad593f3de4cd64c0c14e82addef84e7067e22b4e432b4b77834c656cb0584d160405160405180910390a182805490509150509392505050565b600080600460009054906101000a900473ffffffffffffffffffffffffffffffffffffffff1673ffffffffffffffffffffffffffffffffffffffff1663db1e420286614262611393565b6040518363ffffffff1660e01b815260040161427f929190617d25565b60408051808303816000875af115801561429d573d6000803e3d6000fd5b505050506040513d601f19601f820116820180604052508101906142c191906173e9565b50905060008368056bc75e2d6310000083876142dd9190617a23565b6142e79190617add565b6142f191906172f2565b9050848111156142ff578490505b60008111156143ce578481111561431c578490506000945061432b565b80856143289190617348565b94505b600360009054906101000a900473ffffffffffffffffffffffffffffffffffffffff1673ffffffffffffffffffffffffffffffffffffffff166108fc829081150290604051600060405180830381858888f19350505050158015614393573d6000803e3d6000fd5b507f596e0bcd2f1a5ac10927ff9bb914618e32960081c556ad176b8b2642dc40c28881866040516143c5929190617397565b60405180910390a15b84925050509392505050565b600080600090505b82805490508167ffffffffffffffff16101561449e5784838267ffffffffffffffff168154811061441657614415617608565b5b90600052602060002090600502016000015414801561447d57508380519060200120838267ffffffffffffffff168154811061445557614454617608565b5b90600052602060002090600502016001016040516144739190617dfc565b6040518091039020145b1561448b57809150506144b0565b808061449690617e13565b9150506143e2565b50600160646144ad91906175ca565b90505b9392505050565b6060600060028360026144ca9190617a23565b6144d491906172f2565b67ffffffffffffffff8111156144ed576144ec616606565b5b6040519080825280601f01601f19166020018201604052801561451f5781602001600182028036833780820191505090505b5090507f30000000000000000000000000000000000000000000000000000000000000008160008151811061455757614556617608565b5b60200101907effffffffffffffffffffffffffffffffffffffffffffffffffffffffffffff1916908160001a9053507f7800000000000000000000000000000000000000000000000000000000000000816001815181106145bb576145ba617608565b5b60200101907effffffffffffffffffffffffffffffffffffffffffffffffffffffffffffff1916908160001a905350600060018460026145fb9190617a23565b61460591906172f2565b90505b60018111156146a5577f3031323334353637383961626364656600000000000000000000000000000000600f86166010811061464757614646617608565b5b1a60f81b82828151811061465e5761465d617608565b5b60200101907effffffffffffffffffffffffffffffffffffffffffffffffffffffffffffff1916908160001a905350600485901c94508061469e90617e44565b9050614608565b50600084146146e9576040517f08c379a00000000000000000000000000000000000000000000000000000000081526004016146e090617eba565b60405180910390fd5b8091505092915050565b6146fb6161e8565b60008060008060008673ffffffffffffffffffffffffffffffffffffffff1663c42465e38a6040518263ffffffff1660e01b815260040161473c9190616cf1565b600060405180830381865afa158015614759573d6000803e3d6000fd5b505050506040513d6000823e3d601f19601f82011682018060405250810190614782919061775e565b5050945094509450945094506000808673ffffffffffffffffffffffffffffffffffffffff16631526fe278d6040518263ffffffff1660e01b81526004016147ca9190616d13565b608060405180830381865afa1580156147e7573d6000803e3d6000fd5b505050506040513d601f19601f8201168201806040525081019061480b9190617eda565b505091509150600073ffffffffffffffffffffffffffffffffffffffff168273ffffffffffffffffffffffffffffffffffffffff161415614881576040517fba34e85000000000000000000000000000000000000000000000000000000000815260040161487890617f8d565b60405180910390fd5b60008114156148c7578b6040517fc54c27fc0000000000000000000000000000000000000000000000000000000081526004016148be9190616d13565b60405180910390fd5b600160646148d591906175ca565b67ffffffffffffffff168d67ffffffffffffffff161415614b7557896040518060a001604052808e81526020018d81526020018473ffffffffffffffffffffffffffffffffffffffff1681526020018473ffffffffffffffffffffffffffffffffffffffff16630dfe16816040518163ffffffff1660e01b8152600401602060405180830381865afa15801561496f573d6000803e3d6000fd5b505050506040513d601f19601f8201168201806040525081019061499391906170b1565b73ffffffffffffffffffffffffffffffffffffffff1681526020018473ffffffffffffffffffffffffffffffffffffffff1663d21220a76040518163ffffffff1660e01b8152600401602060405180830381865afa1580156149f9573d6000803e3d6000fd5b505050506040513d601f19601f82011682018060405250810190614a1d91906170b1565b73ffffffffffffffffffffffffffffffffffffffff168152509080600181540180825580915050600190039060005260206000209060050201600090919091909150600082015181600001556020820151816001019080519060200190614a859291906163ac565b5060408201518160020160006101000a81548173ffffffffffffffffffffffffffffffffffffffff021916908373ffffffffffffffffffffffffffffffffffffffff16021790555060608201518160030160006101000a81548173ffffffffffffffffffffffffffffffffffffffff021916908373ffffffffffffffffffffffffffffffffffffffff16021790555060808201518160040160006101000a81548173ffffffffffffffffffffffffffffffffffffffff021916908373ffffffffffffffffffffffffffffffffffffffff160217905550505060018a80549050614b6e9190617348565b9c50614e2c565b89805490508d67ffffffffffffffff1610614bbc576040517ff8e3d81100000000000000000000000000000000000000000000000000000000815260040160405180910390fd5b6040518060a001604052808d81526020018c81526020018373ffffffffffffffffffffffffffffffffffffffff1681526020018373ffffffffffffffffffffffffffffffffffffffff16630dfe16816040518163ffffffff1660e01b8152600401602060405180830381865afa158015614c3a573d6000803e3d6000fd5b505050506040513d601f19601f82011682018060405250810190614c5e91906170b1565b73ffffffffffffffffffffffffffffffffffffffff1681526020018373ffffffffffffffffffffffffffffffffffffffff1663d21220a76040518163ffffffff1660e01b8152600401602060405180830381865afa158015614cc4573d6000803e3d6000fd5b505050506040513d601f19601f82011682018060405250810190614ce891906170b1565b73ffffffffffffffffffffffffffffffffffffffff168152508a8e67ffffffffffffffff1681548110614d1e57614d1d617608565b5b9060005260206000209060050201600082015181600001556020820151816001019080519060200190614d529291906163ac565b5060408201518160020160006101000a81548173ffffffffffffffffffffffffffffffffffffffff021916908373ffffffffffffffffffffffffffffffffffffffff16021790555060608201518160030160006101000a81548173ffffffffffffffffffffffffffffffffffffffff021916908373ffffffffffffffffffffffffffffffffffffffff16021790555060808201518160040160006101000a81548173ffffffffffffffffffffffffffffffffffffffff021916908373ffffffffffffffffffffffffffffffffffffffff1602179055509050505b60008573ffffffffffffffffffffffffffffffffffffffff1663dd62ed3e30896040518363ffffffff1660e01b8152600401614e69929190617fad565b602060405180830381865afa158015614e86573d6000803e3d6000fd5b505050506040513d601f19601f82011682018060405250810190614eaa9190616f81565b1415614fef578473ffffffffffffffffffffffffffffffffffffffff1663095ea7b3307fffffffffffffffffffffffffffffffffffffffffffffffffffffffffffffffff6040518363ffffffff1660e01b8152600401614f0b929190616fae565b6020604051808303816000875af1158015614f2a573d6000803e3d6000fd5b505050506040513d601f19601f82011682018060405250810190614f4e9190617003565b508473ffffffffffffffffffffffffffffffffffffffff1663095ea7b3877fffffffffffffffffffffffffffffffffffffffffffffffffffffffffffffffff6040518363ffffffff1660e01b8152600401614faa929190616fae565b6020604051808303816000875af1158015614fc9573d6000803e3d6000fd5b505050506040513d601f19601f82011682018060405250810190614fed9190617003565b505b898d67ffffffffffffffff168154811061500c5761500b617608565b5b906000526020600020906005020160030160009054906101000a900473ffffffffffffffffffffffffffffffffffffffff1673ffffffffffffffffffffffffffffffffffffffff1663095ea7b3877fffffffffffffffffffffffffffffffffffffffffffffffffffffffffffffffff6040518363ffffffff1660e01b8152600401615098929190616fae565b6020604051808303816000875af11580156150b7573d6000803e3d6000fd5b505050506040513d601f19601f820116820180604052508101906150db9190617003565b50898d67ffffffffffffffff16815481106150f9576150f8617608565b5b906000526020600020906005020160040160009054906101000a900473ffffffffffffffffffffffffffffffffffffffff1673ffffffffffffffffffffffffffffffffffffffff1663095ea7b3877fffffffffffffffffffffffffffffffffffffffffffffffffffffffffffffffff6040518363ffffffff1660e01b8152600401615185929190616fae565b6020604051808303816000875af11580156151a4573d6000803e3d6000fd5b505050506040513d601f19601f820116820180604052508101906151c89190617003565b508173ffffffffffffffffffffffffffffffffffffffff1663095ea7b3307fffffffffffffffffffffffffffffffffffffffffffffffffffffffffffffffff6040518363ffffffff1660e01b8152600401615224929190616fae565b6020604051808303816000875af1158015615243573d6000803e3d6000fd5b505050506040513d601f19601f820116820180604052508101906152679190617003565b508173ffffffffffffffffffffffffffffffffffffffff1663095ea7b3887fffffffffffffffffffffffffffffffffffffffffffffffffffffffffffffffff6040518363ffffffff1660e01b81526004016152c3929190616fae565b6020604051808303816000875af11580156152e2573d6000803e3d6000fd5b505050506040513d601f19601f820116820180604052508101906153069190617003565b508173ffffffffffffffffffffffffffffffffffffffff1663095ea7b3877fffffffffffffffffffffffffffffffffffffffffffffffffffffffffffffffff6040518363ffffffff1660e01b8152600401615362929190616fae565b6020604051808303816000875af1158015615381573d6000803e3d6000fd5b505050506040513d601f19601f820116820180604052508101906153a59190617003565b507f2ad593f3de4cd64c0c14e82addef84e7067e22b4e432b4b77834c656cb0584d160405160405180910390a16040518061014001604052808b8f67ffffffffffffffff16815481106153fb576153fa617608565b5b90600052602060002090600502016000015467ffffffffffffffff1681526020018b8f67ffffffffffffffff168154811061543957615438617608565b5b9060005260206000209060050201600101805461545590616e19565b80601f016020809104026020016040519081016040528092919081815260200182805461548190616e19565b80156154ce5780601f106154a3576101008083540402835291602001916154ce565b820191906000526020600020905b8154815290600101906020018083116154b157829003601f168201915b505050505081526020018b8f67ffffffffffffffff16815481106154f5576154f4617608565b5b906000526020600020906005020160020160009054906101000a900473ffffffffffffffffffffffffffffffffffffffff1673ffffffffffffffffffffffffffffffffffffffff1681526020018b8f67ffffffffffffffff168154811061555f5761555e617608565b5b906000526020600020906005020160030160009054906101000a900473ffffffffffffffffffffffffffffffffffffffff1673ffffffffffffffffffffffffffffffffffffffff1681526020018b8f67ffffffffffffffff16815481106155c9576155c8617608565b5b906000526020600020906005020160040160009054906101000a900473ffffffffffffffffffffffffffffffffffffffff1673ffffffffffffffffffffffffffffffffffffffff1681526020018873ffffffffffffffffffffffffffffffffffffffff1681526020018773ffffffffffffffffffffffffffffffffffffffff1681526020018673ffffffffffffffffffffffffffffffffffffffff1681526020018581526020018473ffffffffffffffffffffffffffffffffffffffff1681525097505050505050505095945050505050565b6000808314156156d8576040517f125d08b800000000000000000000000000000000000000000000000000000000815260040160405180910390fd5b60008073ffffffffffffffffffffffffffffffffffffffff1685610120015173ffffffffffffffffffffffffffffffffffffffff1614158015615767575084610120015173ffffffffffffffffffffffffffffffffffffffff168360008151811061574657615745617608565b5b602002602001015173ffffffffffffffffffffffffffffffffffffffff1614155b80156157bf575084610120015173ffffffffffffffffffffffffffffffffffffffff168360018151811061579e5761579d617608565b5b602002602001015173ffffffffffffffffffffffffffffffffffffffff1614155b6157ca5760026157cd565b60035b60ff16905060008167ffffffffffffffff8111156157ee576157ed616606565b5b60405190808252806020026020018201604052801561581c5781602001602082028036833780820191505090505b5090506002821415615901578360008151811061583c5761583b617608565b5b60200260200101518160008151811061585857615857617608565b5b602002602001019073ffffffffffffffffffffffffffffffffffffffff16908173ffffffffffffffffffffffffffffffffffffffff1681525050836001815181106158a6576158a5617608565b5b6020026020010151816001815181106158c2576158c1617608565b5b602002602001019073ffffffffffffffffffffffffffffffffffffffff16908173ffffffffffffffffffffffffffffffffffffffff1681525050615a2a565b8360008151811061591557615914617608565b5b60200260200101518160008151811061593157615930617608565b5b602002602001019073ffffffffffffffffffffffffffffffffffffffff16908173ffffffffffffffffffffffffffffffffffffffff16815250508561012001518160018151811061598557615984617608565b5b602002602001019073ffffffffffffffffffffffffffffffffffffffff16908173ffffffffffffffffffffffffffffffffffffffff1681525050836001815181106159d3576159d2617608565b5b6020026020010151816002815181106159ef576159ee617608565b5b602002602001019073ffffffffffffffffffffffffffffffffffffffff16908173ffffffffffffffffffffffffffffffffffffffff16815250505b6060600061025842615a3c91906172f2565b9050600073bb4cdb9cbd36b01bd1cbaebf2de08d9173bc095c73ffffffffffffffffffffffffffffffffffffffff1687600081518110615a7f57615a7e617608565b5b602002602001015173ffffffffffffffffffffffffffffffffffffffff1614615aa9576000615b38565b73bb4cdb9cbd36b01bd1cbaebf2de08d9173bc095c73ffffffffffffffffffffffffffffffffffffffff166370a08231306040518263ffffffff1660e01b8152600401615af69190616b53565b602060405180830381865afa158015615b13573d6000803e3d6000fd5b505050506040513d601f19601f82011682018060405250810190615b379190616f81565b5b90506000811115615bcf5773bb4cdb9cbd36b01bd1cbaebf2de08d9173bc095c73ffffffffffffffffffffffffffffffffffffffff16632e1a7d4d826040518263ffffffff1660e01b8152600401615b909190616d13565b600060405180830381600087803b158015615baa57600080fd5b505af1158015615bbe573d6000803e3d6000fd5b505050508095505050505050615e8c565b73bb4cdb9cbd36b01bd1cbaebf2de08d9173bc095c73ffffffffffffffffffffffffffffffffffffffff168760018951615c099190617348565b81518110615c1a57615c19617608565b5b602002602001015173ffffffffffffffffffffffffffffffffffffffff161415615cd3578860c0015173ffffffffffffffffffffffffffffffffffffffff166318cbafe58960008730876040518663ffffffff1660e01b8152600401615c84959493929190618085565b6000604051808303816000875af1158015615ca3573d6000803e3d6000fd5b505050506040513d6000823e3d601f19601f82011682018060405250810190615ccc91906181a7565b9250615e5c565b73bb4cdb9cbd36b01bd1cbaebf2de08d9173bc095c73ffffffffffffffffffffffffffffffffffffffff1687600081518110615d1257615d11617608565b5b602002602001015173ffffffffffffffffffffffffffffffffffffffff161415615dca578860c0015173ffffffffffffffffffffffffffffffffffffffff16637ff36ab58960008730876040518663ffffffff1660e01b8152600401615d7b94939291906181f0565b60006040518083038185885af1158015615d99573d6000803e3d6000fd5b50505050506040513d6000823e3d601f19601f82011682018060405250810190615dc391906181a7565b9250615e5b565b8860c0015173ffffffffffffffffffffffffffffffffffffffff166338ed17398960008730876040518663ffffffff1660e01b8152600401615e10959493929190618085565b6000604051808303816000875af1158015615e2f573d6000803e3d6000fd5b505050506040513d6000823e3d601f19601f82011682018060405250810190615e5891906181a7565b92505b5b8260018551615e6b9190617348565b81518110615e7c57615e7b617608565b5b6020026020010151955050505050505b9392505050565b600080600073bb4cdb9cbd36b01bd1cbaebf2de08d9173bc095c73ffffffffffffffffffffffffffffffffffffffff16866080015173ffffffffffffffffffffffffffffffffffffffff161480615f2d575073bb4cdb9cbd36b01bd1cbaebf2de08d9173bc095c73ffffffffffffffffffffffffffffffffffffffff16866060015173ffffffffffffffffffffffffffffffffffffffff16145b1561608c5773bb4cdb9cbd36b01bd1cbaebf2de08d9173bc095c73ffffffffffffffffffffffffffffffffffffffff16866060015173ffffffffffffffffffffffffffffffffffffffff1614615f84578385615f87565b84845b8095508196505050600073bb4cdb9cbd36b01bd1cbaebf2de08d9173bc095c73ffffffffffffffffffffffffffffffffffffffff16876060015173ffffffffffffffffffffffffffffffffffffffff1614615fe6578660600151615fec565b86608001515b90508660c0015173ffffffffffffffffffffffffffffffffffffffff1663f305d71987838860008030426040518863ffffffff1660e01b815260040161603796959493929190617c26565b60606040518083038185885af1158015616055573d6000803e3d6000fd5b50505050506040513d601f19601f8201168201806040525081019061607a919061823c565b80945081955082965050505050616130565b8560c0015173ffffffffffffffffffffffffffffffffffffffff1663e8e3370087606001518860800151888860008030426040518963ffffffff1660e01b81526004016160e098979695949392919061828f565b6060604051808303816000875af11580156160ff573d6000803e3d6000fd5b505050506040513d601f19601f82011682018060405250810190616123919061823c565b8093508194508295505050505b8560a0015173ffffffffffffffffffffffffffffffffffffffff1663e2bbb1588760000151836040518363ffffffff1660e01b8152600401616173929190617b83565b600060405180830381600087803b15801561618d57600080fd5b505af11580156161a1573d6000803e3d6000fd5b505050507ffb5d1f95093901664df381ff239630a1fc4a0d1d2c36327ba1106cbc60c0cb568383836040516161d89392919061830d565b60405180910390a1505050505050565b604051806101400160405280600067ffffffffffffffff16815260200160608152602001600073ffffffffffffffffffffffffffffffffffffffff168152602001600073ffffffffffffffffffffffffffffffffffffffff168152602001600073ffffffffffffffffffffffffffffffffffffffff168152602001600073ffffffffffffffffffffffffffffffffffffffff168152602001600073ffffffffffffffffffffffffffffffffffffffff168152602001600073ffffffffffffffffffffffffffffffffffffffff16815260200160608152602001600073ffffffffffffffffffffffffffffffffffffffff1681525090565b8280546162eb90616e19565b90600052602060002090601f01602090048101928261630d576000855561635b565b82601f1061631e578054855561635b565b8280016001018555821561635b57600052602060002091601f016020900482015b8281111561635a57825482559160010191906001019061633f565b5b5090506163689190616432565b5090565b50805461637890616e19565b6000825580601f1061638a57506163a9565b601f0160209004906000526020600020908101906163a89190616432565b5b50565b8280546163b890616e19565b90600052602060002090601f0160209004810192826163da5760008555616421565b82601f106163f357805160ff1916838001178555616421565b82800160010185558215616421579182015b82811115616420578251825591602001919060010190616405565b5b50905061642e9190616432565b5090565b5b8082111561644b576000816000905550600101616433565b5090565b6000604051905090565b600080fd5b600080fd5b60007fffffffff0000000000000000000000000000000000000000000000000000000082169050919050565b61649881616463565b81146164a357600080fd5b50565b6000813590506164b58161648f565b92915050565b6000602082840312156164d1576164d0616459565b5b60006164df848285016164a6565b91505092915050565b60008115159050919050565b6164fd816164e8565b82525050565b600060208201905061651860008301846164f4565b92915050565b6000819050919050565b6165318161651e565b811461653c57600080fd5b50565b60008135905061654e81616528565b92915050565b60006020828403121561656a57616569616459565b5b60006165788482850161653f565b91505092915050565b61658a8161651e565b82525050565b60006020820190506165a56000830184616581565b92915050565b600067ffffffffffffffff82169050919050565b6165c8816165ab565b81146165d357600080fd5b50565b6000813590506165e5816165bf565b92915050565b600080fd5b600080fd5b6000601f19601f8301169050919050565b7f4e487b7100000000000000000000000000000000000000000000000000000000600052604160045260246000fd5b61663e826165f5565b810181811067ffffffffffffffff8211171561665d5761665c616606565b5b80604052505050565b600061667061644f565b905061667c8282616635565b919050565b600067ffffffffffffffff82111561669c5761669b616606565b5b6166a5826165f5565b9050602081019050919050565b82818337600083830152505050565b60006166d46166cf84616681565b616666565b9050828152602081018484840111156166f0576166ef6165f0565b5b6166fb8482856166b2565b509392505050565b600082601f830112616718576167176165eb565b5b81356167288482602086016166c1565b91505092915050565b6000806040838503121561674857616747616459565b5b6000616756858286016165d6565b925050602083013567ffffffffffffffff8111156167775761677661645e565b5b61678385828601616703565b9150509250929050565b616796816165ab565b82525050565b600081519050919050565b600082825260208201905092915050565b60005b838110156167d65780820151818401526020810190506167bb565b838111156167e5576000848401525b50505050565b60006167f68261679c565b61680081856167a7565b93506168108185602086016167b8565b616819816165f5565b840191505092915050565b600073ffffffffffffffffffffffffffffffffffffffff82169050919050565b600061684f82616824565b9050919050565b61685f81616844565b82525050565b60006101408301600083015161687e600086018261678d565b506020830151848203602086015261689682826167eb565b91505060408301516168ab6040860182616856565b5060608301516168be6060860182616856565b5060808301516168d16080860182616856565b5060a08301516168e460a0860182616856565b5060c08301516168f760c0860182616856565b5060e083015161690a60e0860182616856565b5061010083015184820361010086015261692482826167eb565b91505061012083015161693b610120860182616856565b508091505092915050565b600060208201905081810360008301526169608184616865565b905092915050565b61697181616844565b811461697c57600080fd5b50565b60008135905061698e81616968565b92915050565b600080604083850312156169ab576169aa616459565b5b60006169b98582860161653f565b92505060206169ca8582860161697f565b9150509250929050565b6000819050919050565b6169e7816169d4565b81146169f257600080fd5b50565b600081359050616a04816169de565b92915050565b600060208284031215616a2057616a1f616459565b5b6000616a2e848285016169f5565b91505092915050565b616a40816169d4565b82525050565b600082825260208201905092915050565b6000616a628261679c565b616a6c8185616a46565b9350616a7c8185602086016167b8565b616a85816165f5565b840191505092915050565b616a9981616844565b82525050565b600060a082019050616ab46000830188616a37565b8181036020830152616ac68187616a57565b9050616ad56040830186616a90565b616ae26060830185616a90565b616aef6080830184616a90565b9695505050505050565b600060208284031215616b0f57616b0e616459565b5b6000616b1d848285016165d6565b91505092915050565b600060208284031215616b3c57616b3b616459565b5b6000616b4a8482850161697f565b91505092915050565b6000602082019050616b686000830184616a90565b92915050565b60008060008060808587031215616b8857616b87616459565b5b6000616b96878288016165d6565b9450506020616ba78782880161697f565b935050604085013567ffffffffffffffff811115616bc857616bc761645e565b5b616bd487828801616703565b9250506060616be58782880161697f565b91505092959194509250565b600060c082019050616c066000830189616a37565b616c136020830188616a37565b616c206040830187616a37565b616c2d6060830186616a37565b616c3a6080830185616a37565b616c4760a0830184616a37565b979650505050505050565b60008060008060808587031215616c6c57616c6b616459565b5b6000616c7a878288016165d6565b945050602085013567ffffffffffffffff811115616c9b57616c9a61645e565b5b616ca787828801616703565b9350506040616cb8878288016165d6565b925050606085013567ffffffffffffffff811115616cd957616cd861645e565b5b616ce587828801616703565b91505092959194509250565b60006020820190508181036000830152616d0b8184616a57565b905092915050565b6000602082019050616d286000830184616a37565b92915050565b616d37816165ab565b82525050565b6000602082019050616d526000830184616d2e565b92915050565b7f416363657373436f6e74726f6c3a2063616e206f6e6c792072656e6f756e636560008201527f20726f6c657320666f722073656c660000000000000000000000000000000000602082015250565b6000616db4602f83616a46565b9150616dbf82616d58565b604082019050919050565b60006020820190508181036000830152616de381616da7565b9050919050565b7f4e487b7100000000000000000000000000000000000000000000000000000000600052602260045260246000fd5b60006002820490506001821680616e3157607f821691505b60208210811415616e4557616e44616dea565b5b50919050565b7f4f776e61626c653a2063616c6c6572206973206e6f7420746865206f776e6572600082015250565b6000616e81602083616a46565b9150616e8c82616e4b565b602082019050919050565b60006020820190508181036000830152616eb081616e74565b9050919050565b7f686f6c646261636b000000000000000000000000000000000000000000000000600082015250565b6000616eed600883616a46565b9150616ef882616eb7565b602082019050919050565b6000819050919050565b6000616f28616f23616f1e846165ab565b616f03565b6169d4565b9050919050565b616f3881616f0d565b82525050565b60006040820190508181036000830152616f5781616ee0565b9050616f666020830184616f2f565b92915050565b600081519050616f7b816169de565b92915050565b600060208284031215616f9757616f96616459565b5b6000616fa584828501616f6c565b91505092915050565b6000604082019050616fc36000830185616a90565b616fd06020830184616a37565b9392505050565b616fe0816164e8565b8114616feb57600080fd5b50565b600081519050616ffd81616fd7565b92915050565b60006020828403121561701957617018616459565b5b600061702784828501616fee565b91505092915050565b7f4841525645535445520000000000000000000000000000000000000000000000600082015250565b6000617066600983616a46565b915061707182617030565b602082019050919050565b6000602082019050818103600083015261709581617059565b9050919050565b6000815190506170ab81616968565b92915050565b6000602082840312156170c7576170c6616459565b5b60006170d58482850161709c565b91505092915050565b7f464545434f4c4c4543544f520000000000000000000000000000000000000000600082015250565b6000617114600c83616a46565b915061711f826170de565b602082019050919050565b6000602082019050818103600083015261714381617107565b9050919050565b7f526573747269637465642046756e6374696f6e00000000000000000000000000600082015250565b6000617180601383616a46565b915061718b8261714a565b602082019050919050565b600060208201905081810360008301526171af81617173565b9050919050565b7f44454641554c5400000000000000000000000000000000000000000000000000600082015250565b60006171ec600783616a46565b91506171f7826171b6565b602082019050919050565b7f48415256455354534f4c4f474153000000000000000000000000000000000000600082015250565b6000617238600e83616a46565b915061724382617202565b602082019050919050565b60006040820190508181036000830152617267816171df565b9050818103602083015261727a8161722b565b9050919050565b600081519050617290816165bf565b92915050565b6000602082840312156172ac576172ab616459565b5b60006172ba84828501617281565b91505092915050565b7f4e487b7100000000000000000000000000000000000000000000000000000000600052601160045260246000fd5b60006172fd826169d4565b9150617308836169d4565b9250827fffffffffffffffffffffffffffffffffffffffffffffffffffffffffffffffff0382111561733d5761733c6172c3565b5b828201905092915050565b6000617353826169d4565b915061735e836169d4565b925082821015617371576173706172c3565b5b828203905092915050565b60006020820190506173916000830184616f2f565b92915050565b60006040820190506173ac6000830185616a37565b6173b96020830184616a37565b9392505050565b60006040820190506173d56000830185616f2f565b6173e26020830184616a90565b9392505050565b60008060408385031215617400576173ff616459565b5b600061740e85828601616f6c565b925050602061741f85828601616f6c565b9150509250929050565b7f4e657720706f6f6c207265717569726564000000000000000000000000000000600082015250565b600061745f601183616a46565b915061746a82617429565b602082019050919050565b6000602082019050818103600083015261748e81617452565b9050919050565b60006040820190506174aa6000830185616d2e565b6174b76020830184616f2f565b9392505050565b7f4c697175696461746520546f74616c0000000000000000000000000000000000600082015250565b60006174f4600f83616a46565b91506174ff826174be565b602082019050919050565b60006040820190508181036000830152617523816174e7565b90506175326020830184616a37565b92915050565b7f4f776e61626c653a206e6577206f776e657220697320746865207a65726f206160008201527f6464726573730000000000000000000000000000000000000000000000000000602082015250565b6000617594602683616a46565b915061759f82617538565b604082019050919050565b600060208201905081810360008301526175c381617587565b9050919050565b60006175d5826165ab565b91506175e0836165ab565b92508267ffffffffffffffff038211156175fd576175fc6172c3565b5b828201905092915050565b7f4e487b7100000000000000000000000000000000000000000000000000000000600052603260045260246000fd5b60008190508160005260206000209050919050565b6000815461765981616e19565b6176638186616a46565b9450600182166000811461767e5760018114617690576176c3565b60ff19831686526020860193506176c3565b61769985617637565b60005b838110156176bb5781548189015260018201915060208101905061769c565b808801955050505b50505092915050565b600060208201905081810360008301526176e6818461764c565b905092915050565b60006177016176fc84616681565b616666565b90508281526020810184848401111561771d5761771c6165f0565b5b6177288482856167b8565b509392505050565b600082601f830112617745576177446165eb565b5b81516177558482602086016176ee565b91505092915050565b600080600080600080600060e0888a03121561777d5761777c616459565b5b600061778b8a828b0161709c565b975050602061779c8a828b0161709c565b96505060406177ad8a828b0161709c565b955050606088015167ffffffffffffffff8111156177ce576177cd61645e565b5b6177da8a828b01617730565b94505060806177eb8a828b0161709c565b93505060a06177fc8a828b0161709c565b92505060c061780d8a828b0161709c565b91505092959891949750929550565b600081905092915050565b7f416363657373436f6e74726f6c3a206163636f756e7420000000000000000000600082015250565b600061785d60178361781c565b915061786882617827565b601782019050919050565b600061787e8261679c565b617888818561781c565b93506178988185602086016167b8565b80840191505092915050565b7f206973206d697373696e6720726f6c6520000000000000000000000000000000600082015250565b60006178da60118361781c565b91506178e5826178a4565b601182019050919050565b60006178fb82617850565b91506179078285617873565b9150617912826178cd565b915061791e8284617873565b91508190509392505050565b600060408201905061793f6000830185616d2e565b61794c6020830184616a90565b9392505050565b7f4e6f7468696e6720746f20686172766573740000000000000000000000000000600082015250565b6000617989601283616a46565b915061799482617953565b602082019050919050565b600060208201905081810360008301526179b88161797c565b9050919050565b6000819050919050565b60006179e46179df6179da846179bf565b616f03565b6169d4565b9050919050565b6179f4816179c9565b82525050565b6000604082019050617a0f6000830185616f2f565b617a1c60208301846179eb565b9392505050565b6000617a2e826169d4565b9150617a39836169d4565b9250817fffffffffffffffffffffffffffffffffffffffffffffffffffffffffffffffff0483118215151615617a7257617a716172c3565b5b828202905092915050565b7f4e487b7100000000000000000000000000000000000000000000000000000000600052601260045260246000fd5b6000617ab7826165ab565b9150617ac2836165ab565b925082617ad257617ad1617a7d565b5b828204905092915050565b6000617ae8826169d4565b9150617af3836169d4565b925082617b0357617b02617a7d565b5b828204905092915050565b6000617b1a8284617873565b915081905092915050565b600081519050919050565b600081905092915050565b6000617b4682617b25565b617b508185617b30565b9350617b608185602086016167b8565b80840191505092915050565b6000617b788284617b3b565b915081905092915050565b6000604082019050617b986000830185616f2f565b617ba56020830184616a37565b9392505050565b7f5f72656d6f766564000000000000000000000000000000000000000000000000600082015250565b6000617be2600883616a46565b9150617bed82617bac565b602082019050919050565b60006040820190508181036000830152617c1181617bd5565b9050617c206020830184616a37565b92915050565b600060c082019050617c3b6000830189616a90565b617c486020830188616a37565b617c5560408301876179eb565b617c6260608301866179eb565b617c6f6080830185616a90565b617c7c60a0830184616a37565b979650505050505050565b600060e082019050617c9c600083018a616a90565b617ca96020830189616a90565b617cb66040830188616a37565b617cc360608301876179eb565b617cd060808301866179eb565b617cdd60a0830185616a90565b617cea60c0830184616a37565b98975050505050505050565b7f4e487b7100000000000000000000000000000000000000000000000000000000600052603160045260246000fd5b60006060820190508181036000830152617d3e816171df565b90508181036020830152617d528185616a57565b9050617d616040830184616a90565b9392505050565b60008190508160005260206000209050919050565b60008154617d8a81616e19565b617d948186617b30565b94506001821660008114617daf5760018114617dc057617df3565b60ff19831686528186019350617df3565b617dc985617d68565b60005b83811015617deb57815481890152600182019150602081019050617dcc565b838801955050505b50505092915050565b6000617e088284617d7d565b915081905092915050565b6000617e1e826165ab565b915067ffffffffffffffff821415617e3957617e386172c3565b5b600182019050919050565b6000617e4f826169d4565b91506000821415617e6357617e626172c3565b5b600182039050919050565b7f537472696e67733a20686578206c656e67746820696e73756666696369656e74600082015250565b6000617ea4602083616a46565b9150617eaf82617e6e565b602082019050919050565b60006020820190508181036000830152617ed381617e97565b9050919050565b60008060008060808587031215617ef457617ef3616459565b5b6000617f028782880161709c565b9450506020617f1387828801616f6c565b9350506040617f2487828801616f6c565b9250506060617f3587828801616f6c565b91505092959194509250565b7f5f6c70436f6e7472616374000000000000000000000000000000000000000000600082015250565b6000617f77600b83616a46565b9150617f8282617f41565b602082019050919050565b60006020820190508181036000830152617fa681617f6a565b9050919050565b6000604082019050617fc26000830185616a90565b617fcf6020830184616a90565b9392505050565b600081519050919050565b600082825260208201905092915050565b6000819050602082019050919050565b600061800e8383616856565b60208301905092915050565b6000602082019050919050565b600061803282617fd6565b61803c8185617fe1565b935061804783617ff2565b8060005b8381101561807857815161805f8882618002565b975061806a8361801a565b92505060018101905061804b565b5085935050505092915050565b600060a08201905061809a6000830188616a37565b6180a760208301876179eb565b81810360408301526180b98186618027565b90506180c86060830185616a90565b6180d56080830184616a37565b9695505050505050565b600067ffffffffffffffff8211156180fa576180f9616606565b5b602082029050602081019050919050565b600080fd5b600061812361811e846180df565b616666565b905080838252602082019050602084028301858111156181465761814561810b565b5b835b8181101561816f578061815b8882616f6c565b845260208401935050602081019050618148565b5050509392505050565b600082601f83011261818e5761818d6165eb565b5b815161819e848260208601618110565b91505092915050565b6000602082840312156181bd576181bc616459565b5b600082015167ffffffffffffffff8111156181db576181da61645e565b5b6181e784828501618179565b91505092915050565b600060808201905061820560008301876179eb565b81810360208301526182178186618027565b90506182266040830185616a90565b6182336060830184616a37565b95945050505050565b60008060006060848603121561825557618254616459565b5b600061826386828701616f6c565b935050602061827486828701616f6c565b925050604061828586828701616f6c565b9150509250925092565b6000610100820190506182a5600083018b616a90565b6182b2602083018a616a90565b6182bf6040830189616a37565b6182cc6060830188616a37565b6182d960808301876179eb565b6182e660a08301866179eb565b6182f360c0830185616a90565b61830060e0830184616a37565b9998505050505050505050565b60006060820190506183226000830186616a37565b61832f6020830185616a37565b61833c6040830184616a37565b94935050505056fea26469706673582212209fa581429e1baf83a546e1d60caaf918b9cf35f459367512e09056c7910f189d64736f6c634300080c0033",
  "immutableReferences": {},
  "source": "//SPDX-License-Identifier: UNLICENSED\npragma solidity ^0.8.7;\npragma experimental ABIEncoderV2;\nimport \"./Interfaces.sol\";\nimport \"./Storage.sol\";\n\ncontract combineApp is Storage, Ownable, AccessControl {\n    event sdUintLog( string message, uint value);\n    event sdUintLog( string message, uint[] value);\n    event sdDeposit(uint amount);\n    event sdHoldBack(uint amount, uint total);\n    event sdFeeSent(uint amount,uint total);\n    event sdNewPool(uint64 oldPool, uint newPool);\n    event sdLiquidityProvided(uint256 farmIn, uint256 wethIn, uint256 lpOut);\n    event sdInitialized(uint64 poolId, address lpContract);\n\n    error sdLocked();\n    error sdInitializedError();\n    error sdInsufficentBalance();\n    error sdRequiredParameter(string param);\n    \n    modifier lockFunction() {\n        if (_locked == true) revert sdLocked();\n        _locked = true;\n        _;\n        _locked = false;\n    }\n     \n    modifier allowAdmin() {\n        require(hasRole(HARVESTER,msg.sender) || owner() == msg.sender,\"Restricted Function\");\n        _;\n    }\n\n    function initialize(uint64 _poolId, address _beacon, string memory _exchangeName, address _owner) public onlyOwner payable {\n        if (_initialized == true) revert sdInitializedError();\n        _initialized = true;\n        beaconContract = _beacon;\n\n        address harvester = iBeacon(beaconContract).getAddress(\"HARVESTER\");\n        feeCollector = iBeacon(beaconContract).getAddress(\"FEECOLLECTOR\");\n\n        _setupRole(HARVESTER, harvester);\n        _setupRole(DEFAULT_ADMIN_ROLE,owner());\n\n        holdBack = 0; \n        \n        setup(_poolId, _exchangeName);\n        transferOwnership(_owner);\n    }\n\n    function addHarvester(address _address) public onlyOwner {\n        _setupRole(HARVESTER,_address);\n    }\n\n    function removeHarvester(address _address) public onlyOwner{\n        revokeRole(HARVESTER,_address);\n    }\n    function setup(uint64 _poolId, string memory _exchangeName) private  {\n        slotsLib.sSlots memory _slot = slotsLib.updateSlot(uint64(slotsLib.MAX_SLOTS+1),_poolId,_exchangeName, slots, beaconContract);\n\n        if (msg.value > 0) {\n            addFunds(_slot, msg.value);\n            emit sdDeposit(msg.value);\n        }\n        emit sdInitialized(_poolId,_slot.lpContract);\n    }\n    \n    receive() external payable {}\n\n    function deposit(uint64 _poolId, string memory _exchangeName) external onlyOwner payable  {\n        slotsLib.sSlots memory _slot = slotsLib.getDepositSlot(_poolId, _exchangeName,slots, beaconContract);\n        uint deposit_amount = msg.value;\n        uint pendingReward_val =  pendingReward(_slot);\n        if (pendingReward_val > 0) {\n            deposit_amount = deposit_amount + do_harvest(_slot, 0);\n        }\n        addFunds(_slot, deposit_amount);\n        emit sdDeposit(deposit_amount);\n    }\n\n    function swapPool(uint64 _fromPoolId, string memory _fromExchangeName, uint64 _toPoolId, string memory _toExchangeName) public allowAdmin {\n        slotsLib.sSlots memory _slot = getSlot(_fromPoolId, _fromExchangeName);\n        \n        if(_toPoolId == _slot.poolId) revert sdRequiredParameter(\"New pool required\");\n        \n        removeLiquidity(_slot);\n        revertBalance(_slot);\n        \n        uint _bal = address(this).balance;\n        if (_bal==0) revert sdInsufficentBalance();\n        \n        _slot = slotsLib.swapSlot(_fromPoolId, _fromExchangeName,_toPoolId, _toExchangeName,slots, beaconContract);\n        addFunds(_slot,_bal);\n        emit sdNewPool(_fromPoolId,_toPoolId);\n    }\n    \n    function pendingReward(uint64 _poolId, string memory _exchangeName) public view returns (uint) {        \n        slotsLib.sSlots memory _slot = getSlot(_poolId, _exchangeName);\n        return pendingReward(_slot);\n    }\n\n    function pendingReward(slotsLib.sSlots memory _slot) private view returns (uint) {\n        (, bytes memory data) = _slot.chefContract.staticcall(abi.encodeWithSignature(_slot.pendingCall, _slot.poolId,address(this)));\n        uint pendingReward_val = data.length==0?0:abi.decode(data,(uint256));\n        if (pendingReward_val == 0) {\n            pendingReward_val += ERC20(_slot.rewardToken).balanceOf(address(this));\n        }\n        return pendingReward_val;\n    }\n    \n    function liquidate(uint64 _poolId, string memory _exchangeName) public onlyOwner lockFunction {\n        slotsLib.sSlots memory _slot = getSlot(_poolId, _exchangeName);\n        do_harvest(_slot, 0);\n        removeLiquidity(_slot);\n        revertBalance(_slot);        \n        uint _total = address(this).balance;\n        slotsLib.removeSlot(_slot.poolId, _slot.exchangeName,slots);\n\n        _total = sendFee(\"LIQUIDATE\",_total,0);\n\n        payable(owner()).transfer(_total);\n        emit sdUintLog(\"Liquidate Total\",_total);\n    }\n    \n    function setHoldBack(uint64 _holdback) public onlyOwner {\n        holdBack = _holdback;\n        emit sdUintLog(\"holdback\",_holdback);\n    }\n    \n    function sendHoldBack() public onlyOwner lockFunction{\n        uint bal = address(this).balance;\n        if (bal == 0) revert sdInsufficentBalance();\n        payable(owner()).transfer(bal);\n        emit sdHoldBack(bal,bal);\n    }\n    \n    function harvest(uint64  _poolId, string memory _exchangeName) public lockFunction allowAdmin {\n        slotsLib.sSlots memory _slot = getSlot(_poolId, _exchangeName);\n        uint64 _offset = iBeacon(beaconContract).getConst('DEFAULT','HARVESTSOLOGAS');\n        uint startGas = gasleft() + 21000 + _offset;\n        uint split = do_harvest(_slot, 1);\n        \n        addFunds(_slot, split);\n        if (msg.sender != owner()) {\n            lastGas = startGas - gasleft();\n        }\n    }\n    \n    function tokenBalance(slotsLib.sSlots memory _slot) private view returns (uint _bal0,uint _bal1) {\n        _bal0 = ERC20(_slot.token0).balanceOf(address(this));\n        _bal1 = ERC20(_slot.token1).balanceOf(address(this));\n    }    \n    \n    function rescueToken(address token) public onlyOwner{\n        uint _bal = ERC20(token).balanceOf(address(this));\n        ERC20(token).transfer(owner(),_bal);\n    }\n\n    function addFunds(slotsLib.sSlots memory _slot, uint inValue) private  {\n        if (inValue==0) revert sdInsufficentBalance();\n\n        uint amount0;\n        uint amount1;\n        uint split = (inValue*50)/100;\n        \n        if (_slot.token0 != WBNB_ADDR) {\n            address[] memory path1 = new address[](2);\n            path1[0] = WBNB_ADDR;\n            path1[1] = _slot.token0;\n            amount0 = swap(_slot, split,path1);\n        }\n        else{\n            amount0 = split;\n        }\n        \n        if (_slot.token1 != WBNB_ADDR) {\n            address[] memory path2 = new address[](2);\n            path2[0] = WBNB_ADDR;\n            path2[1] = _slot.token1;\n            amount1 = swap(_slot, split,path2);\n        }       \n        else{\n            amount1 = split;\n        }\n        addLiquidity(_slot,amount0,amount1);\n    }\n\n    function addLiquidity(slotsLib.sSlots memory _slot, uint amount0, uint amount1) private {\n        uint amountA;\n        uint amountB;\n        uint liquidity;\n                \n\n        if (_slot.token1 == WBNB_ADDR || _slot.token0 == WBNB_ADDR) {\n            (amount0,amount1) = _slot.token0 == WBNB_ADDR?(amount0,amount1):(amount1,amount0);\n            address token = _slot.token0 == WBNB_ADDR?_slot.token1:_slot.token0;\n            (amountA, amountB, liquidity) = iRouter(_slot.routerContract).addLiquidityETH{value: amount0}(token, amount1, 0,0, address(this), block.timestamp);\n        }\n        else {\n            ( amountA,  amountB, liquidity) = iRouter(_slot.routerContract).addLiquidity(_slot.token0, _slot.token1, amount0, amount1, 0, 0, address(this), block.timestamp);\n        }\n\n        iMasterChef(_slot.chefContract).deposit(_slot.poolId,liquidity);\n        emit sdLiquidityProvided(amountA, amountB, liquidity);\n    }\n    \n    function swap(slotsLib.sSlots memory _slot, uint amountIn, address[] memory path) private returns (uint){\n        if (amountIn == 0) revert sdInsufficentBalance();\n        uint pathLength = (_slot.intermediateToken != address(0) && path[0] != _slot.intermediateToken && path[1] != _slot.intermediateToken) ? 3 : 2;\n        address[] memory swapPath = new address[](pathLength);\n        \n        if (pathLength == 2) {\n            swapPath[0] = path[0];\n            swapPath[1] = path[1];\n        }\n        else {\n            swapPath[0] = path[0];\n            swapPath[1] = _slot.intermediateToken;\n            swapPath[2] = path[1];\n        }\n\n        uint[] memory amounts;\n\n        uint deadline = block.timestamp + 600;\n        uint _bal = path[0] == WBNB_ADDR ? ERC20(WBNB_ADDR).balanceOf(address(this)) : 0;\n\n        if (_bal > 0) {\n            iWBNB(WBNB_ADDR).withdraw(_bal);\n            return _bal;\n        }\n        else {\n            if (path[path.length - 1] == WBNB_ADDR) {\n                amounts = iRouter(_slot.routerContract).swapExactTokensForETH(amountIn, 0,  swapPath, address(this), deadline);\n            } else if (path[0] == WBNB_ADDR) {\n                amounts = iRouter(_slot.routerContract).swapExactETHForTokens{value: amountIn}(0,swapPath,address(this),deadline);\n            }\n            else {\n                amounts = iRouter(_slot.routerContract).swapExactTokensForTokens(amountIn, 0,swapPath,address(this),deadline);\n            }\n            return amounts[swapPath.length-1];\n        }\n    }\n    \n    function do_harvest(slotsLib.sSlots memory _slot,uint revert_trans) private returns (uint) {\n        uint pendingCake = 0;\n        pendingCake = pendingReward(_slot);\n        if (pendingCake == 0) {\n            if (revert_trans == 1) {\n                revert(\"Nothing to harvest\");\n            }\n            else {\n                    return 0;\n            }\n        }\n        \n        iMasterChef(_slot.chefContract).deposit(_slot.poolId,0);\n        pendingCake = ERC20(_slot.rewardToken).balanceOf(address(this));\n\n        address[] memory path = new address[](2);\n        path[0] = _slot.rewardToken;\n        path[1] = WBNB_ADDR;\n\n        pendingCake = swap(_slot, pendingCake,path);\n        \n        uint finalReward = sendFee('HARVEST',pendingCake, ((lastGas * tx.gasprice)*10e8)); // lastGas is here in case 3rd party harvester is used, should normally be 0\n        \n        if (holdBack > 0) {\n            uint holdbackAmount = (finalReward/100) * (holdBack/10**18);\n            finalReward = finalReward - holdbackAmount;\n            payable(owner()).transfer(holdbackAmount);\n            emit sdHoldBack(holdbackAmount,finalReward);\n\n        }\n        return finalReward;\n    }\n    \n    function removeLiquidity(slotsLib.sSlots memory _slot) private {\n        uint amountTokenA;\n        uint amountTokenB;\n        uint deadline = block.timestamp + 600;\n\n        (uint _lpBal,) = iMasterChef(_slot.chefContract).userInfo(_slot.poolId,address(this));\n        iMasterChef(_slot.chefContract).withdraw(_slot.poolId,_lpBal);\n        \n        uint _removed = ERC20(_slot.lpContract).balanceOf(address(this));\n        emit sdUintLog(\"_removed\",_removed);\n        \n        if (_slot.token1 == WBNB_ADDR)\n            (amountTokenA, amountTokenB) = iRouter(_slot.routerContract).removeLiquidityETH(_slot.token0,_removed,0,0,address(this), deadline);\n        else\n            (amountTokenA, amountTokenB) = iRouter(_slot.routerContract).removeLiquidity(_slot.token0,_slot.token1,_removed,0,0,address(this), deadline);\n    }\n\n    function revertBalance(slotsLib.sSlots memory _slot) private {\n        address[] memory path = new address[](2);\n        path[1] = WBNB_ADDR;\n        uint amount0 = 0;\n\n        uint _rewards = ERC20(_slot.rewardToken).balanceOf(address (this));\n        if (_rewards > 0 ){\n            path[0] = _slot.rewardToken;\n            amount0 = swap(_slot, _rewards, path);\n        }\n\n        (uint _bal0, uint _bal1) = tokenBalance(_slot);\n        \n        if (_bal0 > 0) {\n            path[0] = _slot.token0;\n            amount0 += swap(_slot, _bal0, path);\n        }\n        \n        if (_bal1 > 0) {\n            path[0] = _slot.token1;\n            amount0 += swap(_slot, _bal1, path);\n        }\n    }\n    \n    function cakePerBlock(uint64  _poolId, string memory _exchangeName) public view returns(uint) {\n        slotsLib.sSlots memory _slot = getSlot(_poolId, _exchangeName);\n        return iMasterChef(_slot.chefContract).cakePerBlock();\n    }    \n    \n    function updatePool(uint64  _poolId, string memory _exchangeName) public {\n        slotsLib.sSlots memory _slot = getSlot(_poolId, _exchangeName);\n\n        iMasterChef(_slot.chefContract).updatePool(_slot.poolId);\n    }\n    \n    function userInfo(uint64  _poolId, string memory _exchangeName) public view allowAdmin returns (uint,uint,uint,uint,uint,uint) {\n        slotsLib.sSlots memory _slot = getSlot(_poolId, _exchangeName);\n\n        if (_slot.lpContract == address(0))  return (0,0,0,0,0,0);\n        \n        (uint a, uint b) = iMasterChef(_slot.chefContract).userInfo(_slot.poolId,address(this));\n        (uint c, uint d) = tokenBalance(_slot);\n        uint e = ERC20(_slot.rewardToken).balanceOf(address(this));\n        uint f = address(this).balance;\n        return (a,b,c,d,e,f);\n    }\n    function sendFee(string memory _type, uint _total, uint _extra) private returns (uint){\n        (uint feeAmt,) = iBeacon(beaconContract).getFee('DEFAULT',_type,owner());\n        // uint feeAmt = 19 * 1e18;\n        uint feeAmount = ((_total * feeAmt)/100e18) + _extra;\n        if (feeAmount > _total) feeAmount = _total;\n        \n        if(feeAmount > 0) {\n            if (feeAmount > _total) {\n                feeAmount = _total;\n                _total = 0;\n            }\n            else {\n                _total = _total - feeAmount;\n            }\n            payable(address(feeCollector)).transfer(feeAmount);\n            emit sdFeeSent(feeAmount,_total);\n        }\n        return _total;\n    }\n\n    function getSlot(uint64 _poolId, string memory _exchangeName) public view returns (slotsLib.sSlots memory) {\n        return slotsLib.getSlot(_poolId, _exchangeName, slots, beaconContract);\n    }\n}\n\n    ",
  "sourcePath": "/mnt/src/crypto/combine_sol/contracts/combineApp.sol",
  "compiler": {
    "name": "solc",
    "version": "0.8.12+commit.f00d7308.Emscripten.clang"
  },
  "schemaVersion": "3.4.3",
  "updatedAt": "2022-03-14T19:14:02.098Z",
  "devdoc": {
    "kind": "dev",
    "methods": {
      "getRoleAdmin(bytes32)": {
        "details": "Returns the admin role that controls `role`. See {grantRole} and {revokeRole}. To change a role's admin, use {_setRoleAdmin}."
      },
      "grantRole(bytes32,address)": {
        "details": "Grants `role` to `account`. If `account` had not been already granted `role`, emits a {RoleGranted} event. Requirements: - the caller must have ``role``'s admin role."
      },
      "hasRole(bytes32,address)": {
        "details": "Returns `true` if `account` has been granted `role`."
      },
      "owner()": {
        "details": "Returns the address of the current owner."
      },
      "renounceOwnership()": {
        "details": "Leaves the contract without owner. It will not be possible to call `onlyOwner` functions anymore. Can only be called by the current owner. NOTE: Renouncing ownership will leave the contract without an owner, thereby removing any functionality that is only available to the owner."
      },
      "renounceRole(bytes32,address)": {
        "details": "Revokes `role` from the calling account. Roles are often managed via {grantRole} and {revokeRole}: this function's purpose is to provide a mechanism for accounts to lose their privileges if they are compromised (such as when a trusted device is misplaced). If the calling account had been granted `role`, emits a {RoleRevoked} event. Requirements: - the caller must be `account`."
      },
      "revokeRole(bytes32,address)": {
        "details": "Revokes `role` from `account`. If `account` had been granted `role`, emits a {RoleRevoked} event. Requirements: - the caller must have ``role``'s admin role."
      },
      "supportsInterface(bytes4)": {
        "details": "See {IERC165-supportsInterface}."
      },
      "transferOwnership(address)": {
        "details": "Transfers ownership of the contract to a new account (`newOwner`). Can only be called by the current owner."
      }
    },
    "version": 1
  },
  "userdoc": {
    "kind": "user",
    "methods": {},
    "version": 1
  }
}