{
  "contractName": "combineApp",
  "abi": [
    {
      "inputs": [
        {
          "internalType": "uint256",
          "name": "_poolID",
          "type": "uint256"
        }
      ],
      "name": "InactivePool",
      "type": "error"
    },
    {
      "inputs": [
        {
          "internalType": "string",
          "name": "param",
          "type": "string"
        }
      ],
      "name": "RequiredParameter",
      "type": "error"
    },
    {
      "inputs": [],
      "name": "SlotOutOfBounds",
      "type": "error"
    },
    {
      "inputs": [],
      "name": "sdInitializedError",
      "type": "error"
    },
    {
      "inputs": [],
      "name": "sdInsufficentBalance",
      "type": "error"
    },
    {
      "inputs": [],
      "name": "sdInsufficentFunds",
      "type": "error"
    },
    {
      "inputs": [],
      "name": "sdLocked",
      "type": "error"
    },
    {
      "inputs": [
        {
          "internalType": "string",
          "name": "param",
          "type": "string"
        }
      ],
      "name": "sdRequiredParameter",
      "type": "error"
    },
    {
      "anonymous": false,
      "inputs": [
        {
          "indexed": true,
          "internalType": "address",
          "name": "previousOwner",
          "type": "address"
        },
        {
          "indexed": true,
          "internalType": "address",
          "name": "newOwner",
          "type": "address"
        }
      ],
      "name": "OwnershipTransferred",
      "type": "event"
    },
    {
      "anonymous": false,
      "inputs": [
        {
          "indexed": true,
          "internalType": "bytes32",
          "name": "role",
          "type": "bytes32"
        },
        {
          "indexed": true,
          "internalType": "bytes32",
          "name": "previousAdminRole",
          "type": "bytes32"
        },
        {
          "indexed": true,
          "internalType": "bytes32",
          "name": "newAdminRole",
          "type": "bytes32"
        }
      ],
      "name": "RoleAdminChanged",
      "type": "event"
    },
    {
      "anonymous": false,
      "inputs": [
        {
          "indexed": true,
          "internalType": "bytes32",
          "name": "role",
          "type": "bytes32"
        },
        {
          "indexed": true,
          "internalType": "address",
          "name": "account",
          "type": "address"
        },
        {
          "indexed": true,
          "internalType": "address",
          "name": "sender",
          "type": "address"
        }
      ],
      "name": "RoleGranted",
      "type": "event"
    },
    {
      "anonymous": false,
      "inputs": [
        {
          "indexed": true,
          "internalType": "bytes32",
          "name": "role",
          "type": "bytes32"
        },
        {
          "indexed": true,
          "internalType": "address",
          "name": "account",
          "type": "address"
        },
        {
          "indexed": true,
          "internalType": "address",
          "name": "sender",
          "type": "address"
        }
      ],
      "name": "RoleRevoked",
      "type": "event"
    },
    {
      "anonymous": false,
      "inputs": [
        {
          "indexed": false,
          "internalType": "uint256",
          "name": "amount",
          "type": "uint256"
        }
      ],
      "name": "sdDeposit",
      "type": "event"
    },
    {
      "anonymous": false,
      "inputs": [
        {
          "indexed": false,
          "internalType": "uint256",
          "name": "amount",
          "type": "uint256"
        },
        {
          "indexed": false,
          "internalType": "uint256",
          "name": "total",
          "type": "uint256"
        }
      ],
      "name": "sdFeeSent",
      "type": "event"
    },
    {
      "anonymous": false,
      "inputs": [
        {
          "indexed": false,
          "internalType": "address",
          "name": "_harvester",
          "type": "address"
        }
      ],
      "name": "sdHarvesterAdd",
      "type": "event"
    },
    {
      "anonymous": false,
      "inputs": [
        {
          "indexed": false,
          "internalType": "address",
          "name": "_harvester",
          "type": "address"
        }
      ],
      "name": "sdHarvesterRemove",
      "type": "event"
    },
    {
      "anonymous": false,
      "inputs": [
        {
          "indexed": false,
          "internalType": "uint256",
          "name": "amount",
          "type": "uint256"
        },
        {
          "indexed": false,
          "internalType": "uint256",
          "name": "total",
          "type": "uint256"
        }
      ],
      "name": "sdHoldBack",
      "type": "event"
    },
    {
      "anonymous": false,
      "inputs": [
        {
          "indexed": false,
          "internalType": "uint64",
          "name": "_poolId",
          "type": "uint64"
        },
        {
          "indexed": false,
          "internalType": "address",
          "name": "_beacon",
          "type": "address"
        },
        {
          "indexed": false,
          "internalType": "string",
          "name": "_exchangeName",
          "type": "string"
        },
        {
          "indexed": false,
          "internalType": "address",
          "name": "_owner",
          "type": "address"
        }
      ],
      "name": "sdInitialize",
      "type": "event"
    },
    {
      "anonymous": false,
      "inputs": [
        {
          "indexed": false,
          "internalType": "uint64",
          "name": "poolId",
          "type": "uint64"
        },
        {
          "indexed": false,
          "internalType": "address",
          "name": "lpContract",
          "type": "address"
        }
      ],
      "name": "sdInitialized",
      "type": "event"
    },
    {
      "anonymous": false,
      "inputs": [
        {
          "indexed": false,
          "internalType": "uint256",
          "name": "farmIn",
          "type": "uint256"
        },
        {
          "indexed": false,
          "internalType": "uint256",
          "name": "wethIn",
          "type": "uint256"
        },
        {
          "indexed": false,
          "internalType": "uint256",
          "name": "lpOut",
          "type": "uint256"
        }
      ],
      "name": "sdLiquidityProvided",
      "type": "event"
    },
    {
      "anonymous": false,
      "inputs": [
        {
          "indexed": false,
          "internalType": "uint64",
          "name": "oldPool",
          "type": "uint64"
        },
        {
          "indexed": false,
          "internalType": "uint256",
          "name": "newPool",
          "type": "uint256"
        }
      ],
      "name": "sdNewPool",
      "type": "event"
    },
    {
      "anonymous": false,
      "inputs": [
        {
          "indexed": false,
          "internalType": "address",
          "name": "_token",
          "type": "address"
        },
        {
          "indexed": false,
          "internalType": "uint256",
          "name": "_amount",
          "type": "uint256"
        }
      ],
      "name": "sdRescueToken",
      "type": "event"
    },
    {
      "anonymous": false,
      "inputs": [
        {
          "indexed": false,
          "internalType": "string",
          "name": "message",
          "type": "string"
        },
        {
          "indexed": false,
          "internalType": "uint256",
          "name": "value",
          "type": "uint256"
        }
      ],
      "name": "sdUintLog",
      "type": "event"
    },
    {
      "anonymous": false,
      "inputs": [
        {
          "indexed": false,
          "internalType": "string",
          "name": "message",
          "type": "string"
        },
        {
          "indexed": false,
          "internalType": "uint256[]",
          "name": "value",
          "type": "uint256[]"
        }
      ],
      "name": "sdUintLog",
      "type": "event"
    },
    {
      "inputs": [],
      "name": "DEFAULT_ADMIN_ROLE",
      "outputs": [
        {
          "internalType": "bytes32",
          "name": "",
          "type": "bytes32"
        }
      ],
      "stateMutability": "view",
      "type": "function"
    },
    {
      "inputs": [],
      "name": "HARVESTER",
      "outputs": [
        {
          "internalType": "bytes32",
          "name": "",
          "type": "bytes32"
        }
      ],
      "stateMutability": "view",
      "type": "function"
    },
    {
      "inputs": [],
      "name": "beaconContract",
      "outputs": [
        {
          "internalType": "address",
          "name": "",
          "type": "address"
        }
      ],
      "stateMutability": "view",
      "type": "function"
    },
    {
      "inputs": [],
      "name": "exchange",
      "outputs": [
        {
          "internalType": "string",
          "name": "",
          "type": "string"
        }
      ],
      "stateMutability": "view",
      "type": "function"
    },
    {
      "inputs": [
        {
          "internalType": "bytes32",
          "name": "role",
          "type": "bytes32"
        }
      ],
      "name": "getRoleAdmin",
      "outputs": [
        {
          "internalType": "bytes32",
          "name": "",
          "type": "bytes32"
        }
      ],
      "stateMutability": "view",
      "type": "function"
    },
    {
      "inputs": [
        {
          "internalType": "bytes32",
          "name": "role",
          "type": "bytes32"
        },
        {
          "internalType": "address",
          "name": "account",
          "type": "address"
        }
      ],
      "name": "grantRole",
      "outputs": [],
      "stateMutability": "nonpayable",
      "type": "function"
    },
    {
      "inputs": [
        {
          "internalType": "bytes32",
          "name": "role",
          "type": "bytes32"
        },
        {
          "internalType": "address",
          "name": "account",
          "type": "address"
        }
      ],
      "name": "hasRole",
      "outputs": [
        {
          "internalType": "bool",
          "name": "",
          "type": "bool"
        }
      ],
      "stateMutability": "view",
      "type": "function"
    },
    {
      "inputs": [],
      "name": "holdBack",
      "outputs": [
        {
          "internalType": "uint64",
          "name": "",
          "type": "uint64"
        }
      ],
      "stateMutability": "view",
      "type": "function"
    },
    {
      "inputs": [],
      "name": "lastGas",
      "outputs": [
        {
          "internalType": "uint256",
          "name": "",
          "type": "uint256"
        }
      ],
      "stateMutability": "view",
      "type": "function"
    },
    {
      "inputs": [],
      "name": "logic_contract",
      "outputs": [
        {
          "internalType": "address",
          "name": "",
          "type": "address"
        }
      ],
      "stateMutability": "view",
      "type": "function"
    },
    {
      "inputs": [],
      "name": "owner",
      "outputs": [
        {
          "internalType": "address",
          "name": "",
          "type": "address"
        }
      ],
      "stateMutability": "view",
      "type": "function"
    },
    {
      "inputs": [],
      "name": "renounceOwnership",
      "outputs": [],
      "stateMutability": "nonpayable",
      "type": "function"
    },
    {
      "inputs": [
        {
          "internalType": "bytes32",
          "name": "role",
          "type": "bytes32"
        },
        {
          "internalType": "address",
          "name": "account",
          "type": "address"
        }
      ],
      "name": "renounceRole",
      "outputs": [],
      "stateMutability": "nonpayable",
      "type": "function"
    },
    {
      "inputs": [
        {
          "internalType": "bytes32",
          "name": "role",
          "type": "bytes32"
        },
        {
          "internalType": "address",
          "name": "account",
          "type": "address"
        }
      ],
      "name": "revokeRole",
      "outputs": [],
      "stateMutability": "nonpayable",
      "type": "function"
    },
    {
      "inputs": [
        {
          "internalType": "uint256",
          "name": "",
          "type": "uint256"
        }
      ],
      "name": "slots",
      "outputs": [
        {
          "internalType": "uint256",
          "name": "poolId",
          "type": "uint256"
        },
        {
          "internalType": "string",
          "name": "exchangeName",
          "type": "string"
        },
        {
          "internalType": "address",
          "name": "lpContract",
          "type": "address"
        },
        {
          "internalType": "address",
          "name": "token0",
          "type": "address"
        },
        {
          "internalType": "address",
          "name": "token1",
          "type": "address"
        }
      ],
      "stateMutability": "view",
      "type": "function"
    },
    {
      "inputs": [
        {
          "internalType": "bytes4",
          "name": "interfaceId",
          "type": "bytes4"
        }
      ],
      "name": "supportsInterface",
      "outputs": [
        {
          "internalType": "bool",
          "name": "",
          "type": "bool"
        }
      ],
      "stateMutability": "view",
      "type": "function"
    },
    {
      "inputs": [
        {
          "internalType": "address",
          "name": "newOwner",
          "type": "address"
        }
      ],
      "name": "transferOwnership",
      "outputs": [],
      "stateMutability": "nonpayable",
      "type": "function"
    },
    {
      "stateMutability": "payable",
      "type": "receive"
    },
    {
      "inputs": [
        {
          "internalType": "uint64",
          "name": "_poolId",
          "type": "uint64"
        },
        {
          "internalType": "address",
          "name": "_beacon",
          "type": "address"
        },
        {
          "internalType": "string",
          "name": "_exchangeName",
          "type": "string"
        },
        {
          "internalType": "address",
          "name": "_owner",
          "type": "address"
        }
      ],
      "name": "initialize",
      "outputs": [],
      "stateMutability": "payable",
      "type": "function"
    },
    {
      "inputs": [
        {
          "internalType": "address",
          "name": "_address",
          "type": "address"
        }
      ],
      "name": "addHarvester",
      "outputs": [],
      "stateMutability": "nonpayable",
      "type": "function"
    },
    {
      "inputs": [
        {
          "internalType": "address",
          "name": "_address",
          "type": "address"
        }
      ],
      "name": "removeHarvester",
      "outputs": [],
      "stateMutability": "nonpayable",
      "type": "function"
    },
    {
      "inputs": [
        {
          "internalType": "uint64",
          "name": "_poolId",
          "type": "uint64"
        },
        {
          "internalType": "string",
          "name": "_exchangeName",
          "type": "string"
        }
      ],
      "name": "deposit",
      "outputs": [],
      "stateMutability": "payable",
      "type": "function"
    },
    {
      "inputs": [
        {
          "internalType": "uint64",
          "name": "_fromPoolId",
          "type": "uint64"
        },
        {
          "internalType": "string",
          "name": "_fromExchangeName",
          "type": "string"
        },
        {
          "internalType": "uint64",
          "name": "_toPoolId",
          "type": "uint64"
        },
        {
          "internalType": "string",
          "name": "_toExchangeName",
          "type": "string"
        }
      ],
      "name": "swapPool",
      "outputs": [],
      "stateMutability": "nonpayable",
      "type": "function"
    },
    {
      "inputs": [
        {
          "internalType": "uint64",
          "name": "_fromPoolId",
          "type": "uint64"
        },
        {
          "internalType": "string",
          "name": "_fromExchangeName",
          "type": "string"
        },
        {
          "internalType": "address",
          "name": "_toContract",
          "type": "address"
        },
        {
          "internalType": "uint64",
          "name": "_toPoolId",
          "type": "uint64"
        },
        {
          "internalType": "string",
          "name": "_toExchangeName",
          "type": "string"
        }
      ],
      "name": "swapContractPool",
      "outputs": [],
      "stateMutability": "nonpayable",
      "type": "function"
    },
    {
      "inputs": [
        {
          "internalType": "uint64",
          "name": "_poolId",
          "type": "uint64"
        },
        {
          "internalType": "string",
          "name": "_exchangeName",
          "type": "string"
        }
      ],
      "name": "pendingReward",
      "outputs": [
        {
          "internalType": "uint256",
          "name": "",
          "type": "uint256"
        }
      ],
      "stateMutability": "view",
      "type": "function"
    },
    {
      "inputs": [
        {
          "internalType": "uint64",
          "name": "_poolId",
          "type": "uint64"
        },
        {
          "internalType": "string",
          "name": "_exchangeName",
          "type": "string"
        }
      ],
      "name": "liquidate",
      "outputs": [],
      "stateMutability": "nonpayable",
      "type": "function"
    },
    {
      "inputs": [
        {
          "internalType": "uint64",
          "name": "_holdback",
          "type": "uint64"
        }
      ],
      "name": "setHoldBack",
      "outputs": [],
      "stateMutability": "nonpayable",
      "type": "function"
    },
    {
      "inputs": [],
      "name": "sendHoldBack",
      "outputs": [],
      "stateMutability": "nonpayable",
      "type": "function"
    },
    {
      "inputs": [
        {
          "internalType": "uint64",
          "name": "_poolId",
          "type": "uint64"
        },
        {
          "internalType": "string",
          "name": "_exchangeName",
          "type": "string"
        }
      ],
      "name": "harvest",
      "outputs": [],
      "stateMutability": "nonpayable",
      "type": "function"
    },
    {
      "inputs": [
        {
          "internalType": "address",
          "name": "token",
          "type": "address"
        }
      ],
      "name": "rescueToken",
      "outputs": [],
      "stateMutability": "nonpayable",
      "type": "function"
    },
    {
      "inputs": [
        {
          "internalType": "uint64",
          "name": "_poolId",
          "type": "uint64"
        },
        {
          "internalType": "string",
          "name": "_exchangeName",
          "type": "string"
        }
      ],
      "name": "updatePool",
      "outputs": [],
      "stateMutability": "nonpayable",
      "type": "function"
    },
    {
      "inputs": [
        {
          "internalType": "uint64",
          "name": "_poolId",
          "type": "uint64"
        },
        {
          "internalType": "string",
          "name": "_exchangeName",
          "type": "string"
        }
      ],
      "name": "userInfo",
      "outputs": [
        {
          "internalType": "uint256",
          "name": "",
          "type": "uint256"
        },
        {
          "internalType": "uint256",
          "name": "",
          "type": "uint256"
        },
        {
          "internalType": "uint256",
          "name": "",
          "type": "uint256"
        },
        {
          "internalType": "uint256",
          "name": "",
          "type": "uint256"
        },
        {
          "internalType": "uint256",
          "name": "",
          "type": "uint256"
        },
        {
          "internalType": "uint256",
          "name": "",
          "type": "uint256"
        }
      ],
      "stateMutability": "view",
      "type": "function"
    },
    {
      "inputs": [
        {
          "internalType": "uint64",
          "name": "_poolId",
          "type": "uint64"
        },
        {
          "internalType": "string",
          "name": "_exchangeName",
          "type": "string"
        }
      ],
      "name": "getSlot",
      "outputs": [
        {
          "components": [
            {
              "internalType": "uint64",
              "name": "poolId",
              "type": "uint64"
            },
            {
              "internalType": "string",
              "name": "exchangeName",
              "type": "string"
            },
            {
              "internalType": "address",
              "name": "lpContract",
              "type": "address"
            },
            {
              "internalType": "address",
              "name": "token0",
              "type": "address"
            },
            {
              "internalType": "address",
              "name": "token1",
              "type": "address"
            },
            {
              "internalType": "address",
              "name": "chefContract",
              "type": "address"
            },
            {
              "internalType": "address",
              "name": "routerContract",
              "type": "address"
            },
            {
              "internalType": "address",
              "name": "rewardToken",
              "type": "address"
            },
            {
              "internalType": "string",
              "name": "pendingCall",
              "type": "string"
            },
            {
              "internalType": "address",
              "name": "intermediateToken",
              "type": "address"
            }
          ],
          "internalType": "struct slotsLib.sSlots",
          "name": "",
          "type": "tuple"
        }
      ],
      "stateMutability": "view",
      "type": "function"
    }
  ],
  "bytecode": "0x60806040523480156200001157600080fd5b506200001d3362000023565b62000075565b601280546001600160a01b038381166001600160a01b0319831681179093556040519116919082907f8be0079c531659141344cd1fd0a4f28419497f9722a3daafe3b4186f6b6457e090600090a35050565b6160dd80620000856000396000f3fe6080604052600436106101e75760003560e01c80638fab591711610102578063cb9d9fa711610095578063e2eea22c11610064578063e2eea22c146105c8578063ea3fd42e146105e8578063f1ed7dc714610608578063f2fde38b1461064057600080fd5b8063cb9d9fa71461054e578063d2f7265a14610570578063d547741f14610592578063dc5d3a17146105b257600080fd5b80639f9476a7116100d15780639f9476a7146104ac578063a217fddf146104f9578063aff660951461050e578063c6e0e6051461052e57600080fd5b80638fab59171461043757806391d148541461045757806393c9c352146104775780639ad2dd871461048c57600080fd5b80634de943201161017a5780637091a2e5116101495780637091a2e5146103d1578063715018a6146103f15780638da5cb5b146104065780638dee90701461042457600080fd5b80634de943201461034657806354bb38231461037e578063611b8b2e1461039157806365034451146103b157600080fd5b806336568abe116101b657806336568abe146102b5578063387dd9e9146102d55780633dac336d146103065780634460d3cf1461032657600080fd5b806301ffc9a7146101f3578063248a9ca3146102285780632d9d97e2146102665780632f2ff15d1461029357600080fd5b366101ee57005b600080fd5b3480156101ff57600080fd5b5061021361020e3660046151ab565b610660565b60405190151581526020015b60405180910390f35b34801561023457600080fd5b506102586102433660046151d5565b60009081526013602052604090206001015490565b60405190815260200161021f565b34801561027257600080fd5b506102866102813660046152ef565b610697565b60405161021f919061539a565b34801561029f57600080fd5b506102b36102ae3660046154ac565b6106cb565b005b3480156102c157600080fd5b506102b36102d03660046154ac565b6106f6565b3480156102e157600080fd5b506102f56102f03660046151d5565b610779565b60405161021f9594939291906154dc565b34801561031257600080fd5b506102b361032136600461551f565b610852565b34801561033257600080fd5b506102b361034136600461553c565b6108f5565b34801561035257600080fd5b50600254610366906001600160a01b031681565b6040516001600160a01b03909116815260200161021f565b6102b361038c366004615559565b610a4c565b34801561039d57600080fd5b506102b36103ac3660046152ef565b610d03565b3480156103bd57600080fd5b50600454610366906001600160a01b031681565b3480156103dd57600080fd5b506102b36103ec3660046152ef565b610e85565b3480156103fd57600080fd5b506102b3610f02565b34801561041257600080fd5b506012546001600160a01b0316610366565b6102b36104323660046152ef565b610f38565b34801561044357600080fd5b506102b361045236600461553c565b610fbf565b34801561046357600080fd5b506102136104723660046154ac565b61103a565b34801561048357600080fd5b506102b3611065565b34801561049857600080fd5b506102b36104a73660046155cd565b611168565b3480156104b857600080fd5b506104cc6104c73660046152ef565b611239565b604080519687526020870195909552938501929092526060840152608083015260a082015260c00161021f565b34801561050557600080fd5b50610258600081565b34801561051a57600080fd5b506102b361052936600461553c565b6113f4565b34801561053a57600080fd5b506102b361054936600461566c565b61146f565b34801561055a57600080fd5b5061025860008051602061608883398151915281565b34801561057c57600080fd5b50610585611567565b60405161021f91906156f6565b34801561059e57600080fd5b506102b36105ad3660046154ac565b6115f5565b3480156105be57600080fd5b5061025860015481565b3480156105d457600080fd5b506102586105e33660046152ef565b61161b565b3480156105f457600080fd5b506102b36106033660046152ef565b61163b565b34801561061457600080fd5b50600054610628906001600160401b031681565b6040516001600160401b03909116815260200161021f565b34801561064c57600080fd5b506102b361065b36600461553c565b6117cb565b60006001600160e01b03198216637965db0b60e01b148061069157506301ffc9a760e01b6001600160e01b03198316145b92915050565b61069f615007565b6004546106c4906001600160401b0385169084906010906001600160a01b0316611866565b9392505050565b6000828152601360205260409020600101546106e78133611be7565b6106f18383611c4b565b505050565b6001600160a01b038116331461076b5760405162461bcd60e51b815260206004820152602f60248201527f416363657373436f6e74726f6c3a2063616e206f6e6c792072656e6f756e636560448201526e103937b632b9903337b91039b2b63360891b60648201526084015b60405180910390fd5b6107758282611cd1565b5050565b6010818154811061078957600080fd5b600091825260209091206005909102018054600182018054919350906107ae90615709565b80601f01602080910402602001604051908101604052809291908181526020018280546107da90615709565b80156108275780601f106107fc57610100808354040283529160200191610827565b820191906000526020600020905b81548152906001019060200180831161080a57829003601f168201915b505050506002830154600384015460049094015492936001600160a01b039182169390821692501685565b6012546001600160a01b0316331461087c5760405162461bcd60e51b815260040161076290615743565b6000805467ffffffffffffffff19166001600160401b0383169081179091556040805181815260089181019190915267686f6c646261636b60c01b606082015260208101919091527f715ed3cd24887b619d3d2da2885c7d1b21168674116e771e308e978be95934d8906080015b60405180910390a150565b6012546001600160a01b0316331461091f5760405162461bcd60e51b815260040161076290615743565b6040516370a0823160e01b81523060048201526000906001600160a01b038316906370a0823190602401602060405180830381865afa158015610966573d6000803e3d6000fd5b505050506040513d601f19601f8201168201806040525081019061098a9190615778565b9050816001600160a01b031663a9059cbb6109ad6012546001600160a01b031690565b836040518363ffffffff1660e01b81526004016109cb929190615791565b6020604051808303816000875af11580156109ea573d6000803e3d6000fd5b505050506040513d601f19601f82011682018060405250810190610a0e91906157bf565b507f746746ac44b7e67ef64ac95235dedba141b50f126cf1ee4d6df64ba8f2db88288282604051610a40929190615791565b60405180910390a15050565b6012546001600160a01b03163314610a765760405162461bcd60e51b815260040161076290615743565b600e54610100900460ff161515600103610aa357604051631e5d0f9d60e11b815260040160405180910390fd5b600e805461ff001916610100179055600480546001600160a01b0385166001600160a01b03199091168117825560405163bf40fac160e01b815260009263bf40fac191610b0e91016020808252600990820152682420a92b22a9aa22a960b91b604082015260600190565b602060405180830381865afa158015610b2b573d6000803e3d6000fd5b505050506040513d601f19601f82011682018060405250810190610b4f91906157e5565b6004805460405163bf40fac160e01b81529293506001600160a01b03169163bf40fac191610b9e91016020808252600c908201526b2322a2a1a7a62622a1aa27a960a11b604082015260600190565b602060405180830381865afa158015610bbb573d6000803e3d6000fd5b505050506040513d601f19601f82011682018060405250810190610bdf91906157e5565b600380546001600160a01b0319166001600160a01b0392831617905560048054604051635f59926560e11b815292169163beb324ca91610c2191879101615802565b60408051808303816000875af1158015610c3f573d6000803e3d6000fd5b505050506040513d601f19601f82011682018060405250810190610c63919061583e565b50601155610c7f60008051602061608883398151915282611d38565b610c9b6000610c966012546001600160a01b031690565b611d38565b6000805467ffffffffffffffff19169055610cb68584611d42565b610cbf826117cb565b7fd66b9774701c93571723ccd53d767d583300ae5b5dc0fe4ac8b0856565de15fd85858585604051610cf49493929190615862565b60405180910390a15050505050565b600e5460ff161515600103610d2b57604051638616e3bb60e01b815260040160405180910390fd5b600e805460ff19166001179055610d506000805160206160888339815191523361103a565b80610d74575033610d696012546001600160a01b031690565b6001600160a01b0316145b610d905760405162461bcd60e51b8152600401610762906158a7565b6000610d9c8383610697565b6004805460405163d95ad37160e01b81529293506000926001600160a01b039091169163d95ad37191610dcf91016158d4565b6020604051808303816000875af1158015610dee573d6000803e3d6000fd5b505050506040513d601f19601f82011682018060405250810190610e129190615928565b90506000816001600160401b03165a610e2d9061520861595b565b610e37919061595b565b90506000610e46846001611dfc565b9050610e528482612124565b6012546001600160a01b03163314610e73575a610e6f9083615973565b6001555b5050600e805460ff1916905550505050565b6000610e918383610697565b60a081015181516040516328f582d360e11b81526001600160401b0390911660048201529192506001600160a01b0316906351eb05a690602401600060405180830381600087803b158015610ee557600080fd5b505af1158015610ef9573d6000803e3d6000fd5b50505050505050565b6012546001600160a01b03163314610f2c5760405162461bcd60e51b815260040161076290615743565b610f3660006123c5565b565b600454600090610f5790849084906010906001600160a01b0316612417565b9050346000610f6583612726565b90508015610f8557610f78836000611dfc565b610f82908361595b565b91505b610f8f8383612124565b6040518281527fb371d8e5053de89890d88e48d9a957d6a92527d176d7c909c0ab806e5cdbc84790602001610cf4565b6012546001600160a01b03163314610fe95760405162461bcd60e51b815260040161076290615743565b61100160008051602061608883398151915282611d38565b6040516001600160a01b03821681527f1f938bf9dbd915b6999411f417532fd6c4a4e9ee127102237c8ee98d556019f7906020016108ea565b60009182526013602090815260408084206001600160a01b0393909316845291905290205460ff1690565b6012546001600160a01b0316331461108f5760405162461bcd60e51b815260040161076290615743565b600e5460ff1615156001036110b757604051638616e3bb60e01b815260040160405180910390fd5b600e805460ff191660011790554760008190036110e75760405163024ba11760e31b815260040160405180910390fd5b6012546040516001600160a01b039091169082156108fc029083906000818181858888f19350505050158015611121573d6000803e3d6000fd5b5060408051828152602081018390527f2d2fdf8fe0a28febf1b874bc9ab0285dd0aa1a5ff1a73e7befec062d2e2a2b90910160405180910390a150600e805460ff19169055565b6111806000805160206160888339815191523361103a565b806111a45750336111996012546001600160a01b031690565b6001600160a01b0316145b6111c05760405162461bcd60e51b8152600401610762906158a7565b60006111cd868487612893565b509050836001600160a01b0316638dee90708285856040518463ffffffff1660e01b81526004016111ff92919061598a565b6000604051808303818588803b15801561121857600080fd5b505af115801561122c573d6000803e3d6000fd5b5050505050505050505050565b60008060008060008061125a6000805160206160888339815191523361103a565b8061127e5750336112736012546001600160a01b031690565b6001600160a01b0316145b61129a5760405162461bcd60e51b8152600401610762906158a7565b60006112a68989610697565b60408101519091506001600160a01b03166112d657600080600080600080965096509650965096509650506113ea565b60a081015181516040516393f1a40b60e01b815260009283926001600160a01b03909116916393f1a40b9161130f9130906004016159ac565b6040805180830381865afa15801561132b573d6000803e3d6000fd5b505050506040513d601f19601f8201168201806040525081019061134f919061583e565b9150915060008061135f85612945565b60e08701516040516370a0823160e01b81523060048201529294509092506000916001600160a01b03909116906370a0823190602401602060405180830381865afa1580156113b2573d6000803e3d6000fd5b505050506040513d601f19601f820116820180604052508101906113d69190615778565b949b50929950909750955090935047925050505b9295509295509295565b6012546001600160a01b0316331461141e5760405162461bcd60e51b815260040161076290615743565b611436600080516020616088833981519152826115f5565b6040516001600160a01b03821681527fcb70a184c46c28acea35db867284ba8cf1ca6b88b8326e657b6ecb3c14a3a871906020016108ea565b6114876000805160206160888339815191523361103a565b806114ab5750336114a06012546001600160a01b031690565b6001600160a01b0316145b6114c75760405162461bcd60e51b8152600401610762906158a7565b6000806114d5868587612893565b9150915061150f866001600160401b031686866001600160401b0316866010600460009054906101000a90046001600160a01b0316612a2e565b905061151b8183612124565b604080516001600160401b038089168252861660208201527f276507b8409e96839105b040c4e961ae63d3fced6e9ea1c4152dd0313688130091015b60405180910390a1505050505050565b600f805461157490615709565b80601f01602080910402602001604051908101604052809291908181526020018280546115a090615709565b80156115ed5780601f106115c2576101008083540402835291602001916115ed565b820191906000526020600020905b8154815290600101906020018083116115d057829003601f168201915b505050505081565b6000828152601360205260409020600101546116118133611be7565b6106f18383611cd1565b6000806116288484610697565b905061163381612726565b949350505050565b6012546001600160a01b031633146116655760405162461bcd60e51b815260040161076290615743565b600e5460ff16151560010361168d57604051638616e3bb60e01b815260040160405180910390fd5b600e805460ff1916600117905560006116a68383610697565b90506116b3816000611dfc565b506116bd81612a8c565b6116c681612dfb565b60004790506116e882600001516001600160401b031683602001516010612fc5565b50611716604051806040016040528060098152602001684c495155494441544560b81b815250826000613164565b905061172a6012546001600160a01b031690565b6001600160a01b03166108fc829081150290604051600060405180830381858888f19350505050158015611762573d6000803e3d6000fd5b5060408051818152600f818301526e131a5c5d5a59185d1948151bdd185b608a1b60608201526020810183905290517f715ed3cd24887b619d3d2da2885c7d1b21168674116e771e308e978be95934d89181900360800190a15050600e805460ff191690555050565b6012546001600160a01b031633146117f55760405162461bcd60e51b815260040161076290615743565b6001600160a01b03811661185a5760405162461bcd60e51b815260206004820152602660248201527f4f776e61626c653a206e6577206f776e657220697320746865207a65726f206160448201526564647265737360d01b6064820152608401610762565b611863816123c5565b50565b61186e615007565b600061187b8686866132ca565b9050611889606460016159ce565b6001600160401b0316816001600160401b0316036119185760408051610140810182526001600160401b039092168252805160208181018352600080835281850192909252838301829052606084018290526080840182905260a0840182905260c0840182905260e0840182905282519081019092528082526101008301919091526101208201529050611633565b6000836001600160a01b031663c42465e386846001600160401b031681548110611944576119446159f9565b90600052602060002090600502016001016040518263ffffffff1660e01b81526004016119719190615a0f565b600060405180830381865afa15801561198e573d6000803e3d6000fd5b505050506040513d6000823e601f3d908101601f191682016040526119b69190810190615ad9565b905060405180610140016040528086846001600160401b0316815481106119df576119df6159f9565b9060005260206000209060050201600001546001600160401b0316815260200186846001600160401b031681548110611a1a57611a1a6159f9565b90600052602060002090600502016001018054611a3690615709565b80601f0160208091040260200160405190810160405280929190818152602001828054611a6290615709565b8015611aaf5780601f10611a8457610100808354040283529160200191611aaf565b820191906000526020600020905b815481529060010190602001808311611a9257829003601f168201915b5050505050815260200186846001600160401b031681548110611ad457611ad46159f9565b6000918252602091829020600260059092020101546001600160a01b03168252875491019087906001600160401b038616908110611b1457611b146159f9565b6000918252602091829020600360059092020101546001600160a01b03168252875491019087906001600160401b038616908110611b5457611b546159f9565b906000526020600020906005020160040160009054906101000a90046001600160a01b03166001600160a01b0316815260200182600001516001600160a01b0316815260200182602001516001600160a01b0316815260200182604001516001600160a01b031681526020018260a00151815260200182606001516001600160a01b031681525092505050949350505050565b611bf1828261103a565b61077557611c09816001600160a01b0316601461338c565b611c1483602061338c565b604051602001611c25929190615bf9565b60408051601f198184030181529082905262461bcd60e51b8252610762916004016156f6565b611c55828261103a565b6107755760008281526013602090815260408083206001600160a01b03851684529091529020805460ff19166001179055611c8d3390565b6001600160a01b0316816001600160a01b0316837f2f8788117e7eff1d82e926ec794901d17c78024a50270940304540a733656f0d60405160405180910390a45050565b611cdb828261103a565b156107755760008281526013602090815260408083206001600160a01b0385168085529252808320805460ff1916905551339285917ff6391f5c32d9c69d2a47ea670b442974b53935d1edc7fd64eb21e047a839171b9190a45050565b6107758282611c4b565b6000611d74611d53606460016159ce565b6004546001600160401b0386169085906010906001600160a01b0316613527565b90503415611dba57611d868134612124565b6040513481527fb371d8e5053de89890d88e48d9a957d6a92527d176d7c909c0ab806e5cdbc8479060200160405180910390a15b7ffd8db58874f063863fd400716c7664e80d79b28f4c24f409d6f1b885f2d0600d838260400151604051611def9291906159ac565b60405180910390a1505050565b600080611e0884612726565b905080600003611e615782600103611e575760405162461bcd60e51b8152602060048201526012602482015271139bdd1a1a5b99c81d1bc81a185c9d995cdd60721b6044820152606401610762565b6000915050610691565b60a08401518451604051631c57762b60e31b81526001600160401b039091166004820152600060248201526001600160a01b039091169063e2bbb15890604401600060405180830381600087803b158015611ebb57600080fd5b505af1158015611ecf573d6000803e3d6000fd5b50505060e08501516040516370a0823160e01b81523060048201526001600160a01b0390911691506370a0823190602401602060405180830381865afa158015611f1d573d6000803e3d6000fd5b505050506040513d601f19601f82011682018060405250810190611f419190615778565b60408051600280825260608201835292935060009290916020830190803683370190505090508460e0015181600081518110611f7f57611f7f6159f9565b60200260200101906001600160a01b031690816001600160a01b03168152505060008051602061606883398151915281600181518110611fc157611fc16159f9565b60200260200101906001600160a01b031690816001600160a01b031681525050611fec8583836145b8565b9150600061203560405180604001604052806007815260200166121054959154d560ca1b815250843a6001546120229190615c6e565b61203090633b9aca00615c6e565b613164565b6000549091506001600160401b03161561211b576000805461206990670de0b6b3a7640000906001600160401b0316615ca3565b6001600160401b031661207d606484615cc9565b6120879190615c6e565b90506120938183615973565b91506120a76012546001600160a01b031690565b6001600160a01b03166108fc829081150290604051600060405180830381858888f193505050501580156120df573d6000803e3d6000fd5b5060408051828152602081018490527f2d2fdf8fe0a28febf1b874bc9ab0285dd0aa1a5ff1a73e7befec062d2e2a2b90910160405180910390a1505b95945050505050565b806000036121455760405163024ba11760e31b815260040160405180910390fd5b6040805160028082526060820183526000928392839283926020830190803683370190505090506000805160206160688339815191528160008151811061218e5761218e6159f9565b60200260200101906001600160a01b031690816001600160a01b0316815250508560600151816001815181106121c6576121c66159f9565b6001600160a01b0392831660209182029290920101526060870151166000805160206160688339815191521480612217575060808601516001600160a01b0316600080516020616068833981519152145b156122da576064612229866032615c6e565b6122339190615cc9565b91506000805160206160688339815191526001600160a01b031686606001516001600160a01b0316036122665781612271565b6122718683836145b8565b935085608001518160018151811061228b5761228b6159f9565b6001600160a01b03928316602091820292909201015260808701511673bb4cdb9cbd36b01bd1cbaebf2de08d9173bc095b19016122c857816122d3565b6122d38683836145b8565b92506123b2565b6122e58686836145b8565b935060646122f4856032615c6e565b6122fe9190615cc9565b91506305f5e10060646011546123149190615cc9565b61231e9084615c6e565b6123289190615cc9565b6123329083615973565b915085606001518160008151811061234c5761234c6159f9565b60200260200101906001600160a01b031690816001600160a01b031681525050856080015181600181518110612384576123846159f9565b60200260200101906001600160a01b031690816001600160a01b0316815250506123af8683836145b8565b92505b6123bd868585614d58565b505050505050565b601280546001600160a01b038381166001600160a01b0319831681179093556040519116919082907f8be0079c531659141344cd1fd0a4f28419497f9722a3daafe3b4186f6b6457e090600090a35050565b61241f615007565b6000612435866001600160401b031686866132ca565b9050612443606460016159ce565b6001600160401b0316816001600160401b0316036124845761247c61246a606460016159ce565b876001600160401b0316878787613527565b915050611633565b60405163c42465e360e01b81526000906001600160a01b0385169063c42465e3906124b39089906004016156f6565b600060405180830381865afa1580156124d0573d6000803e3d6000fd5b505050506040513d6000823e601f3d908101601f191682016040526124f89190810190615ad9565b905060405180610140016040528086846001600160401b031681548110612521576125216159f9565b9060005260206000209060050201600001546001600160401b0316815260200186846001600160401b03168154811061255c5761255c6159f9565b9060005260206000209060050201600101805461257890615709565b80601f01602080910402602001604051908101604052809291908181526020018280546125a490615709565b80156125f15780601f106125c6576101008083540402835291602001916125f1565b820191906000526020600020905b8154815290600101906020018083116125d457829003601f168201915b5050505050815260200186846001600160401b031681548110612616576126166159f9565b6000918252602091829020600260059092020101546001600160a01b03168252875491019087906001600160401b038616908110612656576126566159f9565b6000918252602091829020600360059092020101546001600160a01b03168252875491019087906001600160401b038616908110612696576126966159f9565b906000526020600020906005020160040160009054906101000a90046001600160a01b03166001600160a01b0316815260200182600001516001600160a01b0316815260200182602001516001600160a01b0316815260200182604001516001600160a01b031681526020018260a00151815260200182606001516001600160a01b031681525092505050611633565b6000808260a001516001600160a01b03168361010001518460000151306040516024016127549291906159ac565b60408051601f19818403018152908290529161276f91615cdd565b60408051918290039091206020830180516001600160e01b03166001600160e01b0319909216919091179052516127a69190615cdd565b600060405180830381855afa9150503d80600081146127e1576040519150601f19603f3d011682016040523d82523d6000602084013e6127e6565b606091505b509150506000815160001461280e57818060200190518101906128099190615778565b612811565b60005b9050806000036106c45760e08401516040516370a0823160e01b81523060048201526001600160a01b03909116906370a0823190602401602060405180830381865afa158015612865573d6000803e3d6000fd5b505050506040513d601f19601f820116820180604052508101906128899190615778565b611633908261595b565b600061289d615007565b60006128a98685610697565b905080600001516001600160401b0316856001600160401b03160361290557604051631f05b62760e11b815260206004820152601160248201527013995dc81c1bdbdb081c995c5d5a5c9959607a1b6044820152606401610762565b61290e81612a8c565b61291781612dfb565b47600081900361293a5760405163024ba11760e31b815260040160405180910390fd5b969095509350505050565b60608101516040516370a0823160e01b815230600482015260009182916001600160a01b03909116906370a0823190602401602060405180830381865afa158015612994573d6000803e3d6000fd5b505050506040513d601f19601f820116820180604052508101906129b89190615778565b60808401516040516370a0823160e01b81523060048201529193506001600160a01b0316906370a0823190602401602060405180830381865afa158015612a03573d6000803e3d6000fd5b505050506040513d601f19601f82011682018060405250810190612a279190615778565b9050915091565b612a36615007565b6000612a438888866132ca565b90506063196001600160401b03821601612a735760405163315309ff60e21b815260048101899052602401610762565b612a808187878787613527565b98975050505050505050565b60008080612a9c4261025861595b565b60a085015185516040516393f1a40b60e01b81529293506000926001600160a01b03909216916393f1a40b91612ad69130906004016159ac565b6040805180830381865afa158015612af2573d6000803e3d6000fd5b505050506040513d601f19601f82011682018060405250810190612b16919061583e565b5060a08601518651604051630441a3e760e41b81526001600160401b039091166004820152602481018390529192506001600160a01b03169063441a3e7090604401600060405180830381600087803b158015612b7257600080fd5b505af1158015612b86573d6000803e3d6000fd5b5050505060408581015190516370a0823160e01b81523060048201526000916001600160a01b0316906370a0823190602401602060405180830381865afa158015612bd5573d6000803e3d6000fd5b505050506040513d601f19601f82011682018060405250810190612bf99190615778565b90507f715ed3cd24887b619d3d2da2885c7d1b21168674116e771e308e978be95934d881604051612c4f919060408082526008908201526717dc995b5bdd995960c21b6060820152602081019190915260800190565b60405180910390a16000806000805160206160688339815191526001600160a01b031688606001516001600160a01b031614612c945787606001518860800151612c9f565b876080015188606001515b909250905073bb4cdb9cbd36b01bd1cbaebf2de08d9173bc095b196001600160a01b03821601612d50578760c001516001600160a01b03166302751cec8385600080308b6040518763ffffffff1660e01b8152600401612d0496959493929190615cf9565b60408051808303816000875af1158015612d22573d6000803e3d6000fd5b505050506040513d601f19601f82011682018060405250810190612d46919061583e565b9097509550612df1565b60c0880151604051635d5155ef60e11b81526001600160a01b03848116600483015283811660248301526044820186905260006064830181905260848301523060a483015260c482018890529091169063baa2abde9060e40160408051808303816000875af1158015612dc7573d6000803e3d6000fd5b505050506040513d601f19601f82011682018060405250810190612deb919061583e565b90975095505b5050505050505050565b60408051600280825260608201835260009260208301908036833701905050905060008051602061606883398151915281600181518110612e3e57612e3e6159f9565b6001600160a01b03928316602091820292909201015260e08301516040516370a0823160e01b8152306004820152600092839216906370a0823190602401602060405180830381865afa158015612e99573d6000803e3d6000fd5b505050506040513d601f19601f82011682018060405250810190612ebd9190615778565b90508015612f0b578360e0015183600081518110612edd57612edd6159f9565b60200260200101906001600160a01b031690816001600160a01b031681525050612f088482856145b8565b91505b600080612f1786612945565b90925090508115612f7257856060015185600081518110612f3a57612f3a6159f9565b60200260200101906001600160a01b031690816001600160a01b031681525050612f658683876145b8565b612f6f908561595b565b93505b80156123bd57856080015185600081518110612f9057612f906159f9565b60200260200101906001600160a01b031690816001600160a01b031681525050612fbb8682876145b8565b610ef9908561595b565b600080612fd38585856132ca565b6001600160401b03169050828054905081106130025760405163f8e3d81160e01b815260040160405180910390fd5b8254839061301290600190615973565b81548110613022576130226159f9565b9060005260206000209060050201838281548110613042576130426159f9565b906000526020600020906005020160008201548160000155600182018160010190805461306e90615709565b61307992919061505d565b5060028281015490820180546001600160a01b03199081166001600160a01b039384161790915560038085015490840180548316918416919091179055600493840154939092018054909216921691909117905582548390806130de576130de615d34565b6000828152602081206005600019909301928302018181559061310460018301826150e8565b506002810180546001600160a01b03199081169091556003820180548216905560049091018054909116905590556040517f2ad593f3de4cd64c0c14e82addef84e7067e22b4e432b4b77834c656cb0584d190600090a150505492915050565b60045460009081906001600160a01b031663db1e42028661318d6012546001600160a01b031690565b6040518363ffffffff1660e01b81526004016131aa929190615d4a565b60408051808303816000875af11580156131c8573d6000803e3d6000fd5b505050506040513d601f19601f820116820180604052508101906131ec919061583e565b50905060008368056bc75e2d631000006132068488615c6e565b6132109190615cc9565b61321a919061595b565b9050848111156132275750835b80156132c0578481111561323e575060009361324b565b6132488186615973565b94505b6003546040516001600160a01b039091169082156108fc029083906000818181858888f19350505050158015613285573d6000803e3d6000fd5b5060408051828152602081018790527f596e0bcd2f1a5ac10927ff9bb914618e32960081c556ad176b8b2642dc40c288910160405180910390a15b5092949350505050565b6000805b82546001600160401b038216101561337f578483826001600160401b0316815481106132fc576132fc6159f9565b9060005260206000209060050201600001541480156133615750838051906020012083826001600160401b031681548110613339576133396159f9565b90600052602060002090600502016001016040516133579190615d9b565b6040518091039020145b1561336d5790506106c4565b8061337781615e0d565b9150506132ce565b50611633606460016159ce565b6060600061339b836002615c6e565b6133a690600261595b565b6001600160401b038111156133bd576133bd615203565b6040519080825280601f01601f1916602001820160405280156133e7576020820181803683370190505b509050600360fc1b81600081518110613402576134026159f9565b60200101906001600160f81b031916908160001a905350600f60fb1b81600181518110613431576134316159f9565b60200101906001600160f81b031916908160001a9053506000613455846002615c6e565b61346090600161595b565b90505b60018111156134d8576f181899199a1a9b1b9c1cb0b131b232b360811b85600f1660108110613494576134946159f9565b1a60f81b8282815181106134aa576134aa6159f9565b60200101906001600160f81b031916908160001a90535060049490941c936134d181615e33565b9050613463565b5083156106c45760405162461bcd60e51b815260206004820181905260248201527f537472696e67733a20686578206c656e67746820696e73756666696369656e746044820152606401610762565b61352f615007565b61353b606460016159ce565b6001600160401b0316866001600160401b0316141580156135a35750838051906020012083876001600160401b03168154811061357a5761357a6159f9565b90600052602060002090600502016001016040516135989190615d9b565b604051809103902014155b15613a44576000805b84548110156136225785805190602001208582815481106135cf576135cf6159f9565b90600052602060002090600502016001016040516135ed9190615d9b565b60405180910390201480156136025750868114155b156136105760019150613622565b8061361a81615e4a565b9150506135ac565b5080613a425760405163c42465e360e01b81526000906001600160a01b0385169063c42465e3906136579089906004016156f6565b600060405180830381865afa158015613674573d6000803e3d6000fd5b505050506040513d6000823e601f3d908101601f1916820160405261369c9190810190615ad9565b905060008161010001511561371e5781516040516378ed5d1f60e01b8152600481018a90526001600160a01b03909116906378ed5d1f90602401602060405180830381865afa1580156136f3573d6000803e3d6000fd5b505050506040513d601f19601f8201168201806040525081019061371791906157e5565b9050613791565b8151604051631526fe2760e01b8152600481018a90526001600160a01b0390911690631526fe2790602401608060405180830381865afa158015613766573d6000803e3d6000fd5b505050506040513d601f19601f8201168201806040525081019061378a9190615e63565b5091925050505b81604001516001600160a01b031663095ea7b3836020015160006040518363ffffffff1660e01b81526004016137c8929190615791565b6020604051808303816000875af11580156137e7573d6000803e3d6000fd5b505050506040513d601f19601f8201168201806040525081019061380b91906157bf565b5085896001600160401b031681548110613827576138276159f9565b60009182526020808320600360059093020191909101549084015160405163095ea7b360e01b81526001600160a01b039092169263095ea7b39261386f929190600401615791565b6020604051808303816000875af115801561388e573d6000803e3d6000fd5b505050506040513d601f19601f820116820180604052508101906138b291906157bf565b5085896001600160401b0316815481106138ce576138ce6159f9565b6000918252602080832060046005909302018201549085015160405163095ea7b360e01b81526001600160a01b039092169363095ea7b3936139109301615791565b6020604051808303816000875af115801561392f573d6000803e3d6000fd5b505050506040513d601f19601f8201168201806040525081019061395391906157bf565b50815160405163095ea7b360e01b81526001600160a01b0383169163095ea7b3916139849190600090600401615791565b6020604051808303816000875af11580156139a3573d6000803e3d6000fd5b505050506040513d601f19601f820116820180604052508101906139c791906157bf565b50602082015160405163095ea7b360e01b81526001600160a01b0383169163095ea7b3916139fb9190600090600401615791565b6020604051808303816000875af1158015613a1a573d6000803e3d6000fd5b505050506040513d601f19601f82011682018060405250810190613a3e91906157bf565b5050505b505b60405163c42465e360e01b81526000906001600160a01b0384169063c42465e390613a739088906004016156f6565b600060405180830381865afa158015613a90573d6000803e3d6000fd5b505050506040513d6000823e601f3d908101601f19168201604052613ab89190810190615ad9565b905060008082610100015115613bae5782516040516378ed5d1f60e01b8152600481018a90526001600160a01b03909116906378ed5d1f90602401602060405180830381865afa158015613b10573d6000803e3d6000fd5b505050506040513d601f19601f82011682018060405250810190613b3491906157e5565b8351604051631526fe2760e01b8152600481018b90529193506001600160a01b031690631526fe279060240160a060405180830381865afa158015613b7d573d6000803e3d6000fd5b505050506040513d601f19601f82011682018060405250810190613ba19190615ea2565b50909350613c2292505050565b8251604051631526fe2760e01b8152600481018a90526001600160a01b0390911690631526fe2790602401608060405180830381865afa158015613bf6573d6000803e3d6000fd5b505050506040513d601f19601f82011682018060405250810190613c1a9190615e63565b509193509150505b6001600160a01b038216613c6757604051630ba34e8560e41b815260206004820152600b60248201526a17db1c10dbdb9d1c9858dd60aa1b6044820152606401610762565b80600003613c8b5760405163315309ff60e21b815260048101899052602401610762565b613c97606460016159ce565b6001600160401b0316896001600160401b031603613e5557856040518060a001604052808a8152602001898152602001846001600160a01b03168152602001846001600160a01b0316630dfe16816040518163ffffffff1660e01b8152600401602060405180830381865afa158015613d14573d6000803e3d6000fd5b505050506040513d601f19601f82011682018060405250810190613d3891906157e5565b6001600160a01b03168152602001846001600160a01b031663d21220a76040518163ffffffff1660e01b8152600401602060405180830381865afa158015613d84573d6000803e3d6000fd5b505050506040513d601f19601f82011682018060405250810190613da891906157e5565b6001600160a01b031690528154600181810184556000938452602093849020835160059093020191825583830151805193949293613dee93928501929190910190615122565b5060408201516002820180546001600160a01b03199081166001600160a01b0393841617909155606084015160038401805483169184169190911790556080909301516004909201805490931691161790558554613e4e90600190615973565b9850614025565b85546001600160401b038a1610613e7f5760405163f8e3d81160e01b815260040160405180910390fd5b6040518060a00160405280898152602001888152602001836001600160a01b03168152602001836001600160a01b0316630dfe16816040518163ffffffff1660e01b8152600401602060405180830381865afa158015613ee3573d6000803e3d6000fd5b505050506040513d601f19601f82011682018060405250810190613f0791906157e5565b6001600160a01b03168152602001836001600160a01b031663d21220a76040518163ffffffff1660e01b8152600401602060405180830381865afa158015613f53573d6000803e3d6000fd5b505050506040513d601f19601f82011682018060405250810190613f7791906157e5565b6001600160a01b0316815250868a6001600160401b031681548110613f9e57613f9e6159f9565b9060005260206000209060050201600082015181600001556020820151816001019080519060200190613fd2929190615122565b5060408201516002820180546001600160a01b03199081166001600160a01b0393841617909155606084015160038401805483169184169190911790556080909301516004909201805490931691161790555b60408084015160208501519151636eb1769f60e11b81523060048201526001600160a01b03928316602482015291169063dd62ed3e90604401602060405180830381865afa15801561407b573d6000803e3d6000fd5b505050506040513d601f19601f8201168201806040525081019061409f9190615778565b6000036141235782604001516001600160a01b031663095ea7b384602001516000196040518363ffffffff1660e01b81526004016140de929190615791565b6020604051808303816000875af11580156140fd573d6000803e3d6000fd5b505050506040513d601f19601f8201168201806040525081019061412191906157bf565b505b85896001600160401b03168154811061413e5761413e6159f9565b6000918252602091829020600360059092020101549084015160405163095ea7b360e01b81526001600160a01b039092169163095ea7b3916141869160001990600401615791565b6020604051808303816000875af11580156141a5573d6000803e3d6000fd5b505050506040513d601f19601f820116820180604052508101906141c991906157bf565b5085896001600160401b0316815481106141e5576141e56159f9565b600091825260209182902060046005909202018101549185015160405163095ea7b360e01b81526001600160a01b039093169263095ea7b39261422d92916000199101615791565b6020604051808303816000875af115801561424c573d6000803e3d6000fd5b505050506040513d601f19601f8201168201806040525081019061427091906157bf565b50825160405163095ea7b360e01b81526001600160a01b0384169163095ea7b3916142a2919060001990600401615791565b6020604051808303816000875af11580156142c1573d6000803e3d6000fd5b505050506040513d601f19601f820116820180604052508101906142e591906157bf565b50602083015160405163095ea7b360e01b81526001600160a01b0384169163095ea7b39161431a919060001990600401615791565b6020604051808303816000875af1158015614339573d6000803e3d6000fd5b505050506040513d601f19601f8201168201806040525081019061435d91906157bf565b506040517f2ad593f3de4cd64c0c14e82addef84e7067e22b4e432b4b77834c656cb0584d190600090a1604051806101400160405280878b6001600160401b0316815481106143ae576143ae6159f9565b9060005260206000209060050201600001546001600160401b03168152602001878b6001600160401b0316815481106143e9576143e96159f9565b9060005260206000209060050201600101805461440590615709565b80601f016020809104026020016040519081016040528092919081815260200182805461443190615709565b801561447e5780601f106144535761010080835404028352916020019161447e565b820191906000526020600020905b81548152906001019060200180831161446157829003601f168201915b50505050508152602001878b6001600160401b0316815481106144a3576144a36159f9565b6000918252602091829020600260059092020101546001600160a01b03168252885491019088906001600160401b038d169081106144e3576144e36159f9565b6000918252602091829020600360059092020101546001600160a01b03168252885491019088906001600160401b038d16908110614523576145236159f9565b906000526020600020906005020160040160009054906101000a90046001600160a01b03166001600160a01b0316815260200184600001516001600160a01b0316815260200184602001516001600160a01b0316815260200184604001516001600160a01b031681526020018460a00151815260200184606001516001600160a01b0316815250935050505095945050505050565b6000826000036145db5760405163024ba11760e31b815260040160405180910390fd5b81514790600080516020616068833981519152908490600090614600576146006159f9565b60200260200101516001600160a01b031614801561466357506000805160206160688339815191526001600160a01b031683600185516146409190615973565b81518110614650576146506159f9565b60200260200101516001600160a01b0316145b15614769576040516370a0823160e01b81523060048201528490600080516020616068833981519152906370a0823190602401602060405180830381865afa1580156146b3573d6000803e3d6000fd5b505050506040513d601f19601f820116820180604052508101906146d79190615778565b1061473f57604051632e1a7d4d60e01b81526004810185905260008051602061606883398151915290632e1a7d4d90602401600060405180830381600087803b15801561472357600080fd5b505af1158015614737573d6000803e3d6000fd5b505050504790505b808411156147605760405163b3e9cd3560e01b815260040160405180910390fd5b839150506106c4565b6101208501516000906001600160a01b0316158015906147ba57508561012001516001600160a01b0316846000815181106147a6576147a66159f9565b60200260200101516001600160a01b031614155b80156147f757508561012001516001600160a01b0316846001815181106147e3576147e36159f9565b60200260200101516001600160a01b031614155b614802576002614805565b60035b60ff1690506000816001600160401b0381111561482457614824615203565b60405190808252806020026020018201604052801561484d578160200160208202803683370190505b509050816002036148f9578460008151811061486b5761486b6159f9565b602002602001015181600081518110614886576148866159f9565b60200260200101906001600160a01b031690816001600160a01b031681525050846001815181106148b9576148b96159f9565b6020026020010151816001815181106148d4576148d46159f9565b60200260200101906001600160a01b031690816001600160a01b0316815250506149cf565b8460008151811061490c5761490c6159f9565b602002602001015181600081518110614927576149276159f9565b60200260200101906001600160a01b031690816001600160a01b03168152505086610120015181600181518110614960576149606159f9565b60200260200101906001600160a01b031690816001600160a01b03168152505084600181518110614993576149936159f9565b6020026020010151816002815181106149ae576149ae6159f9565b60200260200101906001600160a01b031690816001600160a01b0316815250505b606060006149df4261025861595b565b90506000805160206160688339815191526001600160a01b031687600081518110614a0c57614a0c6159f9565b60200260200101516001600160a01b0316148015614a9757506040516370a0823160e01b81523060048201528890600080516020616068833981519152906370a0823190602401602060405180830381865afa158015614a70573d6000803e3d6000fd5b505050506040513d601f19601f82011682018060405250810190614a949190615778565b10155b15614aff57604051632e1a7d4d60e01b81526004810189905260008051602061606883398151915290632e1a7d4d90602401600060405180830381600087803b158015614ae357600080fd5b505af1158015614af7573d6000803e3d6000fd5b505050504794505b6000805160206160688339815191526001600160a01b03168760018951614b269190615973565b81518110614b3657614b366159f9565b60200260200101516001600160a01b031603614bd3578860c001516001600160a01b03166318cbafe58960008630866040518663ffffffff1660e01b8152600401614b85959493929190615f2f565b6000604051808303816000875af1158015614ba4573d6000803e3d6000fd5b505050506040513d6000823e601f3d908101601f19168201604052614bcc9190810190615f6b565b9150614d23565b6000805160206160688339815191526001600160a01b031687600081518110614bfe57614bfe6159f9565b60200260200101516001600160a01b0316148015614c1c5750878510155b15614ca0578860c001516001600160a01b0316637ff36ab58960008630866040518663ffffffff1660e01b8152600401614c599493929190616004565b60006040518083038185885af1158015614c77573d6000803e3d6000fd5b50505050506040513d6000823e601f3d908101601f19168201604052614bcc9190810190615f6b565b8860c001516001600160a01b03166338ed17398960008630866040518663ffffffff1660e01b8152600401614cd9959493929190615f2f565b6000604051808303816000875af1158015614cf8573d6000803e3d6000fd5b505050506040513d6000823e601f3d908101601f19168201604052614d209190810190615f6b565b91505b8160018451614d329190615973565b81518110614d4257614d426159f9565b6020026020010151955050505050509392505050565b60008060006000805160206160688339815191526001600160a01b031686608001516001600160a01b03161480614da9575060608601516001600160a01b0316600080516020616068833981519152145b15614ea35760608601516001600160a01b031660008051602061606883398151915214614dd7578385614dda565b84845b606088015191965094506000906001600160a01b031660008051602061606883398151915214614e0e578660600151614e14565b86608001515b90508660c001516001600160a01b031663f305d71987838860008030426040518863ffffffff1660e01b8152600401614e5296959493929190615cf9565b60606040518083038185885af1158015614e70573d6000803e3d6000fd5b50505050506040513d601f19601f82011682018060405250810190614e959190616039565b91955093509150614f569050565b60c08601516060870151608088015160405162e8e33760e81b81526001600160a01b0392831660048201529082166024820152604481018890526064810187905260006084820181905260a48201523060c48201524260e482015291169063e8e3370090610104016060604051808303816000875af1158015614f2a573d6000803e3d6000fd5b505050506040513d601f19601f82011682018060405250810190614f4e9190616039565b919450925090505b60a08601518651604051631c57762b60e31b81526001600160401b039091166004820152602481018390526001600160a01b039091169063e2bbb15890604401600060405180830381600087803b158015614fb057600080fd5b505af1158015614fc4573d6000803e3d6000fd5b505060408051868152602081018690529081018490527ffb5d1f95093901664df381ff239630a1fc4a0d1d2c36327ba1106cbc60c0cb5692506060019050611557565b604080516101408101825260008082526060602083018190529282018190528282018190526080820181905260a0820181905260c0820181905260e0820181905261010082019290925261012081019190915290565b82805461506990615709565b90600052602060002090601f01602090048101928261508b57600085556150d8565b82601f1061509c57805485556150d8565b828001600101855582156150d857600052602060002091601f016020900482015b828111156150d85782548255916001019190600101906150bd565b506150e4929150615196565b5090565b5080546150f490615709565b6000825580601f10615104575050565b601f0160209004906000526020600020908101906118639190615196565b82805461512e90615709565b90600052602060002090601f01602090048101928261515057600085556150d8565b82601f1061516957805160ff19168380011785556150d8565b828001600101855582156150d8579182015b828111156150d857825182559160200191906001019061517b565b5b808211156150e45760008155600101615197565b6000602082840312156151bd57600080fd5b81356001600160e01b0319811681146106c457600080fd5b6000602082840312156151e757600080fd5b5035919050565b6001600160401b038116811461186357600080fd5b634e487b7160e01b600052604160045260246000fd5b60405161012081016001600160401b038111828210171561523c5761523c615203565b60405290565b604051601f8201601f191681016001600160401b038111828210171561526a5761526a615203565b604052919050565b60006001600160401b0382111561528b5761528b615203565b50601f01601f191660200190565b600082601f8301126152aa57600080fd5b81356152bd6152b882615272565b615242565b8181528460208386010111156152d257600080fd5b816020850160208301376000918101602001919091529392505050565b6000806040838503121561530257600080fd5b823561530d816151ee565b915060208301356001600160401b0381111561532857600080fd5b61533485828601615299565b9150509250929050565b60005b83811015615359578181015183820152602001615341565b83811115615368576000848401525b50505050565b6000815180845261538681602086016020860161533e565b601f01601f19169290920160200192915050565b602081526153b46020820183516001600160401b03169052565b600060208301516101408060408501526153d261016085018361536e565b915060408501516153ee60608601826001600160a01b03169052565b5060608501516001600160a01b03811660808601525060808501516001600160a01b03811660a08601525060a08501516001600160a01b03811660c08601525060c08501516001600160a01b03811660e08601525060e085015161010061545f818701836001600160a01b03169052565b80870151915050610120601f19868503018187015261547e848361536e565b9601516001600160a01b03169190940152509192915050565b6001600160a01b038116811461186357600080fd5b600080604083850312156154bf57600080fd5b8235915060208301356154d181615497565b809150509250929050565b85815260a0602082015260006154f560a083018761536e565b6001600160a01b039586166040840152938516606083015250921660809092019190915292915050565b60006020828403121561553157600080fd5b81356106c4816151ee565b60006020828403121561554e57600080fd5b81356106c481615497565b6000806000806080858703121561556f57600080fd5b843561557a816151ee565b9350602085013561558a81615497565b925060408501356001600160401b038111156155a557600080fd5b6155b187828801615299565b92505060608501356155c281615497565b939692955090935050565b600080600080600060a086880312156155e557600080fd5b85356155f0816151ee565b945060208601356001600160401b038082111561560c57600080fd5b61561889838a01615299565b95506040880135915061562a82615497565b90935060608701359061563c826151ee565b9092506080870135908082111561565257600080fd5b5061565f88828901615299565b9150509295509295909350565b6000806000806080858703121561568257600080fd5b843561568d816151ee565b935060208501356001600160401b03808211156156a957600080fd5b6156b588838901615299565b9450604087013591506156c7826151ee565b909250606086013590808211156156dd57600080fd5b506156ea87828801615299565b91505092959194509250565b6020815260006106c4602083018461536e565b600181811c9082168061571d57607f821691505b60208210810361573d57634e487b7160e01b600052602260045260246000fd5b50919050565b6020808252818101527f4f776e61626c653a2063616c6c6572206973206e6f7420746865206f776e6572604082015260600190565b60006020828403121561578a57600080fd5b5051919050565b6001600160a01b03929092168252602082015260400190565b805180151581146157ba57600080fd5b919050565b6000602082840312156157d157600080fd5b6106c4826157aa565b80516157ba81615497565b6000602082840312156157f757600080fd5b81516106c481615497565b604081526000615815604083018461536e565b828103602084015260078152665357415046454560c81b60208201526040810191505092915050565b6000806040838503121561585157600080fd5b505080516020909101519092909150565b6001600160401b0385168152600060018060a01b03808616602084015260806040840152615893608084018661536e565b915080841660608401525095945050505050565b6020808252601390820152722932b9ba3934b1ba32b210233ab731ba34b7b760691b604082015260600190565b6040815260006158fb6040830160078152661111519055531560ca1b602082015260400190565b828103602093840152600e81526d48415256455354534f4c4f47415360901b928101929092525060400190565b60006020828403121561593a57600080fd5b81516106c4816151ee565b634e487b7160e01b600052601160045260246000fd5b6000821982111561596e5761596e615945565b500190565b60008282101561598557615985615945565b500390565b6001600160401b0383168152604060208201526000611633604083018461536e565b6001600160401b039290921682526001600160a01b0316602082015260400190565b60006001600160401b038083168185168083038211156159f0576159f0615945565b01949350505050565b634e487b7160e01b600052603260045260246000fd5b6000602080835260008454615a2381615709565b80848701526040600180841660008114615a445760018114615a5857615a86565b60ff19851689840152606089019550615a86565b896000528660002060005b85811015615a7e5781548b8201860152908301908801615a63565b8a0184019650505b509398975050505050505050565b600082601f830112615aa557600080fd5b8151615ab36152b882615272565b818152846020838601011115615ac857600080fd5b61163382602083016020870161533e565b600060208284031215615aeb57600080fd5b81516001600160401b0380821115615b0257600080fd5b908301906101208286031215615b1757600080fd5b615b1f615219565b615b28836157da565b8152615b36602084016157da565b6020820152615b47604084016157da565b6040820152615b58606084016157da565b6060820152615b69608084016157da565b608082015260a083015182811115615b8057600080fd5b615b8c87828601615a94565b60a08301525060c083015182811115615ba457600080fd5b615bb087828601615a94565b60c08301525060e083015182811115615bc857600080fd5b615bd487828601615a94565b60e0830152506101009150615bea8284016157aa565b91810191909152949350505050565b7f416363657373436f6e74726f6c3a206163636f756e7420000000000000000000815260008351615c3181601785016020880161533e565b7001034b99036b4b9b9b4b733903937b6329607d1b6017918401918201528351615c6281602884016020880161533e565b01602801949350505050565b6000816000190483118215151615615c8857615c88615945565b500290565b634e487b7160e01b600052601260045260246000fd5b60006001600160401b0380841680615cbd57615cbd615c8d565b92169190910492915050565b600082615cd857615cd8615c8d565b500490565b60008251615cef81846020870161533e565b9190910192915050565b6001600160a01b039687168152602081019590955260408501939093526060840191909152909216608082015260a081019190915260c00190565b634e487b7160e01b600052603160045260246000fd5b606081526000615d716060830160078152661111519055531560ca1b602082015260400190565b8281036020840152615d83818661536e565b91505060018060a01b03831660408301529392505050565b6000808354615da981615709565b60018281168015615dc15760018114615dd257615e01565b60ff19841687528287019450615e01565b8760005260208060002060005b85811015615df85781548a820152908401908201615ddf565b50505082870194505b50929695505050505050565b60006001600160401b03808316818103615e2957615e29615945565b6001019392505050565b600081615e4257615e42615945565b506000190190565b600060018201615e5c57615e5c615945565b5060010190565b60008060008060808587031215615e7957600080fd5b8451615e8481615497565b60208601516040870151606090970151919890975090945092505050565b600080600080600060a08688031215615eba57600080fd5b85519450602086015193506040860151925060608601519150615edf608087016157aa565b90509295509295909350565b600081518084526020808501945080840160005b83811015615f245781516001600160a01b031687529582019590820190600101615eff565b509495945050505050565b85815284602082015260a060408201526000615f4e60a0830186615eeb565b6001600160a01b0394909416606083015250608001529392505050565b60006020808385031215615f7e57600080fd5b82516001600160401b0380821115615f9557600080fd5b818501915085601f830112615fa957600080fd5b815181811115615fbb57615fbb615203565b8060051b9150615fcc848301615242565b8181529183018401918481019088841115615fe657600080fd5b938501935b83851015612a8057845182529385019390850190615feb565b84815260806020820152600061601d6080830186615eeb565b6001600160a01b03949094166040830152506060015292915050565b60008060006060848603121561604e57600080fd5b835192506020840151915060408401519050925092509256fe000000000000000000000000bb4cdb9cbd36b01bd1cbaebf2de08d9173bc095c27e3e4d29d60af3ae6456513164bb5db737d6fc8610aa36ad458736c9efb884ca2646970667358221220134a5d9db733b5d53a131878d995044772afff907e68f1d9eab205dd3b7d2c8564736f6c634300080d0033",
  "immutableReferences": {},
  "source": "//SPDX-License-Identifier: UNLICENSED\npragma solidity ^0.8.7;\npragma experimental ABIEncoderV2;\nimport \"./Interfaces.sol\";\nimport \"./Storage.sol\";\n\ncontract combineApp is Storage, Ownable, AccessControl {\n    event sdUintLog( string message, uint value);\n    event sdUintLog( string message, uint[] value);\n    event sdDeposit(uint amount);\n    event sdHoldBack(uint amount, uint total);\n    event sdFeeSent(uint amount,uint total);\n    event sdNewPool(uint64 oldPool, uint newPool);\n    event sdLiquidityProvided(uint256 farmIn, uint256 wethIn, uint256 lpOut);\n    event sdInitialized(uint64 poolId, address lpContract);\n    event sdInitialize(uint64 _poolId, address _beacon, string _exchangeName, address _owner);\n    event sdHarvesterAdd(address _harvester);\n    event sdHarvesterRemove(address _harvester);\n    event sdRescueToken(address _token,uint _amount);\n\n    error sdLocked();\n    error sdInitializedError();\n    error sdInsufficentBalance();\n    error sdRequiredParameter(string param);\n    error sdInsufficentFunds();\n\n    \n    modifier lockFunction() {\n        if (_locked == true) revert sdLocked();\n        _locked = true;\n        _;\n        _locked = false;\n    }\n     \n    modifier allowAdmin() {\n        require(hasRole(HARVESTER,msg.sender) || owner() == msg.sender,\"Restricted Function\");\n        _;\n    }\n    ///@notice Initialize the proxy contract\n    ///@param _poolId the id of the pool\n    ///@param _beacon the address of the beacon contract\n    ///@param _exchangeName name of the exchange to lookup on beacon\n    ///@param _owner the address of the owner\n    function initialize(uint64 _poolId, address _beacon, string memory _exchangeName, address _owner) public onlyOwner payable {\n        if (_initialized == true) revert sdInitializedError();\n        _initialized = true;\n        beaconContract = _beacon;\n\n        address harvester = iBeacon(beaconContract).getAddress(\"HARVESTER\");\n        feeCollector = iBeacon(beaconContract).getAddress(\"FEECOLLECTOR\");\n        (SwapFee,) = iBeacon(beaconContract).getFee(_exchangeName,\"SWAPFEE\"); //SWAP FEE is 1e8\n\n        _setupRole(HARVESTER, harvester);\n        _setupRole(DEFAULT_ADMIN_ROLE,owner());\n\n        holdBack = 0; \n        \n        setup(_poolId, _exchangeName);\n        transferOwnership(_owner);\n        emit sdInitialize(_poolId, _beacon,_exchangeName,_owner);\n    }\n\n    ///@notice Add harvester permission to contract\n    ///@param _address address of user to add as harvester\n    function addHarvester(address _address) external onlyOwner {\n        _setupRole(HARVESTER,_address);\n        emit sdHarvesterAdd(_address);\n    }\n\n    ///@notice Remove user as harvester\n    ///@param _address address of user to remove as harvester\n    function removeHarvester(address _address) external onlyOwner{\n        revokeRole(HARVESTER,_address);\n        emit sdHarvesterRemove(_address);\n    }\n\n    ///@notice create slot for new pool\n    ///@param _poolId id of new pool\n    ///@param _exchangeName name of exchange to lookup on beacon\n    function setup(uint64 _poolId, string memory _exchangeName) private  {\n        slotsLib.sSlots memory _slot = slotsLib.updateSlot(uint64(slotsLib.MAX_SLOTS+1),_poolId,_exchangeName, slots, beaconContract);\n\n        if (msg.value > 0) {\n            addFunds(_slot, msg.value);\n            emit sdDeposit(msg.value);\n        }\n        emit sdInitialized(_poolId,_slot.lpContract);\n    }\n    \n    ///@notice default receive function\n    receive() external payable {}\n\n\n    //@notice Add funds to specified pool and exhange\n    ///@param _poolId id of pool to add funds to\n    ///@param _exchangeName name of exchange to lookup on beacon\n    function deposit(uint64 _poolId, string memory _exchangeName) external payable  {\n        slotsLib.sSlots memory _slot = slotsLib.getDepositSlot(_poolId, _exchangeName,slots, beaconContract);\n        uint deposit_amount = msg.value;\n        uint pendingReward_val =  pendingReward(_slot);\n        if (pendingReward_val > 0) {\n            deposit_amount = deposit_amount + do_harvest(_slot, 0);\n        }\n        addFunds(_slot, deposit_amount);\n        emit sdDeposit(deposit_amount);\n    }\n\n    ///@notice Swap funds from one pool/exchnage to another pool/exchange\n    ///@param _fromPoolId id of pool to swap from\n    ///@param _fromExchangeName name of exchange to lookup in slots\n    ///@param _toPoolId id of pool to swap to\n    ///@param _toExchangeName name of exchange to lookup in slots\n    function swapPool(uint64 _fromPoolId, string memory _fromExchangeName, uint64 _toPoolId, string memory _toExchangeName) public allowAdmin {\n        (uint _bal, slotsLib.sSlots memory _slot) = doSwap(_fromPoolId, _toPoolId, _fromExchangeName);\n        \n        _slot = slotsLib.swapSlot(_fromPoolId, _fromExchangeName,_toPoolId, _toExchangeName,slots, beaconContract);\n        addFunds(_slot,_bal);\n        emit sdNewPool(_fromPoolId,_toPoolId);\n    }\n\n    ///@notice Swap funds from one pool/exchnage to another pool/exchange in a different contract\n    ///@param _toContract the address of the contract to swap to\n    ///@param _fromPoolId id of pool to swap from\n    ///@param _fromExchangeName name of exchange to lookup in slots\n    ///@param _toPoolId id of pool to swap to\n    ///@param _toExchangeName name of exchange to lookup in slots\n    function swapContractPool(uint64 _fromPoolId, string memory _fromExchangeName, address _toContract, uint64 _toPoolId, string memory _toExchangeName) external allowAdmin {\n        //liquidate current user and do not send funds\n        (uint _bal, ) = doSwap(_fromPoolId, _toPoolId, _fromExchangeName);\n\n        iSimpleDefiSolo(payable(_toContract)).deposit{value: _bal}(_toPoolId,_toExchangeName);\n    }\n\n    function doSwap(uint64 _fromPoolId, uint64 _toPoolId,string memory _fromExchangeName) private returns (uint, slotsLib.sSlots memory) {\n        slotsLib.sSlots memory _slot = getSlot(_fromPoolId, _fromExchangeName);\n        if(_toPoolId == _slot.poolId) revert sdRequiredParameter(\"New pool required\");\n                \n        removeLiquidity(_slot);\n        revertBalance(_slot);\n        \n        uint _bal = address(this).balance;\n        if (_bal==0) revert sdInsufficentBalance();\n        return (_bal, _slot);\n    }\n\n\n    ///@notice get pending rewards on a specific pool/exchange\n    ///@param _poolId id of pool to get pending rewards on\n    ///@param _exchangeName name of exchange to lookup in slots\n    ///@return pending rewards \n    function pendingReward(uint64 _poolId, string memory _exchangeName) public view returns (uint) {        \n        slotsLib.sSlots memory _slot = getSlot(_poolId, _exchangeName);\n        return pendingReward(_slot);\n    }\n\n    ///@notice get pending rewards on a specific slot id\n    ///@param _slot slot to get pending rewards on\n    ///@return pending rewards \n    function pendingReward(slotsLib.sSlots memory _slot) private view returns (uint) {\n        (, bytes memory data) = _slot.chefContract.staticcall(abi.encodeWithSignature(_slot.pendingCall, _slot.poolId,address(this)));\n        uint pendingReward_val = data.length==0?0:abi.decode(data,(uint256));\n        if (pendingReward_val == 0) {\n            pendingReward_val += ERC20(_slot.rewardToken).balanceOf(address(this));\n        }\n        return pendingReward_val;\n    }\n\n    ///@notice liquidate funds on a specific pool/exchange\n    ///@param _poolId id of pool to liquidate\n    ///@param _exchangeName name of exchange to lookup in slots    \n    function liquidate(uint64 _poolId, string memory _exchangeName) public onlyOwner lockFunction {\n        slotsLib.sSlots memory _slot = getSlot(_poolId, _exchangeName);\n        do_harvest(_slot, 0);\n        removeLiquidity(_slot);\n        revertBalance(_slot);        \n        uint _total = address(this).balance;\n        slotsLib.removeSlot(_slot.poolId, _slot.exchangeName,slots);\n\n        _total = sendFee(\"LIQUIDATE\",_total,0);\n\n        payable(owner()).transfer(_total);\n        emit sdUintLog(\"Liquidate Total\",_total);\n    }\n    \n    ///@notice set holdback on rewards to be sent back to user\n    ///@param _holdback amount of rewards to hold back\n    function setHoldBack(uint64 _holdback) external onlyOwner {\n        holdBack = _holdback;\n        emit sdUintLog(\"holdback\",_holdback);\n    }\n    \n    ///@notice send holdback funds to user (BNB Balance)\n    function sendHoldBack() external onlyOwner lockFunction{\n        uint bal = address(this).balance;\n        if (bal == 0) revert sdInsufficentBalance();\n        payable(owner()).transfer(bal);\n        emit sdHoldBack(bal,bal);\n    }\n    \n    ///@notice Manually perform a harvest on a specific pool/exchange\n    ///@param _poolId id of pool to harvest on\n    ///@param _exchangeName name of exchange to lookup in slots\n    function harvest(uint64  _poolId, string memory _exchangeName) public lockFunction allowAdmin {\n        slotsLib.sSlots memory _slot = getSlot(_poolId, _exchangeName);\n        uint64 _offset = iBeacon(beaconContract).getConst('DEFAULT','HARVESTSOLOGAS');\n        uint startGas = gasleft() + 21000 + _offset;\n        uint split = do_harvest(_slot, 1);\n        \n        addFunds(_slot, split);\n        if (msg.sender != owner()) {\n            lastGas = startGas - gasleft();\n        }\n    }\n    \n    ///@notice helper function to return balance of 2 tokens in a pool\n    ///@param _slot slot to get balance of\n    ///@return _bal0 of tokens of token0 from pool\n    ///@return _bal1 of tokens of token1 from pool\n    function tokenBalance(slotsLib.sSlots memory _slot) private view returns (uint _bal0,uint _bal1) {\n        _bal0 = ERC20(_slot.token0).balanceOf(address(this));\n        _bal1 = ERC20(_slot.token1).balanceOf(address(this));\n    }    \n    \n    ///@notice helper function to return balance of specified token from contract to the user\n    ///@param token address of token to recover\n    function rescueToken(address token) external onlyOwner{\n        uint _bal = ERC20(token).balanceOf(address(this));\n        ERC20(token).transfer(owner(),_bal);\n        emit sdRescueToken(token,_bal);\n    }\n\n    ///@notice Internal funciton to add funds to a specified slot\n    ///@param _slot slot to add funds to\n    ///@param inValue amount of funds to add\n    function addFunds(slotsLib.sSlots memory _slot, uint inValue) private  {\n        if (inValue==0) revert sdInsufficentBalance();\n\n        uint amount0;\n        uint amount1;\n        uint split;\n        address[] memory swapPath = new address[](2);\n        swapPath[0] = WBNB_ADDR;\n        swapPath[1] = _slot.token0;\n\n        if (_slot.token0 == WBNB_ADDR || _slot.token1 == WBNB_ADDR) {\n            split = (inValue*50)/100;        \n            amount0 = (_slot.token0 != WBNB_ADDR) ? swap(_slot,split,swapPath) : split;    \n            swapPath[1] = _slot.token1;\n            amount1 = (_slot.token1 != WBNB_ADDR) ? swap(_slot,split,swapPath) : split;\n        }\n        else {\n            amount0 = swap(_slot, inValue,swapPath);    \n            split = (amount0*50)/100;  \n            split = split - ((split*(SwapFee/100))/1e8);\n            swapPath[0] = _slot.token0;\n            swapPath[1] = _slot.token1;\n            amount1 = swap(_slot, split,swapPath);\n        }\n\n        addLiquidity(_slot,amount0,amount1);\n    }\n\n    ///@notice Internal function to add liquidity to a pool\n    ///@dev amount0 and amount1 should be the same value (converted to/from BNB)\n    ///@param _slot slot to add liquidity to\n    ///@param amount0 amount of liquidity to add of token0\n    ///@param amount1 amount of liquidity to add of token1\n    function addLiquidity(slotsLib.sSlots memory _slot, uint amount0, uint amount1) private {\n        uint amountA;\n        uint amountB;\n        uint liquidity;\n                \n\n        if (_slot.token1 == WBNB_ADDR || _slot.token0 == WBNB_ADDR) {\n            (amount0,amount1) = _slot.token0 == WBNB_ADDR?(amount0,amount1):(amount1,amount0);\n            address token = _slot.token0 == WBNB_ADDR?_slot.token1:_slot.token0;\n            (amountA, amountB, liquidity) = iRouter(_slot.routerContract).addLiquidityETH{value: amount0}(token, amount1, 0,0, address(this), block.timestamp);\n        }\n        else {\n            ( amountA,  amountB, liquidity) = iRouter(_slot.routerContract).addLiquidity(_slot.token0, _slot.token1, amount0, amount1, 0, 0, address(this), block.timestamp);\n        }\n\n        iMasterChef(_slot.chefContract).deposit(_slot.poolId,liquidity);\n        emit sdLiquidityProvided(amountA, amountB, liquidity);\n    }\n    \n    ///@notice Internal function to swap 2 tokens\n    ///@param _slot slot to swap tokens on\n    ///@param amountIn amount of tokens to swap\n    ///@param path address of tokens to swap\n    ///@return amountOut amount of tokens swapped\n    function swap(slotsLib.sSlots memory _slot, uint amountIn, address[] memory path) private returns (uint){\n        if (amountIn == 0) revert sdInsufficentBalance();\n\n        uint _cBalance = address(this).balance;\n        if (path[0] == WBNB_ADDR && path[path.length-1] == WBNB_ADDR) {\n            if (ERC20(WBNB_ADDR).balanceOf(address(this)) >= amountIn) {\n                iWBNB(WBNB_ADDR).withdraw(amountIn);\n                _cBalance = address(this).balance;\n            }\n            if (amountIn > _cBalance) revert sdInsufficentFunds();\n            return amountIn;\n        }\n\n        uint pathLength = (_slot.intermediateToken != address(0) && path[0] != _slot.intermediateToken && path[1] != _slot.intermediateToken) ? 3 : 2;\n        address[] memory swapPath = new address[](pathLength);\n        \n        if (pathLength == 2) {\n            swapPath[0] = path[0];\n            swapPath[1] = path[1];\n        }\n        else {\n            swapPath[0] = path[0];\n            swapPath[1] = _slot.intermediateToken;\n            swapPath[2] = path[1];\n        }\n\n        uint[] memory amounts;\n\n        uint deadline = block.timestamp + 600;\n\n        if (path[0] == WBNB_ADDR && ERC20(WBNB_ADDR).balanceOf(address(this)) >= amountIn) {\n            iWBNB(WBNB_ADDR).withdraw(amountIn);\n            _cBalance = address(this).balance;\n        }\n\n        if (path[path.length - 1] == WBNB_ADDR) {\n            amounts = iRouter(_slot.routerContract).swapExactTokensForETH(amountIn, 0,  swapPath, address(this), deadline);\n        } else if (path[0] == WBNB_ADDR && _cBalance >= amountIn) {\n            amounts = iRouter(_slot.routerContract).swapExactETHForTokens{value: amountIn}(0,swapPath,address(this),deadline);\n        }\n        else {\n            amounts = iRouter(_slot.routerContract).swapExactTokensForTokens(amountIn, 0,swapPath,address(this),deadline);\n        }\n        return amounts[swapPath.length-1];\n    }\n    \n\n    ///@notice Internal function to harvest spool\n    ///@param _slot slot to harvest\n    ///@param revert_trans (0 - return 0 on failure, 1 - revert on failure)\n    ///@return finalReward  Final amount of reward returned.\n    function do_harvest(slotsLib.sSlots memory _slot,uint revert_trans) private returns (uint) {\n        uint pendingCake = 0;\n        pendingCake = pendingReward(_slot);\n        if (pendingCake == 0) {\n            if (revert_trans == 1) {\n                revert(\"Nothing to harvest\");\n            }\n            else {\n                    return 0;\n            }\n        }\n        \n        iMasterChef(_slot.chefContract).deposit(_slot.poolId,0);\n        pendingCake = ERC20(_slot.rewardToken).balanceOf(address(this));\n\n        address[] memory path = new address[](2);\n        path[0] = _slot.rewardToken;\n        path[1] = WBNB_ADDR;\n\n        pendingCake = swap(_slot, pendingCake,path);\n        \n        uint finalReward = sendFee('HARVEST',pendingCake, ((lastGas * tx.gasprice)*10e8)); // lastGas is here in case 3rd party harvester is used, should normally be 0\n        \n        if (holdBack > 0) {\n            uint holdbackAmount = (finalReward/100) * (holdBack/10**18);\n            finalReward = finalReward - holdbackAmount;\n            payable(owner()).transfer(holdbackAmount);\n            emit sdHoldBack(holdbackAmount,finalReward);\n\n        }\n        return finalReward;\n    }\n    \n    ///@notice Internal function to remove liquididty from pool\n    ///@param _slot slot to remove liquidity from\n    function removeLiquidity(slotsLib.sSlots memory _slot) private {\n        uint amountTokenA;\n        uint amountTokenB;\n        uint deadline = block.timestamp + 600;\n\n        (uint _lpBal,) = iMasterChef(_slot.chefContract).userInfo(_slot.poolId,address(this));\n        iMasterChef(_slot.chefContract).withdraw(_slot.poolId,_lpBal);\n        \n        uint _removed = ERC20(_slot.lpContract).balanceOf(address(this));\n        emit sdUintLog(\"_removed\",_removed);\n        \n        (address token0,address token1) = _slot.token0==WBNB_ADDR?(_slot.token1,_slot.token0):(_slot.token0,_slot.token1);\n\n        if (token1 == WBNB_ADDR)\n            (amountTokenA, amountTokenB) = iRouter(_slot.routerContract).removeLiquidityETH(token0,_removed,0,0,address(this), deadline);\n        else\n            (amountTokenA, amountTokenB) = iRouter(_slot.routerContract).removeLiquidity(token0,token1,_removed,0,0,address(this), deadline);\n    }\n\n    ///@notice Internal function to convert token0/token1 to BNB/Base Token\n    ///@param _slot slot to convert\n    function revertBalance(slotsLib.sSlots memory _slot) private {\n        address[] memory path = new address[](2);\n        path[1] = WBNB_ADDR;\n        uint amount0 = 0;\n\n        uint _rewards = ERC20(_slot.rewardToken).balanceOf(address (this));\n        if (_rewards > 0 ){\n            path[0] = _slot.rewardToken;\n            amount0 = swap(_slot, _rewards, path);\n        }\n\n        (uint _bal0, uint _bal1) = tokenBalance(_slot);\n        \n        if (_bal0 > 0) {\n            path[0] = _slot.token0;\n            amount0 += swap(_slot, _bal0, path);\n        }\n        \n        if (_bal1 > 0) {\n            path[0] = _slot.token1;\n            amount0 += swap(_slot, _bal1, path);\n        }\n    }\n    \n    ///@notice helper function to force a pool update\n    ///@param _poolId pool to get info from\n    ///@param _exchangeName name of exchange to lookup in slots\n    ///@dev Not part of simpleDefi app, just proxy to ensure proper masterChef and pool Id are called. \n    ///@dev Does not affect our app in any way, needed for testing.\n    function updatePool(uint64  _poolId, string memory _exchangeName) public {\n        slotsLib.sSlots memory _slot = getSlot(_poolId, _exchangeName);\n\n        iMasterChef(_slot.chefContract).updatePool(_slot.poolId);\n    }\n\n    ///@notice returns status of pool on specific pool/exchange\n    ///@param _poolId pool to get info from\n    ///@param _exchangeName name of exchange to lookup in slots\n    ///@return masterchef balance 0\n    ///@return masterchef balance 1\n    ///@return token0 balance\n    ///@return token1 balance\n    ///@return contract balance of rewward token\n    ///@return total of BNB\n    function userInfo(uint64  _poolId, string memory _exchangeName) public view allowAdmin returns (uint,uint,uint,uint,uint,uint) {\n        slotsLib.sSlots memory _slot = getSlot(_poolId, _exchangeName);\n\n        if (_slot.lpContract == address(0))  return (0,0,0,0,0,0);\n        \n        (uint a, uint b) = iMasterChef(_slot.chefContract).userInfo(_slot.poolId,address(this));\n        (uint c, uint d) = tokenBalance(_slot);\n        uint e = ERC20(_slot.rewardToken).balanceOf(address(this));\n        uint f = address(this).balance;\n        return (a,b,c,d,e,f);\n    }\n\n    ///@notice Internal function to handle fees for specific type\n    ///@param _type type of fee\n    ///@param _total amount of fee\n    ///@param  _extra fee to add (such as gas fee)\n    ///@return _total amount of fee sent\n    function sendFee(string memory _type, uint _total, uint _extra) private returns (uint){\n        (uint feeAmt,) = iBeacon(beaconContract).getFee('DEFAULT',_type,owner());\n        uint feeAmount = ((_total * feeAmt)/100e18) + _extra;\n        if (feeAmount > _total) feeAmount = _total; // required to recover fee\n        \n        if(feeAmount > 0) {\n            if (feeAmount > _total) {\n                feeAmount = _total;\n                _total = 0;\n            }\n            else {\n                _total = _total - feeAmount;\n            }\n            payable(address(feeCollector)).transfer(feeAmount);\n            emit sdFeeSent(feeAmount,_total);\n        }\n        return _total;\n    }\n\n    ///@notice Public function to get slot for pool/exchange\n    ///@param _poolId pool to get info from\n    ///@param _exchangeName name of exchange to lookup in slots\n    ///@return slot info\n    function getSlot(uint64 _poolId, string memory _exchangeName) public view returns (slotsLib.sSlots memory) {\n        return slotsLib.getSlot(_poolId, _exchangeName, slots, beaconContract);\n    }\n}\n\n    ",
  "sourcePath": "/mnt/src/crypto/combine_sol/contracts/combineApp.sol",
  "compiler": {
    "name": "solc",
    "version": "0.8.13+commit.abaa5c0e.Emscripten.clang"
  },
  "schemaVersion": "3.4.7",
  "updatedAt": "2022-05-12T16:32:52.028Z",
  "devdoc": {
    "kind": "dev",
    "methods": {
      "addHarvester(address)": {
        "params": {
          "_address": "address of user to add as harvester"
        }
      },
      "deposit(uint64,string)": {
        "params": {
          "_exchangeName": "name of exchange to lookup on beacon",
          "_poolId": "id of pool to add funds to"
        }
      },
      "getRoleAdmin(bytes32)": {
        "details": "Returns the admin role that controls `role`. See {grantRole} and {revokeRole}. To change a role's admin, use {_setRoleAdmin}."
      },
      "getSlot(uint64,string)": {
        "params": {
          "_exchangeName": "name of exchange to lookup in slots",
          "_poolId": "pool to get info from"
        },
        "returns": {
          "_0": "slot info"
        }
      },
      "grantRole(bytes32,address)": {
        "details": "Grants `role` to `account`. If `account` had not been already granted `role`, emits a {RoleGranted} event. Requirements: - the caller must have ``role``'s admin role."
      },
      "harvest(uint64,string)": {
        "params": {
          "_exchangeName": "name of exchange to lookup in slots",
          "_poolId": "id of pool to harvest on"
        }
      },
      "hasRole(bytes32,address)": {
        "details": "Returns `true` if `account` has been granted `role`."
      },
      "initialize(uint64,address,string,address)": {
        "params": {
          "_beacon": "the address of the beacon contract",
          "_exchangeName": "name of the exchange to lookup on beacon",
          "_owner": "the address of the owner",
          "_poolId": "the id of the pool"
        }
      },
      "liquidate(uint64,string)": {
        "params": {
          "_exchangeName": "name of exchange to lookup in slots    ",
          "_poolId": "id of pool to liquidate"
        }
      },
      "owner()": {
        "details": "Returns the address of the current owner."
      },
      "pendingReward(uint64,string)": {
        "params": {
          "_exchangeName": "name of exchange to lookup in slots",
          "_poolId": "id of pool to get pending rewards on"
        },
        "returns": {
          "_0": "pending rewards "
        }
      },
      "removeHarvester(address)": {
        "params": {
          "_address": "address of user to remove as harvester"
        }
      },
      "renounceOwnership()": {
        "details": "Leaves the contract without owner. It will not be possible to call `onlyOwner` functions anymore. Can only be called by the current owner. NOTE: Renouncing ownership will leave the contract without an owner, thereby removing any functionality that is only available to the owner."
      },
      "renounceRole(bytes32,address)": {
        "details": "Revokes `role` from the calling account. Roles are often managed via {grantRole} and {revokeRole}: this function's purpose is to provide a mechanism for accounts to lose their privileges if they are compromised (such as when a trusted device is misplaced). If the calling account had been granted `role`, emits a {RoleRevoked} event. Requirements: - the caller must be `account`."
      },
      "rescueToken(address)": {
        "params": {
          "token": "address of token to recover"
        }
      },
      "revokeRole(bytes32,address)": {
        "details": "Revokes `role` from `account`. If `account` had been granted `role`, emits a {RoleRevoked} event. Requirements: - the caller must have ``role``'s admin role."
      },
      "setHoldBack(uint64)": {
        "params": {
          "_holdback": "amount of rewards to hold back"
        }
      },
      "supportsInterface(bytes4)": {
        "details": "See {IERC165-supportsInterface}."
      },
      "swapContractPool(uint64,string,address,uint64,string)": {
        "params": {
          "_fromExchangeName": "name of exchange to lookup in slots",
          "_fromPoolId": "id of pool to swap from",
          "_toContract": "the address of the contract to swap to",
          "_toExchangeName": "name of exchange to lookup in slots",
          "_toPoolId": "id of pool to swap to"
        }
      },
      "swapPool(uint64,string,uint64,string)": {
        "params": {
          "_fromExchangeName": "name of exchange to lookup in slots",
          "_fromPoolId": "id of pool to swap from",
          "_toExchangeName": "name of exchange to lookup in slots",
          "_toPoolId": "id of pool to swap to"
        }
      },
      "transferOwnership(address)": {
        "details": "Transfers ownership of the contract to a new account (`newOwner`). Can only be called by the current owner."
      },
      "updatePool(uint64,string)": {
        "details": "Not part of simpleDefi app, just proxy to ensure proper masterChef and pool Id are called. Does not affect our app in any way, needed for testing.",
        "params": {
          "_exchangeName": "name of exchange to lookup in slots",
          "_poolId": "pool to get info from"
        }
      },
      "userInfo(uint64,string)": {
        "params": {
          "_exchangeName": "name of exchange to lookup in slots",
          "_poolId": "pool to get info from"
        },
        "returns": {
          "_0": "masterchef balance 0",
          "_1": "masterchef balance 1",
          "_2": "token0 balance",
          "_3": "token1 balance",
          "_4": "contract balance of rewward token",
          "_5": "total of BNB"
        }
      }
    },
    "version": 1
  },
  "userdoc": {
    "kind": "user",
    "methods": {
      "addHarvester(address)": {
        "notice": "Add harvester permission to contract"
      },
      "getSlot(uint64,string)": {
        "notice": "Public function to get slot for pool/exchange"
      },
      "harvest(uint64,string)": {
        "notice": "Manually perform a harvest on a specific pool/exchange"
      },
      "initialize(uint64,address,string,address)": {
        "notice": "Initialize the proxy contract"
      },
      "liquidate(uint64,string)": {
        "notice": "liquidate funds on a specific pool/exchange"
      },
      "pendingReward(uint64,string)": {
        "notice": "get pending rewards on a specific pool/exchange"
      },
      "removeHarvester(address)": {
        "notice": "Remove user as harvester"
      },
      "rescueToken(address)": {
        "notice": "helper function to return balance of specified token from contract to the user"
      },
      "sendHoldBack()": {
        "notice": "send holdback funds to user (BNB Balance)"
      },
      "setHoldBack(uint64)": {
        "notice": "set holdback on rewards to be sent back to user"
      },
      "swapContractPool(uint64,string,address,uint64,string)": {
        "notice": "Swap funds from one pool/exchnage to another pool/exchange in a different contract"
      },
      "swapPool(uint64,string,uint64,string)": {
        "notice": "Swap funds from one pool/exchnage to another pool/exchange"
      },
      "updatePool(uint64,string)": {
        "notice": "helper function to force a pool update"
      },
      "userInfo(uint64,string)": {
        "notice": "returns status of pool on specific pool/exchange"
      }
    },
    "version": 1
  }
}