{
  "contractName": "combine_beacon",
  "abi": [
    {
      "anonymous": false,
      "inputs": [
        {
          "indexed": true,
          "internalType": "address",
          "name": "previousOwner",
          "type": "address"
        },
        {
          "indexed": true,
          "internalType": "address",
          "name": "newOwner",
          "type": "address"
        }
      ],
      "name": "OwnershipTransferred",
      "type": "event"
    },
    {
      "anonymous": false,
      "inputs": [
        {
          "indexed": false,
          "internalType": "address",
          "name": "_user",
          "type": "address"
        },
        {
          "indexed": false,
          "internalType": "uint256",
          "name": "_discount",
          "type": "uint256"
        },
        {
          "indexed": false,
          "internalType": "uint256",
          "name": "_expires",
          "type": "uint256"
        }
      ],
      "name": "discountSet",
      "type": "event"
    },
    {
      "anonymous": false,
      "inputs": [
        {
          "indexed": false,
          "internalType": "string",
          "name": "_exchange",
          "type": "string"
        },
        {
          "indexed": false,
          "internalType": "address",
          "name": "_replacement_logic_contract",
          "type": "address"
        },
        {
          "indexed": false,
          "internalType": "uint256",
          "name": "_start",
          "type": "uint256"
        }
      ],
      "name": "exchangeSet",
      "type": "event"
    },
    {
      "anonymous": false,
      "inputs": [
        {
          "indexed": false,
          "internalType": "string",
          "name": "_exchange",
          "type": "string"
        },
        {
          "indexed": false,
          "internalType": "string",
          "name": "_function",
          "type": "string"
        },
        {
          "indexed": false,
          "internalType": "uint256",
          "name": "_amount",
          "type": "uint256"
        },
        {
          "indexed": false,
          "internalType": "uint256",
          "name": "_time",
          "type": "uint256"
        },
        {
          "indexed": false,
          "internalType": "uint256",
          "name": "_current",
          "type": "uint256"
        }
      ],
      "name": "feeSet",
      "type": "event"
    },
    {
      "inputs": [
        {
          "internalType": "string",
          "name": "",
          "type": "string"
        }
      ],
      "name": "mData",
      "outputs": [
        {
          "internalType": "address",
          "name": "",
          "type": "address"
        }
      ],
      "stateMutability": "view",
      "type": "function"
    },
    {
      "inputs": [
        {
          "internalType": "address",
          "name": "",
          "type": "address"
        }
      ],
      "name": "mDiscounts",
      "outputs": [
        {
          "internalType": "uint256",
          "name": "discount_amount",
          "type": "uint256"
        },
        {
          "internalType": "uint256",
          "name": "expires",
          "type": "uint256"
        }
      ],
      "stateMutability": "view",
      "type": "function"
    },
    {
      "inputs": [
        {
          "internalType": "string",
          "name": "",
          "type": "string"
        }
      ],
      "name": "mExchangeInfo",
      "outputs": [
        {
          "internalType": "address",
          "name": "chefContract",
          "type": "address"
        },
        {
          "internalType": "address",
          "name": "routerContract",
          "type": "address"
        },
        {
          "internalType": "address",
          "name": "rewardToken",
          "type": "address"
        },
        {
          "internalType": "address",
          "name": "intermediateToken",
          "type": "address"
        },
        {
          "internalType": "address",
          "name": "baseToken",
          "type": "address"
        },
        {
          "internalType": "string",
          "name": "pendingCall",
          "type": "string"
        },
        {
          "internalType": "string",
          "name": "contractType_solo",
          "type": "string"
        },
        {
          "internalType": "string",
          "name": "contractType_pooled",
          "type": "string"
        }
      ],
      "stateMutability": "view",
      "type": "function"
    },
    {
      "inputs": [
        {
          "internalType": "string",
          "name": "",
          "type": "string"
        }
      ],
      "name": "mExchanges",
      "outputs": [
        {
          "internalType": "address",
          "name": "current_logic_contract",
          "type": "address"
        },
        {
          "internalType": "address",
          "name": "replacement_logic_contract",
          "type": "address"
        },
        {
          "internalType": "uint256",
          "name": "start",
          "type": "uint256"
        }
      ],
      "stateMutability": "view",
      "type": "function"
    },
    {
      "inputs": [
        {
          "internalType": "string",
          "name": "",
          "type": "string"
        },
        {
          "internalType": "string",
          "name": "",
          "type": "string"
        }
      ],
      "name": "mFee",
      "outputs": [
        {
          "internalType": "uint256",
          "name": "current_amount",
          "type": "uint256"
        },
        {
          "internalType": "uint256",
          "name": "replacement_amount",
          "type": "uint256"
        },
        {
          "internalType": "uint256",
          "name": "start",
          "type": "uint256"
        }
      ],
      "stateMutability": "view",
      "type": "function"
    },
    {
      "inputs": [],
      "name": "owner",
      "outputs": [
        {
          "internalType": "address",
          "name": "",
          "type": "address"
        }
      ],
      "stateMutability": "view",
      "type": "function"
    },
    {
      "inputs": [],
      "name": "renounceOwnership",
      "outputs": [],
      "stateMutability": "nonpayable",
      "type": "function"
    },
    {
      "inputs": [
        {
          "internalType": "address",
          "name": "newOwner",
          "type": "address"
        }
      ],
      "name": "transferOwnership",
      "outputs": [],
      "stateMutability": "nonpayable",
      "type": "function"
    },
    {
      "inputs": [
        {
          "internalType": "string",
          "name": "_exchange",
          "type": "string"
        },
        {
          "internalType": "string",
          "name": "_type",
          "type": "string"
        },
        {
          "internalType": "address",
          "name": "_user",
          "type": "address"
        }
      ],
      "name": "getFee",
      "outputs": [
        {
          "internalType": "uint256",
          "name": "",
          "type": "uint256"
        },
        {
          "internalType": "uint256",
          "name": "",
          "type": "uint256"
        }
      ],
      "stateMutability": "view",
      "type": "function"
    },
    {
      "inputs": [
        {
          "internalType": "string",
          "name": "_exchange",
          "type": "string"
        },
        {
          "internalType": "string",
          "name": "_type",
          "type": "string"
        }
      ],
      "name": "getConst",
      "outputs": [
        {
          "internalType": "uint256",
          "name": "",
          "type": "uint256"
        }
      ],
      "stateMutability": "view",
      "type": "function"
    },
    {
      "inputs": [
        {
          "components": [
            {
              "internalType": "address",
              "name": "_user",
              "type": "address"
            },
            {
              "internalType": "uint256",
              "name": "_discount",
              "type": "uint256"
            },
            {
              "internalType": "uint256",
              "name": "_expires",
              "type": "uint256"
            }
          ],
          "internalType": "struct combine_beacon.aDiscount[]",
          "name": "_discount",
          "type": "tuple[]"
        }
      ],
      "name": "setDiscount",
      "outputs": [],
      "stateMutability": "nonpayable",
      "type": "function"
    },
    {
      "inputs": [
        {
          "internalType": "address",
          "name": "_user",
          "type": "address"
        },
        {
          "internalType": "uint256",
          "name": "_amount",
          "type": "uint256"
        },
        {
          "internalType": "uint256",
          "name": "_expires",
          "type": "uint256"
        }
      ],
      "name": "setDiscount",
      "outputs": [],
      "stateMutability": "nonpayable",
      "type": "function"
    },
    {
      "inputs": [],
      "name": "updateBlock",
      "outputs": [],
      "stateMutability": "nonpayable",
      "type": "function"
    },
    {
      "inputs": [
        {
          "internalType": "string",
          "name": "_exchange",
          "type": "string"
        },
        {
          "internalType": "string",
          "name": "_type",
          "type": "string"
        },
        {
          "internalType": "uint256",
          "name": "_replacement_amount",
          "type": "uint256"
        },
        {
          "internalType": "uint256",
          "name": "_start",
          "type": "uint256"
        }
      ],
      "name": "setFee",
      "outputs": [],
      "stateMutability": "nonpayable",
      "type": "function"
    },
    {
      "inputs": [
        {
          "internalType": "string",
          "name": "_exchange",
          "type": "string"
        }
      ],
      "name": "getExchange",
      "outputs": [
        {
          "internalType": "address",
          "name": "",
          "type": "address"
        }
      ],
      "stateMutability": "view",
      "type": "function"
    },
    {
      "inputs": [
        {
          "internalType": "string",
          "name": "_exchange",
          "type": "string"
        },
        {
          "internalType": "address",
          "name": "_replacement_logic_contract",
          "type": "address"
        },
        {
          "internalType": "uint256",
          "name": "_start",
          "type": "uint256"
        }
      ],
      "name": "setExchange",
      "outputs": [],
      "stateMutability": "nonpayable",
      "type": "function"
    },
    {
      "inputs": [
        {
          "internalType": "string",
          "name": "_name",
          "type": "string"
        },
        {
          "internalType": "address",
          "name": "_chefContract",
          "type": "address"
        },
        {
          "internalType": "address",
          "name": "_routerContract",
          "type": "address"
        },
        {
          "internalType": "address",
          "name": "_rewardToken",
          "type": "address"
        },
        {
          "internalType": "string",
          "name": "_pendingCall",
          "type": "string"
        },
        {
          "internalType": "address",
          "name": "_intermediateToken",
          "type": "address"
        },
        {
          "internalType": "address",
          "name": "_baseToken",
          "type": "address"
        },
        {
          "internalType": "string",
          "name": "_contractType_solo",
          "type": "string"
        },
        {
          "internalType": "string",
          "name": "_contractType_pooled",
          "type": "string"
        }
      ],
      "name": "setExchangeInfo",
      "outputs": [],
      "stateMutability": "nonpayable",
      "type": "function"
    },
    {
      "inputs": [
        {
          "internalType": "string",
          "name": "_name",
          "type": "string"
        }
      ],
      "name": "getExchangeInfo",
      "outputs": [
        {
          "components": [
            {
              "internalType": "address",
              "name": "chefContract",
              "type": "address"
            },
            {
              "internalType": "address",
              "name": "routerContract",
              "type": "address"
            },
            {
              "internalType": "address",
              "name": "rewardToken",
              "type": "address"
            },
            {
              "internalType": "address",
              "name": "intermediateToken",
              "type": "address"
            },
            {
              "internalType": "address",
              "name": "baseToken",
              "type": "address"
            },
            {
              "internalType": "string",
              "name": "pendingCall",
              "type": "string"
            },
            {
              "internalType": "string",
              "name": "contractType_solo",
              "type": "string"
            },
            {
              "internalType": "string",
              "name": "contractType_pooled",
              "type": "string"
            }
          ],
          "internalType": "struct combine_beacon.sExchangeInfo",
          "name": "",
          "type": "tuple"
        }
      ],
      "stateMutability": "view",
      "type": "function"
    },
    {
      "inputs": [
        {
          "internalType": "string",
          "name": "_name",
          "type": "string"
        },
        {
          "internalType": "uint256",
          "name": "_type",
          "type": "uint256"
        }
      ],
      "name": "getContractType",
      "outputs": [
        {
          "internalType": "string",
          "name": "_contract",
          "type": "string"
        }
      ],
      "stateMutability": "view",
      "type": "function"
    },
    {
      "inputs": [
        {
          "internalType": "string",
          "name": "_key",
          "type": "string"
        },
        {
          "internalType": "address",
          "name": "_value",
          "type": "address"
        }
      ],
      "name": "setAddress",
      "outputs": [],
      "stateMutability": "nonpayable",
      "type": "function"
    },
    {
      "inputs": [
        {
          "internalType": "string",
          "name": "_key",
          "type": "string"
        }
      ],
      "name": "getAddress",
      "outputs": [
        {
          "internalType": "address",
          "name": "",
          "type": "address"
        }
      ],
      "stateMutability": "view",
      "type": "function"
    }
  ],
  "bytecode": "0x60806040523480156200001157600080fd5b5062000032620000266200003860201b60201c565b6200004060201b60201c565b62000104565b600033905090565b60008060009054906101000a900473ffffffffffffffffffffffffffffffffffffffff169050816000806101000a81548173ffffffffffffffffffffffffffffffffffffffff021916908373ffffffffffffffffffffffffffffffffffffffff1602179055508173ffffffffffffffffffffffffffffffffffffffff168173ffffffffffffffffffffffffffffffffffffffff167f8be0079c531659141344cd1fd0a4f28419497f9722a3daafe3b4186f6b6457e060405160405180910390a35050565b613a3780620001146000396000f3fe608060405234801561001057600080fd5b50600436106101375760003560e01c8063a2724de7116100b8578063d95ad3711161007c578063d95ad37114610367578063db1e420214610397578063ddbd9977146103c8578063f2fde38b146103f9578063f4dfd8c714610415578063ff4b20321461041f57610137565b8063a2724de714610284578063b466360c146102b4578063bf40fac1146102d0578063c42465e314610300578063c4db83951461033057610137565b80636da9ebeb116100ff5780636da9ebeb146101f2578063715018a61461022457806371e782f41461022e5780638da5cb5b1461024a5780639b2ea4bd1461026857610137565b80630cec42a41461013c578063159e5c9c1461016e5780631fb204e01461018a5780632884714b146101ba57806360495b06146101d6575b600080fd5b61015660048036038101906101519190612726565b61044f565b604051610165939291906127c9565b60405180910390f35b61018860048036038101906101839190612989565b6104cf565b005b6101a4600480360381019061019f91906129d2565b6105d3565b6040516101b19190612ab6565b60405180910390f35b6101d460048036038101906101cf9190612ad8565b6106b6565b005b6101f060048036038101906101eb9190612b77565b61096a565b005b61020c60048036038101906102079190612be6565b610d4c565b60405161021b93929190612c5e565b60405180910390f35b61022c610daf565b005b61024860048036038101906102439190612c95565b610e37565b005b6102526113a0565b60405161025f9190612dcf565b60405180910390f35b610282600480360381019061027d9190612dea565b6113c9565b005b61029e60048036038101906102999190612726565b61155a565b6040516102ab9190612dcf565b60405180910390f35b6102ce60048036038101906102c99190612e46565b6115a3565b005b6102ea60048036038101906102e59190612726565b611760565b6040516102f79190612dcf565b60405180910390f35b61031a60048036038101906103159190612726565b6117a8565b6040516103279190612fb0565b60405180910390f35b61034a60048036038101906103459190612726565b611b45565b60405161035e989796959493929190612fd2565b60405180910390f35b610381600480360381019061037c9190612be6565b611ddb565b60405161038e9190613065565b60405180910390f35b6103b160048036038101906103ac9190613080565b611efa565b6040516103bf92919061310b565b60405180910390f35b6103e260048036038101906103dd9190613134565b612132565b6040516103f092919061310b565b60405180910390f35b610413600480360381019061040e9190613134565b612156565b005b61041d61224e565b005b61043960048036038101906104349190612726565b61228e565b6040516104469190612dcf565b60405180910390f35b6002818051602081018201805184825260208301602085012081835280955050505050506000915090508060000160009054906101000a900473ffffffffffffffffffffffffffffffffffffffff16908060010160009054906101000a900473ffffffffffffffffffffffffffffffffffffffff16908060020154905083565b6104d76123aa565b73ffffffffffffffffffffffffffffffffffffffff166104f56113a0565b73ffffffffffffffffffffffffffffffffffffffff161461054b576040517f08c379a0000000000000000000000000000000000000000000000000000000008152600401610542906131ad565b60405180910390fd5b60005b81518110156105cf576105bc82828151811061056d5761056c6131cd565b5b60200260200101516000015183838151811061058c5761058b6131cd565b5b6020026020010151602001518484815181106105ab576105aa6131cd565b5b6020026020010151604001516115a3565b80806105c79061322b565b91505061054e565b5050565b606060008214610603576004836040516105ed91906132b0565b9081526020016040518091039020600701610625565b60048360405161061391906132b0565b90815260200160405180910390206006015b8054610630906132f6565b80601f016020809104026020016040519081016040528092919081815260200182805461065c906132f6565b80156106a95780601f1061067e576101008083540402835291602001916106a9565b820191906000526020600020905b81548152906001019060200180831161068c57829003601f168201915b5050505050905092915050565b6106be6123aa565b73ffffffffffffffffffffffffffffffffffffffff166106dc6113a0565b73ffffffffffffffffffffffffffffffffffffffff1614610732576040517f08c379a0000000000000000000000000000000000000000000000000000000008152600401610729906131ad565b60405180910390fd5b600060018560405161074491906132b0565b90815260200160405180910390208460405161076091906132b0565b908152602001604051809103902060405180606001604052908160008201548152602001600182015481526020016002820154815250509050621275008210156107b35781426107b09190613328565b91505b60008160400151141580156107cb5750428160400151105b15610850576001856040516107e091906132b0565b9081526020016040518091039020846040516107fc91906132b0565b90815260200160405180910390206001015460018660405161081e91906132b0565b90815260200160405180910390208560405161083a91906132b0565b9081526020016040518091039020600001819055505b8160018660405161086191906132b0565b90815260200160405180910390208560405161087d91906132b0565b908152602001604051809103902060020181905550826001866040516108a391906132b0565b9081526020016040518091039020856040516108bf91906132b0565b90815260200160405180910390206001018190555060008160000151141561092457826001866040516108f291906132b0565b90815260200160405180910390208560405161090e91906132b0565b9081526020016040518091039020600001819055505b7f1467ede995a90bb63c9422285be38084092ac426372f24473606946db538ada7858585854260405161095b95949392919061337e565b60405180910390a15050505050565b6109726123aa565b73ffffffffffffffffffffffffffffffffffffffff166109906113a0565b73ffffffffffffffffffffffffffffffffffffffff16146109e6576040517f08c379a00000000000000000000000000000000000000000000000000000000081526004016109dd906131ad565b60405180910390fd5b60006002846040516109f891906132b0565b90815260200160405180910390206040518060600160405290816000820160009054906101000a900473ffffffffffffffffffffffffffffffffffffffff1673ffffffffffffffffffffffffffffffffffffffff1673ffffffffffffffffffffffffffffffffffffffff1681526020016001820160009054906101000a900473ffffffffffffffffffffffffffffffffffffffff1673ffffffffffffffffffffffffffffffffffffffff1673ffffffffffffffffffffffffffffffffffffffff168152602001600282015481525050905062127500821015610ae3578142610ae09190613328565b91505b6000816040015114158015610afc575042816040015111155b15610ba357600284604051610b1191906132b0565b908152602001604051809103902060010160009054906101000a900473ffffffffffffffffffffffffffffffffffffffff16600285604051610b5391906132b0565b908152602001604051809103902060000160006101000a81548173ffffffffffffffffffffffffffffffffffffffff021916908373ffffffffffffffffffffffffffffffffffffffff1602179055505b81600285604051610bb491906132b0565b90815260200160405180910390206002018190555082600285604051610bda91906132b0565b908152602001604051809103902060010160006101000a81548173ffffffffffffffffffffffffffffffffffffffff021916908373ffffffffffffffffffffffffffffffffffffffff160217905550600073ffffffffffffffffffffffffffffffffffffffff16600285604051610c5191906132b0565b908152602001604051809103902060000160009054906101000a900473ffffffffffffffffffffffffffffffffffffffff1673ffffffffffffffffffffffffffffffffffffffff161480610ca55750428211155b15610d0b5782600285604051610cbb91906132b0565b908152602001604051809103902060000160006101000a81548173ffffffffffffffffffffffffffffffffffffffff021916908373ffffffffffffffffffffffffffffffffffffffff1602179055505b7f8fdac7b4b0d72f8e1e55f3c691ad5e48a7293233f1827de48f534b7db100eafe848484604051610d3e939291906133df565b60405180910390a150505050565b60018280516020810182018051848252602083016020850120818352809550505050505081805160208101820180518482526020830160208501208183528095505050505050600091509150508060000154908060010154908060020154905083565b610db76123aa565b73ffffffffffffffffffffffffffffffffffffffff16610dd56113a0565b73ffffffffffffffffffffffffffffffffffffffff1614610e2b576040517f08c379a0000000000000000000000000000000000000000000000000000000008152600401610e22906131ad565b60405180910390fd5b610e3560006123b2565b565b610e3f6123aa565b73ffffffffffffffffffffffffffffffffffffffff16610e5d6113a0565b73ffffffffffffffffffffffffffffffffffffffff1614610eb3576040517f08c379a0000000000000000000000000000000000000000000000000000000008152600401610eaa906131ad565b60405180910390fd5b6000895111610ef7576040517f08c379a0000000000000000000000000000000000000000000000000000000008152600401610eee90613469565b60405180910390fd5b600073ffffffffffffffffffffffffffffffffffffffff168873ffffffffffffffffffffffffffffffffffffffff161415610f67576040517f08c379a0000000000000000000000000000000000000000000000000000000008152600401610f5e906134d5565b60405180910390fd5b600073ffffffffffffffffffffffffffffffffffffffff168773ffffffffffffffffffffffffffffffffffffffff161415610fd7576040517f08c379a0000000000000000000000000000000000000000000000000000000008152600401610fce90613541565b60405180910390fd5b600073ffffffffffffffffffffffffffffffffffffffff168673ffffffffffffffffffffffffffffffffffffffff161415611047576040517f08c379a000000000000000000000000000000000000000000000000000000000815260040161103e906135ad565b60405180910390fd5b600085511161108b576040517f08c379a000000000000000000000000000000000000000000000000000000000815260040161108290613619565b60405180910390fd5b60008251116110cf576040517f08c379a00000000000000000000000000000000000000000000000000000000081526004016110c690613685565b60405180910390fd5b6000815111611113576040517f08c379a000000000000000000000000000000000000000000000000000000000815260040161110a90613685565b60405180910390fd5b8760048a60405161112491906132b0565b908152602001604051809103902060000160006101000a81548173ffffffffffffffffffffffffffffffffffffffff021916908373ffffffffffffffffffffffffffffffffffffffff1602179055508660048a60405161118491906132b0565b908152602001604051809103902060010160006101000a81548173ffffffffffffffffffffffffffffffffffffffff021916908373ffffffffffffffffffffffffffffffffffffffff1602179055508560048a6040516111e491906132b0565b908152602001604051809103902060020160006101000a81548173ffffffffffffffffffffffffffffffffffffffff021916908373ffffffffffffffffffffffffffffffffffffffff1602179055508460048a60405161124491906132b0565b90815260200160405180910390206005019080519060200190611268929190612476565b508360048a60405161127a91906132b0565b908152602001604051809103902060030160006101000a81548173ffffffffffffffffffffffffffffffffffffffff021916908373ffffffffffffffffffffffffffffffffffffffff1602179055508260048a6040516112da91906132b0565b908152602001604051809103902060040160006101000a81548173ffffffffffffffffffffffffffffffffffffffff021916908373ffffffffffffffffffffffffffffffffffffffff1602179055508160048a60405161133a91906132b0565b9081526020016040518091039020600601908051906020019061135e929190612476565b508060048a60405161137091906132b0565b90815260200160405180910390206007019080519060200190611394929190612476565b50505050505050505050565b60008060009054906101000a900473ffffffffffffffffffffffffffffffffffffffff16905090565b6113d16123aa565b73ffffffffffffffffffffffffffffffffffffffff166113ef6113a0565b73ffffffffffffffffffffffffffffffffffffffff1614611445576040517f08c379a000000000000000000000000000000000000000000000000000000000815260040161143c906131ad565b60405180910390fd5b6000825111611489576040517f08c379a0000000000000000000000000000000000000000000000000000000008152600401611480906136f1565b60405180910390fd5b600073ffffffffffffffffffffffffffffffffffffffff168173ffffffffffffffffffffffffffffffffffffffff1614156114f9576040517f08c379a00000000000000000000000000000000000000000000000000000000081526004016114f09061375d565b60405180910390fd5b8060058360405161150a91906132b0565b908152602001604051809103902060006101000a81548173ffffffffffffffffffffffffffffffffffffffff021916908373ffffffffffffffffffffffffffffffffffffffff1602179055505050565b6005818051602081018201805184825260208301602085012081835280955050505050506000915054906101000a900473ffffffffffffffffffffffffffffffffffffffff1681565b6115ab6123aa565b73ffffffffffffffffffffffffffffffffffffffff166115c96113a0565b73ffffffffffffffffffffffffffffffffffffffff161461161f576040517f08c379a0000000000000000000000000000000000000000000000000000000008152600401611616906131ad565b60405180910390fd5b68056bc75e2d6310000082111561166b576040517f08c379a0000000000000000000000000000000000000000000000000000000008152600401611662906137c9565b60405180910390fd5b81600360008573ffffffffffffffffffffffffffffffffffffffff1673ffffffffffffffffffffffffffffffffffffffff168152602001908152602001600020600001819055506000811180156116c557506301e1338081105b156116d95780426116d69190613328565b90505b80600360008573ffffffffffffffffffffffffffffffffffffffff1673ffffffffffffffffffffffffffffffffffffffff168152602001908152602001600020600101819055507f2a6a35b24e9eddc7a01b473f3a9903c099d1eed70e51611a4edaa9702ce9f999838383604051611753939291906137e9565b60405180910390a1505050565b600060058260405161177291906132b0565b908152602001604051809103902060009054906101000a900473ffffffffffffffffffffffffffffffffffffffff169050919050565b6117b06124fc565b6004826040516117c091906132b0565b9081526020016040518091039020604051806101000160405290816000820160009054906101000a900473ffffffffffffffffffffffffffffffffffffffff1673ffffffffffffffffffffffffffffffffffffffff1673ffffffffffffffffffffffffffffffffffffffff1681526020016001820160009054906101000a900473ffffffffffffffffffffffffffffffffffffffff1673ffffffffffffffffffffffffffffffffffffffff1673ffffffffffffffffffffffffffffffffffffffff1681526020016002820160009054906101000a900473ffffffffffffffffffffffffffffffffffffffff1673ffffffffffffffffffffffffffffffffffffffff1673ffffffffffffffffffffffffffffffffffffffff1681526020016003820160009054906101000a900473ffffffffffffffffffffffffffffffffffffffff1673ffffffffffffffffffffffffffffffffffffffff1673ffffffffffffffffffffffffffffffffffffffff1681526020016004820160009054906101000a900473ffffffffffffffffffffffffffffffffffffffff1673ffffffffffffffffffffffffffffffffffffffff1673ffffffffffffffffffffffffffffffffffffffff168152602001600582018054611998906132f6565b80601f01602080910402602001604051908101604052809291908181526020018280546119c4906132f6565b8015611a115780601f106119e657610100808354040283529160200191611a11565b820191906000526020600020905b8154815290600101906020018083116119f457829003601f168201915b50505050508152602001600682018054611a2a906132f6565b80601f0160208091040260200160405190810160405280929190818152602001828054611a56906132f6565b8015611aa35780601f10611a7857610100808354040283529160200191611aa3565b820191906000526020600020905b815481529060010190602001808311611a8657829003601f168201915b50505050508152602001600782018054611abc906132f6565b80601f0160208091040260200160405190810160405280929190818152602001828054611ae8906132f6565b8015611b355780601f10611b0a57610100808354040283529160200191611b35565b820191906000526020600020905b815481529060010190602001808311611b1857829003601f168201915b5050505050815250509050919050565b6004818051602081018201805184825260208301602085012081835280955050505050506000915090508060000160009054906101000a900473ffffffffffffffffffffffffffffffffffffffff16908060010160009054906101000a900473ffffffffffffffffffffffffffffffffffffffff16908060020160009054906101000a900473ffffffffffffffffffffffffffffffffffffffff16908060030160009054906101000a900473ffffffffffffffffffffffffffffffffffffffff16908060040160009054906101000a900473ffffffffffffffffffffffffffffffffffffffff1690806005018054611c3c906132f6565b80601f0160208091040260200160405190810160405280929190818152602001828054611c68906132f6565b8015611cb55780601f10611c8a57610100808354040283529160200191611cb5565b820191906000526020600020905b815481529060010190602001808311611c9857829003601f168201915b505050505090806006018054611cca906132f6565b80601f0160208091040260200160405190810160405280929190818152602001828054611cf6906132f6565b8015611d435780601f10611d1857610100808354040283529160200191611d43565b820191906000526020600020905b815481529060010190602001808311611d2657829003601f168201915b505050505090806007018054611d58906132f6565b80601f0160208091040260200160405190810160405280929190818152602001828054611d84906132f6565b8015611dd15780601f10611da657610100808354040283529160200191611dd1565b820191906000526020600020905b815481529060010190602001808311611db457829003601f168201915b5050505050905088565b600080600184604051611dee91906132b0565b908152602001604051809103902083604051611e0a91906132b0565b90815260200160405180910390206040518060600160405290816000820154815260200160018201548152602001600282015481525050905060008160200151148015611e5b575060008160000151145b15611ec4576001604051611e6e9061386c565b908152602001604051809103902083604051611e8a91906132b0565b9081526020016040518091039020604051806060016040529081600082015481526020016001820154815260200160028201548152505090505b6000816040015114158015611edd575042816040015111155b611eeb578060000151611ef1565b80602001515b91505092915050565b6000806000600186604051611f0f91906132b0565b908152602001604051809103902085604051611f2b91906132b0565b9081526020016040518091039020604051806060016040529081600082015481526020016001820154815260200160028201548152505090506000600360008673ffffffffffffffffffffffffffffffffffffffff1673ffffffffffffffffffffffffffffffffffffffff16815260200190815260200160002060405180604001604052908160008201548152602001600182015481525050905060008260200151148015611fde575060008260000151145b15612047576001604051611ff19061386c565b90815260200160405180910390208660405161200d91906132b0565b9081526020016040518091039020604051806060016040529081600082015481526020016001820154815260200160028201548152505091505b600080836040015114158015612061575042836040015111155b61206f578260000151612075565b82602001515b9050600080836000015111801561209f575042836020015111158061209e575060008360200151145b5b6120aa5760016120b0565b82602001515b9050600083600001511180156120d957504283602001511115806120d8575060008360200151145b5b1561211f57670de0b6b3a7640000606484600001516120f891906138b0565b8361210391906138e1565b61210d91906138b0565b82612118919061393b565b9150612120565b5b81819550955050505050935093915050565b60036020528060005260406000206000915090508060000154908060010154905082565b61215e6123aa565b73ffffffffffffffffffffffffffffffffffffffff1661217c6113a0565b73ffffffffffffffffffffffffffffffffffffffff16146121d2576040517f08c379a00000000000000000000000000000000000000000000000000000000081526004016121c9906131ad565b60405180910390fd5b600073ffffffffffffffffffffffffffffffffffffffff168173ffffffffffffffffffffffffffffffffffffffff161415612242576040517f08c379a0000000000000000000000000000000000000000000000000000000008152600401612239906139e1565b60405180910390fd5b61224b816123b2565b50565b60011515600660009054906101000a900460ff16151514612270576001612273565b60005b600660006101000a81548160ff021916908315150217905550565b6000806002836040516122a191906132b0565b90815260200160405180910390206040518060600160405290816000820160009054906101000a900473ffffffffffffffffffffffffffffffffffffffff1673ffffffffffffffffffffffffffffffffffffffff1673ffffffffffffffffffffffffffffffffffffffff1681526020016001820160009054906101000a900473ffffffffffffffffffffffffffffffffffffffff1673ffffffffffffffffffffffffffffffffffffffff1673ffffffffffffffffffffffffffffffffffffffff1681526020016002820154815250509050600081604001511415801561238a5750428160400151105b1561239c5780602001519150506123a5565b80600001519150505b919050565b600033905090565b60008060009054906101000a900473ffffffffffffffffffffffffffffffffffffffff169050816000806101000a81548173ffffffffffffffffffffffffffffffffffffffff021916908373ffffffffffffffffffffffffffffffffffffffff1602179055508173ffffffffffffffffffffffffffffffffffffffff168173ffffffffffffffffffffffffffffffffffffffff167f8be0079c531659141344cd1fd0a4f28419497f9722a3daafe3b4186f6b6457e060405160405180910390a35050565b828054612482906132f6565b90600052602060002090601f0160209004810192826124a457600085556124eb565b82601f106124bd57805160ff19168380011785556124eb565b828001600101855582156124eb579182015b828111156124ea5782518255916020019190600101906124cf565b5b5090506124f891906125af565b5090565b604051806101000160405280600073ffffffffffffffffffffffffffffffffffffffff168152602001600073ffffffffffffffffffffffffffffffffffffffff168152602001600073ffffffffffffffffffffffffffffffffffffffff168152602001600073ffffffffffffffffffffffffffffffffffffffff168152602001600073ffffffffffffffffffffffffffffffffffffffff1681526020016060815260200160608152602001606081525090565b5b808211156125c85760008160009055506001016125b0565b5090565b6000604051905090565b600080fd5b600080fd5b600080fd5b600080fd5b6000601f19601f8301169050919050565b7f4e487b7100000000000000000000000000000000000000000000000000000000600052604160045260246000fd5b612633826125ea565b810181811067ffffffffffffffff82111715612652576126516125fb565b5b80604052505050565b60006126656125cc565b9050612671828261262a565b919050565b600067ffffffffffffffff821115612691576126906125fb565b5b61269a826125ea565b9050602081019050919050565b82818337600083830152505050565b60006126c96126c484612676565b61265b565b9050828152602081018484840111156126e5576126e46125e5565b5b6126f08482856126a7565b509392505050565b600082601f83011261270d5761270c6125e0565b5b813561271d8482602086016126b6565b91505092915050565b60006020828403121561273c5761273b6125d6565b5b600082013567ffffffffffffffff81111561275a576127596125db565b5b612766848285016126f8565b91505092915050565b600073ffffffffffffffffffffffffffffffffffffffff82169050919050565b600061279a8261276f565b9050919050565b6127aa8161278f565b82525050565b6000819050919050565b6127c3816127b0565b82525050565b60006060820190506127de60008301866127a1565b6127eb60208301856127a1565b6127f860408301846127ba565b949350505050565b600067ffffffffffffffff82111561281b5761281a6125fb565b5b602082029050602081019050919050565b600080fd5b600080fd5b61283f8161278f565b811461284a57600080fd5b50565b60008135905061285c81612836565b92915050565b61286b816127b0565b811461287657600080fd5b50565b60008135905061288881612862565b92915050565b6000606082840312156128a4576128a3612831565b5b6128ae606061265b565b905060006128be8482850161284d565b60008301525060206128d284828501612879565b60208301525060406128e684828501612879565b60408301525092915050565b600061290561290084612800565b61265b565b905080838252602082019050606084028301858111156129285761292761282c565b5b835b81811015612951578061293d888261288e565b84526020840193505060608101905061292a565b5050509392505050565b600082601f8301126129705761296f6125e0565b5b81356129808482602086016128f2565b91505092915050565b60006020828403121561299f5761299e6125d6565b5b600082013567ffffffffffffffff8111156129bd576129bc6125db565b5b6129c98482850161295b565b91505092915050565b600080604083850312156129e9576129e86125d6565b5b600083013567ffffffffffffffff811115612a0757612a066125db565b5b612a13858286016126f8565b9250506020612a2485828601612879565b9150509250929050565b600081519050919050565b600082825260208201905092915050565b60005b83811015612a68578082015181840152602081019050612a4d565b83811115612a77576000848401525b50505050565b6000612a8882612a2e565b612a928185612a39565b9350612aa2818560208601612a4a565b612aab816125ea565b840191505092915050565b60006020820190508181036000830152612ad08184612a7d565b905092915050565b60008060008060808587031215612af257612af16125d6565b5b600085013567ffffffffffffffff811115612b1057612b0f6125db565b5b612b1c878288016126f8565b945050602085013567ffffffffffffffff811115612b3d57612b3c6125db565b5b612b49878288016126f8565b9350506040612b5a87828801612879565b9250506060612b6b87828801612879565b91505092959194509250565b600080600060608486031215612b9057612b8f6125d6565b5b600084013567ffffffffffffffff811115612bae57612bad6125db565b5b612bba868287016126f8565b9350506020612bcb8682870161284d565b9250506040612bdc86828701612879565b9150509250925092565b60008060408385031215612bfd57612bfc6125d6565b5b600083013567ffffffffffffffff811115612c1b57612c1a6125db565b5b612c27858286016126f8565b925050602083013567ffffffffffffffff811115612c4857612c476125db565b5b612c54858286016126f8565b9150509250929050565b6000606082019050612c7360008301866127ba565b612c8060208301856127ba565b612c8d60408301846127ba565b949350505050565b60008060008060008060008060006101208a8c031215612cb857612cb76125d6565b5b60008a013567ffffffffffffffff811115612cd657612cd56125db565b5b612ce28c828d016126f8565b9950506020612cf38c828d0161284d565b9850506040612d048c828d0161284d565b9750506060612d158c828d0161284d565b96505060808a013567ffffffffffffffff811115612d3657612d356125db565b5b612d428c828d016126f8565b95505060a0612d538c828d0161284d565b94505060c0612d648c828d0161284d565b93505060e08a013567ffffffffffffffff811115612d8557612d846125db565b5b612d918c828d016126f8565b9250506101008a013567ffffffffffffffff811115612db357612db26125db565b5b612dbf8c828d016126f8565b9150509295985092959850929598565b6000602082019050612de460008301846127a1565b92915050565b60008060408385031215612e0157612e006125d6565b5b600083013567ffffffffffffffff811115612e1f57612e1e6125db565b5b612e2b858286016126f8565b9250506020612e3c8582860161284d565b9150509250929050565b600080600060608486031215612e5f57612e5e6125d6565b5b6000612e6d8682870161284d565b9350506020612e7e86828701612879565b9250506040612e8f86828701612879565b9150509250925092565b612ea28161278f565b82525050565b600082825260208201905092915050565b6000612ec482612a2e565b612ece8185612ea8565b9350612ede818560208601612a4a565b612ee7816125ea565b840191505092915050565b600061010083016000830151612f0b6000860182612e99565b506020830151612f1e6020860182612e99565b506040830151612f316040860182612e99565b506060830151612f446060860182612e99565b506080830151612f576080860182612e99565b5060a083015184820360a0860152612f6f8282612eb9565b91505060c083015184820360c0860152612f898282612eb9565b91505060e083015184820360e0860152612fa38282612eb9565b9150508091505092915050565b60006020820190508181036000830152612fca8184612ef2565b905092915050565b600061010082019050612fe8600083018b6127a1565b612ff5602083018a6127a1565b61300260408301896127a1565b61300f60608301886127a1565b61301c60808301876127a1565b81810360a083015261302e8186612a7d565b905081810360c08301526130428185612a7d565b905081810360e08301526130568184612a7d565b90509998505050505050505050565b600060208201905061307a60008301846127ba565b92915050565b600080600060608486031215613099576130986125d6565b5b600084013567ffffffffffffffff8111156130b7576130b66125db565b5b6130c3868287016126f8565b935050602084013567ffffffffffffffff8111156130e4576130e36125db565b5b6130f0868287016126f8565b92505060406131018682870161284d565b9150509250925092565b600060408201905061312060008301856127ba565b61312d60208301846127ba565b9392505050565b60006020828403121561314a576131496125d6565b5b60006131588482850161284d565b91505092915050565b7f4f776e61626c653a2063616c6c6572206973206e6f7420746865206f776e6572600082015250565b6000613197602083612a39565b91506131a282613161565b602082019050919050565b600060208201905081810360008301526131c68161318a565b9050919050565b7f4e487b7100000000000000000000000000000000000000000000000000000000600052603260045260246000fd5b7f4e487b7100000000000000000000000000000000000000000000000000000000600052601160045260246000fd5b6000613236826127b0565b91507fffffffffffffffffffffffffffffffffffffffffffffffffffffffffffffffff821415613269576132686131fc565b5b600182019050919050565b600081905092915050565b600061328a82612a2e565b6132948185613274565b93506132a4818560208601612a4a565b80840191505092915050565b60006132bc828461327f565b915081905092915050565b7f4e487b7100000000000000000000000000000000000000000000000000000000600052602260045260246000fd5b6000600282049050600182168061330e57607f821691505b60208210811415613322576133216132c7565b5b50919050565b6000613333826127b0565b915061333e836127b0565b9250827fffffffffffffffffffffffffffffffffffffffffffffffffffffffffffffffff03821115613373576133726131fc565b5b828201905092915050565b600060a08201905081810360008301526133988188612a7d565b905081810360208301526133ac8187612a7d565b90506133bb60408301866127ba565b6133c860608301856127ba565b6133d560808301846127ba565b9695505050505050565b600060608201905081810360008301526133f98186612a7d565b905061340860208301856127a1565b61341560408301846127ba565b949350505050565b7f4e616d652063616e6e6f7420626520656d707479000000000000000000000000600082015250565b6000613453601483612a39565b915061345e8261341d565b602082019050919050565b6000602082019050818103600083015261348281613446565b9050919050565b7f4368656620636f6e74726163742063616e6e6f7420626520656d707479000000600082015250565b60006134bf601d83612a39565b91506134ca82613489565b602082019050919050565b600060208201905081810360008301526134ee816134b2565b9050919050565b7f526f75746520636f6e74726163742063616e6e6f7420626520656d7074790000600082015250565b600061352b601e83612a39565b9150613536826134f5565b602082019050919050565b6000602082019050818103600083015261355a8161351e565b9050919050565b7f52657761726420746f6b656e2063616e6e6f7420626520656d70747900000000600082015250565b6000613597601c83612a39565b91506135a282613561565b602082019050919050565b600060208201905081810360008301526135c68161358a565b9050919050565b7f50656e64696e672063616c6c2063616e6e6f7420626520656d70747900000000600082015250565b6000613603601c83612a39565b915061360e826135cd565b602082019050919050565b60006020820190508181036000830152613632816135f6565b9050919050565b7f436f6e747261637420747970652063616e6e6f7420626520656d707479000000600082015250565b600061366f601d83612a39565b915061367a82613639565b602082019050919050565b6000602082019050818103600083015261369e81613662565b9050919050565b7f4b65792063616e6e6f7420626520656d70747900000000000000000000000000600082015250565b60006136db601383612a39565b91506136e6826136a5565b602082019050919050565b6000602082019050818103600083015261370a816136ce565b9050919050565b7f56616c75652063616e6e6f7420626520656d7074790000000000000000000000600082015250565b6000613747601583612a39565b915061375282613711565b602082019050919050565b600060208201905081810360008301526137768161373a565b9050919050565b7f43616e6e6f742065786365656420313030250000000000000000000000000000600082015250565b60006137b3601283612a39565b91506137be8261377d565b602082019050919050565b600060208201905081810360008301526137e2816137a6565b9050919050565b60006060820190506137fe60008301866127a1565b61380b60208301856127ba565b61381860408301846127ba565b949350505050565b7f44454641554c5400000000000000000000000000000000000000000000000000600082015250565b6000613856600783613274565b915061386182613820565b600782019050919050565b600061387782613849565b9150819050919050565b7f4e487b7100000000000000000000000000000000000000000000000000000000600052601260045260246000fd5b60006138bb826127b0565b91506138c6836127b0565b9250826138d6576138d5613881565b5b828204905092915050565b60006138ec826127b0565b91506138f7836127b0565b9250817fffffffffffffffffffffffffffffffffffffffffffffffffffffffffffffffff04831182151516156139305761392f6131fc565b5b828202905092915050565b6000613946826127b0565b9150613951836127b0565b925082821015613964576139636131fc565b5b828203905092915050565b7f4f776e61626c653a206e6577206f776e657220697320746865207a65726f206160008201527f6464726573730000000000000000000000000000000000000000000000000000602082015250565b60006139cb602683612a39565b91506139d68261396f565b604082019050919050565b600060208201905081810360008301526139fa816139be565b905091905056fea26469706673582212201ce48aa1027ae30ee04211a9105bfaa510c8bd12ca3ad97f4172ecfa0de248cc64736f6c634300080c0033",
  "immutableReferences": {},
  "source": "//SPDX-License-Identifier: UNLICENSED\npragma solidity ^0.8.7;\npragma experimental ABIEncoderV2;\nimport \"@openzeppelin/contracts/access/Ownable.sol\";\n\ncontract combine_beacon is Ownable {\n    struct sFee {\n        uint current_amount;\n        uint replacement_amount;\n        uint256 start;\n    }\n\n    struct sExchange {\n        address current_logic_contract;\n        address replacement_logic_contract;\n        uint256 start;\n    }\n    struct aDiscount {\n        address _user;\n        uint _discount;\n        uint _expires;\n    }\n    struct sDiscount {\n        uint discount_amount;\n        uint expires;\n    }\n\n    struct sExchangeInfo {\n        address chefContract;\n        address routerContract;\n        address rewardToken;\n        address intermediateToken;\n        address baseToken;\n        string pendingCall;\n        string contractType_solo;\n        string contractType_pooled;\n    }\n\n    mapping (string => mapping(string => sFee)) public mFee;\n    mapping (string => sExchange) public mExchanges;\n    mapping (address => sDiscount) public mDiscounts;\n    mapping (string => sExchangeInfo) public mExchangeInfo;\n    mapping (string => address) public mData;\n\n    bool bitFlip;\n\n    event feeSet(string _exchange, string _function, uint _amount, uint256 _time, uint256 _current);\n    event discountSet(address _user, uint _discount, uint _expires);\n    event exchangeSet(string  _exchange, address _replacement_logic_contract, uint256 _start);\n    \n    ///@notice Calculate fee with discount from user\n    ///@param _exchange Exchange name\n    ///@param _type Type of fee\n    ///@param _user User address\n    ///@return amount - amount of the fee\n    ///@return expires - unix timestamp when the discount expires\n\n    function getFee(string memory _exchange, string memory _type, address _user) public view returns (uint,uint) {\n        sFee memory rv = mFee[_exchange][_type];\n        sDiscount memory disc = mDiscounts[_user];\n        if (rv.replacement_amount == 0 && rv.current_amount == 0) {\n            rv = mFee['DEFAULT'][_type];\n        }\n\n        uint amount =  (rv.start != 0 && rv.start <= block.timestamp) ? rv.replacement_amount : rv.current_amount;\n        uint expires = (disc.discount_amount > 0 && (disc.expires <= block.timestamp || disc.expires == 0)) ? disc.expires : 1;\n\n        if (disc.discount_amount > 0 && (disc.expires <= block.timestamp || disc.expires == 0)) {\n            \n            amount = amount - (amount *(disc.discount_amount/100) / (10**18)); \n        }\n        else {\n\n        }\n\n        return (amount,expires);\n    }\n    ///@notice get a constant setting and check for new value baed on timestamp\n    ///@param _exchange Exchange name\n    ///@param _type Name of constant\n    ///@return value of constant\n\n    function getConst(string memory _exchange, string memory _type) public view returns (uint) {\n        sFee memory rv = mFee[_exchange][_type];\n        if (rv.replacement_amount == 0 && rv.current_amount == 0) {\n            rv = mFee['DEFAULT'][_type];\n        }\n        return (rv.start != 0 && rv.start <= block.timestamp) ? rv.replacement_amount : rv.current_amount;\n    }\n\n\n    ///@notice Accept an array of users and discounts from teh admin only\n    ///@param _discount struct array of users and discounts    \n    function setDiscount(aDiscount[] memory  _discount) public onlyOwner{ \n        for (uint i = 0; i < _discount.length; i++) {\n            setDiscount(_discount[i]._user, _discount[i]._discount, _discount[i]._expires);\n        }\n    }\n\n    ///@notice Accept a user and discount from the admin only\n    ///@param _user User address\n    ///@param _amount Discount amount\n    ///@param _expires Unix timestamp when the discount expires\n    function setDiscount(address _user, uint _amount, uint _expires) public onlyOwner {\n        require(_amount <= 100 ether,\"Cannot exceed 100%\");\n        mDiscounts[_user].discount_amount = _amount;\n        if (_expires > 0 && _expires < 31536000) {\n            _expires = block.timestamp + _expires;\n        }\n        mDiscounts[_user].expires = _expires;\n\n        emit discountSet(_user,_amount,_expires);\n    }\n\n    ///@notice Function to force a new block\n    ///@dev For testing purposes only\n    function updateBlock() public { //function used for testing to advance block time\n        bitFlip = bitFlip == true ? false : true;\n    }\n\n    ///@notice Sets a fee for an exchange and function\n    ///@param _exchange Exchange name\n    ///@param _type Function name\n    ///@param _replacement_amount Amount of the fee\n    ///@param _start Unix timestamp when the fee starts\n    function setFee(string memory _exchange, string memory _type, uint _replacement_amount, uint256 _start) public onlyOwner {\n        sFee memory rv = mFee[_exchange][_type];\n        \n        if (_start < 1209600) {\n            _start = block.timestamp + _start;\n        }\n        \n        if (rv.start != 0 && rv.start < block.timestamp) {\n            mFee[_exchange][_type].current_amount = mFee[_exchange][_type].replacement_amount;\n        }\n        \n        mFee[_exchange][_type].start = _start;\n        mFee[_exchange][_type].replacement_amount = _replacement_amount;\n\n        if (rv.current_amount == 0) {\n            mFee[_exchange][_type].current_amount = _replacement_amount;\n        }\n        emit feeSet(_exchange,_type,_replacement_amount,_start, block.timestamp);\n    }\n    \n    ///@notice Get logic contract for an exchange\n    ///@param _exchange Exchange name\n    ///@return address of the logic contract\n    function getExchange(string memory _exchange) public view returns(address) {\n        sExchange memory rv = mExchanges[_exchange];\n\n        if (rv.start != 0 && rv.start < block.timestamp) {\n            return rv.replacement_logic_contract;\n        }\n        return rv.current_logic_contract;\n    }\n\n    //@notice Set address for a logic contract that comes into effect at specific timestamp\n    ///@dev set _start to 0 to take effect immediately\n    ///@param _exchange Exchange name\n    ///@param _replacement_logic_contract Address of the logic contract\n    ///@param _start Unix timestamp when the logic contract comes into effect\n    function setExchange(string memory _exchange, address _replacement_logic_contract, uint256 _start) public onlyOwner {\n        sExchange memory rv = mExchanges[_exchange];\n        \n        if (_start < 1209600) {\n            _start = block.timestamp + _start;\n        }\n        \n        if (rv.start != 0 && rv.start <= block.timestamp) {\n            mExchanges[_exchange].current_logic_contract = mExchanges[_exchange].replacement_logic_contract;\n        }\n        \n        mExchanges[_exchange].start = _start;\n        mExchanges[_exchange].replacement_logic_contract = _replacement_logic_contract;\n        if (mExchanges[_exchange].current_logic_contract == address(0) || _start <= block.timestamp) {\n            mExchanges[_exchange].current_logic_contract = _replacement_logic_contract;\n        }\n        emit exchangeSet(_exchange, _replacement_logic_contract, _start);\n    }\n    \n    //@notice Set information for exchange\n    ///@param _name Exchange name\n    ///@param _chefContract Address of the MasterChef contract for pool information\n    ///@param _routerContract Address of the Router contract \n    ///@param _rewardToken Address of the reward token for exchange\n    ///@param _pendingCall string of the function in the MasterChef contract that gets the pending reward for a pool\n    ///@param _baseToken FUTURE CODE: Address of the token used as base for all calculations. Currently it is only BNB\n    ///@param _contractType_solo Name of Logic Contract to be called  from \"getExchange\" for solo farming\n    ///@param _contractType_pooled Name of Logic Contract to be called  from \"getExchange\" for pooled farming\n    function setExchangeInfo(string memory _name, address _chefContract, address _routerContract, address _rewardToken, string memory _pendingCall,address _intermediateToken, address _baseToken, string memory _contractType_solo, string memory _contractType_pooled) public onlyOwner {\n        require(bytes(_name).length > 0, \"Name cannot be empty\");\n        require(_chefContract != address(0), \"Chef contract cannot be empty\");\n        require(_routerContract != address(0), \"Route contract cannot be empty\");\n        require(_rewardToken != address(0), \"Reward token cannot be empty\");\n        require(bytes(_pendingCall).length > 0, \"Pending call cannot be empty\");\n        require(bytes(_contractType_solo).length > 0, \"Contract type cannot be empty\");\n        require(bytes(_contractType_pooled).length > 0, \"Contract type cannot be empty\");\n\n        mExchangeInfo[_name].chefContract = _chefContract;\n        mExchangeInfo[_name].routerContract = _routerContract;\n        mExchangeInfo[_name].rewardToken = _rewardToken;\n        mExchangeInfo[_name].pendingCall = _pendingCall;\n        mExchangeInfo[_name].intermediateToken = _intermediateToken;\n        mExchangeInfo[_name].baseToken = _baseToken;\n        mExchangeInfo[_name].contractType_solo = _contractType_solo;\n        mExchangeInfo[_name].contractType_pooled = _contractType_pooled;\n    }\n    \n    ///@notice Get information for exchange\n    ///@param _name Exchange name\n    ///@return Structure containing exchange information creaded by setExchangeInfo\n    function getExchangeInfo(string memory _name) public view returns (sExchangeInfo memory) {\n        return mExchangeInfo[_name];\n    }\n\n    ///@notice Get identifier for contract type based on exchange name\n    ///@param _name Exchange name\n    ///@param _type Type of contract (0=solo, 1=pooled)\n    ///@return _contract Name of contract type\n\n    function getContractType(string memory _name, uint _type) public view returns (string memory _contract) {                \n        _contract = _type== 0?mExchangeInfo[_name].contractType_solo:mExchangeInfo[_name].contractType_pooled;\n    }\n\n\n    ///@notice Set address of lookup key (ie. FEECOLLECTOR, ADMINUSER, etc)\n    ///@param _key Key name\n    ///@param _value Address of specified key\n    function setAddress(string memory _key, address _value) public onlyOwner {\n        require(bytes(_key).length > 0, \"Key cannot be empty\");\n        require(_value != address(0), \"Value cannot be empty\");\n        mData[_key] = _value;\n    }\n\n    ///@notice Get address of lookup key (ie. FEECOLLECTOR, ADMINUSER, etc)\n    ///@param _key Key name\n    ///@return Address of specified key\n    function getAddress(string memory _key) public view returns(address) {\n        return mData[_key];\n    }\n}\n\n",
  "sourcePath": "/mnt/src/crypto/combine_sol/contracts/combine_beacon.sol",
  "compiler": {
    "name": "solc",
    "version": "0.8.12+commit.f00d7308.Emscripten.clang"
  },
  "schemaVersion": "3.4.3",
  "updatedAt": "2022-03-16T13:39:41.382Z",
  "devdoc": {
    "kind": "dev",
    "methods": {
      "getAddress(string)": {
        "params": {
          "_key": "Key name"
        },
        "returns": {
          "_0": "Address of specified key"
        }
      },
      "getConst(string,string)": {
        "params": {
          "_exchange": "Exchange name",
          "_type": "Name of constant"
        },
        "returns": {
          "_0": "value of constant"
        }
      },
      "getContractType(string,uint256)": {
        "params": {
          "_name": "Exchange name",
          "_type": "Type of contract (0=solo, 1=pooled)"
        },
        "returns": {
          "_contract": "Name of contract type"
        }
      },
      "getExchange(string)": {
        "params": {
          "_exchange": "Exchange name"
        },
        "returns": {
          "_0": "address of the logic contract"
        }
      },
      "getExchangeInfo(string)": {
        "params": {
          "_name": "Exchange name"
        },
        "returns": {
          "_0": "Structure containing exchange information creaded by setExchangeInfo"
        }
      },
      "getFee(string,string,address)": {
        "params": {
          "_exchange": "Exchange name",
          "_type": "Type of fee",
          "_user": "User address"
        },
        "returns": {
          "_0": "amount - amount of the fee",
          "_1": "expires - unix timestamp when the discount expires"
        }
      },
      "owner()": {
        "details": "Returns the address of the current owner."
      },
      "renounceOwnership()": {
        "details": "Leaves the contract without owner. It will not be possible to call `onlyOwner` functions anymore. Can only be called by the current owner. NOTE: Renouncing ownership will leave the contract without an owner, thereby removing any functionality that is only available to the owner."
      },
      "setAddress(string,address)": {
        "params": {
          "_key": "Key name",
          "_value": "Address of specified key"
        }
      },
      "setDiscount((address,uint256,uint256)[])": {
        "params": {
          "_discount": "struct array of users and discounts    "
        }
      },
      "setDiscount(address,uint256,uint256)": {
        "params": {
          "_amount": "Discount amount",
          "_expires": "Unix timestamp when the discount expires",
          "_user": "User address"
        }
      },
      "setExchange(string,address,uint256)": {
        "details": "set _start to 0 to take effect immediately",
        "params": {
          "_exchange": "Exchange name",
          "_replacement_logic_contract": "Address of the logic contract",
          "_start": "Unix timestamp when the logic contract comes into effect"
        }
      },
      "setExchangeInfo(string,address,address,address,string,address,address,string,string)": {
        "params": {
          "_baseToken": "FUTURE CODE: Address of the token used as base for all calculations. Currently it is only BNB",
          "_chefContract": "Address of the MasterChef contract for pool information",
          "_contractType_pooled": "Name of Logic Contract to be called  from \"getExchange\" for pooled farming",
          "_contractType_solo": "Name of Logic Contract to be called  from \"getExchange\" for solo farming",
          "_name": "Exchange name",
          "_pendingCall": "string of the function in the MasterChef contract that gets the pending reward for a pool",
          "_rewardToken": "Address of the reward token for exchange",
          "_routerContract": "Address of the Router contract "
        }
      },
      "setFee(string,string,uint256,uint256)": {
        "params": {
          "_exchange": "Exchange name",
          "_replacement_amount": "Amount of the fee",
          "_start": "Unix timestamp when the fee starts",
          "_type": "Function name"
        }
      },
      "transferOwnership(address)": {
        "details": "Transfers ownership of the contract to a new account (`newOwner`). Can only be called by the current owner."
      },
      "updateBlock()": {
        "details": "For testing purposes only"
      }
    },
    "version": 1
  },
  "userdoc": {
    "kind": "user",
    "methods": {
      "getAddress(string)": {
        "notice": "Get address of lookup key (ie. FEECOLLECTOR, ADMINUSER, etc)"
      },
      "getConst(string,string)": {
        "notice": "get a constant setting and check for new value baed on timestamp"
      },
      "getContractType(string,uint256)": {
        "notice": "Get identifier for contract type based on exchange name"
      },
      "getExchange(string)": {
        "notice": "Get logic contract for an exchange"
      },
      "getExchangeInfo(string)": {
        "notice": "Get information for exchange"
      },
      "getFee(string,string,address)": {
        "notice": "Calculate fee with discount from user"
      },
      "setAddress(string,address)": {
        "notice": "Set address of lookup key (ie. FEECOLLECTOR, ADMINUSER, etc)"
      },
      "setDiscount((address,uint256,uint256)[])": {
        "notice": "Accept an array of users and discounts from teh admin only"
      },
      "setDiscount(address,uint256,uint256)": {
        "notice": "Accept a user and discount from the admin only"
      },
      "setFee(string,string,uint256,uint256)": {
        "notice": "Sets a fee for an exchange and function"
      },
      "updateBlock()": {
        "notice": "Function to force a new block"
      }
    },
    "version": 1
  }
}