{
  "contractName": "proxyFactory",
  "abi": [
    {
      "inputs": [
        {
          "internalType": "address",
          "name": "_beacon",
          "type": "address"
        }
      ],
      "stateMutability": "nonpayable",
      "type": "constructor"
    },
    {
      "anonymous": false,
      "inputs": [
        {
          "indexed": false,
          "internalType": "address",
          "name": "proxy",
          "type": "address"
        },
        {
          "indexed": false,
          "internalType": "address",
          "name": "user",
          "type": "address"
        }
      ],
      "name": "NewProxy",
      "type": "event"
    },
    {
      "anonymous": false,
      "inputs": [
        {
          "indexed": true,
          "internalType": "address",
          "name": "previousOwner",
          "type": "address"
        },
        {
          "indexed": true,
          "internalType": "address",
          "name": "newOwner",
          "type": "address"
        }
      ],
      "name": "OwnershipTransferred",
      "type": "event"
    },
    {
      "inputs": [],
      "name": "beaconContract",
      "outputs": [
        {
          "internalType": "address",
          "name": "",
          "type": "address"
        }
      ],
      "stateMutability": "view",
      "type": "function"
    },
    {
      "inputs": [],
      "name": "owner",
      "outputs": [
        {
          "internalType": "address",
          "name": "",
          "type": "address"
        }
      ],
      "stateMutability": "view",
      "type": "function"
    },
    {
      "inputs": [
        {
          "internalType": "address",
          "name": "",
          "type": "address"
        },
        {
          "internalType": "uint256",
          "name": "",
          "type": "uint256"
        }
      ],
      "name": "proxyContracts",
      "outputs": [
        {
          "internalType": "address",
          "name": "",
          "type": "address"
        }
      ],
      "stateMutability": "view",
      "type": "function"
    },
    {
      "inputs": [
        {
          "internalType": "uint256",
          "name": "",
          "type": "uint256"
        }
      ],
      "name": "proxyContractsUsers",
      "outputs": [
        {
          "internalType": "address",
          "name": "",
          "type": "address"
        }
      ],
      "stateMutability": "view",
      "type": "function"
    },
    {
      "inputs": [],
      "name": "renounceOwnership",
      "outputs": [],
      "stateMutability": "nonpayable",
      "type": "function"
    },
    {
      "inputs": [
        {
          "internalType": "address",
          "name": "newOwner",
          "type": "address"
        }
      ],
      "name": "transferOwnership",
      "outputs": [],
      "stateMutability": "nonpayable",
      "type": "function"
    },
    {
      "inputs": [
        {
          "internalType": "address",
          "name": "_beaconContract",
          "type": "address"
        }
      ],
      "name": "setBeacon",
      "outputs": [],
      "stateMutability": "nonpayable",
      "type": "function"
    },
    {
      "inputs": [
        {
          "internalType": "address",
          "name": "_proxyContract",
          "type": "address"
        },
        {
          "internalType": "address",
          "name": "_user",
          "type": "address"
        }
      ],
      "name": "addProxy",
      "outputs": [],
      "stateMutability": "nonpayable",
      "type": "function"
    },
    {
      "inputs": [
        {
          "internalType": "address",
          "name": "_user",
          "type": "address"
        }
      ],
      "name": "getLastProxy",
      "outputs": [
        {
          "internalType": "address",
          "name": "",
          "type": "address"
        }
      ],
      "stateMutability": "view",
      "type": "function"
    },
    {
      "inputs": [
        {
          "internalType": "uint64",
          "name": "_pid",
          "type": "uint64"
        },
        {
          "internalType": "string",
          "name": "_exchange",
          "type": "string"
        }
      ],
      "name": "initialize",
      "outputs": [
        {
          "internalType": "address",
          "name": "",
          "type": "address"
        }
      ],
      "stateMutability": "payable",
      "type": "function"
    },
    {
      "inputs": [
        {
          "internalType": "uint256",
          "name": "_pid",
          "type": "uint256"
        }
      ],
      "name": "getAddress",
      "outputs": [
        {
          "internalType": "address",
          "name": "",
          "type": "address"
        }
      ],
      "stateMutability": "view",
      "type": "function"
    },
    {
      "inputs": [
        {
          "internalType": "uint256",
          "name": "_pid",
          "type": "uint256"
        }
      ],
      "name": "deploy",
      "outputs": [
        {
          "internalType": "address",
          "name": "addr",
          "type": "address"
        }
      ],
      "stateMutability": "payable",
      "type": "function"
    }
  ],
  "bytecode": "0x608060405234801561001057600080fd5b5060405161258138038061258183398101604081905261002f91610107565b610038336100b7565b6001600160a01b0381166100925760405162461bcd60e51b815260206004820152601860248201527f426561636f6e20436f6e74726163742072657175697265640000000000000000604482015260640160405180910390fd5b600180546001600160a01b0319166001600160a01b0392909216919091179055610137565b600080546001600160a01b038381166001600160a01b0319831681178455604051919092169283917f8be0079c531659141344cd1fd0a4f28419497f9722a3daafe3b4186f6b6457e09190a35050565b60006020828403121561011957600080fd5b81516001600160a01b038116811461013057600080fd5b9392505050565b61243b806101466000396000f3fe6080604052600436106100a75760003560e01c80638da5cb5b116100645780638da5cb5b14610172578063957fade514610190578063a5e38751146101b0578063b93f9b0a146101c3578063d42afb56146101e3578063f2fde38b1461020357600080fd5b80633186bd35146100ac57806356131460146100e857806365034451146100fb578063715018a61461011b5780637773c939146101325780637fd3eb1e14610152575b600080fd5b3480156100b857600080fd5b506100cc6100c7366004610a71565b610223565b6040516001600160a01b03909116815260200160405180910390f35b6100cc6100f6366004610b0a565b61025b565b34801561010757600080fd5b506001546100cc906001600160a01b031681565b34801561012757600080fd5b50610130610570565b005b34801561013e57600080fd5b506100cc61014d366004610ba6565b6105a6565b34801561015e57600080fd5b506100cc61016d366004610bc8565b61063f565b34801561017e57600080fd5b506000546001600160a01b03166100cc565b34801561019c57600080fd5b506101306101ab366004610be1565b610669565b6100cc6101be366004610bc8565b6107ab565b3480156101cf57600080fd5b506100cc6101de366004610bc8565b610819565b3480156101ef57600080fd5b506101306101fe366004610ba6565b6108c5565b34801561020f57600080fd5b5061013061021e366004610ba6565b610911565b6002602052816000526040600020818154811061023f57600080fd5b6000918252602090912001546001600160a01b03169150829050565b600067ffffffffffffffff83166102ac5760405162461bcd60e51b815260206004820152601060248201526f141bdbdb081251081c995c5d5a5c995960821b60448201526064015b60405180910390fd5b6001546001600160a01b03166103045760405162461bcd60e51b815260206004820152601860248201527f426561636f6e20436f6e7472616374207265717569726564000000000000000060448201526064016102a3565b60008251116103555760405162461bcd60e51b815260206004820152601d60248201527f45786368616e6765204e616d652063616e6e6f7420626520656d70747900000060448201526064016102a3565b600154604051630f33f7ff60e11b81526000916001600160a01b031690631e67effe90610386908690600401610c70565b6000604051808303816000875af11580156103a5573d6000803e3d6000fd5b505050506040513d6000823e601f3d908101601f191682016040526103cd9190810190610c83565b905060006103e48567ffffffffffffffff166107ab565b60015460405163463fd1af60e01b81529192506001600160a01b038084169263463fd1af9261041c9287929116903390600401610cfa565b600060405180830381600087803b15801561043657600080fd5b505af115801561044a573d6000803e3d6000fd5b5050604080516001600160a01b03851681523360208201527fa94ca626c15b5acbc6f820b88b794bce0d7a9198f2ed3e248aa0a362e2bdd60b935001905060405180910390a133600081815260026020908152604080832080546001818101835591855292842090920180546001600160a01b038781166001600160a01b0319928316811790935560038054808701825596527fc2575a0e9e593c00f959f8c92f12db2869c3395a3b0502d05e2516446f71f85b909501805490911686179055915490516354bb382360e01b815291936354bb3823933493610535938c939216918b91600401610d2d565b6000604051808303818588803b15801561054e57600080fd5b505af1158015610562573d6000803e3d6000fd5b509398975050505050505050565b6000546001600160a01b0316331461059a5760405162461bcd60e51b81526004016102a390610d73565b6105a460006109ac565b565b60006001600160a01b0382166105ee5760405162461bcd60e51b815260206004820152600d60248201526c155cd95c881c995c5d5a5c9959609a1b60448201526064016102a3565b6001600160a01b0382166000908152600260205260409020805461061490600190610da8565b8154811061062457610624610dcd565b6000918252602090912001546001600160a01b031692915050565b6003818154811061064f57600080fd5b6000918252602090912001546001600160a01b0316905081565b6000546001600160a01b031633146106935760405162461bcd60e51b81526004016102a390610d73565b6001600160a01b0382166106e95760405162461bcd60e51b815260206004820152601760248201527f50726f787920436f6e747261637420726571756972656400000000000000000060448201526064016102a3565b6001600160a01b03811661072f5760405162461bcd60e51b815260206004820152600d60248201526c155cd95c881c995c5d5a5c9959609a1b60448201526064016102a3565b6001600160a01b03908116600081815260026020908152604082208054600181810183559184529183209091018054959094166001600160a01b03199586161790935560038054938401815590527fc2575a0e9e593c00f959f8c92f12db2869c3395a3b0502d05e2516446f71f85b9091018054909216179055565b60008082336040516020016107d792919091825260601b6001600160601b031916602082015260340190565b60405160208183030381529060405280519060200120905060006107f96109fc565b9050818151602083016000f59250823b61081257600080fd5b5050919050565b600080823360405160200161084592919091825260601b6001600160601b031916602082015260340190565b60405160208183030381529060405280519060200120905060006108676109fc565b8051602091820120604080516001600160f81b0319818501523060601b6001600160601b0319166021820152603581019590955260558086019290925280518086039092018252607590940190935282519201919091209392505050565b6000546001600160a01b031633146108ef5760405162461bcd60e51b81526004016102a390610d73565b600180546001600160a01b0319166001600160a01b0392909216919091179055565b6000546001600160a01b0316331461093b5760405162461bcd60e51b81526004016102a390610d73565b6001600160a01b0381166109a05760405162461bcd60e51b815260206004820152602660248201527f4f776e61626c653a206e6577206f776e657220697320746865207a65726f206160448201526564647265737360d01b60648201526084016102a3565b6109a9816109ac565b50565b600080546001600160a01b038381166001600160a01b0319831681178455604051919092169283917f8be0079c531659141344cd1fd0a4f28419497f9722a3daafe3b4186f6b6457e09190a35050565b6060600060405180602001610a1090610a48565b601f1982820381018352601f909101166040819052610a329190602001610de3565b60408051601f1981840301815291905292915050565b61160680610e0083390190565b80356001600160a01b0381168114610a6c57600080fd5b919050565b60008060408385031215610a8457600080fd5b610a8d83610a55565b946020939093013593505050565b634e487b7160e01b600052604160045260246000fd5b604051601f8201601f1916810167ffffffffffffffff81118282101715610ada57610ada610a9b565b604052919050565b600067ffffffffffffffff821115610afc57610afc610a9b565b50601f01601f191660200190565b60008060408385031215610b1d57600080fd5b823567ffffffffffffffff8082168214610b3657600080fd5b90925060208401359080821115610b4c57600080fd5b508301601f81018513610b5e57600080fd5b8035610b71610b6c82610ae2565b610ab1565b818152866020838501011115610b8657600080fd5b816020840160208301376000602083830101528093505050509250929050565b600060208284031215610bb857600080fd5b610bc182610a55565b9392505050565b600060208284031215610bda57600080fd5b5035919050565b60008060408385031215610bf457600080fd5b610bfd83610a55565b9150610c0b60208401610a55565b90509250929050565b60005b83811015610c2f578181015183820152602001610c17565b83811115610c3e576000848401525b50505050565b60008151808452610c5c816020860160208601610c14565b601f01601f19169290920160200192915050565b602081526000610bc16020830184610c44565b600060208284031215610c9557600080fd5b815167ffffffffffffffff811115610cac57600080fd5b8201601f81018413610cbd57600080fd5b8051610ccb610b6c82610ae2565b818152856020838501011115610ce057600080fd5b610cf1826020830160208601610c14565b95945050505050565b606081526000610d0d6060830186610c44565b6001600160a01b0394851660208401529290931660409091015292915050565b67ffffffffffffffff85168152600060018060a01b03808616602084015260806040840152610d5f6080840186610c44565b915080841660608401525095945050505050565b6020808252818101527f4f776e61626c653a2063616c6c6572206973206e6f7420746865206f776e6572604082015260600190565b600082821015610dc857634e487b7160e01b600052601160045260246000fd5b500390565b634e487b7160e01b600052603260045260246000fd5b60008251610df5818460208701610c14565b919091019291505056fe60806040526004805461ffff60a01b1916905534801561001e57600080fd5b506100283361002d565b61007f565b600780546001600160a01b038381166001600160a01b0319831681179093556040519116919082907f8be0079c531659141344cd1fd0a4f28419497f9722a3daafe3b4186f6b6457e090600090a35050565b6115788061008e6000396000f3fe6080604052600436106101235760003560e01c80638b18c7e3116100a0578063d2f7265a11610064578063d2f7265a14610407578063d547741f14610429578063dc5d3a1714610449578063f1ed7dc71461045f578063f2fde38b146104995761012a565b80638b18c7e3146103625780638da5cb5b1461038057806391d148541461039e578063a217fddf146103be578063cb9d9fa7146103d35761012a565b8063463fd1af116100e7578063463fd1af146102b55780634de94320146102d5578063650344511461030d5780637003c0801461032d578063715018a61461034d5761012a565b806301ffc9a7146101cf578063248a9ca3146102045780632f2ff15d1461024257806336568abe14610264578063387dd9e9146102845761012a565b3661012a57005b6002546001600160a01b03166101875760405162461bcd60e51b815260206004820152601760248201527f4c6f67696320636f6e747261637420726571756972656400000000000000000060448201526064015b60405180910390fd5b6002546040516001600160a01b039091169036600082376000803683855af43d806000843e8180156101c057600181146101c4576101c8565b8184fd5b8184f35b5050505050005b3480156101db57600080fd5b506101ef6101ea3660046110b8565b6104b9565b60405190151581526020015b60405180910390f35b34801561021057600080fd5b5061023461021f3660046110e2565b60009081526008602052604090206001015490565b6040519081526020016101fb565b34801561024e57600080fd5b5061026261025d366004611110565b6104f0565b005b34801561027057600080fd5b5061026261027f366004611110565b61051b565b34801561029057600080fd5b506102a461029f3660046110e2565b610599565b6040516101fb95949392919061119c565b3480156102c157600080fd5b506102626102d0366004611282565b610672565b3480156102e157600080fd5b506002546102f5906001600160a01b031681565b6040516001600160a01b0390911681526020016101fb565b34801561031957600080fd5b506004546102f5906001600160a01b031681565b34801561033957600080fd5b506101ef6103483660046112e6565b6108dd565b34801561035957600080fd5b50610262610abf565b34801561036e57600080fd5b506002546001600160a01b03166102f5565b34801561038c57600080fd5b506007546001600160a01b03166102f5565b3480156103aa57600080fd5b506101ef6103b9366004611110565b610b25565b3480156103ca57600080fd5b50610234600081565b3480156103df57600080fd5b506102347f27e3e4d29d60af3ae6456513164bb5db737d6fc8610aa36ad458736c9efb884c81565b34801561041357600080fd5b5061041c610b50565b6040516101fb9190611323565b34801561043557600080fd5b50610262610444366004611110565b610bde565b34801561045557600080fd5b5061023460015481565b34801561046b57600080fd5b506000546104809067ffffffffffffffff1681565b60405167ffffffffffffffff90911681526020016101fb565b3480156104a557600080fd5b506102626104b4366004611336565b610c04565b60006001600160e01b03198216637965db0b60e01b14806104ea57506301ffc9a760e01b6001600160e01b03198316145b92915050565b60008281526008602052604090206001015461050c8133610ccf565b6105168383610d33565b505050565b6001600160a01b038116331461058b5760405162461bcd60e51b815260206004820152602f60248201527f416363657373436f6e74726f6c3a2063616e206f6e6c792072656e6f756e636560448201526e103937b632b9903337b91039b2b63360891b606482015260840161017e565b6105958282610db9565b5050565b600681815481106105a957600080fd5b600091825260209091206005909102018054600182018054919350906105ce90611353565b80601f01602080910402602001604051908101604052809291908181526020018280546105fa90611353565b80156106475780601f1061061c57610100808354040283529160200191610647565b820191906000526020600020905b81548152906001019060200180831161062a57829003601f168201915b505050506002830154600384015460049094015492936001600160a01b039182169390821692501685565b600454600160a81b900460ff161515600114156106a257604051631e5d0f9d60e11b815260040160405180910390fd5b825183906106e95760405162461bcd60e51b8152602060048201526014602482015273115e18da185b99d9481a5cc81c995c5d5a5c995960621b604482015260640161017e565b6001600160a01b03831661073f5760405162461bcd60e51b815260206004820152601860248201527f426561636f6e20436f6e74726163742072657175697265640000000000000000604482015260640161017e565b6001600160a01b0382166107895760405162461bcd60e51b815260206004820152601160248201527013dddb995c881a5cc81c995c5d5a5c9959607a1b604482015260640161017e565b6107a560006107a06007546001600160a01b031690565b610e20565b600480546001600160a01b0319166001600160a01b0385161790556107c9846108dd565b506004805460405163bf40fac160e01b81526000926001600160a01b039092169163bf40fac191610818910160208082526009908201526820a226a4a72aa9a2a960b91b604082015260600190565b6020604051808303816000875af1158015610837573d6000803e3d6000fd5b505050506040513d601f19601f8201168201806040525081019061085b919061138e565b90506001600160a01b0381166108ac5760405162461bcd60e51b815260206004820152601660248201527510591b5a5b881859191c995cdcc81c995c5d5a5c995960521b604482015260640161017e565b6108d67f27e3e4d29d60af3ae6456513164bb5db737d6fc8610aa36ad458736c9efb884c82610e20565b5050505050565b60006109097f27e3e4d29d60af3ae6456513164bb5db737d6fc8610aa36ad458736c9efb884c33610b25565b8061092d5750336109226007546001600160a01b031690565b6001600160a01b0316145b61096f5760405162461bcd60e51b81526020600482015260136024820152722932b9ba3934b1ba32b210233ab731ba34b7b760691b604482015260640161017e565b815182906109b65760405162461bcd60e51b8152602060048201526014602482015273115e18da185b99d9481a5cc81c995c5d5a5c995960621b604482015260640161017e565b82516109c990600590602086019061101f565b506004805460405163033b10a960e21b81526001600160a01b0390911691630cec42a4916109fa91600591016113ab565b6020604051808303816000875af1158015610a19573d6000803e3d6000fd5b505050506040513d601f19601f82011682018060405250810190610a3d919061138e565b600280546001600160a01b0319166001600160a01b03929092169182179055610ab65760405162461bcd60e51b815260206004820152602560248201527f4c6f67696320436f6e7472616374207265717569726564202d2073657445786360448201526468616e676560d81b606482015260840161017e565b50600192915050565b6007546001600160a01b03163314610b195760405162461bcd60e51b815260206004820181905260248201527f4f776e61626c653a2063616c6c6572206973206e6f7420746865206f776e6572604482015260640161017e565b610b236000610e2a565b565b60009182526008602090815260408084206001600160a01b0393909316845291905290205460ff1690565b60058054610b5d90611353565b80601f0160208091040260200160405190810160405280929190818152602001828054610b8990611353565b8015610bd65780601f10610bab57610100808354040283529160200191610bd6565b820191906000526020600020905b815481529060010190602001808311610bb957829003601f168201915b505050505081565b600082815260086020526040902060010154610bfa8133610ccf565b6105168383610db9565b6007546001600160a01b03163314610c5e5760405162461bcd60e51b815260206004820181905260248201527f4f776e61626c653a2063616c6c6572206973206e6f7420746865206f776e6572604482015260640161017e565b6001600160a01b038116610cc35760405162461bcd60e51b815260206004820152602660248201527f4f776e61626c653a206e6577206f776e657220697320746865207a65726f206160448201526564647265737360d01b606482015260840161017e565b610ccc81610e2a565b50565b610cd98282610b25565b61059557610cf1816001600160a01b03166014610e7c565b610cfc836020610e7c565b604051602001610d0d929190611453565b60408051601f198184030181529082905262461bcd60e51b825261017e91600401611323565b610d3d8282610b25565b6105955760008281526008602090815260408083206001600160a01b03851684529091529020805460ff19166001179055610d753390565b6001600160a01b0316816001600160a01b0316837f2f8788117e7eff1d82e926ec794901d17c78024a50270940304540a733656f0d60405160405180910390a45050565b610dc38282610b25565b156105955760008281526008602090815260408083206001600160a01b0385168085529252808320805460ff1916905551339285917ff6391f5c32d9c69d2a47ea670b442974b53935d1edc7fd64eb21e047a839171b9190a45050565b6105958282610d33565b600780546001600160a01b038381166001600160a01b0319831681179093556040519116919082907f8be0079c531659141344cd1fd0a4f28419497f9722a3daafe3b4186f6b6457e090600090a35050565b60606000610e8b8360026114de565b610e969060026114fd565b67ffffffffffffffff811115610eae57610eae6111df565b6040519080825280601f01601f191660200182016040528015610ed8576020820181803683370190505b509050600360fc1b81600081518110610ef357610ef3611515565b60200101906001600160f81b031916908160001a905350600f60fb1b81600181518110610f2257610f22611515565b60200101906001600160f81b031916908160001a9053506000610f468460026114de565b610f519060016114fd565b90505b6001811115610fc9576f181899199a1a9b1b9c1cb0b131b232b360811b85600f1660108110610f8557610f85611515565b1a60f81b828281518110610f9b57610f9b611515565b60200101906001600160f81b031916908160001a90535060049490941c93610fc28161152b565b9050610f54565b5083156110185760405162461bcd60e51b815260206004820181905260248201527f537472696e67733a20686578206c656e67746820696e73756666696369656e74604482015260640161017e565b9392505050565b82805461102b90611353565b90600052602060002090601f01602090048101928261104d5760008555611093565b82601f1061106657805160ff1916838001178555611093565b82800160010185558215611093579182015b82811115611093578251825591602001919060010190611078565b5061109f9291506110a3565b5090565b5b8082111561109f57600081556001016110a4565b6000602082840312156110ca57600080fd5b81356001600160e01b03198116811461101857600080fd5b6000602082840312156110f457600080fd5b5035919050565b6001600160a01b0381168114610ccc57600080fd5b6000806040838503121561112357600080fd5b823591506020830135611135816110fb565b809150509250929050565b60005b8381101561115b578181015183820152602001611143565b8381111561116a576000848401525b50505050565b60008151808452611188816020860160208601611140565b601f01601f19169290920160200192915050565b85815260a0602082015260006111b560a0830187611170565b6001600160a01b039586166040840152938516606083015250921660809092019190915292915050565b634e487b7160e01b600052604160045260246000fd5b600082601f83011261120657600080fd5b813567ffffffffffffffff80821115611221576112216111df565b604051601f8301601f19908116603f01168101908282118183101715611249576112496111df565b8160405283815286602085880101111561126257600080fd5b836020870160208301376000602085830101528094505050505092915050565b60008060006060848603121561129757600080fd5b833567ffffffffffffffff8111156112ae57600080fd5b6112ba868287016111f5565b93505060208401356112cb816110fb565b915060408401356112db816110fb565b809150509250925092565b6000602082840312156112f857600080fd5b813567ffffffffffffffff81111561130f57600080fd5b61131b848285016111f5565b949350505050565b6020815260006110186020830184611170565b60006020828403121561134857600080fd5b8135611018816110fb565b600181811c9082168061136757607f821691505b6020821081141561138857634e487b7160e01b600052602260045260246000fd5b50919050565b6000602082840312156113a057600080fd5b8151611018816110fb565b600060208083526000845481600182811c9150808316806113cd57607f831692505b8583108114156113eb57634e487b7160e01b85526022600452602485fd5b878601838152602001818015611408576001811461141957611444565b60ff19861682528782019650611444565b60008b81526020902060005b8681101561143e57815484820152908501908901611425565b83019750505b50949998505050505050505050565b7f416363657373436f6e74726f6c3a206163636f756e742000000000000000000081526000835161148b816017850160208801611140565b7001034b99036b4b9b9b4b733903937b6329607d1b60179184019182015283516114bc816028840160208801611140565b01602801949350505050565b634e487b7160e01b600052601160045260246000fd5b60008160001904831182151516156114f8576114f86114c8565b500290565b60008219821115611510576115106114c8565b500190565b634e487b7160e01b600052603260045260246000fd5b60008161153a5761153a6114c8565b50600019019056fea2646970667358221220f99d7076f6aab3d371baf4abebbdc34613488b88d3024373cfef3dc1fce878d064736f6c634300080c0033a2646970667358221220d8a6060463604533867d6456116089442115db97e0c268c24aebdc71d0b6e1d964736f6c634300080c0033",
  "immutableReferences": {},
  "source": "//SPDX-License-Identifier: UNLICENSED\npragma solidity ^0.8.7;\nimport \"./Storage.sol\";\ninterface iApp {\n    function  initialize(uint64 _poolId, address _beacon, string memory _exchangeName, address _owner) external payable;\n}\n\ninterface prBeacon {\n    function mExchanges(string memory _exchange) external returns(address);\n    function getAddress(string memory _exchange) external returns(address);\n    function getContractType(string memory _name) external returns (string memory _contract);\n}\n\ncontract combine_proxy is Storage, Ownable, AccessControl  {\n    modifier allowAdmin() {\n        require(hasRole(HARVESTER,msg.sender) || owner() == msg.sender,\"Restricted Function\");\n        _;\n    }\n\n    error sdInitializedError();\n\n    receive() external payable {}\n\n    constructor () {}\n\n    function initialize (string memory _exchange, address beacon, address _owner) public {\n        if (_initialized == true) revert sdInitializedError();\n\n        bytes memory bExchange = bytes(_exchange);\n        require(bExchange.length > 0, \"Exchange is required\");\n        require(beacon != address(0), \"Beacon Contract required\");\n        require(_owner != address(0), \"Owner is required\");\n        _setupRole(DEFAULT_ADMIN_ROLE,owner());\n        \n        beaconContract = beacon;\n        setExchange(_exchange);\n\n        address _admin = prBeacon(beaconContract).getAddress(\"ADMINUSER\");        \n        require(_admin != address(0), \"Admin address required\");\n        _setupRole(HARVESTER, _admin);\n    }\n    \n    function setExchange(string memory _exchange) public allowAdmin returns (bool success){\n        bytes memory bExchange = bytes(_exchange);\n        require(bExchange.length > 0, \"Exchange is required\");\n        exchange = _exchange;\n        logic_contract = prBeacon(beaconContract).mExchanges(exchange);\n        require(logic_contract != address(0), \"Logic Contract required - setExchange\");\n        return true;\n    }\n\n    function getLogicContract() public view returns (address) {\n       return logic_contract;\n    }\n    \n    fallback () payable external {\n        require(logic_contract != address(0),\"Logic contract required\");\n        address target = logic_contract;\n        \n        assembly {\n            let ptr := mload(0x40)\n            calldatacopy(ptr, 0, calldatasize())\n            let result := delegatecall(gas(), target, ptr, calldatasize(), 0, 0)\n            let size := returndatasize()\n            returndatacopy(ptr, 0, size)\n            switch result\n            case 0 { revert(ptr, size) }\n            case 1 { return(ptr, size) }\n        }\n    }\n}\n\ncontract proxyFactory is Ownable {\n    address public beaconContract;\n\n    mapping (address => address[]) public proxyContracts;\n    address[] public proxyContractsUsers;\n\n    event NewProxy(address proxy, address user);\n\n    constructor (address _beacon) {\n        require(_beacon != address(0), \"Beacon Contract required\");\n        beaconContract = _beacon;\n    }\n\n    function setBeacon(address _beaconContract) public onlyOwner {\n        beaconContract = _beaconContract;\n    }\n\n    function addProxy(address _proxyContract, address _user) public onlyOwner {\n        require(_proxyContract != address(0), \"Proxy Contract required\");\n        require(_user != address(0), \"User required\");\n        proxyContracts[_user].push(_proxyContract);\n        proxyContractsUsers.push(_user);\n    }\n\n    function getLastProxy(address _user) public view returns (address) {\n        require(_user != address(0), \"User required\");\n        return proxyContracts[_user][proxyContracts[_user].length - 1];\n    }\n    \n    function initialize(uint64  _pid, string memory _exchange) public payable returns (address) {        \n        require(_pid != 0, \"Pool ID required\");\n        require(beaconContract != address(0), \"Beacon Contract required\");\n        require(bytes(_exchange).length > 0,\"Exchange Name cannot be empty\");\n        string memory _contract = prBeacon(beaconContract).getContractType(_exchange);\n\n        address proxy = deploy(_pid);\n        combine_proxy(payable(proxy)).initialize(_contract, beaconContract, msg.sender);\n\n        emit NewProxy(address(proxy), msg.sender);\n\n        proxyContracts[msg.sender].push(address(proxy));\n        proxyContractsUsers.push(msg.sender);\n        iApp(address(proxy)).initialize{value:msg.value}(_pid, beaconContract, _exchange,msg.sender);    \n\n        return address(proxy);\n    }\n\n    function getBytecode() private pure returns (bytes memory) {\n        bytes memory result = abi.encodePacked(type(combine_proxy).creationCode);\n        return result;\n    }\n\n    function getAddress(uint _pid) public view returns (address)\n    {\n        bytes32 newsalt = keccak256(abi.encodePacked(_pid,msg.sender));\n\n        bytes memory bytecode = getBytecode();\n        bytes32 hash = keccak256(\n            abi.encodePacked(bytes1(0xff), address(this), newsalt, keccak256(bytecode))\n        );\n\n        return address(uint160(uint(hash)));\n    }    \n\n    function deploy(uint _pid) public payable returns (address addr){\n        bytes32 newsalt = keccak256(abi.encodePacked(_pid,msg.sender));\n        bytes memory bytecode = getBytecode();\n\n        assembly {\n            addr := create2(\n                0, \n                add(bytecode, 0x20),\n                mload(bytecode),\n                newsalt\n            )\n\n            if iszero(extcodesize(addr)) {\n                revert(0, 0)\n            }\n        }\n    }    \n}\n//\"0x92aF24CDc779715bcf55f3BC4dc4C2d8F7729507\",\"0xD0153B7c79473eA931DaA5FDb25751d7534c4c3B\"",
  "sourcePath": "/mnt/src/crypto/combine_sol/contracts/combine_proxy.sol",
  "compiler": {
    "name": "solc",
    "version": "0.8.12+commit.f00d7308.Emscripten.clang"
  },
  "schemaVersion": "3.4.3",
  "updatedAt": "2022-02-23T01:13:05.227Z",
  "devdoc": {
    "kind": "dev",
    "methods": {
      "owner()": {
        "details": "Returns the address of the current owner."
      },
      "renounceOwnership()": {
        "details": "Leaves the contract without owner. It will not be possible to call `onlyOwner` functions anymore. Can only be called by the current owner. NOTE: Renouncing ownership will leave the contract without an owner, thereby removing any functionality that is only available to the owner."
      },
      "transferOwnership(address)": {
        "details": "Transfers ownership of the contract to a new account (`newOwner`). Can only be called by the current owner."
      }
    },
    "version": 1
  },
  "userdoc": {
    "kind": "user",
    "methods": {},
    "version": 1
  }
}