{
  "contractName": "proxyFactory",
  "abi": [
    {
      "inputs": [
        {
          "internalType": "address",
          "name": "_beacon",
          "type": "address"
        }
      ],
      "stateMutability": "nonpayable",
      "type": "constructor"
    },
    {
      "anonymous": false,
      "inputs": [
        {
          "indexed": false,
          "internalType": "address",
          "name": "proxy",
          "type": "address"
        },
        {
          "indexed": false,
          "internalType": "address",
          "name": "user",
          "type": "address"
        }
      ],
      "name": "NewProxy",
      "type": "event"
    },
    {
      "anonymous": false,
      "inputs": [
        {
          "indexed": true,
          "internalType": "address",
          "name": "previousOwner",
          "type": "address"
        },
        {
          "indexed": true,
          "internalType": "address",
          "name": "newOwner",
          "type": "address"
        }
      ],
      "name": "OwnershipTransferred",
      "type": "event"
    },
    {
      "inputs": [],
      "name": "beaconContract",
      "outputs": [
        {
          "internalType": "address",
          "name": "",
          "type": "address"
        }
      ],
      "stateMutability": "view",
      "type": "function"
    },
    {
      "inputs": [],
      "name": "owner",
      "outputs": [
        {
          "internalType": "address",
          "name": "",
          "type": "address"
        }
      ],
      "stateMutability": "view",
      "type": "function"
    },
    {
      "inputs": [
        {
          "internalType": "address",
          "name": "",
          "type": "address"
        },
        {
          "internalType": "uint256",
          "name": "",
          "type": "uint256"
        }
      ],
      "name": "proxyContracts",
      "outputs": [
        {
          "internalType": "address",
          "name": "",
          "type": "address"
        }
      ],
      "stateMutability": "view",
      "type": "function"
    },
    {
      "inputs": [
        {
          "internalType": "uint256",
          "name": "",
          "type": "uint256"
        }
      ],
      "name": "proxyContractsUsers",
      "outputs": [
        {
          "internalType": "address",
          "name": "",
          "type": "address"
        }
      ],
      "stateMutability": "view",
      "type": "function"
    },
    {
      "inputs": [],
      "name": "renounceOwnership",
      "outputs": [],
      "stateMutability": "nonpayable",
      "type": "function"
    },
    {
      "inputs": [
        {
          "internalType": "address",
          "name": "newOwner",
          "type": "address"
        }
      ],
      "name": "transferOwnership",
      "outputs": [],
      "stateMutability": "nonpayable",
      "type": "function"
    },
    {
      "inputs": [
        {
          "internalType": "address",
          "name": "_beaconContract",
          "type": "address"
        }
      ],
      "name": "setBeacon",
      "outputs": [],
      "stateMutability": "nonpayable",
      "type": "function"
    },
    {
      "inputs": [
        {
          "internalType": "address",
          "name": "_proxyContract",
          "type": "address"
        },
        {
          "internalType": "address",
          "name": "_user",
          "type": "address"
        }
      ],
      "name": "addProxy",
      "outputs": [],
      "stateMutability": "nonpayable",
      "type": "function"
    },
    {
      "inputs": [
        {
          "internalType": "address",
          "name": "_user",
          "type": "address"
        }
      ],
      "name": "getLastProxy",
      "outputs": [
        {
          "internalType": "address",
          "name": "",
          "type": "address"
        }
      ],
      "stateMutability": "view",
      "type": "function"
    },
    {
      "inputs": [
        {
          "internalType": "uint64",
          "name": "_pid",
          "type": "uint64"
        },
        {
          "internalType": "string",
          "name": "_exchange",
          "type": "string"
        },
        {
          "internalType": "uint256",
          "name": "_poolType",
          "type": "uint256"
        }
      ],
      "name": "initialize",
      "outputs": [
        {
          "internalType": "address",
          "name": "",
          "type": "address"
        }
      ],
      "stateMutability": "payable",
      "type": "function"
    },
    {
      "inputs": [
        {
          "internalType": "uint256",
          "name": "_pid",
          "type": "uint256"
        }
      ],
      "name": "getAddress",
      "outputs": [
        {
          "internalType": "address",
          "name": "",
          "type": "address"
        }
      ],
      "stateMutability": "view",
      "type": "function"
    },
    {
      "inputs": [
        {
          "internalType": "uint256",
          "name": "_pid",
          "type": "uint256"
        }
      ],
      "name": "deploy",
      "outputs": [
        {
          "internalType": "address",
          "name": "addr",
          "type": "address"
        }
      ],
      "stateMutability": "payable",
      "type": "function"
    }
  ],
  "bytecode": "0x60806040523480156200001157600080fd5b50604051620047ee380380620047ee833981810160405281019062000037919062000248565b620000576200004b6200011260201b60201c565b6200011a60201b60201c565b600073ffffffffffffffffffffffffffffffffffffffff168173ffffffffffffffffffffffffffffffffffffffff161415620000ca576040517f08c379a0000000000000000000000000000000000000000000000000000000008152600401620000c190620002db565b60405180910390fd5b80600160006101000a81548173ffffffffffffffffffffffffffffffffffffffff021916908373ffffffffffffffffffffffffffffffffffffffff16021790555050620002fd565b600033905090565b60008060009054906101000a900473ffffffffffffffffffffffffffffffffffffffff169050816000806101000a81548173ffffffffffffffffffffffffffffffffffffffff021916908373ffffffffffffffffffffffffffffffffffffffff1602179055508173ffffffffffffffffffffffffffffffffffffffff168173ffffffffffffffffffffffffffffffffffffffff167f8be0079c531659141344cd1fd0a4f28419497f9722a3daafe3b4186f6b6457e060405160405180910390a35050565b600080fd5b600073ffffffffffffffffffffffffffffffffffffffff82169050919050565b60006200021082620001e3565b9050919050565b620002228162000203565b81146200022e57600080fd5b50565b600081519050620002428162000217565b92915050565b600060208284031215620002615762000260620001de565b5b6000620002718482850162000231565b91505092915050565b600082825260208201905092915050565b7f426561636f6e20436f6e74726163742072657175697265640000000000000000600082015250565b6000620002c36018836200027a565b9150620002d0826200028b565b602082019050919050565b60006020820190508181036000830152620002f681620002b4565b9050919050565b6144e1806200030d6000396000f3fe608060405260043610620000b65760003560e01c80638da5cb5b116200006d5780638da5cb5b1462000207578063957fade51462000237578063a5e387511462000265578063b93f9b0a146200029b578063d42afb5614620002df578063f2fde38b146200030d57620000b6565b80633186bd3514620000bb5780636503445114620000ff578063715018a6146200012f5780637773c93914620001495780637fd3eb1e146200018d5780638c668fee14620001d1575b600080fd5b348015620000c857600080fd5b50620000e76004803603810190620000e1919062001113565b6200033b565b604051620000f691906200116b565b60405180910390f35b3480156200010c57600080fd5b50620001176200038a565b6040516200012691906200116b565b60405180910390f35b3480156200013c57600080fd5b5062000147620003b0565b005b3480156200015657600080fd5b506200017560048036038101906200016f919062001188565b62000441565b6040516200018491906200116b565b60405180910390f35b3480156200019a57600080fd5b50620001b96004803603810190620001b39190620011ba565b6200058b565b604051620001c891906200116b565b60405180910390f35b620001ef6004803603810190620001e9919062001393565b620005cb565b604051620001fe91906200116b565b60405180910390f35b3480156200021457600080fd5b506200021f620009e6565b6040516200022e91906200116b565b60405180910390f35b3480156200024457600080fd5b506200026360048036038101906200025d91906200140e565b62000a0f565b005b6200028360048036038101906200027d9190620011ba565b62000c7f565b6040516200029291906200116b565b60405180910390f35b348015620002a857600080fd5b50620002c76004803603810190620002c19190620011ba565b62000cdc565b604051620002d691906200116b565b60405180910390f35b348015620002ec57600080fd5b506200030b600480360381019062000305919062001188565b62000d66565b005b3480156200031a57600080fd5b5062000339600480360381019062000333919062001188565b62000e2d565b005b600260205281600052604060002081815481106200035857600080fd5b906000526020600020016000915091509054906101000a900473ffffffffffffffffffffffffffffffffffffffff1681565b600160009054906101000a900473ffffffffffffffffffffffffffffffffffffffff1681565b620003ba62000f31565b73ffffffffffffffffffffffffffffffffffffffff16620003da620009e6565b73ffffffffffffffffffffffffffffffffffffffff161462000433576040517f08c379a00000000000000000000000000000000000000000000000000000000081526004016200042a90620014b6565b60405180910390fd5b6200043f600062000f39565b565b60008073ffffffffffffffffffffffffffffffffffffffff168273ffffffffffffffffffffffffffffffffffffffff161415620004b5576040517f08c379a0000000000000000000000000000000000000000000000000000000008152600401620004ac9062001528565b60405180910390fd5b600260008373ffffffffffffffffffffffffffffffffffffffff1673ffffffffffffffffffffffffffffffffffffffff1681526020019081526020016000206001600260008573ffffffffffffffffffffffffffffffffffffffff1673ffffffffffffffffffffffffffffffffffffffff1681526020019081526020016000208054905062000545919062001579565b81548110620005595762000558620015b4565b5b9060005260206000200160009054906101000a900473ffffffffffffffffffffffffffffffffffffffff169050919050565b600381815481106200059c57600080fd5b906000526020600020016000915054906101000a900473ffffffffffffffffffffffffffffffffffffffff1681565b60008073ffffffffffffffffffffffffffffffffffffffff16600160009054906101000a900473ffffffffffffffffffffffffffffffffffffffff1673ffffffffffffffffffffffffffffffffffffffff16141562000661576040517f08c379a0000000000000000000000000000000000000000000000000000000008152600401620006589062001633565b60405180910390fd5b6000835111620006a8576040517f08c379a00000000000000000000000000000000000000000000000000000000081526004016200069f90620016a5565b60405180910390fd5b6000600160009054906101000a900473ffffffffffffffffffffffffffffffffffffffff1673ffffffffffffffffffffffffffffffffffffffff16631fb204e085856040518363ffffffff1660e01b8152600401620007099291906200175a565b6000604051808303816000875af115801562000729573d6000803e3d6000fd5b505050506040513d6000823e3d601f19601f820116820180604052508101906200075491906200180c565b905060006200076d8667ffffffffffffffff1662000c7f565b90508073ffffffffffffffffffffffffffffffffffffffff1663463fd1af83600160009054906101000a900473ffffffffffffffffffffffffffffffffffffffff16336040518463ffffffff1660e01b8152600401620007d0939291906200185d565b600060405180830381600087803b158015620007eb57600080fd5b505af115801562000800573d6000803e3d6000fd5b505050507fa94ca626c15b5acbc6f820b88b794bce0d7a9198f2ed3e248aa0a362e2bdd60b813360405162000837929190620018a1565b60405180910390a1600260003373ffffffffffffffffffffffffffffffffffffffff1673ffffffffffffffffffffffffffffffffffffffff168152602001908152602001600020819080600181540180825580915050600190039060005260206000200160009091909190916101000a81548173ffffffffffffffffffffffffffffffffffffffff021916908373ffffffffffffffffffffffffffffffffffffffff1602179055506003339080600181540180825580915050600190039060005260206000200160009091909190916101000a81548173ffffffffffffffffffffffffffffffffffffffff021916908373ffffffffffffffffffffffffffffffffffffffff1602179055508073ffffffffffffffffffffffffffffffffffffffff166354bb38233488600160009054906101000a900473ffffffffffffffffffffffffffffffffffffffff1689336040518663ffffffff1660e01b8152600401620009a69493929190620018df565b6000604051808303818588803b158015620009c057600080fd5b505af1158015620009d5573d6000803e3d6000fd5b505050505080925050509392505050565b60008060009054906101000a900473ffffffffffffffffffffffffffffffffffffffff16905090565b62000a1962000f31565b73ffffffffffffffffffffffffffffffffffffffff1662000a39620009e6565b73ffffffffffffffffffffffffffffffffffffffff161462000a92576040517f08c379a000000000000000000000000000000000000000000000000000000000815260040162000a8990620014b6565b60405180910390fd5b600073ffffffffffffffffffffffffffffffffffffffff168273ffffffffffffffffffffffffffffffffffffffff16141562000b05576040517f08c379a000000000000000000000000000000000000000000000000000000000815260040162000afc9062001983565b60405180910390fd5b600073ffffffffffffffffffffffffffffffffffffffff168173ffffffffffffffffffffffffffffffffffffffff16141562000b78576040517f08c379a000000000000000000000000000000000000000000000000000000000815260040162000b6f9062001528565b60405180910390fd5b600260008273ffffffffffffffffffffffffffffffffffffffff1673ffffffffffffffffffffffffffffffffffffffff168152602001908152602001600020829080600181540180825580915050600190039060005260206000200160009091909190916101000a81548173ffffffffffffffffffffffffffffffffffffffff021916908373ffffffffffffffffffffffffffffffffffffffff1602179055506003819080600181540180825580915050600190039060005260206000200160009091909190916101000a81548173ffffffffffffffffffffffffffffffffffffffff021916908373ffffffffffffffffffffffffffffffffffffffff1602179055505050565b600080823360405160200162000c9792919062001a1a565b604051602081830303815290604052805190602001209050600062000cbb62000ffd565b9050818151602083016000f59250823b62000cd557600080fd5b5050919050565b600080823360405160200162000cf492919062001a1a565b604051602081830303815290604052805190602001209050600062000d1862000ffd565b9050600060ff60f81b3084848051906020012060405160200162000d40949392919062001aca565b6040516020818303038152906040528051906020012090508060001c9350505050919050565b62000d7062000f31565b73ffffffffffffffffffffffffffffffffffffffff1662000d90620009e6565b73ffffffffffffffffffffffffffffffffffffffff161462000de9576040517f08c379a000000000000000000000000000000000000000000000000000000000815260040162000de090620014b6565b60405180910390fd5b80600160006101000a81548173ffffffffffffffffffffffffffffffffffffffff021916908373ffffffffffffffffffffffffffffffffffffffff16021790555050565b62000e3762000f31565b73ffffffffffffffffffffffffffffffffffffffff1662000e57620009e6565b73ffffffffffffffffffffffffffffffffffffffff161462000eb0576040517f08c379a000000000000000000000000000000000000000000000000000000000815260040162000ea790620014b6565b60405180910390fd5b600073ffffffffffffffffffffffffffffffffffffffff168173ffffffffffffffffffffffffffffffffffffffff16141562000f23576040517f08c379a000000000000000000000000000000000000000000000000000000000815260040162000f1a9062001b96565b60405180910390fd5b62000f2e8162000f39565b50565b600033905090565b60008060009054906101000a900473ffffffffffffffffffffffffffffffffffffffff169050816000806101000a81548173ffffffffffffffffffffffffffffffffffffffff021916908373ffffffffffffffffffffffffffffffffffffffff1602179055508173ffffffffffffffffffffffffffffffffffffffff168173ffffffffffffffffffffffffffffffffffffffff167f8be0079c531659141344cd1fd0a4f28419497f9722a3daafe3b4186f6b6457e060405160405180910390a35050565b6060600060405180602001620010139062001051565b6020820181038252601f19601f8201166040525060405160200162001039919062001c05565b60405160208183030381529060405290508091505090565b61288d8062001c1f83390190565b6000604051905090565b600080fd5b600080fd5b600073ffffffffffffffffffffffffffffffffffffffff82169050919050565b6000620010a08262001073565b9050919050565b620010b28162001093565b8114620010be57600080fd5b50565b600081359050620010d281620010a7565b92915050565b6000819050919050565b620010ed81620010d8565b8114620010f957600080fd5b50565b6000813590506200110d81620010e2565b92915050565b600080604083850312156200112d576200112c62001069565b5b60006200113d85828601620010c1565b92505060206200115085828601620010fc565b9150509250929050565b620011658162001093565b82525050565b60006020820190506200118260008301846200115a565b92915050565b600060208284031215620011a157620011a062001069565b5b6000620011b184828501620010c1565b91505092915050565b600060208284031215620011d357620011d262001069565b5b6000620011e384828501620010fc565b91505092915050565b600067ffffffffffffffff82169050919050565b6200120b81620011ec565b81146200121757600080fd5b50565b6000813590506200122b8162001200565b92915050565b600080fd5b600080fd5b6000601f19601f8301169050919050565b7f4e487b7100000000000000000000000000000000000000000000000000000000600052604160045260246000fd5b62001286826200123b565b810181811067ffffffffffffffff82111715620012a857620012a76200124c565b5b80604052505050565b6000620012bd6200105f565b9050620012cb82826200127b565b919050565b600067ffffffffffffffff821115620012ee57620012ed6200124c565b5b620012f9826200123b565b9050602081019050919050565b82818337600083830152505050565b60006200132c6200132684620012d0565b620012b1565b9050828152602081018484840111156200134b576200134a62001236565b5b6200135884828562001306565b509392505050565b600082601f83011262001378576200137762001231565b5b81356200138a84826020860162001315565b91505092915050565b600080600060608486031215620013af57620013ae62001069565b5b6000620013bf868287016200121a565b935050602084013567ffffffffffffffff811115620013e357620013e26200106e565b5b620013f18682870162001360565b92505060406200140486828701620010fc565b9150509250925092565b6000806040838503121562001428576200142762001069565b5b60006200143885828601620010c1565b92505060206200144b85828601620010c1565b9150509250929050565b600082825260208201905092915050565b7f4f776e61626c653a2063616c6c6572206973206e6f7420746865206f776e6572600082015250565b60006200149e60208362001455565b9150620014ab8262001466565b602082019050919050565b60006020820190508181036000830152620014d1816200148f565b9050919050565b7f5573657220726571756972656400000000000000000000000000000000000000600082015250565b600062001510600d8362001455565b91506200151d82620014d8565b602082019050919050565b60006020820190508181036000830152620015438162001501565b9050919050565b7f4e487b7100000000000000000000000000000000000000000000000000000000600052601160045260246000fd5b60006200158682620010d8565b91506200159383620010d8565b925082821015620015a957620015a86200154a565b5b828203905092915050565b7f4e487b7100000000000000000000000000000000000000000000000000000000600052603260045260246000fd5b7f426561636f6e20436f6e74726163742072657175697265640000000000000000600082015250565b60006200161b60188362001455565b91506200162882620015e3565b602082019050919050565b600060208201905081810360008301526200164e816200160c565b9050919050565b7f45786368616e6765204e616d652063616e6e6f7420626520656d707479000000600082015250565b60006200168d601d8362001455565b91506200169a8262001655565b602082019050919050565b60006020820190508181036000830152620016c0816200167e565b9050919050565b600081519050919050565b60005b83811015620016f2578082015181840152602081019050620016d5565b8381111562001702576000848401525b50505050565b60006200171582620016c7565b62001721818562001455565b935062001733818560208601620016d2565b6200173e816200123b565b840191505092915050565b6200175481620010d8565b82525050565b6000604082019050818103600083015262001776818562001708565b905062001787602083018462001749565b9392505050565b6000620017a56200179f84620012d0565b620012b1565b905082815260208101848484011115620017c457620017c362001236565b5b620017d1848285620016d2565b509392505050565b600082601f830112620017f157620017f062001231565b5b8151620018038482602086016200178e565b91505092915050565b60006020828403121562001825576200182462001069565b5b600082015167ffffffffffffffff8111156200184657620018456200106e565b5b6200185484828501620017d9565b91505092915050565b6000606082019050818103600083015262001879818662001708565b90506200188a60208301856200115a565b6200189960408301846200115a565b949350505050565b6000604082019050620018b860008301856200115a565b620018c760208301846200115a565b9392505050565b620018d981620011ec565b82525050565b6000608082019050620018f66000830187620018ce565b6200190560208301866200115a565b818103604083015262001919818562001708565b90506200192a60608301846200115a565b95945050505050565b7f50726f787920436f6e7472616374207265717569726564000000000000000000600082015250565b60006200196b60178362001455565b9150620019788262001933565b602082019050919050565b600060208201905081810360008301526200199e816200195c565b9050919050565b6000819050919050565b620019c4620019be82620010d8565b620019a5565b82525050565b60008160601b9050919050565b6000620019e482620019ca565b9050919050565b6000620019f882620019d7565b9050919050565b62001a1462001a0e8262001093565b620019eb565b82525050565b600062001a288285620019af565b60208201915062001a3a8284620019ff565b6014820191508190509392505050565b60007fff0000000000000000000000000000000000000000000000000000000000000082169050919050565b6000819050919050565b62001a9562001a8f8262001a4a565b62001a76565b82525050565b6000819050919050565b6000819050919050565b62001ac462001abe8262001a9b565b62001aa5565b82525050565b600062001ad8828762001a80565b60018201915062001aea8286620019ff565b60148201915062001afc828562001aaf565b60208201915062001b0e828462001aaf565b60208201915081905095945050505050565b7f4f776e61626c653a206e6577206f776e657220697320746865207a65726f206160008201527f6464726573730000000000000000000000000000000000000000000000000000602082015250565b600062001b7e60268362001455565b915062001b8b8262001b20565b604082019050919050565b6000602082019050818103600083015262001bb18162001b6f565b9050919050565b600081519050919050565b600081905092915050565b600062001bdb8262001bb8565b62001be7818562001bc3565b935062001bf9818560208601620016d2565b80840191505092915050565b600062001c13828462001bce565b91508190509291505056fe60806040526000600d60006101000a81548160ff0219169083151502179055506000600d60016101000a81548160ff0219169083151502179055503480156200004757600080fd5b50620000686200005c6200006e60201b60201c565b6200007660201b60201c565b6200013c565b600033905090565b6000601060009054906101000a900473ffffffffffffffffffffffffffffffffffffffff16905081601060006101000a81548173ffffffffffffffffffffffffffffffffffffffff021916908373ffffffffffffffffffffffffffffffffffffffff1602179055508173ffffffffffffffffffffffffffffffffffffffff168173ffffffffffffffffffffffffffffffffffffffff167f8be0079c531659141344cd1fd0a4f28419497f9722a3daafe3b4186f6b6457e060405160405180910390a35050565b612741806200014c6000396000f3fe6080604052600436106101235760003560e01c80638b18c7e3116100a0578063d2f7265a11610064578063d2f7265a146104da578063d547741f14610505578063dc5d3a171461052e578063f1ed7dc714610559578063f2fde38b146105845761012a565b80638b18c7e3146103f15780638da5cb5b1461041c57806391d1485414610447578063a217fddf14610484578063cb9d9fa7146104af5761012a565b8063463fd1af116100e7578063463fd1af1461032b5780634de943201461034757806365034451146103725780637003c0801461039d578063715018a6146103da5761012a565b806301ffc9a71461021e578063248a9ca31461025b5780632f2ff15d1461029857806336568abe146102c1578063387dd9e9146102ea5761012a565b3661012a57005b600073ffffffffffffffffffffffffffffffffffffffff16600260009054906101000a900473ffffffffffffffffffffffffffffffffffffffff1673ffffffffffffffffffffffffffffffffffffffff1614156101bc576040517f08c379a00000000000000000000000000000000000000000000000000000000081526004016101b390611828565b60405180910390fd5b6000600260009054906101000a900473ffffffffffffffffffffffffffffffffffffffff16905060405136600082376000803683855af43d806000843e816000811461020f576001811461021357610217565b8184fd5b8184f35b5050505050005b34801561022a57600080fd5b50610245600480360381019061024091906118b4565b6105ad565b60405161025291906118fc565b60405180910390f35b34801561026757600080fd5b50610282600480360381019061027d919061194d565b610627565b60405161028f9190611989565b60405180910390f35b3480156102a457600080fd5b506102bf60048036038101906102ba9190611a02565b610647565b005b3480156102cd57600080fd5b506102e860048036038101906102e39190611a02565b610670565b005b3480156102f657600080fd5b50610311600480360381019061030c9190611a78565b6106f3565b604051610322959493929190611b4b565b60405180910390f35b61034560048036038101906103409190611cda565b610821565b005b34801561035357600080fd5b5061035c610b38565b6040516103699190611d49565b60405180910390f35b34801561037e57600080fd5b50610387610b5e565b6040516103949190611d49565b60405180910390f35b3480156103a957600080fd5b506103c460048036038101906103bf9190611d64565b610b84565b6040516103d191906118fc565b60405180910390f35b3480156103e657600080fd5b506103ef610e07565b005b3480156103fd57600080fd5b50610406610e8f565b6040516104139190611d49565b60405180910390f35b34801561042857600080fd5b50610431610eb9565b60405161043e9190611d49565b60405180910390f35b34801561045357600080fd5b5061046e60048036038101906104699190611a02565b610ee3565b60405161047b91906118fc565b60405180910390f35b34801561049057600080fd5b50610499610f4e565b6040516104a69190611989565b60405180910390f35b3480156104bb57600080fd5b506104c4610f55565b6040516104d19190611989565b60405180910390f35b3480156104e657600080fd5b506104ef610f79565b6040516104fc9190611dad565b60405180910390f35b34801561051157600080fd5b5061052c60048036038101906105279190611a02565b611007565b005b34801561053a57600080fd5b50610543611030565b6040516105509190611dcf565b60405180910390f35b34801561056557600080fd5b5061056e611036565b60405161057b9190611e0d565b60405180910390f35b34801561059057600080fd5b506105ab60048036038101906105a69190611e28565b61104e565b005b60007f7965db0b000000000000000000000000000000000000000000000000000000007bffffffffffffffffffffffffffffffffffffffffffffffffffffffff1916827bffffffffffffffffffffffffffffffffffffffffffffffffffffffff19161480610620575061061f82611146565b5b9050919050565b600060116000838152602001908152602001600020600101549050919050565b61065082610627565b6106618161065c6111b0565b6111b8565b61066b8383611255565b505050565b6106786111b0565b73ffffffffffffffffffffffffffffffffffffffff168173ffffffffffffffffffffffffffffffffffffffff16146106e5576040517f08c379a00000000000000000000000000000000000000000000000000000000081526004016106dc90611ec7565b60405180910390fd5b6106ef8282611336565b5050565b600f818154811061070357600080fd5b906000526020600020906005020160009150905080600001549080600101805461072c90611f16565b80601f016020809104026020016040519081016040528092919081815260200182805461075890611f16565b80156107a55780601f1061077a576101008083540402835291602001916107a5565b820191906000526020600020905b81548152906001019060200180831161078857829003601f168201915b5050505050908060020160009054906101000a900473ffffffffffffffffffffffffffffffffffffffff16908060030160009054906101000a900473ffffffffffffffffffffffffffffffffffffffff16908060040160009054906101000a900473ffffffffffffffffffffffffffffffffffffffff16905085565b60011515600d60019054906101000a900460ff161515141561086f576040517f3cba1f3a00000000000000000000000000000000000000000000000000000000815260040160405180910390fd5b600083905060008151116108b8576040517f08c379a00000000000000000000000000000000000000000000000000000000081526004016108af90611f94565b60405180910390fd5b600073ffffffffffffffffffffffffffffffffffffffff168373ffffffffffffffffffffffffffffffffffffffff161415610928576040517f08c379a000000000000000000000000000000000000000000000000000000000815260040161091f90612000565b60405180910390fd5b600073ffffffffffffffffffffffffffffffffffffffff168273ffffffffffffffffffffffffffffffffffffffff161415610998576040517f08c379a000000000000000000000000000000000000000000000000000000000815260040161098f9061206c565b60405180910390fd5b6109ac6000801b6109a7610eb9565b611418565b82600460006101000a81548173ffffffffffffffffffffffffffffffffffffffff021916908373ffffffffffffffffffffffffffffffffffffffff1602179055506109f684610b84565b506000600460009054906101000a900473ffffffffffffffffffffffffffffffffffffffff1673ffffffffffffffffffffffffffffffffffffffff1663bf40fac16040518163ffffffff1660e01b8152600401610a52906120d8565b6020604051808303816000875af1158015610a71573d6000803e3d6000fd5b505050506040513d601f19601f82011682018060405250810190610a95919061210d565b9050600073ffffffffffffffffffffffffffffffffffffffff168173ffffffffffffffffffffffffffffffffffffffff161415610b07576040517f08c379a0000000000000000000000000000000000000000000000000000000008152600401610afe90612186565b60405180910390fd5b610b317f27e3e4d29d60af3ae6456513164bb5db737d6fc8610aa36ad458736c9efb884c82611418565b5050505050565b600260009054906101000a900473ffffffffffffffffffffffffffffffffffffffff1681565b600460009054906101000a900473ffffffffffffffffffffffffffffffffffffffff1681565b6000610bb07f27e3e4d29d60af3ae6456513164bb5db737d6fc8610aa36ad458736c9efb884c33610ee3565b80610bed57503373ffffffffffffffffffffffffffffffffffffffff16610bd5610eb9565b73ffffffffffffffffffffffffffffffffffffffff16145b610c2c576040517f08c379a0000000000000000000000000000000000000000000000000000000008152600401610c23906121f2565b60405180910390fd5b60008290506000815111610c75576040517f08c379a0000000000000000000000000000000000000000000000000000000008152600401610c6c90611f94565b60405180910390fd5b82600e9080519060200190610c8b929190611728565b50600460009054906101000a900473ffffffffffffffffffffffffffffffffffffffff1673ffffffffffffffffffffffffffffffffffffffff16630cec42a4600e6040518263ffffffff1660e01b8152600401610ce891906122a7565b6020604051808303816000875af1158015610d07573d6000803e3d6000fd5b505050506040513d601f19601f82011682018060405250810190610d2b919061210d565b600260006101000a81548173ffffffffffffffffffffffffffffffffffffffff021916908373ffffffffffffffffffffffffffffffffffffffff160217905550600073ffffffffffffffffffffffffffffffffffffffff16600260009054906101000a900473ffffffffffffffffffffffffffffffffffffffff1673ffffffffffffffffffffffffffffffffffffffff161415610dfd576040517f08c379a0000000000000000000000000000000000000000000000000000000008152600401610df49061233b565b60405180910390fd5b6001915050919050565b610e0f6111b0565b73ffffffffffffffffffffffffffffffffffffffff16610e2d610eb9565b73ffffffffffffffffffffffffffffffffffffffff1614610e83576040517f08c379a0000000000000000000000000000000000000000000000000000000008152600401610e7a906123a7565b60405180910390fd5b610e8d6000611426565b565b6000600260009054906101000a900473ffffffffffffffffffffffffffffffffffffffff16905090565b6000601060009054906101000a900473ffffffffffffffffffffffffffffffffffffffff16905090565b60006011600084815260200190815260200160002060000160008373ffffffffffffffffffffffffffffffffffffffff1673ffffffffffffffffffffffffffffffffffffffff16815260200190815260200160002060009054906101000a900460ff16905092915050565b6000801b81565b7f27e3e4d29d60af3ae6456513164bb5db737d6fc8610aa36ad458736c9efb884c81565b600e8054610f8690611f16565b80601f0160208091040260200160405190810160405280929190818152602001828054610fb290611f16565b8015610fff5780601f10610fd457610100808354040283529160200191610fff565b820191906000526020600020905b815481529060010190602001808311610fe257829003601f168201915b505050505081565b61101082610627565b6110218161101c6111b0565b6111b8565b61102b8383611336565b505050565b60015481565b60008054906101000a900467ffffffffffffffff1681565b6110566111b0565b73ffffffffffffffffffffffffffffffffffffffff16611074610eb9565b73ffffffffffffffffffffffffffffffffffffffff16146110ca576040517f08c379a00000000000000000000000000000000000000000000000000000000081526004016110c1906123a7565b60405180910390fd5b600073ffffffffffffffffffffffffffffffffffffffff168173ffffffffffffffffffffffffffffffffffffffff16141561113a576040517f08c379a000000000000000000000000000000000000000000000000000000000815260040161113190612439565b60405180910390fd5b61114381611426565b50565b60007f01ffc9a7000000000000000000000000000000000000000000000000000000007bffffffffffffffffffffffffffffffffffffffffffffffffffffffff1916827bffffffffffffffffffffffffffffffffffffffffffffffffffffffff1916149050919050565b600033905090565b6111c28282610ee3565b611251576111e78173ffffffffffffffffffffffffffffffffffffffff1660146114ec565b6111f58360001c60206114ec565b60405160200161120692919061252d565b6040516020818303038152906040526040517f08c379a00000000000000000000000000000000000000000000000000000000081526004016112489190611dad565b60405180910390fd5b5050565b61125f8282610ee3565b6113325760016011600084815260200190815260200160002060000160008373ffffffffffffffffffffffffffffffffffffffff1673ffffffffffffffffffffffffffffffffffffffff16815260200190815260200160002060006101000a81548160ff0219169083151502179055506112d76111b0565b73ffffffffffffffffffffffffffffffffffffffff168173ffffffffffffffffffffffffffffffffffffffff16837f2f8788117e7eff1d82e926ec794901d17c78024a50270940304540a733656f0d60405160405180910390a45b5050565b6113408282610ee3565b156114145760006011600084815260200190815260200160002060000160008373ffffffffffffffffffffffffffffffffffffffff1673ffffffffffffffffffffffffffffffffffffffff16815260200190815260200160002060006101000a81548160ff0219169083151502179055506113b96111b0565b73ffffffffffffffffffffffffffffffffffffffff168173ffffffffffffffffffffffffffffffffffffffff16837ff6391f5c32d9c69d2a47ea670b442974b53935d1edc7fd64eb21e047a839171b60405160405180910390a45b5050565b6114228282611255565b5050565b6000601060009054906101000a900473ffffffffffffffffffffffffffffffffffffffff16905081601060006101000a81548173ffffffffffffffffffffffffffffffffffffffff021916908373ffffffffffffffffffffffffffffffffffffffff1602179055508173ffffffffffffffffffffffffffffffffffffffff168173ffffffffffffffffffffffffffffffffffffffff167f8be0079c531659141344cd1fd0a4f28419497f9722a3daafe3b4186f6b6457e060405160405180910390a35050565b6060600060028360026114ff9190612596565b61150991906125f0565b67ffffffffffffffff81111561152257611521611baf565b5b6040519080825280601f01601f1916602001820160405280156115545781602001600182028036833780820191505090505b5090507f30000000000000000000000000000000000000000000000000000000000000008160008151811061158c5761158b612646565b5b60200101907effffffffffffffffffffffffffffffffffffffffffffffffffffffffffffff1916908160001a9053507f7800000000000000000000000000000000000000000000000000000000000000816001815181106115f0576115ef612646565b5b60200101907effffffffffffffffffffffffffffffffffffffffffffffffffffffffffffff1916908160001a905350600060018460026116309190612596565b61163a91906125f0565b90505b60018111156116da577f3031323334353637383961626364656600000000000000000000000000000000600f86166010811061167c5761167b612646565b5b1a60f81b82828151811061169357611692612646565b5b60200101907effffffffffffffffffffffffffffffffffffffffffffffffffffffffffffff1916908160001a905350600485901c9450806116d390612675565b905061163d565b506000841461171e576040517f08c379a0000000000000000000000000000000000000000000000000000000008152600401611715906126eb565b60405180910390fd5b8091505092915050565b82805461173490611f16565b90600052602060002090601f016020900481019282611756576000855561179d565b82601f1061176f57805160ff191683800117855561179d565b8280016001018555821561179d579182015b8281111561179c578251825591602001919060010190611781565b5b5090506117aa91906117ae565b5090565b5b808211156117c75760008160009055506001016117af565b5090565b600082825260208201905092915050565b7f4c6f67696320636f6e7472616374207265717569726564000000000000000000600082015250565b60006118126017836117cb565b915061181d826117dc565b602082019050919050565b6000602082019050818103600083015261184181611805565b9050919050565b6000604051905090565b600080fd5b600080fd5b60007fffffffff0000000000000000000000000000000000000000000000000000000082169050919050565b6118918161185c565b811461189c57600080fd5b50565b6000813590506118ae81611888565b92915050565b6000602082840312156118ca576118c9611852565b5b60006118d88482850161189f565b91505092915050565b60008115159050919050565b6118f6816118e1565b82525050565b600060208201905061191160008301846118ed565b92915050565b6000819050919050565b61192a81611917565b811461193557600080fd5b50565b60008135905061194781611921565b92915050565b60006020828403121561196357611962611852565b5b600061197184828501611938565b91505092915050565b61198381611917565b82525050565b600060208201905061199e600083018461197a565b92915050565b600073ffffffffffffffffffffffffffffffffffffffff82169050919050565b60006119cf826119a4565b9050919050565b6119df816119c4565b81146119ea57600080fd5b50565b6000813590506119fc816119d6565b92915050565b60008060408385031215611a1957611a18611852565b5b6000611a2785828601611938565b9250506020611a38858286016119ed565b9150509250929050565b6000819050919050565b611a5581611a42565b8114611a6057600080fd5b50565b600081359050611a7281611a4c565b92915050565b600060208284031215611a8e57611a8d611852565b5b6000611a9c84828501611a63565b91505092915050565b611aae81611a42565b82525050565b600081519050919050565b60005b83811015611add578082015181840152602081019050611ac2565b83811115611aec576000848401525b50505050565b6000601f19601f8301169050919050565b6000611b0e82611ab4565b611b1881856117cb565b9350611b28818560208601611abf565b611b3181611af2565b840191505092915050565b611b45816119c4565b82525050565b600060a082019050611b606000830188611aa5565b8181036020830152611b728187611b03565b9050611b816040830186611b3c565b611b8e6060830185611b3c565b611b9b6080830184611b3c565b9695505050505050565b600080fd5b600080fd5b7f4e487b7100000000000000000000000000000000000000000000000000000000600052604160045260246000fd5b611be782611af2565b810181811067ffffffffffffffff82111715611c0657611c05611baf565b5b80604052505050565b6000611c19611848565b9050611c258282611bde565b919050565b600067ffffffffffffffff821115611c4557611c44611baf565b5b611c4e82611af2565b9050602081019050919050565b82818337600083830152505050565b6000611c7d611c7884611c2a565b611c0f565b905082815260208101848484011115611c9957611c98611baa565b5b611ca4848285611c5b565b509392505050565b600082601f830112611cc157611cc0611ba5565b5b8135611cd1848260208601611c6a565b91505092915050565b600080600060608486031215611cf357611cf2611852565b5b600084013567ffffffffffffffff811115611d1157611d10611857565b5b611d1d86828701611cac565b9350506020611d2e868287016119ed565b9250506040611d3f868287016119ed565b9150509250925092565b6000602082019050611d5e6000830184611b3c565b92915050565b600060208284031215611d7a57611d79611852565b5b600082013567ffffffffffffffff811115611d9857611d97611857565b5b611da484828501611cac565b91505092915050565b60006020820190508181036000830152611dc78184611b03565b905092915050565b6000602082019050611de46000830184611aa5565b92915050565b600067ffffffffffffffff82169050919050565b611e0781611dea565b82525050565b6000602082019050611e226000830184611dfe565b92915050565b600060208284031215611e3e57611e3d611852565b5b6000611e4c848285016119ed565b91505092915050565b7f416363657373436f6e74726f6c3a2063616e206f6e6c792072656e6f756e636560008201527f20726f6c657320666f722073656c660000000000000000000000000000000000602082015250565b6000611eb1602f836117cb565b9150611ebc82611e55565b604082019050919050565b60006020820190508181036000830152611ee081611ea4565b9050919050565b7f4e487b7100000000000000000000000000000000000000000000000000000000600052602260045260246000fd5b60006002820490506001821680611f2e57607f821691505b60208210811415611f4257611f41611ee7565b5b50919050565b7f45786368616e6765206973207265717569726564000000000000000000000000600082015250565b6000611f7e6014836117cb565b9150611f8982611f48565b602082019050919050565b60006020820190508181036000830152611fad81611f71565b9050919050565b7f426561636f6e20436f6e74726163742072657175697265640000000000000000600082015250565b6000611fea6018836117cb565b9150611ff582611fb4565b602082019050919050565b6000602082019050818103600083015261201981611fdd565b9050919050565b7f4f776e6572206973207265717569726564000000000000000000000000000000600082015250565b60006120566011836117cb565b915061206182612020565b602082019050919050565b6000602082019050818103600083015261208581612049565b9050919050565b7f41444d494e555345520000000000000000000000000000000000000000000000600082015250565b60006120c26009836117cb565b91506120cd8261208c565b602082019050919050565b600060208201905081810360008301526120f1816120b5565b9050919050565b600081519050612107816119d6565b92915050565b60006020828403121561212357612122611852565b5b6000612131848285016120f8565b91505092915050565b7f41646d696e206164647265737320726571756972656400000000000000000000600082015250565b60006121706016836117cb565b915061217b8261213a565b602082019050919050565b6000602082019050818103600083015261219f81612163565b9050919050565b7f526573747269637465642046756e6374696f6e00000000000000000000000000600082015250565b60006121dc6013836117cb565b91506121e7826121a6565b602082019050919050565b6000602082019050818103600083015261220b816121cf565b9050919050565b60008190508160005260206000209050919050565b6000815461223481611f16565b61223e81866117cb565b94506001821660008114612259576001811461226b5761229e565b60ff198316865260208601935061229e565b61227485612212565b60005b8381101561229657815481890152600182019150602081019050612277565b808801955050505b50505092915050565b600060208201905081810360008301526122c18184612227565b905092915050565b7f4c6f67696320436f6e7472616374207265717569726564202d2073657445786360008201527f68616e6765000000000000000000000000000000000000000000000000000000602082015250565b60006123256025836117cb565b9150612330826122c9565b604082019050919050565b6000602082019050818103600083015261235481612318565b9050919050565b7f4f776e61626c653a2063616c6c6572206973206e6f7420746865206f776e6572600082015250565b60006123916020836117cb565b915061239c8261235b565b602082019050919050565b600060208201905081810360008301526123c081612384565b9050919050565b7f4f776e61626c653a206e6577206f776e657220697320746865207a65726f206160008201527f6464726573730000000000000000000000000000000000000000000000000000602082015250565b60006124236026836117cb565b915061242e826123c7565b604082019050919050565b6000602082019050818103600083015261245281612416565b9050919050565b600081905092915050565b7f416363657373436f6e74726f6c3a206163636f756e7420000000000000000000600082015250565b600061249a601783612459565b91506124a582612464565b601782019050919050565b60006124bb82611ab4565b6124c58185612459565b93506124d5818560208601611abf565b80840191505092915050565b7f206973206d697373696e6720726f6c6520000000000000000000000000000000600082015250565b6000612517601183612459565b9150612522826124e1565b601182019050919050565b60006125388261248d565b915061254482856124b0565b915061254f8261250a565b915061255b82846124b0565b91508190509392505050565b7f4e487b7100000000000000000000000000000000000000000000000000000000600052601160045260246000fd5b60006125a182611a42565b91506125ac83611a42565b9250817fffffffffffffffffffffffffffffffffffffffffffffffffffffffffffffffff04831182151516156125e5576125e4612567565b5b828202905092915050565b60006125fb82611a42565b915061260683611a42565b9250827fffffffffffffffffffffffffffffffffffffffffffffffffffffffffffffffff0382111561263b5761263a612567565b5b828201905092915050565b7f4e487b7100000000000000000000000000000000000000000000000000000000600052603260045260246000fd5b600061268082611a42565b9150600082141561269457612693612567565b5b600182039050919050565b7f537472696e67733a20686578206c656e67746820696e73756666696369656e74600082015250565b60006126d56020836117cb565b91506126e08261269f565b602082019050919050565b60006020820190508181036000830152612704816126c8565b905091905056fea26469706673582212200a19fb3c3246107f30c31e9cf3f3988f9c47014e0cccd204ea63e7095e78492264736f6c634300080c0033a26469706673582212201539b322dc38ae7e54d7f129135394ba42babbd18282f357078f9ee9c433e73964736f6c634300080c0033",
  "immutableReferences": {},
  "source": "//SPDX-License-Identifier: UNLICENSED\npragma solidity ^0.8.7;\nimport \"./Storage.sol\";\ninterface iApp {\n    function  initialize(uint64 _poolId, address _beacon, string memory _exchangeName, address _owner) external payable;\n}\n\ninterface prBeacon {\n    function mExchanges(string memory _exchange) external returns(address);\n    function getAddress(string memory _exchange) external returns(address);\n    function getContractType(string memory _name, uint _type) external returns (string memory _contract);\n}\n\ncontract combine_proxy is Storage, Ownable, AccessControl  {\n    modifier allowAdmin() {\n        require(hasRole(HARVESTER,msg.sender) || owner() == msg.sender,\"Restricted Function\");\n        _;\n    }\n\n    error sdInitializedError();\n\n    receive() external payable {}\n\n    constructor () {}\n\n\n    ///@notice Initialize the proxy contract\n    ///@param _exchange the name of the exchange\n    ///@param _beacon the address of the beacon contract\n    ///@param _owner the address of the owner\n    function initialize (string memory _exchange, address _beacon, address _owner) public payable  {\n        if (_initialized == true) revert sdInitializedError();\n\n        bytes memory bExchange = bytes(_exchange);\n        require(bExchange.length > 0, \"Exchange is required\");\n        require(_beacon != address(0), \"Beacon Contract required\");\n        require(_owner != address(0), \"Owner is required\");\n        _setupRole(DEFAULT_ADMIN_ROLE,owner());\n        \n        beaconContract = _beacon;\n        setExchange(_exchange);\n\n        address _admin = prBeacon(beaconContract).getAddress(\"ADMINUSER\");        \n        require(_admin != address(0), \"Admin address required\");\n        _setupRole(HARVESTER, _admin);\n    }\n    \n    ///@notice Sets the logic contract for the exchange\n    ///@dev Call function if logic contract gets updated\n    ///@param _exchange the name of the exchange\n    ///@return success - success or failure\n    function setExchange(string memory _exchange) public allowAdmin returns (bool success){\n        bytes memory bExchange = bytes(_exchange);\n        require(bExchange.length > 0, \"Exchange is required\");\n        exchange = _exchange;\n        logic_contract = prBeacon(beaconContract).mExchanges(exchange);\n        require(logic_contract != address(0), \"Logic Contract required - setExchange\");\n        return true;\n    }\n\n    ///@notice Gets the logic contract for the exchange\n    function getLogicContract() public view returns (address) {\n       return logic_contract;\n    }\n    \n    ///@notice logic for the proxy part of the contract, uses delegatecall to send function call to the logic contract\n    fallback () payable external {\n       require(logic_contract != address(0),\"Logic contract required\");\n       address target = logic_contract;\n        \n        assembly {\n            let ptr := mload(0x40)\n            calldatacopy(ptr, 0, calldatasize())\n            let result := delegatecall(gas(), target, ptr, calldatasize(), 0, 0)\n            let size := returndatasize()\n            returndatacopy(ptr, 0, size)\n            switch result\n            case 0 { revert(ptr, size) }\n            case 1 { return(ptr, size) }\n        }\n    }\n}\n\ncontract proxyFactory is Ownable {\n    address public beaconContract;\n\n    mapping (address => address[]) public proxyContracts;\n    address[] public proxyContractsUsers;\n\n    event NewProxy(address proxy, address user);\n\n\n    ///@notice Initialize the proxy factory contract\n    ///@param _beacon the address of the beacon contract\n    constructor (address _beacon) {\n        require(_beacon != address(0), \"Beacon Contract required\");\n        beaconContract = _beacon;\n    }\n\n    ///@notice Sets the address of the beacon contract\n    ///@dev call when beacon contract gets updated\n    ///@param _beaconContract the address of the beacon contract\n    function setBeacon(address _beaconContract) public onlyOwner {\n        beaconContract = _beaconContract;\n    }\n\n    ///@notice Allows admin to add an existing proxy contract to the list of proxy contracts for a user\n    ///@param _proxyContract the address of the proxy contract\n    ///@param _user the address of the user\n    function addProxy(address _proxyContract, address _user) public onlyOwner {\n        require(_proxyContract != address(0), \"Proxy Contract required\");\n        require(_user != address(0), \"User required\");\n        proxyContracts[_user].push(_proxyContract);\n        proxyContractsUsers.push(_user);\n    }\n\n    ///@notice Returns the last proxy contract created (or added) for a specific user\n    ///@param _user the address of the user\n    ///@return the address of the proxy contract\n    function getLastProxy(address _user) public view returns (address) {\n        require(_user != address(0), \"User required\");\n        return proxyContracts[_user][proxyContracts[_user].length - 1];\n    }\n    \n    ///@notice Creates a new proxy contract for a specific exchange and pool. \n    ///@dev Proxy contract is owned by calling user\n    ///@dev for Solo contracts, only one proxy contract is needed unless custom logic contract is needed\n    ///@param _pid the pool id\n    ///@param _exchange the name of the exchange\n    ///@param _poolType the type of the pool (0=solo, 1=pool)\n    ///@return the address of the proxy contract\n    function initialize(uint64  _pid, string memory _exchange, uint _poolType) public payable returns (address) {        \n        require(beaconContract != address(0), \"Beacon Contract required\");\n        require(bytes(_exchange).length > 0,\"Exchange Name cannot be empty\");\n        string memory _contract = prBeacon(beaconContract).getContractType(_exchange,_poolType);\n\n        address proxy = deploy(_pid);\n        combine_proxy(payable(proxy)).initialize(_contract, beaconContract, msg.sender);\n\n        emit NewProxy(address(proxy), msg.sender);\n\n        proxyContracts[msg.sender].push(address(proxy));\n        proxyContractsUsers.push(msg.sender);\n        iApp(address(proxy)).initialize{value:msg.value}(_pid, beaconContract, _exchange,msg.sender);    \n\n        return address(proxy);\n    }\n\n    ///@notice Gets bytecode of proxyContract\n    ///@return the bytecode of the proxy contract\n    function getBytecode() private pure returns (bytes memory) {\n        bytes memory result = abi.encodePacked(type(combine_proxy).creationCode);\n        return result;\n    }\n\n    ///@notice generates an address of a new proxy contract\n    ///@dev used in front end\n    ///@param _pid the pool id\n    ///@return the address of the proxy contract\n    function getAddress(uint _pid) public view returns (address)\n    {\n        bytes32 newsalt = keccak256(abi.encodePacked(_pid,msg.sender));\n\n        bytes memory bytecode = getBytecode();\n        bytes32 hash = keccak256(\n            abi.encodePacked(bytes1(0xff), address(this), newsalt, keccak256(bytecode))\n        );\n\n        return address(uint160(uint(hash)));\n    }    \n\n    ///@notice deploys bytecode of proxy contract\n    ///@param _pid the pool id\n    ///@return addr the address of the proxy contract\n    function deploy(uint _pid) public payable returns (address addr){\n        bytes32 newsalt = keccak256(abi.encodePacked(_pid,msg.sender));\n        bytes memory bytecode = getBytecode();\n\n        assembly {\n            addr := create2(\n                0, \n                add(bytecode, 0x20),\n                mload(bytecode),\n                newsalt\n            )\n\n            if iszero(extcodesize(addr)) {\n                revert(0, 0)\n            }\n        }\n    }    \n}\n",
  "sourcePath": "/mnt/src/crypto/combine_sol/contracts/combine_proxy.sol",
  "compiler": {
    "name": "solc",
    "version": "0.8.12+commit.f00d7308.Emscripten.clang"
  },
  "schemaVersion": "3.4.3",
  "updatedAt": "2022-03-16T13:39:42.045Z",
  "devdoc": {
    "kind": "dev",
    "methods": {
      "addProxy(address,address)": {
        "params": {
          "_proxyContract": "the address of the proxy contract",
          "_user": "the address of the user"
        }
      },
      "constructor": {
        "params": {
          "_beacon": "the address of the beacon contract"
        }
      },
      "deploy(uint256)": {
        "params": {
          "_pid": "the pool id"
        },
        "returns": {
          "addr": "the address of the proxy contract"
        }
      },
      "getAddress(uint256)": {
        "details": "used in front end",
        "params": {
          "_pid": "the pool id"
        },
        "returns": {
          "_0": "the address of the proxy contract"
        }
      },
      "getLastProxy(address)": {
        "params": {
          "_user": "the address of the user"
        },
        "returns": {
          "_0": "the address of the proxy contract"
        }
      },
      "initialize(uint64,string,uint256)": {
        "details": "Proxy contract is owned by calling userfor Solo contracts, only one proxy contract is needed unless custom logic contract is needed",
        "params": {
          "_exchange": "the name of the exchange",
          "_pid": "the pool id",
          "_poolType": "the type of the pool (0=solo, 1=pool)"
        },
        "returns": {
          "_0": "the address of the proxy contract"
        }
      },
      "owner()": {
        "details": "Returns the address of the current owner."
      },
      "renounceOwnership()": {
        "details": "Leaves the contract without owner. It will not be possible to call `onlyOwner` functions anymore. Can only be called by the current owner. NOTE: Renouncing ownership will leave the contract without an owner, thereby removing any functionality that is only available to the owner."
      },
      "setBeacon(address)": {
        "details": "call when beacon contract gets updated",
        "params": {
          "_beaconContract": "the address of the beacon contract"
        }
      },
      "transferOwnership(address)": {
        "details": "Transfers ownership of the contract to a new account (`newOwner`). Can only be called by the current owner."
      }
    },
    "version": 1
  },
  "userdoc": {
    "kind": "user",
    "methods": {
      "addProxy(address,address)": {
        "notice": "Allows admin to add an existing proxy contract to the list of proxy contracts for a user"
      },
      "constructor": {
        "notice": "Initialize the proxy factory contract"
      },
      "deploy(uint256)": {
        "notice": "deploys bytecode of proxy contract"
      },
      "getAddress(uint256)": {
        "notice": "generates an address of a new proxy contract"
      },
      "getLastProxy(address)": {
        "notice": "Returns the last proxy contract created (or added) for a specific user"
      },
      "initialize(uint64,string,uint256)": {
        "notice": "Creates a new proxy contract for a specific exchange and pool. "
      },
      "setBeacon(address)": {
        "notice": "Sets the address of the beacon contract"
      }
    },
    "version": 1
  }
}