{
  "contractName": "proxyFactory",
  "abi": [
    {
      "inputs": [
        {
          "internalType": "address",
          "name": "_beacon",
          "type": "address"
        },
        {
          "internalType": "address",
          "name": "_admin",
          "type": "address"
        }
      ],
      "stateMutability": "nonpayable",
      "type": "constructor"
    },
    {
      "anonymous": false,
      "inputs": [
        {
          "indexed": false,
          "internalType": "address",
          "name": "proxy",
          "type": "address"
        },
        {
          "indexed": false,
          "internalType": "address",
          "name": "user",
          "type": "address"
        }
      ],
      "name": "NewProxy",
      "type": "event"
    },
    {
      "anonymous": false,
      "inputs": [
        {
          "indexed": true,
          "internalType": "address",
          "name": "previousOwner",
          "type": "address"
        },
        {
          "indexed": true,
          "internalType": "address",
          "name": "newOwner",
          "type": "address"
        }
      ],
      "name": "OwnershipTransferred",
      "type": "event"
    },
    {
      "anonymous": false,
      "inputs": [
        {
          "indexed": true,
          "internalType": "bytes32",
          "name": "role",
          "type": "bytes32"
        },
        {
          "indexed": true,
          "internalType": "bytes32",
          "name": "previousAdminRole",
          "type": "bytes32"
        },
        {
          "indexed": true,
          "internalType": "bytes32",
          "name": "newAdminRole",
          "type": "bytes32"
        }
      ],
      "name": "RoleAdminChanged",
      "type": "event"
    },
    {
      "anonymous": false,
      "inputs": [
        {
          "indexed": true,
          "internalType": "bytes32",
          "name": "role",
          "type": "bytes32"
        },
        {
          "indexed": true,
          "internalType": "address",
          "name": "account",
          "type": "address"
        },
        {
          "indexed": true,
          "internalType": "address",
          "name": "sender",
          "type": "address"
        }
      ],
      "name": "RoleGranted",
      "type": "event"
    },
    {
      "anonymous": false,
      "inputs": [
        {
          "indexed": true,
          "internalType": "bytes32",
          "name": "role",
          "type": "bytes32"
        },
        {
          "indexed": true,
          "internalType": "address",
          "name": "account",
          "type": "address"
        },
        {
          "indexed": true,
          "internalType": "address",
          "name": "sender",
          "type": "address"
        }
      ],
      "name": "RoleRevoked",
      "type": "event"
    },
    {
      "inputs": [],
      "name": "DEFAULT_ADMIN_ROLE",
      "outputs": [
        {
          "internalType": "bytes32",
          "name": "",
          "type": "bytes32"
        }
      ],
      "stateMutability": "view",
      "type": "function"
    },
    {
      "inputs": [],
      "name": "DEPLOYER",
      "outputs": [
        {
          "internalType": "bytes32",
          "name": "",
          "type": "bytes32"
        }
      ],
      "stateMutability": "view",
      "type": "function"
    },
    {
      "inputs": [],
      "name": "beaconContract",
      "outputs": [
        {
          "internalType": "address",
          "name": "",
          "type": "address"
        }
      ],
      "stateMutability": "view",
      "type": "function"
    },
    {
      "inputs": [
        {
          "internalType": "bytes32",
          "name": "role",
          "type": "bytes32"
        }
      ],
      "name": "getRoleAdmin",
      "outputs": [
        {
          "internalType": "bytes32",
          "name": "",
          "type": "bytes32"
        }
      ],
      "stateMutability": "view",
      "type": "function"
    },
    {
      "inputs": [
        {
          "internalType": "bytes32",
          "name": "role",
          "type": "bytes32"
        },
        {
          "internalType": "address",
          "name": "account",
          "type": "address"
        }
      ],
      "name": "grantRole",
      "outputs": [],
      "stateMutability": "nonpayable",
      "type": "function"
    },
    {
      "inputs": [
        {
          "internalType": "bytes32",
          "name": "role",
          "type": "bytes32"
        },
        {
          "internalType": "address",
          "name": "account",
          "type": "address"
        }
      ],
      "name": "hasRole",
      "outputs": [
        {
          "internalType": "bool",
          "name": "",
          "type": "bool"
        }
      ],
      "stateMutability": "view",
      "type": "function"
    },
    {
      "inputs": [],
      "name": "owner",
      "outputs": [
        {
          "internalType": "address",
          "name": "",
          "type": "address"
        }
      ],
      "stateMutability": "view",
      "type": "function"
    },
    {
      "inputs": [
        {
          "internalType": "address",
          "name": "",
          "type": "address"
        },
        {
          "internalType": "uint256",
          "name": "",
          "type": "uint256"
        }
      ],
      "name": "proxyContracts",
      "outputs": [
        {
          "internalType": "address",
          "name": "",
          "type": "address"
        }
      ],
      "stateMutability": "view",
      "type": "function"
    },
    {
      "inputs": [
        {
          "internalType": "uint256",
          "name": "",
          "type": "uint256"
        }
      ],
      "name": "proxyContractsUsers",
      "outputs": [
        {
          "internalType": "address",
          "name": "",
          "type": "address"
        }
      ],
      "stateMutability": "view",
      "type": "function"
    },
    {
      "inputs": [],
      "name": "renounceOwnership",
      "outputs": [],
      "stateMutability": "nonpayable",
      "type": "function"
    },
    {
      "inputs": [
        {
          "internalType": "bytes32",
          "name": "role",
          "type": "bytes32"
        },
        {
          "internalType": "address",
          "name": "account",
          "type": "address"
        }
      ],
      "name": "renounceRole",
      "outputs": [],
      "stateMutability": "nonpayable",
      "type": "function"
    },
    {
      "inputs": [
        {
          "internalType": "bytes32",
          "name": "role",
          "type": "bytes32"
        },
        {
          "internalType": "address",
          "name": "account",
          "type": "address"
        }
      ],
      "name": "revokeRole",
      "outputs": [],
      "stateMutability": "nonpayable",
      "type": "function"
    },
    {
      "inputs": [
        {
          "internalType": "bytes4",
          "name": "interfaceId",
          "type": "bytes4"
        }
      ],
      "name": "supportsInterface",
      "outputs": [
        {
          "internalType": "bool",
          "name": "",
          "type": "bool"
        }
      ],
      "stateMutability": "view",
      "type": "function"
    },
    {
      "inputs": [
        {
          "internalType": "address",
          "name": "newOwner",
          "type": "address"
        }
      ],
      "name": "transferOwnership",
      "outputs": [],
      "stateMutability": "nonpayable",
      "type": "function"
    },
    {
      "inputs": [
        {
          "internalType": "address",
          "name": "_beaconContract",
          "type": "address"
        }
      ],
      "name": "setBeacon",
      "outputs": [],
      "stateMutability": "nonpayable",
      "type": "function"
    },
    {
      "inputs": [
        {
          "internalType": "address",
          "name": "_proxyContract",
          "type": "address"
        },
        {
          "internalType": "address",
          "name": "_user",
          "type": "address"
        }
      ],
      "name": "addProxy",
      "outputs": [],
      "stateMutability": "nonpayable",
      "type": "function"
    },
    {
      "inputs": [
        {
          "internalType": "address",
          "name": "_user",
          "type": "address"
        }
      ],
      "name": "getLastProxy",
      "outputs": [
        {
          "internalType": "address",
          "name": "",
          "type": "address"
        }
      ],
      "stateMutability": "view",
      "type": "function"
    },
    {
      "inputs": [
        {
          "internalType": "uint64",
          "name": "_pid",
          "type": "uint64"
        },
        {
          "internalType": "string",
          "name": "_exchange",
          "type": "string"
        },
        {
          "internalType": "uint256",
          "name": "_poolType",
          "type": "uint256"
        },
        {
          "internalType": "uint256",
          "name": "_salt",
          "type": "uint256"
        }
      ],
      "name": "initialize",
      "outputs": [
        {
          "internalType": "address",
          "name": "",
          "type": "address"
        }
      ],
      "stateMutability": "payable",
      "type": "function"
    },
    {
      "inputs": [
        {
          "internalType": "uint256",
          "name": "_salt",
          "type": "uint256"
        }
      ],
      "name": "getAddress",
      "outputs": [
        {
          "internalType": "address",
          "name": "",
          "type": "address"
        }
      ],
      "stateMutability": "view",
      "type": "function"
    },
    {
      "inputs": [
        {
          "internalType": "address",
          "name": "_user",
          "type": "address"
        }
      ],
      "name": "addAdmin",
      "outputs": [],
      "stateMutability": "nonpayable",
      "type": "function"
    },
    {
      "inputs": [
        {
          "internalType": "address",
          "name": "_user",
          "type": "address"
        }
      ],
      "name": "removeAdmin",
      "outputs": [],
      "stateMutability": "nonpayable",
      "type": "function"
    },
    {
      "inputs": [
        {
          "internalType": "uint256",
          "name": "_salt",
          "type": "uint256"
        },
        {
          "internalType": "uint256",
          "name": "_poolType",
          "type": "uint256"
        }
      ],
      "name": "deploy",
      "outputs": [
        {
          "internalType": "address",
          "name": "addr",
          "type": "address"
        }
      ],
      "stateMutability": "payable",
      "type": "function"
    }
  ],
  "bytecode": "0x60806040523480156200001157600080fd5b5060405162002e7538038062002e758339810160408190526200003491620001ee565b6200003f33620000e9565b6001600160a01b0382166200009a5760405162461bcd60e51b815260206004820152601860248201527f426561636f6e20436f6e74726163742072657175697265640000000000000000604482015260640160405180910390fd5b600280546001600160a01b0319166001600160a01b038416179055620000e17f503cf060389b91af8851125bd70ce66d16d12330718b103fc7674ef6d27e70c98262000139565b505062000226565b600080546001600160a01b038381166001600160a01b0319831681178455604051919092169283917f8be0079c531659141344cd1fd0a4f28419497f9722a3daafe3b4186f6b6457e09190a35050565b62000145828262000149565b5050565b60008281526001602090815260408083206001600160a01b038516845290915290205460ff16620001455760008281526001602081815260408084206001600160a01b0386168086529252808420805460ff19169093179092559051339285917f2f8788117e7eff1d82e926ec794901d17c78024a50270940304540a733656f0d9190a45050565b80516001600160a01b0381168114620001e957600080fd5b919050565b600080604083850312156200020257600080fd5b6200020d83620001d1565b91506200021d60208401620001d1565b90509250929050565b612c3f80620002366000396000f3fe6080604052600436106101355760003560e01c80637773c939116100ab578063a217fddf1161006f578063a217fddf14610361578063b93f9b0a14610376578063c1b8411a14610396578063d42afb56146103b8578063d547741f146103d8578063f2fde38b146103f857600080fd5b80637773c939146102c35780637fd3eb1e146102e35780638da5cb5b1461030357806391d1485414610321578063957fade51461034157600080fd5b80633186bd35116100fd5780633186bd351461021b57806336568abe1461023b5780635e79bb601461025b578063650344511461026e578063704802751461028e578063715018a6146102ae57600080fd5b806301ffc9a71461013a5780631785f53c1461016f57806317a1a83c14610191578063248a9ca3146101bc5780632f2ff15d146101fb575b600080fd5b34801561014657600080fd5b5061015a6101553660046111c6565b610418565b60405190151581526020015b60405180910390f35b34801561017b57600080fd5b5061018f61018a36600461120c565b61044f565b005b6101a461019f366004611296565b61049d565b6040516001600160a01b039091168152602001610166565b3480156101c857600080fd5b506101ed6101d7366004611342565b6000908152600160208190526040909120015490565b604051908152602001610166565b34801561020757600080fd5b5061018f61021636600461135b565b6107d4565b34801561022757600080fd5b506101a4610236366004611387565b610800565b34801561024757600080fd5b5061018f61025636600461135b565b610838565b6101a46102693660046113b1565b6108b6565b34801561027a57600080fd5b506002546101a4906001600160a01b031681565b34801561029a57600080fd5b5061018f6102a936600461120c565b610993565b3480156102ba57600080fd5b5061018f6109d5565b3480156102cf57600080fd5b506101a46102de36600461120c565b610a0b565b3480156102ef57600080fd5b506101a46102fe366004611342565b610aa4565b34801561030f57600080fd5b506000546001600160a01b03166101a4565b34801561032d57600080fd5b5061015a61033c36600461135b565b610ace565b34801561034d57600080fd5b5061018f61035c3660046113d3565b610af9565b34801561036d57600080fd5b506101ed600081565b34801561038257600080fd5b506101a4610391366004611342565b610c3b565b3480156103a257600080fd5b506101ed600080516020612bea83398151915281565b3480156103c457600080fd5b5061018f6103d336600461120c565b610d2f565b3480156103e457600080fd5b5061018f6103f336600461135b565b610d7b565b34801561040457600080fd5b5061018f61041336600461120c565b610da2565b60006001600160e01b03198216637965db0b60e01b148061044957506301ffc9a760e01b6001600160e01b03198316145b92915050565b6000546001600160a01b031633146104825760405162461bcd60e51b8152600401610479906113fd565b60405180910390fd5b61049a600080516020612bea83398151915282610d7b565b50565b600080546001600160a01b031633146104c85760405162461bcd60e51b8152600401610479906113fd565b6002546001600160a01b03166105205760405162461bcd60e51b815260206004820152601860248201527f426561636f6e20436f6e747261637420726571756972656400000000000000006044820152606401610479565b60008451116105715760405162461bcd60e51b815260206004820152601d60248201527f45786368616e6765204e616d652063616e6e6f7420626520656d7074790000006044820152606401610479565b600082116105b95760405162461bcd60e51b815260206004820152601560248201527414d85b1d081b5d5cdd081899481c1c9bdd9a591959605a1b6044820152606401610479565b60025460405162fd902760e51b81526000916001600160a01b031690631fb204e0906105eb908890889060040161148e565b6000604051808303816000875af115801561060a573d6000803e3d6000fd5b505050506040513d6000823e601f3d908101601f1916820160405261063291908101906114b0565b9050600061064084866108b6565b33600081815260036020908152604080832080546001818101835591855292842090920180546001600160a01b038088166001600160a01b03199283168117909355600480549586018155958690527f8a35acfbc15ff81a39ae7d344fd709f28e8600b4aa8c65c6b64bfe7fe36bd19b9094018054909116861790556002549151633ffbf30b60e11b815295965094637ff7e616946106ea948994939093169290918c9101611527565b600060405180830381600087803b15801561070457600080fd5b505af1158015610718573d6000803e3d6000fd5b5050604080516001600160a01b03851681523360208201527fa94ca626c15b5acbc6f820b88b794bce0d7a9198f2ed3e248aa0a362e2bdd60b935001905060405180910390a16002546040516354bb382360e01b81526001600160a01b03808416926354bb3823923492610797928d929116908c90339060040161155d565b6000604051808303818588803b1580156107b057600080fd5b505af11580156107c4573d6000803e3d6000fd5b50939a9950505050505050505050565b600082815260016020819052604090912001546107f18133610e3a565b6107fb8383610e9e565b505050565b6003602052816000526040600020818154811061081c57600080fd5b6000918252602090912001546001600160a01b03169150829050565b6001600160a01b03811633146108a85760405162461bcd60e51b815260206004820152602f60248201527f416363657373436f6e74726f6c3a2063616e206f6e6c792072656e6f756e636560448201526e103937b632b9903337b91039b2b63360891b6064820152608401610479565b6108b28282610f09565b5050565b60008115806108e357508160011480156108e357506108e3600080516020612bea83398151915233610ace565b6109255760405162461bcd60e51b81526020600482015260136024820152722932b9ba3934b1ba32b210233ab731ba34b7b760691b6044820152606401610479565b6000833360405160200161095092919091825260601b6001600160601b031916602082015260340190565b6040516020818303038152906040528051906020012090506000610972610f70565b9050818151602083016000f59250823b61098b57600080fd5b505092915050565b6000546001600160a01b031633146109bd5760405162461bcd60e51b8152600401610479906113fd565b61049a600080516020612bea83398151915282610fbc565b6000546001600160a01b031633146109ff5760405162461bcd60e51b8152600401610479906113fd565b610a096000610fc6565b565b60006001600160a01b038216610a535760405162461bcd60e51b815260206004820152600d60248201526c155cd95c881c995c5d5a5c9959609a1b6044820152606401610479565b6001600160a01b03821660009081526003602052604090208054610a79906001906115b9565b81548110610a8957610a896115d0565b6000918252602090912001546001600160a01b031692915050565b60048181548110610ab457600080fd5b6000918252602090912001546001600160a01b0316905081565b60009182526001602090815260408084206001600160a01b0393909316845291905290205460ff1690565b6000546001600160a01b03163314610b235760405162461bcd60e51b8152600401610479906113fd565b6001600160a01b038216610b795760405162461bcd60e51b815260206004820152601760248201527f50726f787920436f6e74726163742072657175697265640000000000000000006044820152606401610479565b6001600160a01b038116610bbf5760405162461bcd60e51b815260206004820152600d60248201526c155cd95c881c995c5d5a5c9959609a1b6044820152606401610479565b6001600160a01b03908116600081815260036020908152604082208054600181810183559184529183209091018054959094166001600160a01b03199586161790935560048054938401815590527f8a35acfbc15ff81a39ae7d344fd709f28e8600b4aa8c65c6b64bfe7fe36bd19b9091018054909216179055565b6000808211610c845760405162461bcd60e51b815260206004820152601560248201527414d85b1d081b5d5cdd081899481c1c9bdd9a591959605a1b6044820152606401610479565b60008233604051602001610caf92919091825260601b6001600160601b031916602082015260340190565b6040516020818303038152906040528051906020012090506000610cd1610f70565b8051602091820120604080516001600160f81b0319818501523060601b6001600160601b0319166021820152603581019590955260558086019290925280518086039092018252607590940190935282519201919091209392505050565b6000546001600160a01b03163314610d595760405162461bcd60e51b8152600401610479906113fd565b600280546001600160a01b0319166001600160a01b0392909216919091179055565b60008281526001602081905260409091200154610d988133610e3a565b6107fb8383610f09565b6000546001600160a01b03163314610dcc5760405162461bcd60e51b8152600401610479906113fd565b6001600160a01b038116610e315760405162461bcd60e51b815260206004820152602660248201527f4f776e61626c653a206e6577206f776e657220697320746865207a65726f206160448201526564647265737360d01b6064820152608401610479565b61049a81610fc6565b610e448282610ace565b6108b257610e5c816001600160a01b03166014611016565b610e67836020611016565b604051602001610e789291906115e6565b60408051601f198184030181529082905262461bcd60e51b82526104799160040161165b565b610ea88282610ace565b6108b25760008281526001602081815260408084206001600160a01b0386168086529252808420805460ff19169093179092559051339285917f2f8788117e7eff1d82e926ec794901d17c78024a50270940304540a733656f0d9190a45050565b610f138282610ace565b156108b25760008281526001602090815260408083206001600160a01b0385168085529252808320805460ff1916905551339285917ff6391f5c32d9c69d2a47ea670b442974b53935d1edc7fd64eb21e047a839171b9190a45050565b6060600060405180602001610f84906111b9565b601f1982820381018352601f909101166040819052610fa6919060200161166e565b60408051601f1981840301815291905292915050565b6108b28282610e9e565b600080546001600160a01b038381166001600160a01b0319831681178455604051919092169283917f8be0079c531659141344cd1fd0a4f28419497f9722a3daafe3b4186f6b6457e09190a35050565b6060600061102583600261168a565b6110309060026116a9565b67ffffffffffffffff81111561104857611048611227565b6040519080825280601f01601f191660200182016040528015611072576020820181803683370190505b509050600360fc1b8160008151811061108d5761108d6115d0565b60200101906001600160f81b031916908160001a905350600f60fb1b816001815181106110bc576110bc6115d0565b60200101906001600160f81b031916908160001a90535060006110e084600261168a565b6110eb9060016116a9565b90505b6001811115611163576f181899199a1a9b1b9c1cb0b131b232b360811b85600f166010811061111f5761111f6115d0565b1a60f81b828281518110611135576111356115d0565b60200101906001600160f81b031916908160001a90535060049490941c9361115c816116c1565b90506110ee565b5083156111b25760405162461bcd60e51b815260206004820181905260248201527f537472696e67733a20686578206c656e67746820696e73756666696369656e746044820152606401610479565b9392505050565b611511806116d983390190565b6000602082840312156111d857600080fd5b81356001600160e01b0319811681146111b257600080fd5b80356001600160a01b038116811461120757600080fd5b919050565b60006020828403121561121e57600080fd5b6111b2826111f0565b634e487b7160e01b600052604160045260246000fd5b604051601f8201601f1916810167ffffffffffffffff8111828210171561126657611266611227565b604052919050565b600067ffffffffffffffff82111561128857611288611227565b50601f01601f191660200190565b600080600080608085870312156112ac57600080fd5b843567ffffffffffffffff80821682146112c557600080fd5b909450602086013590808211156112db57600080fd5b508501601f810187136112ed57600080fd5b80356113006112fb8261126e565b61123d565b81815288602083850101111561131557600080fd5b81602084016020830137600091810160200191909152949794965050505060408301359260600135919050565b60006020828403121561135457600080fd5b5035919050565b6000806040838503121561136e57600080fd5b8235915061137e602084016111f0565b90509250929050565b6000806040838503121561139a57600080fd5b6113a3836111f0565b946020939093013593505050565b600080604083850312156113c457600080fd5b50508035926020909101359150565b600080604083850312156113e657600080fd5b6113ef836111f0565b915061137e602084016111f0565b6020808252818101527f4f776e61626c653a2063616c6c6572206973206e6f7420746865206f776e6572604082015260600190565b60005b8381101561144d578181015183820152602001611435565b8381111561145c576000848401525b50505050565b6000815180845261147a816020860160208601611432565b601f01601f19169290920160200192915050565b6040815260006114a16040830185611462565b90508260208301529392505050565b6000602082840312156114c257600080fd5b815167ffffffffffffffff8111156114d957600080fd5b8201601f810184136114ea57600080fd5b80516114f86112fb8261126e565b81815285602083850101111561150d57600080fd5b61151e826020830160208601611432565b95945050505050565b60808152600061153a6080830187611462565b6001600160a01b0395861660208401529390941660408201526060015292915050565b67ffffffffffffffff85168152600060018060a01b0380861660208401526080604084015261158f6080840186611462565b915080841660608401525095945050505050565b634e487b7160e01b600052601160045260246000fd5b6000828210156115cb576115cb6115a3565b500390565b634e487b7160e01b600052603260045260246000fd5b7f416363657373436f6e74726f6c3a206163636f756e742000000000000000000081526000835161161e816017850160208801611432565b7001034b99036b4b9b9b4b733903937b6329607d1b601791840191820152835161164f816028840160208801611432565b01602801949350505050565b6020815260006111b26020830184611462565b60008251611680818460208701611432565b9190910192915050565b60008160001904831182151516156116a4576116a46115a3565b500290565b600082198211156116bc576116bc6115a3565b500190565b6000816116d0576116d06115a3565b50600019019056fe608060405234801561001057600080fd5b5061001a3361001f565b610071565b601180546001600160a01b038381166001600160a01b0319831681179093556040519116919082907f8be0079c531659141344cd1fd0a4f28419497f9722a3daafe3b4186f6b6457e090600090a35050565b611491806100806000396000f3fe6080604052600436106101235760003560e01c80638b18c7e3116100a0578063d2f7265a11610064578063d2f7265a14610444578063d547741f14610466578063dc5d3a1714610486578063f1ed7dc71461049c578063f2fde38b146104d65761012a565b80638b18c7e31461039f5780638da5cb5b146103bd57806391d14854146103db578063a217fddf146103fb578063cb9d9fa7146104105761012a565b80634de94320116100e75780634de94320146102ff57806365034451146103375780637003c08014610357578063715018a6146103775780637ff7e6161461038c5761012a565b806301ffc9a71461021b578063248a9ca3146102505780632f2ff15d1461028e57806336568abe146102ae578063387dd9e9146102ce5761012a565b3661012a57005b600e5462010000900460ff16158061014d57506011546001600160a01b03163314155b806101605750600e54610100900460ff16155b15610202576002546001600160a01b03166101c25760405162461bcd60e51b815260206004820152601760248201527f4c6f67696320636f6e747261637420726571756972656400000000000000000060448201526064015b60405180910390fd5b6002546040516001600160a01b039091169036600082376000803683855af43d806000843e8180156101f857600181146101fc57005b8184fd5b8184f35b005b60405163899f031560e01b815260040160405180910390fd5b34801561022757600080fd5b5061023b61023636600461103f565b6104f6565b60405190151581526020015b60405180910390f35b34801561025c57600080fd5b5061028061026b366004611069565b60009081526012602052604090206001015490565b604051908152602001610247565b34801561029a57600080fd5b506102006102a9366004611097565b61052d565b3480156102ba57600080fd5b506102006102c9366004611097565b610558565b3480156102da57600080fd5b506102ee6102e9366004611069565b6105d6565b604051610247959493929190611123565b34801561030b57600080fd5b5060025461031f906001600160a01b031681565b6040516001600160a01b039091168152602001610247565b34801561034357600080fd5b5060045461031f906001600160a01b031681565b34801561036357600080fd5b5061023b610372366004611209565b6106af565b34801561038357600080fd5b5061020061087f565b61020061039a366004611246565b6108b5565b3480156103ab57600080fd5b506002546001600160a01b031661031f565b3480156103c957600080fd5b506011546001600160a01b031661031f565b3480156103e757600080fd5b5061023b6103f6366004611097565b610b75565b34801561040757600080fd5b50610280600081565b34801561041c57600080fd5b506102807f27e3e4d29d60af3ae6456513164bb5db737d6fc8610aa36ad458736c9efb884c81565b34801561045057600080fd5b50610459610ba0565b60405161024791906112b0565b34801561047257600080fd5b50610200610481366004611097565b610c2e565b34801561049257600080fd5b5061028060015481565b3480156104a857600080fd5b506000546104bd9067ffffffffffffffff1681565b60405167ffffffffffffffff9091168152602001610247565b3480156104e257600080fd5b506102006104f13660046112c3565b610c54565b60006001600160e01b03198216637965db0b60e01b148061052757506301ffc9a760e01b6001600160e01b03198316145b92915050565b6000828152601260205260409020600101546105498133610cef565b6105538383610d53565b505050565b6001600160a01b03811633146105c85760405162461bcd60e51b815260206004820152602f60248201527f416363657373436f6e74726f6c3a2063616e206f6e6c792072656e6f756e636560448201526e103937b632b9903337b91039b2b63360891b60648201526084016101b9565b6105d28282610dd9565b5050565b601081815481106105e657600080fd5b6000918252602090912060059091020180546001820180549193509061060b906112e0565b80601f0160208091040260200160405190810160405280929190818152602001828054610637906112e0565b80156106845780601f1061065957610100808354040283529160200191610684565b820191906000526020600020905b81548152906001019060200180831161066757829003601f168201915b505050506002830154600384015460049094015492936001600160a01b039182169390821692501685565b60006106db7f27e3e4d29d60af3ae6456513164bb5db737d6fc8610aa36ad458736c9efb884c33610b75565b806106ff5750336106f46011546001600160a01b031690565b6001600160a01b0316145b6107415760405162461bcd60e51b81526020600482015260136024820152722932b9ba3934b1ba32b210233ab731ba34b7b760691b60448201526064016101b9565b815182906107885760405162461bcd60e51b8152602060048201526014602482015273115e18da185b99d9481a5cc81c995c5d5a5c995960621b60448201526064016101b9565b600480546040516001625a6fe760e11b031981526001600160a01b039091169163ff4b2032916107ba918791016112b0565b6020604051808303816000875af11580156107d9573d6000803e3d6000fd5b505050506040513d601f19601f820116820180604052508101906107fd919061131a565b600280546001600160a01b0319166001600160a01b039290921691821790556108765760405162461bcd60e51b815260206004820152602560248201527f4c6f67696320436f6e7472616374207265717569726564202d2073657445786360448201526468616e676560d81b60648201526084016101b9565b50600192915050565b6011546001600160a01b031633146108a95760405162461bcd60e51b81526004016101b990611337565b6108b36000610e40565b565b6011546001600160a01b031633146108df5760405162461bcd60e51b81526004016101b990611337565b600e54610100900460ff16151560010361090c57604051631e5d0f9d60e11b815260040160405180910390fd5b835184906109535760405162461bcd60e51b8152602060048201526014602482015273115e18da185b99d9481a5cc81c995c5d5a5c995960621b60448201526064016101b9565b6001600160a01b0384166109a95760405162461bcd60e51b815260206004820152601860248201527f426561636f6e20436f6e7472616374207265717569726564000000000000000060448201526064016101b9565b6001600160a01b0383166109f35760405162461bcd60e51b815260206004820152601160248201527013dddb995c881a5cc81c995c5d5a5c9959607a1b60448201526064016101b9565b610a0f6000610a0a6011546001600160a01b031690565b610e92565b81600114610a1e576000610a21565b60015b600e805462ff000019166201000092151592909202919091179055600480546001600160a01b0319166001600160a01b038616179055610a60856106af565b506004805460405163bf40fac160e01b81526000926001600160a01b039092169163bf40fac191610aaf910160208082526009908201526820a226a4a72aa9a2a960b91b604082015260600190565b6020604051808303816000875af1158015610ace573d6000803e3d6000fd5b505050506040513d601f19601f82011682018060405250810190610af2919061131a565b90506001600160a01b038116610b435760405162461bcd60e51b815260206004820152601660248201527510591b5a5b881859191c995cdcc81c995c5d5a5c995960521b60448201526064016101b9565b610b6d7f27e3e4d29d60af3ae6456513164bb5db737d6fc8610aa36ad458736c9efb884c82610e92565b505050505050565b60009182526012602090815260408084206001600160a01b0393909316845291905290205460ff1690565b600f8054610bad906112e0565b80601f0160208091040260200160405190810160405280929190818152602001828054610bd9906112e0565b8015610c265780601f10610bfb57610100808354040283529160200191610c26565b820191906000526020600020905b815481529060010190602001808311610c0957829003601f168201915b505050505081565b600082815260126020526040902060010154610c4a8133610cef565b6105538383610dd9565b6011546001600160a01b03163314610c7e5760405162461bcd60e51b81526004016101b990611337565b6001600160a01b038116610ce35760405162461bcd60e51b815260206004820152602660248201527f4f776e61626c653a206e6577206f776e657220697320746865207a65726f206160448201526564647265737360d01b60648201526084016101b9565b610cec81610e40565b50565b610cf98282610b75565b6105d257610d11816001600160a01b03166014610e9c565b610d1c836020610e9c565b604051602001610d2d92919061136c565b60408051601f198184030181529082905262461bcd60e51b82526101b9916004016112b0565b610d5d8282610b75565b6105d25760008281526012602090815260408083206001600160a01b03851684529091529020805460ff19166001179055610d953390565b6001600160a01b0316816001600160a01b0316837f2f8788117e7eff1d82e926ec794901d17c78024a50270940304540a733656f0d60405160405180910390a45050565b610de38282610b75565b156105d25760008281526012602090815260408083206001600160a01b0385168085529252808320805460ff1916905551339285917ff6391f5c32d9c69d2a47ea670b442974b53935d1edc7fd64eb21e047a839171b9190a45050565b601180546001600160a01b038381166001600160a01b0319831681179093556040519116919082907f8be0079c531659141344cd1fd0a4f28419497f9722a3daafe3b4186f6b6457e090600090a35050565b6105d28282610d53565b60606000610eab8360026113f7565b610eb6906002611416565b67ffffffffffffffff811115610ece57610ece611166565b6040519080825280601f01601f191660200182016040528015610ef8576020820181803683370190505b509050600360fc1b81600081518110610f1357610f1361142e565b60200101906001600160f81b031916908160001a905350600f60fb1b81600181518110610f4257610f4261142e565b60200101906001600160f81b031916908160001a9053506000610f668460026113f7565b610f71906001611416565b90505b6001811115610fe9576f181899199a1a9b1b9c1cb0b131b232b360811b85600f1660108110610fa557610fa561142e565b1a60f81b828281518110610fbb57610fbb61142e565b60200101906001600160f81b031916908160001a90535060049490941c93610fe281611444565b9050610f74565b5083156110385760405162461bcd60e51b815260206004820181905260248201527f537472696e67733a20686578206c656e67746820696e73756666696369656e7460448201526064016101b9565b9392505050565b60006020828403121561105157600080fd5b81356001600160e01b03198116811461103857600080fd5b60006020828403121561107b57600080fd5b5035919050565b6001600160a01b0381168114610cec57600080fd5b600080604083850312156110aa57600080fd5b8235915060208301356110bc81611082565b809150509250929050565b60005b838110156110e25781810151838201526020016110ca565b838111156110f1576000848401525b50505050565b6000815180845261110f8160208601602086016110c7565b601f01601f19169290920160200192915050565b85815260a06020820152600061113c60a08301876110f7565b6001600160a01b039586166040840152938516606083015250921660809092019190915292915050565b634e487b7160e01b600052604160045260246000fd5b600082601f83011261118d57600080fd5b813567ffffffffffffffff808211156111a8576111a8611166565b604051601f8301601f19908116603f011681019082821181831017156111d0576111d0611166565b816040528381528660208588010111156111e957600080fd5b836020870160208301376000602085830101528094505050505092915050565b60006020828403121561121b57600080fd5b813567ffffffffffffffff81111561123257600080fd5b61123e8482850161117c565b949350505050565b6000806000806080858703121561125c57600080fd5b843567ffffffffffffffff81111561127357600080fd5b61127f8782880161117c565b945050602085013561129081611082565b925060408501356112a081611082565b9396929550929360600135925050565b60208152600061103860208301846110f7565b6000602082840312156112d557600080fd5b813561103881611082565b600181811c908216806112f457607f821691505b60208210810361131457634e487b7160e01b600052602260045260246000fd5b50919050565b60006020828403121561132c57600080fd5b815161103881611082565b6020808252818101527f4f776e61626c653a2063616c6c6572206973206e6f7420746865206f776e6572604082015260600190565b7f416363657373436f6e74726f6c3a206163636f756e74200000000000000000008152600083516113a48160178501602088016110c7565b7001034b99036b4b9b9b4b733903937b6329607d1b60179184019182015283516113d58160288401602088016110c7565b01602801949350505050565b634e487b7160e01b600052601160045260246000fd5b6000816000190483118215151615611411576114116113e1565b500290565b60008219821115611429576114296113e1565b500190565b634e487b7160e01b600052603260045260246000fd5b600081611453576114536113e1565b50600019019056fea264697066735822122024fde97eef4477f163d2269309d29bf43f903728ce70817c01f948ee78b96b7364736f6c634300080d0033503cf060389b91af8851125bd70ce66d16d12330718b103fc7674ef6d27e70c9a2646970667358221220ad89a2b17f37e1ed388ce6435047a0aae13cf754d0b7ca73e1bcaea99154493564736f6c634300080d0033",
  "immutableReferences": {},
  "source": "//SPDX-License-Identifier: UNLICENSED\npragma solidity ^0.8.7;\nimport \"./Storage.sol\";\ninterface iApp {\n    function  initialize(uint64 _poolId, address _beacon, string memory _exchangeName, address _owner) external payable;\n}\n\ninterface prBeacon {\n    function getExchange(string memory _exchange) external returns(address);\n    function getAddress(string memory _exchange) external returns(address);\n    function getContractType(string memory _name, uint _type) external returns (string memory _contract);\n}\n\ncontract combine_proxy is Storage, Ownable, AccessControl  {\n    modifier allowAdmin() {\n        require(hasRole(HARVESTER,msg.sender) || owner() == msg.sender,\"Restricted Function\");\n        _;\n    }\n\n    error sdInitializedError();\n    error sdFunctionLocked();\n\n    receive() external payable {}\n\n    constructor () {}\n\n\n    ///@notice Initialize the proxy contract\n    ///@param _exchange the name of the exchange\n    ///@param _beacon the address of the beacon contract\n    ///@param _owner the address of the owner\n    function initialize (string memory _exchange, address _beacon, address _owner, uint _poolType) public payable onlyOwner {\n        if (_initialized == true) revert sdInitializedError();\n\n        bytes memory bExchange = bytes(_exchange);\n        require(bExchange.length > 0, \"Exchange is required\");\n        require(_beacon != address(0), \"Beacon Contract required\");\n        require(_owner != address(0), \"Owner is required\");\n        _setupRole(DEFAULT_ADMIN_ROLE,owner());\n        _shared = _poolType == 1 ? true  : false;\n        \n        beaconContract = _beacon;\n        setExchange(_exchange);\n\n        address _admin = prBeacon(beaconContract).getAddress(\"ADMINUSER\");        \n        require(_admin != address(0), \"Admin address required\");\n        _setupRole(HARVESTER, _admin);\n        // transferOwnership(_owner);\n    }\n    \n    ///@notice Sets the logic contract for the exchange\n    ///@dev Call function if logic contract gets updated\n    ///@param _exchange the name of the exchange\n    ///@return success - success or failure\n    function setExchange(string memory _exchange) public allowAdmin returns (bool success){\n        bytes memory bExchange = bytes(_exchange);\n        require(bExchange.length > 0, \"Exchange is required\");\n        logic_contract = prBeacon(beaconContract).getExchange(_exchange);\n        require(logic_contract != address(0), \"Logic Contract required - setExchange\");\n        return true;\n    }\n\n    ///@notice Gets the logic contract for the exchange\n    function getLogicContract() public view returns (address) {\n       return logic_contract;\n    }\n    \n    ///@notice logic for the proxy part of the contract, uses delegatecall to send function call to the logic contract\n    fallback () payable external {\n        if(!_shared || msg.sender != owner() || !_initialized){ \n            require(logic_contract != address(0),\"Logic contract required\");\n            address target = logic_contract;\n            \n            assembly {\n                let ptr := mload(0x40)\n                calldatacopy(ptr, 0, calldatasize())\n                let result := delegatecall(gas(), target, ptr, calldatasize(), 0, 0)\n                let size := returndatasize()\n                returndatacopy(ptr, 0, size)\n                switch result\n                case 0 { revert(ptr, size) }\n                case 1 { return(ptr, size) }\n            }\n        }\n        else{\n            revert sdFunctionLocked();\n        }\n    }\n}\n\ncontract proxyFactory is Ownable, AccessControl {\n    address public beaconContract;\n\n    mapping (address => address[]) public proxyContracts;\n    address[] public proxyContractsUsers;\n\n    event NewProxy(address proxy, address user);\n    bytes32 public constant DEPLOYER = keccak256(\"DEPLOYER\");\n\n\n    ///@notice Initialize the proxy factory contract\n    ///@param _beacon the address of the beacon contract\n    constructor (address _beacon, address _admin) {\n        require(_beacon != address(0), \"Beacon Contract required\");\n        beaconContract = _beacon;\n        _setupRole(DEPLOYER, _admin);\n    }\n\n    ///@notice Sets the address of the beacon contract\n    ///@dev call when beacon contract gets updated\n    ///@param _beaconContract the address of the beacon contract\n    function setBeacon(address _beaconContract) public onlyOwner {\n        beaconContract = _beaconContract;\n    }\n\n    ///@notice Allows admin to add an existing proxy contract to the list of proxy contracts for a user\n    ///@param _proxyContract the address of the proxy contract\n    ///@param _user the address of the user\n    function addProxy(address _proxyContract, address _user) public onlyOwner {\n        require(_proxyContract != address(0), \"Proxy Contract required\");\n        require(_user != address(0), \"User required\");\n        proxyContracts[_user].push(_proxyContract);\n        proxyContractsUsers.push(_user);\n    }\n\n    ///@notice Returns the last proxy contract created (or added) for a specific user\n    ///@param _user the address of the user\n    ///@return the address of the proxy contract\n    function getLastProxy(address _user) public view returns (address) {\n        require(_user != address(0), \"User required\");\n        return proxyContracts[_user][proxyContracts[_user].length - 1];\n    }\n    \n    ///@notice Creates a new proxy contract for a specific exchange and pool. \n    ///@dev Proxy contract is owned by calling user\n    ///@dev for Solo contracts, only one proxy contract is needed unless custom logic contract is needed\n    ///@param _pid the pool id\n    ///@param _exchange the name of the exchange\n    ///@param _poolType the type of the pool (0=solo, 1=pool)\n    ///@return the address of the proxy contract\n    function initialize(uint64  _pid, string memory _exchange, uint _poolType, uint _salt) public payable onlyOwner returns (address) {        \n        require(beaconContract != address(0), \"Beacon Contract required\");\n        require(bytes(_exchange).length > 0,\"Exchange Name cannot be empty\");\n        require(_salt > 0, \"Salt must be provided\");\n\n        string memory _contract = prBeacon(beaconContract).getContractType(_exchange,_poolType);\n\n        address proxy = deploy(_salt,_poolType);\n        proxyContracts[msg.sender].push(address(proxy));\n        proxyContractsUsers.push(msg.sender);\n        combine_proxy(payable(proxy)).initialize(_contract, beaconContract, msg.sender,_poolType);\n\n        emit NewProxy(address(proxy), msg.sender);\n\n        iApp(address(proxy)).initialize{value:msg.value}(_pid, beaconContract, _exchange,msg.sender);    \n\n        return address(proxy);\n    }\n\n    ///@notice Gets bytecode of proxyContract\n    ///@return the bytecode of the proxy contract\n    function getBytecode() private pure returns (bytes memory) {\n        bytes memory result = abi.encodePacked(type(combine_proxy).creationCode);\n        return result;\n    }\n\n    ///@notice generates an address of a new proxy contract\n    ///@dev used in front end\n    ///@param _salt the salt value for the address\n    ///@return the address of the proxy contract\n    function getAddress(uint _salt) public view returns (address)\n    {\n        require(_salt > 0, \"Salt must be provided\");\n        bytes32 newsalt = keccak256(abi.encodePacked(_salt,msg.sender));\n\n        bytes memory bytecode = getBytecode();\n        bytes32 hash = keccak256(\n            abi.encodePacked(bytes1(0xff), address(this), newsalt, keccak256(bytecode))\n        );\n\n        return address(uint160(uint(hash)));\n    }    \n\n    ///@notice adds new user to administrator role\n    ///@param _user the address of the user\n\n    function addAdmin(address _user) public onlyOwner {\n        _setupRole(DEPLOYER, _user);\n    }\n\n    ///@notice removes user from administrator role\n    ///@param _user the address of the user\n    function removeAdmin(address _user) public onlyOwner {\n        revokeRole(DEPLOYER, _user);\n    }\n\n    ///@notice deploys bytecode of proxy contract\n    ///@param _salt salt value for the address\n    ///@return addr the address of the proxy contract\n    ///@dev Public Payable becuase solo contracts can create contract with value\n    ///@dev Pooled contracts can only be created by deployer\n    function deploy(uint _salt,uint _poolType) public payable returns (address addr){\n        require(_poolType == 0 || (_poolType == 1 && hasRole(DEPLOYER,msg.sender)),\"Restricted Function\");\n\n        bytes32 newsalt = keccak256(abi.encodePacked(_salt,msg.sender));\n        bytes memory bytecode = getBytecode();\n\n        assembly {\n            addr := create2(\n                0, \n                add(bytecode, 0x20),\n                mload(bytecode),\n                newsalt\n            )\n\n            if iszero(extcodesize(addr)) {\n                revert(0, 0)\n            }\n        }\n    }    \n}\n",
  "sourcePath": "/mnt/src/crypto/combine_sol/contracts/combine_proxy.sol",
  "compiler": {
    "name": "solc",
    "version": "0.8.13+commit.abaa5c0e.Emscripten.clang"
  },
  "schemaVersion": "3.4.3",
  "updatedAt": "2022-04-21T18:27:10.279Z",
  "devdoc": {
    "kind": "dev",
    "methods": {
      "addAdmin(address)": {
        "params": {
          "_user": "the address of the user"
        }
      },
      "addProxy(address,address)": {
        "params": {
          "_proxyContract": "the address of the proxy contract",
          "_user": "the address of the user"
        }
      },
      "constructor": {
        "params": {
          "_beacon": "the address of the beacon contract"
        }
      },
      "deploy(uint256,uint256)": {
        "details": "Public Payable becuase solo contracts can create contract with valuePooled contracts can only be created by deployer",
        "params": {
          "_salt": "salt value for the address"
        },
        "returns": {
          "addr": "the address of the proxy contract"
        }
      },
      "getAddress(uint256)": {
        "details": "used in front end",
        "params": {
          "_salt": "the salt value for the address"
        },
        "returns": {
          "_0": "the address of the proxy contract"
        }
      },
      "getLastProxy(address)": {
        "params": {
          "_user": "the address of the user"
        },
        "returns": {
          "_0": "the address of the proxy contract"
        }
      },
      "getRoleAdmin(bytes32)": {
        "details": "Returns the admin role that controls `role`. See {grantRole} and {revokeRole}. To change a role's admin, use {_setRoleAdmin}."
      },
      "grantRole(bytes32,address)": {
        "details": "Grants `role` to `account`. If `account` had not been already granted `role`, emits a {RoleGranted} event. Requirements: - the caller must have ``role``'s admin role."
      },
      "hasRole(bytes32,address)": {
        "details": "Returns `true` if `account` has been granted `role`."
      },
      "initialize(uint64,string,uint256,uint256)": {
        "details": "Proxy contract is owned by calling userfor Solo contracts, only one proxy contract is needed unless custom logic contract is needed",
        "params": {
          "_exchange": "the name of the exchange",
          "_pid": "the pool id",
          "_poolType": "the type of the pool (0=solo, 1=pool)"
        },
        "returns": {
          "_0": "the address of the proxy contract"
        }
      },
      "owner()": {
        "details": "Returns the address of the current owner."
      },
      "removeAdmin(address)": {
        "params": {
          "_user": "the address of the user"
        }
      },
      "renounceOwnership()": {
        "details": "Leaves the contract without owner. It will not be possible to call `onlyOwner` functions anymore. Can only be called by the current owner. NOTE: Renouncing ownership will leave the contract without an owner, thereby removing any functionality that is only available to the owner."
      },
      "renounceRole(bytes32,address)": {
        "details": "Revokes `role` from the calling account. Roles are often managed via {grantRole} and {revokeRole}: this function's purpose is to provide a mechanism for accounts to lose their privileges if they are compromised (such as when a trusted device is misplaced). If the calling account had been granted `role`, emits a {RoleRevoked} event. Requirements: - the caller must be `account`."
      },
      "revokeRole(bytes32,address)": {
        "details": "Revokes `role` from `account`. If `account` had been granted `role`, emits a {RoleRevoked} event. Requirements: - the caller must have ``role``'s admin role."
      },
      "setBeacon(address)": {
        "details": "call when beacon contract gets updated",
        "params": {
          "_beaconContract": "the address of the beacon contract"
        }
      },
      "supportsInterface(bytes4)": {
        "details": "See {IERC165-supportsInterface}."
      },
      "transferOwnership(address)": {
        "details": "Transfers ownership of the contract to a new account (`newOwner`). Can only be called by the current owner."
      }
    },
    "version": 1
  },
  "userdoc": {
    "kind": "user",
    "methods": {
      "addAdmin(address)": {
        "notice": "adds new user to administrator role"
      },
      "addProxy(address,address)": {
        "notice": "Allows admin to add an existing proxy contract to the list of proxy contracts for a user"
      },
      "constructor": {
        "notice": "Initialize the proxy factory contract"
      },
      "deploy(uint256,uint256)": {
        "notice": "deploys bytecode of proxy contract"
      },
      "getAddress(uint256)": {
        "notice": "generates an address of a new proxy contract"
      },
      "getLastProxy(address)": {
        "notice": "Returns the last proxy contract created (or added) for a specific user"
      },
      "initialize(uint64,string,uint256,uint256)": {
        "notice": "Creates a new proxy contract for a specific exchange and pool. "
      },
      "removeAdmin(address)": {
        "notice": "removes user from administrator role"
      },
      "setBeacon(address)": {
        "notice": "Sets the address of the beacon contract"
      }
    },
    "version": 1
  }
}