{
  "contractName": "Storage",
  "abi": [
    {
      "inputs": [],
      "name": "HARVESTER",
      "outputs": [
        {
          "internalType": "bytes32",
          "name": "",
          "type": "bytes32"
        }
      ],
      "stateMutability": "view",
      "type": "function"
    },
    {
      "inputs": [],
      "name": "beaconContract",
      "outputs": [
        {
          "internalType": "address",
          "name": "",
          "type": "address"
        }
      ],
      "stateMutability": "view",
      "type": "function"
    },
    {
      "inputs": [],
      "name": "exchange",
      "outputs": [
        {
          "internalType": "string",
          "name": "",
          "type": "string"
        }
      ],
      "stateMutability": "view",
      "type": "function"
    },
    {
      "inputs": [],
      "name": "holdBack",
      "outputs": [
        {
          "internalType": "uint64",
          "name": "",
          "type": "uint64"
        }
      ],
      "stateMutability": "view",
      "type": "function"
    },
    {
      "inputs": [],
      "name": "lastGas",
      "outputs": [
        {
          "internalType": "uint256",
          "name": "",
          "type": "uint256"
        }
      ],
      "stateMutability": "view",
      "type": "function"
    },
    {
      "inputs": [],
      "name": "logic_contract",
      "outputs": [
        {
          "internalType": "address",
          "name": "",
          "type": "address"
        }
      ],
      "stateMutability": "view",
      "type": "function"
    },
    {
      "inputs": [
        {
          "internalType": "uint256",
          "name": "",
          "type": "uint256"
        }
      ],
      "name": "slots",
      "outputs": [
        {
          "internalType": "uint256",
          "name": "poolId",
          "type": "uint256"
        },
        {
          "internalType": "string",
          "name": "exchangeName",
          "type": "string"
        },
        {
          "internalType": "address",
          "name": "lpContract",
          "type": "address"
        },
        {
          "internalType": "address",
          "name": "token0",
          "type": "address"
        },
        {
          "internalType": "address",
          "name": "token1",
          "type": "address"
        }
      ],
      "stateMutability": "view",
      "type": "function"
    }
  ],
  "bytecode": "0x60806040526000600d60006101000a81548160ff0219169083151502179055506000600d60016101000a81548160ff02191690831515021790555034801561004657600080fd5b506106c0806100566000396000f3fe608060405234801561001057600080fd5b506004361061007d5760003560e01c8063cb9d9fa71161005b578063cb9d9fa7146100f2578063d2f7265a14610110578063dc5d3a171461012e578063f1ed7dc71461014c5761007d565b8063387dd9e9146100825780634de94320146100b657806365034451146100d4575b600080fd5b61009c600480360381019061009791906103ef565b61016a565b6040516100ad959493929190610505565b60405180910390f35b6100be610298565b6040516100cb919061055f565b60405180910390f35b6100dc6102be565b6040516100e9919061055f565b60405180910390f35b6100fa6102e4565b6040516101079190610593565b60405180910390f35b610118610308565b60405161012591906105ae565b60405180910390f35b610136610396565b60405161014391906105d0565b60405180910390f35b61015461039c565b604051610161919061060e565b60405180910390f35b600f818154811061017a57600080fd5b90600052602060002090600502016000915090508060000154908060010180546101a390610658565b80601f01602080910402602001604051908101604052809291908181526020018280546101cf90610658565b801561021c5780601f106101f15761010080835404028352916020019161021c565b820191906000526020600020905b8154815290600101906020018083116101ff57829003601f168201915b5050505050908060020160009054906101000a900473ffffffffffffffffffffffffffffffffffffffff16908060030160009054906101000a900473ffffffffffffffffffffffffffffffffffffffff16908060040160009054906101000a900473ffffffffffffffffffffffffffffffffffffffff16905085565b600260009054906101000a900473ffffffffffffffffffffffffffffffffffffffff1681565b600460009054906101000a900473ffffffffffffffffffffffffffffffffffffffff1681565b7f27e3e4d29d60af3ae6456513164bb5db737d6fc8610aa36ad458736c9efb884c81565b600e805461031590610658565b80601f016020809104026020016040519081016040528092919081815260200182805461034190610658565b801561038e5780601f106103635761010080835404028352916020019161038e565b820191906000526020600020905b81548152906001019060200180831161037157829003601f168201915b505050505081565b60015481565b60008054906101000a900467ffffffffffffffff1681565b600080fd5b6000819050919050565b6103cc816103b9565b81146103d757600080fd5b50565b6000813590506103e9816103c3565b92915050565b600060208284031215610405576104046103b4565b5b6000610413848285016103da565b91505092915050565b610425816103b9565b82525050565b600081519050919050565b600082825260208201905092915050565b60005b8381101561046557808201518184015260208101905061044a565b83811115610474576000848401525b50505050565b6000601f19601f8301169050919050565b60006104968261042b565b6104a08185610436565b93506104b0818560208601610447565b6104b98161047a565b840191505092915050565b600073ffffffffffffffffffffffffffffffffffffffff82169050919050565b60006104ef826104c4565b9050919050565b6104ff816104e4565b82525050565b600060a08201905061051a600083018861041c565b818103602083015261052c818761048b565b905061053b60408301866104f6565b61054860608301856104f6565b61055560808301846104f6565b9695505050505050565b600060208201905061057460008301846104f6565b92915050565b6000819050919050565b61058d8161057a565b82525050565b60006020820190506105a86000830184610584565b92915050565b600060208201905081810360008301526105c8818461048b565b905092915050565b60006020820190506105e5600083018461041c565b92915050565b600067ffffffffffffffff82169050919050565b610608816105eb565b82525050565b600060208201905061062360008301846105ff565b92915050565b7f4e487b7100000000000000000000000000000000000000000000000000000000600052602260045260246000fd5b6000600282049050600182168061067057607f821691505b6020821081141561068457610683610629565b5b5091905056fea2646970667358221220329377d383da4b0be4bcc4dd271b4599c5eb4acbb3b32880a7aac84a3f88ec5a64736f6c634300080c0033",
  "immutableReferences": {},
  "source": "//SPDX-License-Identifier: UNLICENSED\npragma solidity ^0.8.7;\nimport \"@openzeppelin/contracts/access/Ownable.sol\";\nimport \"@openzeppelin/contracts/access/AccessControl.sol\";\n\nimport \"./utils/slots.sol\";\n\ncontract Storage {\n    uint64 public holdBack;\n    uint256 public lastGas;\n    uint256 constant MAX_INT = type(uint).max;\n    \n    address constant WBNB_ADDR = 0xbb4CdB9CBd36B01bD1cBaEBF2De08d9173bc095c;\n    address public logic_contract;\n    address internal feeCollector;\n    address public beaconContract;\n    \n    iBeacon.sExchangeInfo exchangeInfo;\n\n\n    bool _locked = false;\n    bool _initialized = false;\n\n    bytes32 public constant HARVESTER = keccak256(\"HARVESTER\");\n\n    string public exchange;    \n    //New Variables after this only\n\n    slotsLib.slotStorage[] public slots;\n}\n",
  "sourcePath": "/mnt/src/crypto/combine_sol/contracts/Storage.sol",
  "compiler": {
    "name": "solc",
    "version": "0.8.12+commit.f00d7308.Emscripten.clang"
  },
  "schemaVersion": "3.4.3",
  "updatedAt": "2022-03-14T20:01:59.159Z",
  "devdoc": {
    "kind": "dev",
    "methods": {},
    "version": 1
  },
  "userdoc": {
    "kind": "user",
    "methods": {},
    "version": 1
  }
}