{
  "contractName": "Storage",
  "abi": [
    {
      "inputs": [],
      "name": "HARVESTER",
      "outputs": [
        {
          "internalType": "bytes32",
          "name": "",
          "type": "bytes32"
        }
      ],
      "stateMutability": "view",
      "type": "function"
    },
    {
      "inputs": [],
      "name": "beaconContract",
      "outputs": [
        {
          "internalType": "address",
          "name": "",
          "type": "address"
        }
      ],
      "stateMutability": "view",
      "type": "function"
    },
    {
      "inputs": [],
      "name": "exchange",
      "outputs": [
        {
          "internalType": "string",
          "name": "",
          "type": "string"
        }
      ],
      "stateMutability": "view",
      "type": "function"
    },
    {
      "inputs": [],
      "name": "holdBack",
      "outputs": [
        {
          "internalType": "uint64",
          "name": "",
          "type": "uint64"
        }
      ],
      "stateMutability": "view",
      "type": "function"
    },
    {
      "inputs": [],
      "name": "lastGas",
      "outputs": [
        {
          "internalType": "uint256",
          "name": "",
          "type": "uint256"
        }
      ],
      "stateMutability": "view",
      "type": "function"
    },
    {
      "inputs": [],
      "name": "logic_contract",
      "outputs": [
        {
          "internalType": "address",
          "name": "",
          "type": "address"
        }
      ],
      "stateMutability": "view",
      "type": "function"
    },
    {
      "inputs": [
        {
          "internalType": "uint256",
          "name": "",
          "type": "uint256"
        }
      ],
      "name": "slots",
      "outputs": [
        {
          "internalType": "uint256",
          "name": "poolId",
          "type": "uint256"
        },
        {
          "internalType": "string",
          "name": "exchangeName",
          "type": "string"
        },
        {
          "internalType": "address",
          "name": "lpContract",
          "type": "address"
        },
        {
          "internalType": "address",
          "name": "token0",
          "type": "address"
        },
        {
          "internalType": "address",
          "name": "token1",
          "type": "address"
        }
      ],
      "stateMutability": "view",
      "type": "function"
    }
  ],
  "bytecode": "0x608060405234801561001057600080fd5b50610407806100206000396000f3fe608060405234801561001057600080fd5b506004361061007d5760003560e01c8063cb9d9fa71161005b578063cb9d9fa7146100ed578063d2f7265a14610122578063dc5d3a1714610137578063f1ed7dc71461014057600080fd5b8063387dd9e9146100825780634de94320146100af57806365034451146100da575b600080fd5b6100956100903660046102d4565b61016d565b6040516100a695949392919061033a565b60405180910390f35b6002546100c2906001600160a01b031681565b6040516001600160a01b0390911681526020016100a6565b6004546100c2906001600160a01b031681565b6101147f27e3e4d29d60af3ae6456513164bb5db737d6fc8610aa36ad458736c9efb884c81565b6040519081526020016100a6565b61012a610246565b6040516100a6919061037d565b61011460015481565b6000546101549067ffffffffffffffff1681565b60405167ffffffffffffffff90911681526020016100a6565b6010818154811061017d57600080fd5b600091825260209091206005909102018054600182018054919350906101a290610397565b80601f01602080910402602001604051908101604052809291908181526020018280546101ce90610397565b801561021b5780601f106101f05761010080835404028352916020019161021b565b820191906000526020600020905b8154815290600101906020018083116101fe57829003601f168201915b505050506002830154600384015460049094015492936001600160a01b039182169390821692501685565b600f805461025390610397565b80601f016020809104026020016040519081016040528092919081815260200182805461027f90610397565b80156102cc5780601f106102a1576101008083540402835291602001916102cc565b820191906000526020600020905b8154815290600101906020018083116102af57829003601f168201915b505050505081565b6000602082840312156102e657600080fd5b5035919050565b6000815180845260005b81811015610313576020818501810151868301820152016102f7565b81811115610325576000602083870101525b50601f01601f19169290920160200192915050565b85815260a06020820152600061035360a08301876102ed565b6001600160a01b039586166040840152938516606083015250921660809092019190915292915050565b60208152600061039060208301846102ed565b9392505050565b600181811c908216806103ab57607f821691505b6020821081036103cb57634e487b7160e01b600052602260045260246000fd5b5091905056fea264697066735822122085641f0dca35b6f667f3921fdb72757b3a7eefead466c2716825834e2046337d64736f6c634300080d0033",
  "immutableReferences": {},
  "source": "//SPDX-License-Identifier: UNLICENSED\npragma solidity ^0.8.7;\nimport \"@openzeppelin/contracts/access/Ownable.sol\";\nimport \"@openzeppelin/contracts/access/AccessControl.sol\";\n\nimport \"./utils/slots.sol\";\n\ncontract Storage {\n    uint64 public holdBack;\n    uint256 public lastGas;\n    address public logic_contract;\n    address internal feeCollector;\n    address public beaconContract;\n    \n    iBeacon.sExchangeInfo exchangeInfo;\n\n\n    bool internal _locked;\n    bool internal _initialized;\n    bool _shared;\n\n    bytes32 public constant HARVESTER = keccak256(\"HARVESTER\");\n\n    string public exchange;    \n    //New Variables after this only\n\n    slotsLib.slotStorage[] public slots;\n}\n",
  "sourcePath": "/mnt/src/crypto/combine_sol/contracts/Storage.sol",
  "compiler": {
    "name": "solc",
    "version": "0.8.13+commit.abaa5c0e.Emscripten.clang"
  },
  "schemaVersion": "3.4.3",
  "updatedAt": "2022-04-21T18:27:09.175Z",
  "devdoc": {
    "kind": "dev",
    "methods": {},
    "version": 1
  },
  "userdoc": {
    "kind": "user",
    "methods": {},
    "version": 1
  }
}